{
	"data": {
		"bytecode": {
			"linkReferences": {
				"contracts/LSP8CollectionMinter.sol": {
					"LSP8CollectionMinter": [
						{
							"length": 20,
							"start": 10647
						}
					]
				}
			},
			"object": "608060405234801562000010575f80fd5b50604051620069e7380380620069e78339818101604052810190620000369190620008d3565b85858585600284848484815f73ffffffffffffffffffffffffffffffffffffffff168173ffffffffffffffffffffffffffffffffffffffff1603620000a7576040517f1ad8836c00000000000000000000000000000000000000000000000000000000815260040160405180910390fd5b620000b8816200028460201b60201c565b50620001227feafec4d89fa9619884b60000a4d96624a38f7ac2d8d9a604ecf07c12c77e480c5f1b6040518060400160405280600481526020017fa4d96624000000000000000000000000000000000000000000000000000000008152506200038360201b60201c565b620001567fdeba1e292f8ba88238e10ab3c7f88bd4be4fac56cad5194b6ecceaf653468af15f1b856200038360201b60201c565b6200018a7f2f0a68ab07768e01943a599e73362a0e17a63a72e94dd2e384d2c1d4db9327565f1b846200038360201b60201c565b620001df7fe0261fa95db2eb3b5439bd033cda66d56b96f92f243a8228fd87550ed7bdfdb35f1b82604051602001620001c49190620009d9565b6040516020818303038152906040526200038360201b60201c565b50505050620002387ff675e9361af1c1664c1868cfa3eb97672d6b1a513aa5b81dec34c9ee330e818d5f1b826040516020016200021d9190620009d9565b604051602081830303815290604052620003e260201b60201c565b5050505050620002717f9afb95cacc9f95858ec44aa8c3b685511002e30ae54415823f406128b85b238e5f1b83620003f860201b60201c565b8060078190555050505050505062000d78565b620002946200046a60201b60201c565b73ffffffffffffffffffffffffffffffffffffffff168173ffffffffffffffffffffffffffffffffffffffff161462000380578073ffffffffffffffffffffffffffffffffffffffff165f8054906101000a900473ffffffffffffffffffffffffffffffffffffffff1673ffffffffffffffffffffffffffffffffffffffff167f8be0079c531659141344cd1fd0a4f28419497f9722a3daafe3b4186f6b6457e060405160405180910390a3805f806101000a81548173ffffffffffffffffffffffffffffffffffffffff021916908373ffffffffffffffffffffffffffffffffffffffff1602179055505b50565b8060015f8481526020019081526020015f209081620003a3919062000c22565b50817fece574603820d07bc9b91f2a932baadf4628aabcb8afba49776529c14a6104b282604051620003d6919062000d56565b60405180910390a25050565b620003f482826200049160201b60201c565b5050565b7ff675e9361af1c1664c1868cfa3eb97672d6b1a513aa5b81dec34c9ee330e818d5f1b820362000454576040517f3664800a00000000000000000000000000000000000000000000000000000000815260040160405180910390fd5b620004668282620003e260201b60201c565b5050565b5f805f9054906101000a900473ffffffffffffffffffffffffffffffffffffffff16905090565b7fdeba1e292f8ba88238e10ab3c7f88bd4be4fac56cad5194b6ecceaf653468af15f1b8203620004ed576040517f85c169bd00000000000000000000000000000000000000000000000000000000815260040160405180910390fd5b7f2f0a68ab07768e01943a599e73362a0e17a63a72e94dd2e384d2c1d4db9327565f1b820362000549576040517f76755b3800000000000000000000000000000000000000000000000000000000815260040160405180910390fd5b7fe0261fa95db2eb3b5439bd033cda66d56b96f92f243a8228fd87550ed7bdfdb35f1b8203620005a5576040517f4ef6d7fb00000000000000000000000000000000000000000000000000000000815260040160405180910390fd5b8060015f8481526020019081526020015f209081620005c5919062000c22565b50817fece574603820d07bc9b91f2a932baadf4628aabcb8afba49776529c14a6104b282604051620005f8919062000d56565b60405180910390a25050565b5f604051905090565b5f80fd5b5f80fd5b5f80fd5b5f80fd5b5f601f19601f8301169050919050565b7f4e487b71000000000000000000000000000000000000000000000000000000005f52604160045260245ffd5b62000665826200061d565b810181811067ffffffffffffffff821117156200068757620006866200062d565b5b80604052505050565b5f6200069b62000604565b9050620006a982826200065a565b919050565b5f67ffffffffffffffff821115620006cb57620006ca6200062d565b5b620006d6826200061d565b9050602081019050919050565b5f5b8381101562000702578082015181840152602081019050620006e5565b5f8484015250505050565b5f620007236200071d84620006ae565b62000690565b90508281526020810184848401111562000742576200074162000619565b5b6200074f848285620006e3565b509392505050565b5f82601f8301126200076e576200076d62000615565b5b8151620007808482602086016200070d565b91505092915050565b5f73ffffffffffffffffffffffffffffffffffffffff82169050919050565b5f620007b48262000789565b9050919050565b620007c681620007a8565b8114620007d1575f80fd5b50565b5f81519050620007e481620007bb565b92915050565b5f819050919050565b620007fe81620007ea565b811462000809575f80fd5b50565b5f815190506200081c81620007f3565b92915050565b5f67ffffffffffffffff8211156200083f576200083e6200062d565b5b6200084a826200061d565b9050602081019050919050565b5f6200086d620008678462000822565b62000690565b9050828152602081018484840111156200088c576200088b62000619565b5b62000899848285620006e3565b509392505050565b5f82601f830112620008b857620008b762000615565b5b8151620008ca84826020860162000857565b91505092915050565b5f805f805f8060c08789031215620008f057620008ef6200060d565b5b5f87015167ffffffffffffffff81111562000910576200090f62000611565b5b6200091e89828a0162000757565b965050602087015167ffffffffffffffff81111562000942576200094162000611565b5b6200095089828a0162000757565b95505060406200096389828a01620007d4565b94505060606200097689828a016200080c565b935050608087015167ffffffffffffffff8111156200099a576200099962000611565b5b620009a889828a01620008a1565b92505060a0620009bb89828a016200080c565b9150509295509295509295565b620009d381620007ea565b82525050565b5f602082019050620009ee5f830184620009c8565b92915050565b5f81519050919050565b7f4e487b71000000000000000000000000000000000000000000000000000000005f52602260045260245ffd5b5f600282049050600182168062000a4357607f821691505b60208210810362000a595762000a58620009fe565b5b50919050565b5f819050815f5260205f209050919050565b5f6020601f8301049050919050565b5f82821b905092915050565b5f6008830262000abd7fffffffffffffffffffffffffffffffffffffffffffffffffffffffffffffffff8262000a80565b62000ac9868362000a80565b95508019841693508086168417925050509392505050565b5f819050919050565b5f62000b0a62000b0462000afe84620007ea565b62000ae1565b620007ea565b9050919050565b5f819050919050565b62000b258362000aea565b62000b3d62000b348262000b11565b84845462000a8c565b825550505050565b5f90565b62000b5362000b45565b62000b6081848462000b1a565b505050565b5b8181101562000b875762000b7b5f8262000b49565b60018101905062000b66565b5050565b601f82111562000bd65762000ba08162000a5f565b62000bab8462000a71565b8101602085101562000bbb578190505b62000bd362000bca8562000a71565b83018262000b65565b50505b505050565b5f82821c905092915050565b5f62000bf85f198460080262000bdb565b1980831691505092915050565b5f62000c12838362000be7565b9150826002028217905092915050565b62000c2d82620009f4565b67ffffffffffffffff81111562000c495762000c486200062d565b5b62000c55825462000a2b565b62000c6282828562000b8b565b5f60209050601f83116001811462000c98575f841562000c83578287015190505b62000c8f858262000c05565b86555062000cfe565b601f19841662000ca88662000a5f565b5f5b8281101562000cd15784890151825560018201915060208501945060208101905062000caa565b8683101562000cf1578489015162000ced601f89168262000be7565b8355505b6001600288020188555050505b505050505050565b5f82825260208201905092915050565b5f62000d2282620009f4565b62000d2e818562000d06565b935062000d40818560208601620006e3565b62000d4b816200061d565b840191505092915050565b5f6020820190508181035f83015262000d70818462000d16565b905092915050565b615c618062000d865f395ff3fe608060405260043610610233575f3560e01c8063715018a61161012d578063a8a65a78116100aa578063db8c96631161006e578063db8c9663146109ba578063dedff9c6146109e2578063f08e076d14610a1e578063f2fde38b14610a5a578063f7b2a7be14610a82576102ac565b8063a8a65a78146108dc578063be9f0e6f14610904578063c458d2af1461092c578063d54488fe14610956578063d6c1407c14610992576102ac565b80638da5cb5b116100f15780638da5cb5b146107f657806392e18c4a146108205780639790242114610848578063a183177a14610864578063a3b261f2146108a0576102ac565b8063715018a61461074c5780637aad1f7d146107625780637e87632c1461078a5780637f23690c146107b257806386a10ddd146107ce576102ac565b80632a3654a4116101bb5780635283c4801161017f5780635283c4801461062057806354f6127f1461065c5780635acc786e146106985780636963d438146106d457806370a0823114610710576102ac565b80632a3654a4146105085780633a22694b1461054457806349a6078d146105805780634b74a1f1146105bc578063511b6952146105f8576102ac565b80630c590f51116102025780630c590f51146103ee57806316e023b31461042a57806318160ddd146104665780631d26fce614610490578063217b2270146104cc576102ac565b8063013eba921461031257806301ffc9a71461034e578063073c96951461038a578063075bf131146103b2576102ac565b366102ac575f340361027a576040517fe5099ee3000000000000000000000000000000000000000000000000000000008152600401610271906139a9565b60405180910390fd5b6040517f61f4944200000000000000000000000000000000000000000000000000000000815260040160405180910390fd5b5f36606060045f36905010156102fb5782826040517fe5099ee30000000000000000000000000000000000000000000000000000000081526004016102f2929190613a11565b60405180910390fd5b6103058383610aac565b9050915050805190602001f35b34801561031d575f80fd5b5061033860048036038101906103339190613a9e565b610c22565b6040516103459190613ae1565b60405180910390f35b348015610359575f80fd5b50610374600480360381019061036f9190613b4f565b610c37565b6040516103819190613b94565b60405180910390f35b348015610395575f80fd5b506103b060048036038101906103ab9190613d28565b610ca7565b005b3480156103bd575f80fd5b506103d860048036038101906103d39190613a9e565b610dcd565b6040516103e59190613e12565b60405180910390f35b3480156103f9575f80fd5b50610414600480360381019061040f9190613a9e565b610e68565b6040516104219190613ae1565b60405180910390f35b348015610435575f80fd5b50610450600480360381019061044b9190613e32565b610eae565b60405161045d9190613e12565b60405180910390f35b348015610471575f80fd5b5061047a610ec2565b6040516104879190613ae1565b60405180910390f35b34801561049b575f80fd5b506104b660048036038101906104b19190613f34565b610ecb565b6040516104c391906140ad565b60405180910390f35b3480156104d7575f80fd5b506104f260048036038101906104ed91906140cd565b610fd2565b6040516104ff9190614107565b60405180910390f35b348015610513575f80fd5b5061052e60048036038101906105299190614120565b611080565b60405161053b9190613b94565b60405180910390f35b34801561054f575f80fd5b5061056a600480360381019061056591906140cd565b611093565b6040516105779190613ae1565b60405180910390f35b34801561058b575f80fd5b506105a660048036038101906105a191906140cd565b61111c565b6040516105b39190614215565b60405180910390f35b3480156105c7575f80fd5b506105e260048036038101906105dd9190613a9e565b611147565b6040516105ef9190613e12565b60405180910390f35b348015610603575f80fd5b5061061e6004803603810190610619919061425f565b611214565b005b34801561062b575f80fd5b50610646600480360381019061064191906142f2565b611275565b6040516106539190613b94565b60405180910390f35b348015610667575f80fd5b50610682600480360381019061067d91906140cd565b61129f565b60405161068f9190613e12565b60405180910390f35b3480156106a3575f80fd5b506106be60048036038101906106b99190614330565b6112b1565b6040516106cb9190614107565b60405180910390f35b3480156106df575f80fd5b506106fa60048036038101906106f591906143c7565b6112f9565b60405161070791906140ad565b60405180910390f35b34801561071b575f80fd5b5061073660048036038101906107319190613a9e565b61146f565b6040516107439190613ae1565b60405180910390f35b348015610757575f80fd5b506107606114bc565b005b34801561076d575f80fd5b50610788600480360381019061078391906140cd565b6114cf565b005b348015610795575f80fd5b506107b060048036038101906107ab9190614670565b611682565b005b6107cc60048036038101906107c79190614773565b611794565b005b3480156107d9575f80fd5b506107f460048036038101906107ef91906147cd565b6117e3565b005b348015610801575f80fd5b5061080a611a39565b6040516108179190614107565b60405180910390f35b34801561082b575f80fd5b5061084660048036038101906108419190614839565b611a60565b005b610862600480360381019061085d9190614893565b611aaf565b005b34801561086f575f80fd5b5061088a600480360381019061088591906149a7565b611bbe565b6040516108979190614107565b60405180910390f35b3480156108ab575f80fd5b506108c660048036038101906108c19190613a9e565b611dcb565b6040516108d39190614b6b565b60405180910390f35b3480156108e7575f80fd5b5061090260048036038101906108fd9190614b8b565b611e19565b005b34801561090f575f80fd5b5061092a60048036038101906109259190614bb6565b611e2b565b005b348015610937575f80fd5b50610940611f2c565b60405161094d9190613ae1565b60405180910390f35b348015610961575f80fd5b5061097c600480360381019061097791906140cd565b611f32565b6040516109899190614215565b60405180910390f35b34801561099d575f80fd5b506109b860048036038101906109b39190614c5a565b611fce565b005b3480156109c5575f80fd5b506109e060048036038101906109db9190614cc6565b611fe6565b005b3480156109ed575f80fd5b50610a086004803603810190610a039190614d46565b6121b3565b604051610a1591906140ad565b60405180910390f35b348015610a29575f80fd5b50610a446004803603810190610a3f9190613a9e565b612263565b604051610a519190613ae1565b60405180910390f35b348015610a65575f80fd5b50610a806004803603810190610a7b9190613a9e565b612278565b005b348015610a8d575f80fd5b50610a966122f1565b604051610aa39190613ae1565b60405180910390f35b60605f610adb5f357fffffffff00000000000000000000000000000000000000000000000000000000166122f7565b5090505f73ffffffffffffffffffffffffffffffffffffffff168173ffffffffffffffffffffffffffffffffffffffff1603610b71575f357fffffffff00000000000000000000000000000000000000000000000000000000166040517fbb370b2b000000000000000000000000000000000000000000000000000000008152600401610b689190614d9c565b60405180910390fd5b5f808273ffffffffffffffffffffffffffffffffffffffff163487873334604051602001610ba29493929190614e48565b604051602081830303815290604052604051610bbe9190614eb2565b5f6040518083038185875af1925050503d805f8114610bf8576040519150601f19603f3d011682016040523d82523d5f602084013e610bfd565b606091505b50915091508115610c1357809350505050610c1c565b80518060208301fd5b92915050565b6009602052805f5260405f205f915090505481565b5f633a27170660e01b7bffffffffffffffffffffffffffffffffffffffffffffffffffffffff1916827bffffffffffffffffffffffffffffffffffffffffffffffffffffffff19161480610c905750610c8f826123ad565b5b80610ca05750610c9f8261240d565b5b9050919050565b5f8211610ce9576040517f08c379a0000000000000000000000000000000000000000000000000000000008152600401610ce090614f22565b60405180910390fd5b5f845f1c90508073ffffffffffffffffffffffffffffffffffffffff1663760d9bba3386866001876040518663ffffffff1660e01b8152600401610d31959493929190614f40565b5f604051808303815f87803b158015610d48575f80fd5b505af1158015610d5a573d5f803e3d5ffd5b50505050848473ffffffffffffffffffffffffffffffffffffffff163373ffffffffffffffffffffffffffffffffffffffff167f16f28f036659cc50493268cf426453374d9f751a0940dc150e214371e2bd1bdb8686604051610dbe929190614f98565b60405180910390a45050505050565b600d602052805f5260405f205f915090508054610de990614ff3565b80601f0160208091040260200160405190810160405280929190818152602001828054610e1590614ff3565b8015610e605780601f10610e3757610100808354040283529160200191610e60565b820191905f5260205f20905b815481529060010190602001808311610e4357829003601f168201915b505050505081565b5f600a5f8373ffffffffffffffffffffffffffffffffffffffff1673ffffffffffffffffffffffffffffffffffffffff1681526020019081526020015f20549050919050565b6060610eba8383612471565b905092915050565b5f600254905090565b60608151835114610f08576040517f2fa71dfe00000000000000000000000000000000000000000000000000000000815260040160405180910390fd5b825167ffffffffffffffff811115610f2357610f22613c12565b5b604051908082528060200260200182016040528015610f5657816020015b6060815260200190600190039081610f415790505b5090505f5b8351811015610fcb57610fa2848281518110610f7a57610f79615023565b5b6020026020010151848381518110610f9557610f94615023565b5b6020026020010151612471565b828281518110610fb557610fb4615023565b5b6020026020010181905250806001019050610f5b565b5092915050565b5f8060035f8481526020019081526020015f205f9054906101000a900473ffffffffffffffffffffffffffffffffffffffff1690505f73ffffffffffffffffffffffffffffffffffffffff168173ffffffffffffffffffffffffffffffffffffffff160361107757826040517fae8f9a3600000000000000000000000000000000000000000000000000000000815260040161106e919061505f565b60405180910390fd5b80915050919050565b5f61108b8383612485565b905092915050565b5f80825f1c90508073ffffffffffffffffffffffffffffffffffffffff1663dd62ed3e33306040518363ffffffff1660e01b81526004016110d5929190615078565b602060405180830381865afa1580156110f0573d5f803e3d5ffd5b505050506040513d601f19601f8201168201806040525081019061111491906150b3565b915050919050565b6060611127826124ef565b61114060055f8481526020019081526020015f2061253c565b9050919050565b6060600d5f8373ffffffffffffffffffffffffffffffffffffffff1673ffffffffffffffffffffffffffffffffffffffff1681526020019081526020015f20805461119190614ff3565b80601f01602080910402602001604051908101604052809291908181526020018280546111bd90614ff3565b80156112085780601f106111df57610100808354040283529160200191611208565b820191905f5260205f20905b8154815290600101906020018083116111eb57829003601f168201915b50505050509050919050565b61121e3384612485565b6112615782336040517f1294d2a90000000000000000000000000000000000000000000000000000000081526004016112589291906150de565b60405180910390fd5b61126e858585858561255b565b5050505050565b600c602052815f5260405f20602052805f5260405f205f915091509054906101000a900460ff1681565b60606112aa82612885565b9050919050565b600b602052815f5260405f2081815481106112ca575f80fd5b905f5260205f20015f915091509054906101000a900473ffffffffffffffffffffffffffffffffffffffff1681565b60608282905067ffffffffffffffff81111561131857611317613c12565b5b60405190808252806020026020018201604052801561134b57816020015b60608152602001906001900390816113365790505b5090505f5b83839050811015611468575f803073ffffffffffffffffffffffffffffffffffffffff1686868581811061138757611386615023565b5b90506020028101906113999190615111565b6040516113a7929190615173565b5f60405180830381855af49150503d805f81146113df576040519150601f19603f3d011682016040523d82523d5f602084013e6113e4565b606091505b50915091508161143c575f8151146113ff5780518082602001fd5b826040517f234eb8190000000000000000000000000000000000000000000000000000000081526004016114339190613ae1565b60405180910390fd5b808484815181106114505761144f615023565b5b60200260200101819052508260010192505050611350565b5092915050565b5f6114b560045f8473ffffffffffffffffffffffffffffffffffffffff1673ffffffffffffffffffffffffffffffffffffffff1681526020019081526020015f20612926565b9050919050565b6114c4612939565b6114cd5f6129b2565b565b600c5f8281526020019081526020015f205f3373ffffffffffffffffffffffffffffffffffffffff1673ffffffffffffffffffffffffffffffffffffffff1681526020019081526020015f205f9054906101000a900460ff1615611568576040517f08c379a000000000000000000000000000000000000000000000000000000000815260040161155f906151d5565b60405180910390fd5b600b5f8281526020019081526020015f2033908060018154018082558091505060019003905f5260205f20015f9091909190916101000a81548173ffffffffffffffffffffffffffffffffffffffff021916908373ffffffffffffffffffffffffffffffffffffffff1602179055506001600c5f8381526020019081526020015f205f3373ffffffffffffffffffffffffffffffffffffffff1673ffffffffffffffffffffffffffffffffffffffff1681526020019081526020015f205f6101000a81548160ff021916908315150217905550803373ffffffffffffffffffffffffffffffffffffffff167fcc9ad2f72ac43fccc2fbe8b5861dafdd6c56e8902f0c792ffeb4dcaffc4ea41760405160405180910390a350565b5f85519050845181141580611698575083518114155b806116a4575082518114155b806116b0575081518114155b156116e7576040517f93a8311900000000000000000000000000000000000000000000000000000000815260040160405180910390fd5b5f5b8181101561178b5761178087828151811061170757611706615023565b5b602002602001015187838151811061172257611721615023565b5b602002602001015187848151811061173d5761173c615023565b5b602002602001015187858151811061175857611757615023565b5b602002602001015187868151811061177357611772615023565b5b6020026020010151611214565b8060010190506116e9565b50505050505050565b61179c612939565b5f34146117d5576040517ff36ba73700000000000000000000000000000000000000000000000000000000815260040160405180910390fd5b6117df8282612aa8565b5050565b5f6117ed83610fd2565b90503373ffffffffffffffffffffffffffffffffffffffff168173ffffffffffffffffffffffffffffffffffffffff1614611863578083336040517f5b271ea200000000000000000000000000000000000000000000000000000000815260040161185a939291906151f3565b60405180910390fd5b5f73ffffffffffffffffffffffffffffffffffffffff168473ffffffffffffffffffffffffffffffffffffffff16036118c8576040517f9577b8b300000000000000000000000000000000000000000000000000000000815260040160405180910390fd5b8373ffffffffffffffffffffffffffffffffffffffff168173ffffffffffffffffffffffffffffffffffffffff160361192d576040517f89fdad6200000000000000000000000000000000000000000000000000000000815260040160405180910390fd5b5f6119518560055f8781526020019081526020015f20612b1190919063ffffffff16565b9050806119975784846040517fa7626b6800000000000000000000000000000000000000000000000000000000815260040161198e929190615228565b60405180910390fd5b838273ffffffffffffffffffffffffffffffffffffffff168673ffffffffffffffffffffffffffffffffffffffff167f1b1b58aa2ec0cec2228b2d37124556d41f5a1f7b12f089171f896cc236671215866040516119f59190613e12565b60405180910390a45f3385600186604051602001611a16949392919061524f565b6040516020818303038152906040529050611a318682612b3e565b505050505050565b5f805f9054906101000a900473ffffffffffffffffffffffffffffffffffffffff16905090565b80600d5f8473ffffffffffffffffffffffffffffffffffffffff1673ffffffffffffffffffffffffffffffffffffffff1681526020019081526020015f209081611aaa9190615436565b505050565b611ab7612939565b5f3414611af0576040517ff36ba73700000000000000000000000000000000000000000000000000000000815260040160405180910390fd5b8051825114611b2b576040517f3bcc897900000000000000000000000000000000000000000000000000000000815260040160405180910390fd5b5f825103611b65576040517f97da5f9500000000000000000000000000000000000000000000000000000000815260040160405180910390fd5b5f5b8251811015611bb957611bae838281518110611b8657611b85615023565b5b6020026020010151838381518110611ba157611ba0615023565b5b6020026020010151612aa8565b806001019050611b67565b505050565b5f611bc7612b6f565b15611c07576040517f08c379a0000000000000000000000000000000000000000000000000000000008152600401611bfe9061554f565b60405180910390fd5b600260088190555073__$58dfd55f33955099614ce920d5505ba750$__63b3b2981e89896008548a8a8a8a6040518863ffffffff1660e01b8152600401611c549796959493929190615634565b602060405180830381865af4158015611c6f573d5f803e3d5ffd5b505050506040513d601f19601f82011682018060405250810190611c9391906156ca565b90505f8173ffffffffffffffffffffffffffffffffffffffff165f1b9050611ccc3082600160405180602001604052805f815250612bc3565b4260095f3373ffffffffffffffffffffffffffffffffffffffff1673ffffffffffffffffffffffffffffffffffffffff1681526020019081526020015f208190555042600a5f8473ffffffffffffffffffffffffffffffffffffffff1673ffffffffffffffffffffffffffffffffffffffff1681526020019081526020015f2081905550611d5a8284611a60565b8173ffffffffffffffffffffffffffffffffffffffff163373ffffffffffffffffffffffffffffffffffffffff167fab8530f87dc9b59234c4623bf917212bb2536d647574c8e7e5da92c2ede0c9f842604051611db79190613ae1565b60405180910390a350979650505050505050565b6060611e1260045f8473ffffffffffffffffffffffffffffffffffffffff1673ffffffffffffffffffffffffffffffffffffffff1681526020019081526020015f20612e31565b9050919050565b611e21612939565b8060078190555050565b611e33612939565b81518351141580611e4657508051825114155b15611e7d576040517f2fa71dfe00000000000000000000000000000000000000000000000000000000815260040160405180910390fd5b5f835103611eb7576040517f80c9830500000000000000000000000000000000000000000000000000000000815260040160405180910390fd5b5f5b8351811015611f2657611f1b848281518110611ed857611ed7615023565b5b6020026020010151848381518110611ef357611ef2615023565b5b6020026020010151848481518110611f0e57611f0d615023565b5b6020026020010151612e50565b806001019050611eb9565b50505050565b60085481565b6060600b5f8381526020019081526020015f20805480602002602001604051908101604052809291908181526020018280548015611fc257602002820191905f5260205f20905b815f9054906101000a900473ffffffffffffffffffffffffffffffffffffffff1673ffffffffffffffffffffffffffffffffffffffff1681526020019060010190808311611f79575b50505050509050919050565b611fd6612939565b611fe1838383612e50565b505050565b5f611ff084610fd2565b90508073ffffffffffffffffffffffffffffffffffffffff163373ffffffffffffffffffffffffffffffffffffffff161461209a573373ffffffffffffffffffffffffffffffffffffffff168573ffffffffffffffffffffffffffffffffffffffff1614612099573381856040517f760b5acd000000000000000000000000000000000000000000000000000000008152600401612090939291906156f5565b60405180910390fd5b5b5f73ffffffffffffffffffffffffffffffffffffffff168573ffffffffffffffffffffffffffffffffffffffff16036120ff576040517f9577b8b300000000000000000000000000000000000000000000000000000000815260040160405180910390fd5b8473ffffffffffffffffffffffffffffffffffffffff168173ffffffffffffffffffffffffffffffffffffffff1603612164576040517f89fdad6200000000000000000000000000000000000000000000000000000000815260040160405180910390fd5b6121718582868686612e99565b82156121ac575f81855f8560405160200161218f949392919061524f565b60405160208183030381529060405290506121aa8682612b3e565b505b5050505050565b6060815167ffffffffffffffff8111156121d0576121cf613c12565b5b60405190808252806020026020018201604052801561220357816020015b60608152602001906001900390816121ee5790505b5090505f5b825181101561225d5761223483828151811061222757612226615023565b5b6020026020010151612885565b82828151811061224757612246615023565b5b6020026020010181905250806001019050612208565b50919050565b600a602052805f5260405f205f915090505481565b612280612939565b5f73ffffffffffffffffffffffffffffffffffffffff168173ffffffffffffffffffffffffffffffffffffffff16036122e5576040517f1ad8836c00000000000000000000000000000000000000000000000000000000815260040160405180910390fd5b6122ee816129b2565b50565b60075481565b5f805f61233069cee78b4094da8601109660b01b857bffffffffffffffffffffffffffffffffffffffffffffffffffffffff1916612f73565b90505f61233c82612885565b9050601481511415801561235157505f815114155b1561239357806040517f42bfe79f00000000000000000000000000000000000000000000000000000000815260040161238a9190613e12565b60405180910390fd5b8061239d90615778565b60601c6001935093505050915091565b5f63a918fa6b60e01b7bffffffffffffffffffffffffffffffffffffffffffffffffffffffff1916827bffffffffffffffffffffffffffffffffffffffffffffffffffffffff19161480612406575061240582612fb1565b5b9050919050565b5f8061241f6301ffc9a760e01b6122f7565b5090505f73ffffffffffffffffffffffffffffffffffffffff168173ffffffffffffffffffffffffffffffffffffffff160361245e575f91505061246c565b6124688184613011565b9150505b919050565b606061247d83836130aa565b905092915050565b5f61248f82610fd2565b73ffffffffffffffffffffffffffffffffffffffff168373ffffffffffffffffffffffffffffffffffffffff1614806124e757506124e68360055f8581526020019081526020015f2061313190919063ffffffff16565b5b905092915050565b6124f88161315e565b61253957806040517fae8f9a36000000000000000000000000000000000000000000000000000000008152600401612530919061505f565b60405180910390fd5b50565b60605f61254a835f016131c6565b905060608190508092505050919050565b5f61256584610fd2565b90508573ffffffffffffffffffffffffffffffffffffffff168173ffffffffffffffffffffffffffffffffffffffff16146125db578084876040517f5b271ea20000000000000000000000000000000000000000000000000000000081526004016125d2939291906151f3565b60405180910390fd5b5f73ffffffffffffffffffffffffffffffffffffffff168573ffffffffffffffffffffffffffffffffffffffff1603612640576040517f24ecef4d00000000000000000000000000000000000000000000000000000000815260040160405180910390fd5b61264c8686868561321f565b5f61265685610fd2565b90508073ffffffffffffffffffffffffffffffffffffffff168273ffffffffffffffffffffffffffffffffffffffff16146126cc578482826040517f5a9c31d30000000000000000000000000000000000000000000000000000000081526004016126c3939291906157de565b60405180910390fd5b6126d68786613225565b6127258560045f8a73ffffffffffffffffffffffffffffffffffffffff1673ffffffffffffffffffffffffffffffffffffffff1681526020019081526020015f2061329390919063ffffffff16565b506127758560045f8973ffffffffffffffffffffffffffffffffffffffff1673ffffffffffffffffffffffffffffffffffffffff1681526020019081526020015f206132a890919063ffffffff16565b508560035f8781526020019081526020015f205f6101000a81548173ffffffffffffffffffffffffffffffffffffffff021916908373ffffffffffffffffffffffffffffffffffffffff160217905550848673ffffffffffffffffffffffffffffffffffffffff168873ffffffffffffffffffffffffffffffffffffffff167fb333c813a7426a7a11e2b190cad52c44119421594b47f6f32ace6d8c7207b2bf33888860405161282793929190615813565b60405180910390a461283b878787866132bd565b5f338888888760405160200161285595949392919061584f565b604051602081830303815290604052905061287088826132c3565b61287b8786836132f4565b5050505050505050565b606060015f8381526020019081526020015f2080546128a390614ff3565b80601f01602080910402602001604051908101604052809291908181526020018280546128cf90614ff3565b801561291a5780601f106128f15761010080835404028352916020019161291a565b820191905f5260205f20905b8154815290600101906020018083116128fd57829003601f168201915b50505050509050919050565b5f612932825f01613453565b9050919050565b3373ffffffffffffffffffffffffffffffffffffffff16612958611a39565b73ffffffffffffffffffffffffffffffffffffffff16146129b057336040517fbf1169c50000000000000000000000000000000000000000000000000000000081526004016129a79190614107565b60405180910390fd5b565b6129ba611a39565b73ffffffffffffffffffffffffffffffffffffffff168173ffffffffffffffffffffffffffffffffffffffff1614612aa5578073ffffffffffffffffffffffffffffffffffffffff165f8054906101000a900473ffffffffffffffffffffffffffffffffffffffff1673ffffffffffffffffffffffffffffffffffffffff167f8be0079c531659141344cd1fd0a4f28419497f9722a3daafe3b4186f6b6457e060405160405180910390a3805f806101000a81548173ffffffffffffffffffffffffffffffffffffffff021916908373ffffffffffffffffffffffffffffffffffffffff1602179055505b50565b7ff675e9361af1c1664c1868cfa3eb97672d6b1a513aa5b81dec34c9ee330e818d5f1b8203612b03576040517f3664800a00000000000000000000000000000000000000000000000000000000815260040160405180910390fd5b612b0d8282613462565b5050565b5f612b36835f018373ffffffffffffffffffffffffffffffffffffffff165f1b613470565b905092915050565b612b6b827f8a1c15a8799f71b547e08e2bcb2e85257e81b0a07eee2ce6712549eef1f009705f1b836134d7565b5050565b5f6201518060095f3373ffffffffffffffffffffffffffffffffffffffff1673ffffffffffffffffffffffffffffffffffffffff1681526020019081526020015f2054612bbc91906158d4565b4210905090565b5f73ffffffffffffffffffffffffffffffffffffffff168473ffffffffffffffffffffffffffffffffffffffff1603612c28576040517f24ecef4d00000000000000000000000000000000000000000000000000000000815260040160405180910390fd5b612c318361315e565b15612c7357826040517f34c7b511000000000000000000000000000000000000000000000000000000008152600401612c6a919061505f565b60405180910390fd5b612c7f5f85858461321f565b612c888361315e565b15612cca57826040517f34c7b511000000000000000000000000000000000000000000000000000000008152600401612cc1919061505f565b60405180910390fd5b60025f8154612cd890615907565b91905081905550612d2e8360045f8773ffffffffffffffffffffffffffffffffffffffff1673ffffffffffffffffffffffffffffffffffffffff1681526020019081526020015f206132a890919063ffffffff16565b508360035f8581526020019081526020015f205f6101000a81548173ffffffffffffffffffffffffffffffffffffffff021916908373ffffffffffffffffffffffffffffffffffffffff160217905550828473ffffffffffffffffffffffffffffffffffffffff165f73ffffffffffffffffffffffffffffffffffffffff167fb333c813a7426a7a11e2b190cad52c44119421594b47f6f32ace6d8c7207b2bf338686604051612de093929190615813565b60405180910390a4612df45f8585846132bd565b5f335f868685604051602001612e0e95949392919061584f565b6040516020818303038152906040529050612e2a8584836132f4565b5050505050565b60605f612e3f835f016131c6565b905060608190508092505050919050565b612e5b838383613591565b81837fa6e4251f855f750545fe414f120db91c76b88def14d120969e5bb2d3f05debbb83604051612e8c9190613e12565b60405180910390a3505050565b5f612ebd8660055f8781526020019081526020015f2061360090919063ffffffff16565b905080612f035785846040517f4aa31a8c000000000000000000000000000000000000000000000000000000008152600401612efa929190615228565b60405180910390fd5b838573ffffffffffffffffffffffffffffffffffffffff168773ffffffffffffffffffffffffffffffffffffffff167fc78cd419d6136f9f1c1c6aec1d3fae098cffaf8bc86314a8f2685e32fe574e3c8686604051612f6392919061594e565b60405180910390a4505050505050565b5f80835f60f01b84604051602001612f8d93929190615a32565b604051602081830303815290604052905080612fa890615a82565b91505092915050565b5f63629aa69460e01b7bffffffffffffffffffffffffffffffffffffffffffffffffffffffff1916827bffffffffffffffffffffffffffffffffffffffffffffffffffffffff1916148061300a57506130098261362d565b5b9050919050565b5f80826040516024016130249190614d9c565b6040516020818303038152906040526301ffc9a760e01b6020820180517bffffffffffffffffffffffffffffffffffffffffffffffffffffffff838183161783525050505090505f805f60205f8551602087018a617530fa92503d91505f519050828015613093575060208210155b801561309e57505f81115b94505050505092915050565b6060825f1c73ffffffffffffffffffffffffffffffffffffffff166354f6127f836040518263ffffffff1660e01b81526004016130e7919061505f565b5f60405180830381865afa158015613101573d5f803e3d5ffd5b505050506040513d5f823e3d601f19601f820116820180604052508101906131299190615b56565b905092915050565b5f613156835f018373ffffffffffffffffffffffffffffffffffffffff165f1b613696565b905092915050565b5f8073ffffffffffffffffffffffffffffffffffffffff1660035f8481526020019081526020015f205f9054906101000a900473ffffffffffffffffffffffffffffffffffffffff1673ffffffffffffffffffffffffffffffffffffffff1614159050919050565b6060815f0180548060200260200160405190810160405280929190818152602001828054801561321357602002820191905f5260205f20905b8154815260200190600101908083116131ff575b50505050509050919050565b50505050565b5f60055f8381526020019081526020015f2090505f613243826136b6565b90505f805b8281101561328b576132635f856136c990919063ffffffff16565b91506132808287875f60405180602001604052805f815250612e99565b806001019050613248565b505050505050565b5f6132a0835f01836136e0565b905092915050565b5f6132b5835f0183613470565b905092915050565b50505050565b6132f0827fb23eae7e6d1564b295b4c3e3be402d9a2f0776c57bdf365903496f6fa481ab005f1b836134d7565b5050565b61330583636bb56a1460e01b613011565b156133b0578273ffffffffffffffffffffffffffffffffffffffff16636bb56a147f0b084a55ebf70fd3c06fd755269dac2212c4d3f0f4d09079780bfa50c1b2984d5f1b836040518363ffffffff1660e01b8152600401613367929190615b9d565b5f604051808303815f875af1158015613382573d5f803e3d5ffd5b505050506040513d5f823e3d601f19601f820116820180604052508101906133aa9190615b56565b5061344e565b8161344d575f8373ffffffffffffffffffffffffffffffffffffffff163b1461341057826040517f4349776d0000000000000000000000000000000000000000000000000000000081526004016134079190614107565b60405180910390fd5b826040517f031731370000000000000000000000000000000000000000000000000000000081526004016134449190614107565b60405180910390fd5b5b505050565b5f815f01805490509050919050565b61346c82826137dc565b5050565b5f61347b8383613696565b6134cd57825f0182908060018154018082558091505060019003905f5260205f20015f9091909190915055825f0180549050836001015f8481526020019081526020015f2081905550600190506134d1565b5f90505b92915050565b613507636bb56a1460e01b8473ffffffffffffffffffffffffffffffffffffffff1661301190919063ffffffff16565b1561358c578273ffffffffffffffffffffffffffffffffffffffff16636bb56a1483836040518363ffffffff1660e01b8152600401613547929190615b9d565b5f604051808303815f875af1158015613562573d5f803e3d5ffd5b505050506040513d5f823e3d601f19601f8201168201806040525081019061358a9190615b56565b505b505050565b825f1c73ffffffffffffffffffffffffffffffffffffffff16637f23690c83836040518363ffffffff1660e01b81526004016135ce929190615b9d565b5f604051808303815f87803b1580156135e5575f80fd5b505af11580156135f7573d5f803e3d5ffd5b50505050505050565b5f613625835f018373ffffffffffffffffffffffffffffffffffffffff165f1b6136e0565b905092915050565b5f7f01ffc9a7000000000000000000000000000000000000000000000000000000007bffffffffffffffffffffffffffffffffffffffffffffffffffffffff1916827bffffffffffffffffffffffffffffffffffffffffffffffffffffffff1916149050919050565b5f80836001015f8481526020019081526020015f20541415905092915050565b5f6136c2825f01613453565b9050919050565b5f6136d6835f0183613948565b5f1c905092915050565b5f80836001015f8481526020019081526020015f205490505f81146137d1575f60018261370d9190615bcb565b90505f6001865f01805490506137239190615bcb565b9050808214613789575f865f01828154811061374257613741615023565b5b905f5260205f200154905080875f01848154811061376357613762615023565b5b905f5260205f20018190555083876001015f8381526020019081526020015f2081905550505b855f0180548061379c5761379b615bfe565b5b600190038181905f5260205f20015f90559055856001015f8681526020019081526020015f205f9055600193505050506137d6565b5f9150505b92915050565b7fdeba1e292f8ba88238e10ab3c7f88bd4be4fac56cad5194b6ecceaf653468af15f1b8203613837576040517f85c169bd00000000000000000000000000000000000000000000000000000000815260040160405180910390fd5b7f2f0a68ab07768e01943a599e73362a0e17a63a72e94dd2e384d2c1d4db9327565f1b8203613892576040517f76755b3800000000000000000000000000000000000000000000000000000000815260040160405180910390fd5b7fe0261fa95db2eb3b5439bd033cda66d56b96f92f243a8228fd87550ed7bdfdb35f1b82036138ed576040517f4ef6d7fb00000000000000000000000000000000000000000000000000000000815260040160405180910390fd5b8060015f8481526020019081526020015f20908161390b9190615436565b50817fece574603820d07bc9b91f2a932baadf4628aabcb8afba49776529c14a6104b28260405161393c9190613e12565b60405180910390a25050565b5f825f01828154811061395e5761395d615023565b5b905f5260205f200154905092915050565b5f82825260208201905092915050565b5f8082015250565b5f61399360048361396f565b915061399e8261397f565b602082019050919050565b5f6020820190508181035f8301526139c081613987565b9050919050565b828183375f83830152505050565b5f601f19601f8301169050919050565b5f6139f0838561396f565b93506139fd8385846139c7565b613a06836139d5565b840190509392505050565b5f6020820190508181035f830152613a2a8184866139e5565b90509392505050565b5f604051905090565b5f80fd5b5f80fd5b5f73ffffffffffffffffffffffffffffffffffffffff82169050919050565b5f613a6d82613a44565b9050919050565b613a7d81613a63565b8114613a87575f80fd5b50565b5f81359050613a9881613a74565b92915050565b5f60208284031215613ab357613ab2613a3c565b5b5f613ac084828501613a8a565b91505092915050565b5f819050919050565b613adb81613ac9565b82525050565b5f602082019050613af45f830184613ad2565b92915050565b5f7fffffffff0000000000000000000000000000000000000000000000000000000082169050919050565b613b2e81613afa565b8114613b38575f80fd5b50565b5f81359050613b4981613b25565b92915050565b5f60208284031215613b6457613b63613a3c565b5b5f613b7184828501613b3b565b91505092915050565b5f8115159050919050565b613b8e81613b7a565b82525050565b5f602082019050613ba75f830184613b85565b92915050565b5f819050919050565b613bbf81613bad565b8114613bc9575f80fd5b50565b5f81359050613bda81613bb6565b92915050565b613be981613ac9565b8114613bf3575f80fd5b50565b5f81359050613c0481613be0565b92915050565b5f80fd5b5f80fd5b7f4e487b71000000000000000000000000000000000000000000000000000000005f52604160045260245ffd5b613c48826139d5565b810181811067ffffffffffffffff82111715613c6757613c66613c12565b5b80604052505050565b5f613c79613a33565b9050613c858282613c3f565b919050565b5f67ffffffffffffffff821115613ca457613ca3613c12565b5b613cad826139d5565b9050602081019050919050565b5f613ccc613cc784613c8a565b613c70565b905082815260208101848484011115613ce857613ce7613c0e565b5b613cf38482856139c7565b509392505050565b5f82601f830112613d0f57613d0e613c0a565b5b8135613d1f848260208601613cba565b91505092915050565b5f805f8060808587031215613d4057613d3f613a3c565b5b5f613d4d87828801613bcc565b9450506020613d5e87828801613a8a565b9350506040613d6f87828801613bf6565b925050606085013567ffffffffffffffff811115613d9057613d8f613a40565b5b613d9c87828801613cfb565b91505092959194509250565b5f81519050919050565b5f5b83811015613dcf578082015181840152602081019050613db4565b5f8484015250505050565b5f613de482613da8565b613dee818561396f565b9350613dfe818560208601613db2565b613e07816139d5565b840191505092915050565b5f6020820190508181035f830152613e2a8184613dda565b905092915050565b5f8060408385031215613e4857613e47613a3c565b5b5f613e5585828601613bcc565b9250506020613e6685828601613bcc565b9150509250929050565b5f67ffffffffffffffff821115613e8a57613e89613c12565b5b602082029050602081019050919050565b5f80fd5b5f613eb1613eac84613e70565b613c70565b90508083825260208201905060208402830185811115613ed457613ed3613e9b565b5b835b81811015613efd5780613ee98882613bcc565b845260208401935050602081019050613ed6565b5050509392505050565b5f82601f830112613f1b57613f1a613c0a565b5b8135613f2b848260208601613e9f565b91505092915050565b5f8060408385031215613f4a57613f49613a3c565b5b5f83013567ffffffffffffffff811115613f6757613f66613a40565b5b613f7385828601613f07565b925050602083013567ffffffffffffffff811115613f9457613f93613a40565b5b613fa085828601613f07565b9150509250929050565b5f81519050919050565b5f82825260208201905092915050565b5f819050602082019050919050565b5f82825260208201905092915050565b5f613fed82613da8565b613ff78185613fd3565b9350614007818560208601613db2565b614010816139d5565b840191505092915050565b5f6140268383613fe3565b905092915050565b5f602082019050919050565b5f61404482613faa565b61404e8185613fb4565b93508360208202850161406085613fc4565b805f5b8581101561409b578484038952815161407c858261401b565b94506140878361402e565b925060208a01995050600181019050614063565b50829750879550505050505092915050565b5f6020820190508181035f8301526140c5818461403a565b905092915050565b5f602082840312156140e2576140e1613a3c565b5b5f6140ef84828501613bcc565b91505092915050565b61410181613a63565b82525050565b5f60208201905061411a5f8301846140f8565b92915050565b5f806040838503121561413657614135613a3c565b5b5f61414385828601613a8a565b925050602061415485828601613bcc565b9150509250929050565b5f81519050919050565b5f82825260208201905092915050565b5f819050602082019050919050565b61419081613a63565b82525050565b5f6141a18383614187565b60208301905092915050565b5f602082019050919050565b5f6141c38261415e565b6141cd8185614168565b93506141d883614178565b805f5b838110156142085781516141ef8882614196565b97506141fa836141ad565b9250506001810190506141db565b5085935050505092915050565b5f6020820190508181035f83015261422d81846141b9565b905092915050565b61423e81613b7a565b8114614248575f80fd5b50565b5f8135905061425981614235565b92915050565b5f805f805f60a0868803121561427857614277613a3c565b5b5f61428588828901613a8a565b955050602061429688828901613a8a565b94505060406142a788828901613bcc565b93505060606142b88882890161424b565b925050608086013567ffffffffffffffff8111156142d9576142d8613a40565b5b6142e588828901613cfb565b9150509295509295909350565b5f806040838503121561430857614307613a3c565b5b5f61431585828601613bcc565b925050602061432685828601613a8a565b9150509250929050565b5f806040838503121561434657614345613a3c565b5b5f61435385828601613bcc565b925050602061436485828601613bf6565b9150509250929050565b5f80fd5b5f8083601f84011261438757614386613c0a565b5b8235905067ffffffffffffffff8111156143a4576143a361436e565b5b6020830191508360208202830111156143c0576143bf613e9b565b5b9250929050565b5f80602083850312156143dd576143dc613a3c565b5b5f83013567ffffffffffffffff8111156143fa576143f9613a40565b5b61440685828601614372565b92509250509250929050565b5f67ffffffffffffffff82111561442c5761442b613c12565b5b602082029050602081019050919050565b5f61444f61444a84614412565b613c70565b9050808382526020820190506020840283018581111561447257614471613e9b565b5b835b8181101561449b57806144878882613a8a565b845260208401935050602081019050614474565b5050509392505050565b5f82601f8301126144b9576144b8613c0a565b5b81356144c984826020860161443d565b91505092915050565b5f67ffffffffffffffff8211156144ec576144eb613c12565b5b602082029050602081019050919050565b5f61450f61450a846144d2565b613c70565b9050808382526020820190506020840283018581111561453257614531613e9b565b5b835b8181101561455b5780614547888261424b565b845260208401935050602081019050614534565b5050509392505050565b5f82601f83011261457957614578613c0a565b5b81356145898482602086016144fd565b91505092915050565b5f67ffffffffffffffff8211156145ac576145ab613c12565b5b602082029050602081019050919050565b5f6145cf6145ca84614592565b613c70565b905080838252602082019050602084028301858111156145f2576145f1613e9b565b5b835b8181101561463957803567ffffffffffffffff81111561461757614616613c0a565b5b8086016146248982613cfb565b855260208501945050506020810190506145f4565b5050509392505050565b5f82601f83011261465757614656613c0a565b5b81356146678482602086016145bd565b91505092915050565b5f805f805f60a0868803121561468957614688613a3c565b5b5f86013567ffffffffffffffff8111156146a6576146a5613a40565b5b6146b2888289016144a5565b955050602086013567ffffffffffffffff8111156146d3576146d2613a40565b5b6146df888289016144a5565b945050604086013567ffffffffffffffff811115614700576146ff613a40565b5b61470c88828901613f07565b935050606086013567ffffffffffffffff81111561472d5761472c613a40565b5b61473988828901614565565b925050608086013567ffffffffffffffff81111561475a57614759613a40565b5b61476688828901614643565b9150509295509295909350565b5f806040838503121561478957614788613a3c565b5b5f61479685828601613bcc565b925050602083013567ffffffffffffffff8111156147b7576147b6613a40565b5b6147c385828601613cfb565b9150509250929050565b5f805f606084860312156147e4576147e3613a3c565b5b5f6147f186828701613a8a565b935050602061480286828701613bcc565b925050604084013567ffffffffffffffff81111561482357614822613a40565b5b61482f86828701613cfb565b9150509250925092565b5f806040838503121561484f5761484e613a3c565b5b5f61485c85828601613a8a565b925050602083013567ffffffffffffffff81111561487d5761487c613a40565b5b61488985828601613cfb565b9150509250929050565b5f80604083850312156148a9576148a8613a3c565b5b5f83013567ffffffffffffffff8111156148c6576148c5613a40565b5b6148d285828601613f07565b925050602083013567ffffffffffffffff8111156148f3576148f2613a40565b5b6148ff85828601614643565b9150509250929050565b5f67ffffffffffffffff82111561492357614922613c12565b5b61492c826139d5565b9050602081019050919050565b5f61494b61494684614909565b613c70565b90508281526020810184848401111561496757614966613c0e565b5b6149728482856139c7565b509392505050565b5f82601f83011261498e5761498d613c0a565b5b813561499e848260208601614939565b91505092915050565b5f805f805f805f60e0888a0312156149c2576149c1613a3c565b5b5f88013567ffffffffffffffff8111156149df576149de613a40565b5b6149eb8a828b0161497a565b975050602088013567ffffffffffffffff811115614a0c57614a0b613a40565b5b614a188a828b0161497a565b9650506040614a298a828b0161424b565b9550506060614a3a8a828b01613bf6565b9450506080614a4b8a828b01613a8a565b93505060a088013567ffffffffffffffff811115614a6c57614a6b613a40565b5b614a788a828b01613cfb565b92505060c088013567ffffffffffffffff811115614a9957614a98613a40565b5b614aa58a828b01613cfb565b91505092959891949750929550565b5f81519050919050565b5f82825260208201905092915050565b5f819050602082019050919050565b614ae681613bad565b82525050565b5f614af78383614add565b60208301905092915050565b5f602082019050919050565b5f614b1982614ab4565b614b238185614abe565b9350614b2e83614ace565b805f5b83811015614b5e578151614b458882614aec565b9750614b5083614b03565b925050600181019050614b31565b5085935050505092915050565b5f6020820190508181035f830152614b838184614b0f565b905092915050565b5f60208284031215614ba057614b9f613a3c565b5b5f614bad84828501613bf6565b91505092915050565b5f805f60608486031215614bcd57614bcc613a3c565b5b5f84013567ffffffffffffffff811115614bea57614be9613a40565b5b614bf686828701613f07565b935050602084013567ffffffffffffffff811115614c1757614c16613a40565b5b614c2386828701613f07565b925050604084013567ffffffffffffffff811115614c4457614c43613a40565b5b614c5086828701614643565b9150509250925092565b5f805f60608486031215614c7157614c70613a3c565b5b5f614c7e86828701613bcc565b9350506020614c8f86828701613bcc565b925050604084013567ffffffffffffffff811115614cb057614caf613a40565b5b614cbc86828701613cfb565b9150509250925092565b5f805f8060808587031215614cde57614cdd613a3c565b5b5f614ceb87828801613a8a565b9450506020614cfc87828801613bcc565b9350506040614d0d8782880161424b565b925050606085013567ffffffffffffffff811115614d2e57614d2d613a40565b5b614d3a87828801613cfb565b91505092959194509250565b5f60208284031215614d5b57614d5a613a3c565b5b5f82013567ffffffffffffffff811115614d7857614d77613a40565b5b614d8484828501613f07565b91505092915050565b614d9681613afa565b82525050565b5f602082019050614daf5f830184614d8d565b92915050565b5f81905092915050565b5f614dca8385614db5565b9350614dd78385846139c7565b82840190509392505050565b5f8160601b9050919050565b5f614df982614de3565b9050919050565b5f614e0a82614def565b9050919050565b614e22614e1d82613a63565b614e00565b82525050565b5f819050919050565b614e42614e3d82613ac9565b614e28565b82525050565b5f614e54828688614dbf565b9150614e608285614e11565b601482019150614e708284614e31565b60208201915081905095945050505050565b5f614e8c82613da8565b614e968185614db5565b9350614ea6818560208601613db2565b80840191505092915050565b5f614ebd8284614e82565b915081905092915050565b5f82825260208201905092915050565b7f416d6f756e74206d7573742062652067726561746572207468616e207a65726f5f82015250565b5f614f0c602083614ec8565b9150614f1782614ed8565b602082019050919050565b5f6020820190508181035f830152614f3981614f00565b9050919050565b5f60a082019050614f535f8301886140f8565b614f6060208301876140f8565b614f6d6040830186613ad2565b614f7a6060830185613b85565b8181036080830152614f8c8184613dda565b90509695505050505050565b5f604082019050614fab5f830185613ad2565b8181036020830152614fbd8184613dda565b90509392505050565b7f4e487b71000000000000000000000000000000000000000000000000000000005f52602260045260245ffd5b5f600282049050600182168061500a57607f821691505b60208210810361501d5761501c614fc6565b5b50919050565b7f4e487b71000000000000000000000000000000000000000000000000000000005f52603260045260245ffd5b61505981613bad565b82525050565b5f6020820190506150725f830184615050565b92915050565b5f60408201905061508b5f8301856140f8565b61509860208301846140f8565b9392505050565b5f815190506150ad81613be0565b92915050565b5f602082840312156150c8576150c7613a3c565b5b5f6150d58482850161509f565b91505092915050565b5f6040820190506150f15f830185615050565b6150fe60208301846140f8565b9392505050565b5f80fd5b5f80fd5b5f80fd5b5f808335600160200384360303811261512d5761512c615105565b5b80840192508235915067ffffffffffffffff82111561514f5761514e615109565b5b60208301925060018202360383131561516b5761516a61510d565b5b509250929050565b5f61517f828486614dbf565b91508190509392505050565b7f596f752063616e206f6e6c79206c696b65206120746f6b656e206f6e636500005f82015250565b5f6151bf601e83614ec8565b91506151ca8261518b565b602082019050919050565b5f6020820190508181035f8301526151ec816151b3565b9050919050565b5f6060820190506152065f8301866140f8565b6152136020830185615050565b61522060408301846140f8565b949350505050565b5f60408201905061523b5f8301856140f8565b6152486020830184615050565b9392505050565b5f6080820190506152625f8301876140f8565b61526f6020830186615050565b61527c6040830185613b85565b818103606083015261528e8184613dda565b905095945050505050565b5f819050815f5260205f209050919050565b5f6020601f8301049050919050565b5f82821b905092915050565b5f600883026152f57fffffffffffffffffffffffffffffffffffffffffffffffffffffffffffffffff826152ba565b6152ff86836152ba565b95508019841693508086168417925050509392505050565b5f819050919050565b5f61533a61533561533084613ac9565b615317565b613ac9565b9050919050565b5f819050919050565b61535383615320565b61536761535f82615341565b8484546152c6565b825550505050565b5f90565b61537b61536f565b61538681848461534a565b505050565b5b818110156153a95761539e5f82615373565b60018101905061538c565b5050565b601f8211156153ee576153bf81615299565b6153c8846152ab565b810160208510156153d7578190505b6153eb6153e3856152ab565b83018261538b565b50505b505050565b5f82821c905092915050565b5f61540e5f19846008026153f3565b1980831691505092915050565b5f61542683836153ff565b9150826002028217905092915050565b61543f82613da8565b67ffffffffffffffff81111561545857615457613c12565b5b6154628254614ff3565b61546d8282856153ad565b5f60209050601f83116001811461549e575f841561548c578287015190505b615496858261541b565b8655506154fd565b601f1984166154ac86615299565b5f5b828110156154d3578489015182556001820191506020850194506020810190506154ae565b868310156154f057848901516154ec601f8916826153ff565b8355505b6001600288020188555050505b505050505050565b7f4d696e74696e67206f6e6c79206f6e63652061206461790000000000000000005f82015250565b5f615539601783614ec8565b915061554482615505565b602082019050919050565b5f6020820190508181035f8301526155668161552d565b9050919050565b5f81519050919050565b5f82825260208201905092915050565b5f6155918261556d565b61559b8185615577565b93506155ab818560208601613db2565b6155b4816139d5565b840191505092915050565b6155c881613ac9565b82525050565b6155d781613b7a565b82525050565b6155e681613a63565b82525050565b5f82825260208201905092915050565b5f61560682613da8565b61561081856155ec565b9350615620818560208601613db2565b615629816139d5565b840191505092915050565b5f60e0820190508181035f83015261564c818a615587565b905081810360208301526156608189615587565b905061566f60408301886155bf565b61567c60608301876155ce565b61568960808301866155bf565b61569660a08301856155dd565b81810360c08301526156a881846155fc565b905098975050505050505050565b5f815190506156c481613a74565b92915050565b5f602082840312156156df576156de613a3c565b5b5f6156ec848285016156b6565b91505092915050565b5f6060820190506157085f8301866140f8565b61571560208301856140f8565b6157226040830184615050565b949350505050565b5f819050602082019050919050565b5f7fffffffffffffffffffffffffffffffffffffffff00000000000000000000000082169050919050565b5f61576f8251615739565b80915050919050565b5f61578282613da8565b8261578c8461572a565b905061579781615764565b925060148210156157d7576157d27fffffffffffffffffffffffffffffffffffffffff000000000000000000000000836014036008026152ba565b831692505b5050919050565b5f6060820190506157f15f830186615050565b6157fe60208301856140f8565b61580b60408301846140f8565b949350505050565b5f6060820190506158265f8301866140f8565b6158336020830185613b85565b81810360408301526158458184613dda565b9050949350505050565b5f60a0820190506158625f8301886140f8565b61586f60208301876140f8565b61587c60408301866140f8565b6158896060830185615050565b818103608083015261589b8184613dda565b90509695505050505050565b7f4e487b71000000000000000000000000000000000000000000000000000000005f52601160045260245ffd5b5f6158de82613ac9565b91506158e983613ac9565b9250828201905080821115615901576159006158a7565b5b92915050565b5f61591182613ac9565b91507fffffffffffffffffffffffffffffffffffffffffffffffffffffffffffffffff8203615943576159426158a7565b5b600182019050919050565b5f6040820190506159615f830185613b85565b81810360208301526159738184613dda565b90509392505050565b5f7fffffffffffffffffffff0000000000000000000000000000000000000000000082169050919050565b5f819050919050565b6159c16159bc8261597c565b6159a7565b82525050565b5f7fffff00000000000000000000000000000000000000000000000000000000000082169050919050565b5f819050919050565b615a0c615a07826159c7565b6159f2565b82525050565b5f819050919050565b615a2c615a2782615739565b615a12565b82525050565b5f615a3d82866159b0565b600a82019150615a4d82856159fb565b600282019150615a5d8284615a1b565b601482019150819050949350505050565b5f615a798251613bad565b80915050919050565b5f615a8c82613da8565b82615a968461572a565b9050615aa181615a6e565b92506020821015615ae157615adc7fffffffffffffffffffffffffffffffffffffffffffffffffffffffffffffffff836020036008026152ba565b831692505b5050919050565b5f615afa615af584613c8a565b613c70565b905082815260208101848484011115615b1657615b15613c0e565b5b615b21848285613db2565b509392505050565b5f82601f830112615b3d57615b3c613c0a565b5b8151615b4d848260208601615ae8565b91505092915050565b5f60208284031215615b6b57615b6a613a3c565b5b5f82015167ffffffffffffffff811115615b8857615b87613a40565b5b615b9484828501615b29565b91505092915050565b5f604082019050615bb05f830185615050565b8181036020830152615bc28184613dda565b90509392505050565b5f615bd582613ac9565b9150615be083613ac9565b9250828203905081811115615bf857615bf76158a7565b5b92915050565b7f4e487b71000000000000000000000000000000000000000000000000000000005f52603160045260245ffdfea2646970667358221220ac98d3ae79e5f73621997651b92ae38bbb786cec59303dbcec8ac734ecf25d0b64736f6c63430008140033",
			"opcodes": "PUSH1 0x80 PUSH1 0x40 MSTORE CALLVALUE DUP1 ISZERO PUSH3 0x10 JUMPI PUSH0 DUP1 REVERT JUMPDEST POP PUSH1 0x40 MLOAD PUSH3 0x69E7 CODESIZE SUB DUP1 PUSH3 0x69E7 DUP4 CODECOPY DUP2 DUP2 ADD PUSH1 0x40 MSTORE DUP2 ADD SWAP1 PUSH3 0x36 SWAP2 SWAP1 PUSH3 0x8D3 JUMP JUMPDEST DUP6 DUP6 DUP6 DUP6 PUSH1 0x2 DUP5 DUP5 DUP5 DUP5 DUP2 PUSH0 PUSH20 0xFFFFFFFFFFFFFFFFFFFFFFFFFFFFFFFFFFFFFFFF AND DUP2 PUSH20 0xFFFFFFFFFFFFFFFFFFFFFFFFFFFFFFFFFFFFFFFF AND SUB PUSH3 0xA7 JUMPI PUSH1 0x40 MLOAD PUSH32 0x1AD8836C00000000000000000000000000000000000000000000000000000000 DUP2 MSTORE PUSH1 0x4 ADD PUSH1 0x40 MLOAD DUP1 SWAP2 SUB SWAP1 REVERT JUMPDEST PUSH3 0xB8 DUP2 PUSH3 0x284 PUSH1 0x20 SHL PUSH1 0x20 SHR JUMP JUMPDEST POP PUSH3 0x122 PUSH32 0xEAFEC4D89FA9619884B60000A4D96624A38F7AC2D8D9A604ECF07C12C77E480C PUSH0 SHL PUSH1 0x40 MLOAD DUP1 PUSH1 0x40 ADD PUSH1 0x40 MSTORE DUP1 PUSH1 0x4 DUP2 MSTORE PUSH1 0x20 ADD PUSH32 0xA4D9662400000000000000000000000000000000000000000000000000000000 DUP2 MSTORE POP PUSH3 0x383 PUSH1 0x20 SHL PUSH1 0x20 SHR JUMP JUMPDEST PUSH3 0x156 PUSH32 0xDEBA1E292F8BA88238E10AB3C7F88BD4BE4FAC56CAD5194B6ECCEAF653468AF1 PUSH0 SHL DUP6 PUSH3 0x383 PUSH1 0x20 SHL PUSH1 0x20 SHR JUMP JUMPDEST PUSH3 0x18A PUSH32 0x2F0A68AB07768E01943A599E73362A0E17A63A72E94DD2E384D2C1D4DB932756 PUSH0 SHL DUP5 PUSH3 0x383 PUSH1 0x20 SHL PUSH1 0x20 SHR JUMP JUMPDEST PUSH3 0x1DF PUSH32 0xE0261FA95DB2EB3B5439BD033CDA66D56B96F92F243A8228FD87550ED7BDFDB3 PUSH0 SHL DUP3 PUSH1 0x40 MLOAD PUSH1 0x20 ADD PUSH3 0x1C4 SWAP2 SWAP1 PUSH3 0x9D9 JUMP JUMPDEST PUSH1 0x40 MLOAD PUSH1 0x20 DUP2 DUP4 SUB SUB DUP2 MSTORE SWAP1 PUSH1 0x40 MSTORE PUSH3 0x383 PUSH1 0x20 SHL PUSH1 0x20 SHR JUMP JUMPDEST POP POP POP POP PUSH3 0x238 PUSH32 0xF675E9361AF1C1664C1868CFA3EB97672D6B1A513AA5B81DEC34C9EE330E818D PUSH0 SHL DUP3 PUSH1 0x40 MLOAD PUSH1 0x20 ADD PUSH3 0x21D SWAP2 SWAP1 PUSH3 0x9D9 JUMP JUMPDEST PUSH1 0x40 MLOAD PUSH1 0x20 DUP2 DUP4 SUB SUB DUP2 MSTORE SWAP1 PUSH1 0x40 MSTORE PUSH3 0x3E2 PUSH1 0x20 SHL PUSH1 0x20 SHR JUMP JUMPDEST POP POP POP POP POP PUSH3 0x271 PUSH32 0x9AFB95CACC9F95858EC44AA8C3B685511002E30AE54415823F406128B85B238E PUSH0 SHL DUP4 PUSH3 0x3F8 PUSH1 0x20 SHL PUSH1 0x20 SHR JUMP JUMPDEST DUP1 PUSH1 0x7 DUP2 SWAP1 SSTORE POP POP POP POP POP POP POP PUSH3 0xD78 JUMP JUMPDEST PUSH3 0x294 PUSH3 0x46A PUSH1 0x20 SHL PUSH1 0x20 SHR JUMP JUMPDEST PUSH20 0xFFFFFFFFFFFFFFFFFFFFFFFFFFFFFFFFFFFFFFFF AND DUP2 PUSH20 0xFFFFFFFFFFFFFFFFFFFFFFFFFFFFFFFFFFFFFFFF AND EQ PUSH3 0x380 JUMPI DUP1 PUSH20 0xFFFFFFFFFFFFFFFFFFFFFFFFFFFFFFFFFFFFFFFF AND PUSH0 DUP1 SLOAD SWAP1 PUSH2 0x100 EXP SWAP1 DIV PUSH20 0xFFFFFFFFFFFFFFFFFFFFFFFFFFFFFFFFFFFFFFFF AND PUSH20 0xFFFFFFFFFFFFFFFFFFFFFFFFFFFFFFFFFFFFFFFF AND PUSH32 0x8BE0079C531659141344CD1FD0A4F28419497F9722A3DAAFE3B4186F6B6457E0 PUSH1 0x40 MLOAD PUSH1 0x40 MLOAD DUP1 SWAP2 SUB SWAP1 LOG3 DUP1 PUSH0 DUP1 PUSH2 0x100 EXP DUP2 SLOAD DUP2 PUSH20 0xFFFFFFFFFFFFFFFFFFFFFFFFFFFFFFFFFFFFFFFF MUL NOT AND SWAP1 DUP4 PUSH20 0xFFFFFFFFFFFFFFFFFFFFFFFFFFFFFFFFFFFFFFFF AND MUL OR SWAP1 SSTORE POP JUMPDEST POP JUMP JUMPDEST DUP1 PUSH1 0x1 PUSH0 DUP5 DUP2 MSTORE PUSH1 0x20 ADD SWAP1 DUP2 MSTORE PUSH1 0x20 ADD PUSH0 KECCAK256 SWAP1 DUP2 PUSH3 0x3A3 SWAP2 SWAP1 PUSH3 0xC22 JUMP JUMPDEST POP DUP2 PUSH32 0xECE574603820D07BC9B91F2A932BAADF4628AABCB8AFBA49776529C14A6104B2 DUP3 PUSH1 0x40 MLOAD PUSH3 0x3D6 SWAP2 SWAP1 PUSH3 0xD56 JUMP JUMPDEST PUSH1 0x40 MLOAD DUP1 SWAP2 SUB SWAP1 LOG2 POP POP JUMP JUMPDEST PUSH3 0x3F4 DUP3 DUP3 PUSH3 0x491 PUSH1 0x20 SHL PUSH1 0x20 SHR JUMP JUMPDEST POP POP JUMP JUMPDEST PUSH32 0xF675E9361AF1C1664C1868CFA3EB97672D6B1A513AA5B81DEC34C9EE330E818D PUSH0 SHL DUP3 SUB PUSH3 0x454 JUMPI PUSH1 0x40 MLOAD PUSH32 0x3664800A00000000000000000000000000000000000000000000000000000000 DUP2 MSTORE PUSH1 0x4 ADD PUSH1 0x40 MLOAD DUP1 SWAP2 SUB SWAP1 REVERT JUMPDEST PUSH3 0x466 DUP3 DUP3 PUSH3 0x3E2 PUSH1 0x20 SHL PUSH1 0x20 SHR JUMP JUMPDEST POP POP JUMP JUMPDEST PUSH0 DUP1 PUSH0 SWAP1 SLOAD SWAP1 PUSH2 0x100 EXP SWAP1 DIV PUSH20 0xFFFFFFFFFFFFFFFFFFFFFFFFFFFFFFFFFFFFFFFF AND SWAP1 POP SWAP1 JUMP JUMPDEST PUSH32 0xDEBA1E292F8BA88238E10AB3C7F88BD4BE4FAC56CAD5194B6ECCEAF653468AF1 PUSH0 SHL DUP3 SUB PUSH3 0x4ED JUMPI PUSH1 0x40 MLOAD PUSH32 0x85C169BD00000000000000000000000000000000000000000000000000000000 DUP2 MSTORE PUSH1 0x4 ADD PUSH1 0x40 MLOAD DUP1 SWAP2 SUB SWAP1 REVERT JUMPDEST PUSH32 0x2F0A68AB07768E01943A599E73362A0E17A63A72E94DD2E384D2C1D4DB932756 PUSH0 SHL DUP3 SUB PUSH3 0x549 JUMPI PUSH1 0x40 MLOAD PUSH32 0x76755B3800000000000000000000000000000000000000000000000000000000 DUP2 MSTORE PUSH1 0x4 ADD PUSH1 0x40 MLOAD DUP1 SWAP2 SUB SWAP1 REVERT JUMPDEST PUSH32 0xE0261FA95DB2EB3B5439BD033CDA66D56B96F92F243A8228FD87550ED7BDFDB3 PUSH0 SHL DUP3 SUB PUSH3 0x5A5 JUMPI PUSH1 0x40 MLOAD PUSH32 0x4EF6D7FB00000000000000000000000000000000000000000000000000000000 DUP2 MSTORE PUSH1 0x4 ADD PUSH1 0x40 MLOAD DUP1 SWAP2 SUB SWAP1 REVERT JUMPDEST DUP1 PUSH1 0x1 PUSH0 DUP5 DUP2 MSTORE PUSH1 0x20 ADD SWAP1 DUP2 MSTORE PUSH1 0x20 ADD PUSH0 KECCAK256 SWAP1 DUP2 PUSH3 0x5C5 SWAP2 SWAP1 PUSH3 0xC22 JUMP JUMPDEST POP DUP2 PUSH32 0xECE574603820D07BC9B91F2A932BAADF4628AABCB8AFBA49776529C14A6104B2 DUP3 PUSH1 0x40 MLOAD PUSH3 0x5F8 SWAP2 SWAP1 PUSH3 0xD56 JUMP JUMPDEST PUSH1 0x40 MLOAD DUP1 SWAP2 SUB SWAP1 LOG2 POP POP JUMP JUMPDEST PUSH0 PUSH1 0x40 MLOAD SWAP1 POP SWAP1 JUMP JUMPDEST PUSH0 DUP1 REVERT JUMPDEST PUSH0 DUP1 REVERT JUMPDEST PUSH0 DUP1 REVERT JUMPDEST PUSH0 DUP1 REVERT JUMPDEST PUSH0 PUSH1 0x1F NOT PUSH1 0x1F DUP4 ADD AND SWAP1 POP SWAP2 SWAP1 POP JUMP JUMPDEST PUSH32 0x4E487B7100000000000000000000000000000000000000000000000000000000 PUSH0 MSTORE PUSH1 0x41 PUSH1 0x4 MSTORE PUSH1 0x24 PUSH0 REVERT JUMPDEST PUSH3 0x665 DUP3 PUSH3 0x61D JUMP JUMPDEST DUP2 ADD DUP2 DUP2 LT PUSH8 0xFFFFFFFFFFFFFFFF DUP3 GT OR ISZERO PUSH3 0x687 JUMPI PUSH3 0x686 PUSH3 0x62D JUMP JUMPDEST JUMPDEST DUP1 PUSH1 0x40 MSTORE POP POP POP JUMP JUMPDEST PUSH0 PUSH3 0x69B PUSH3 0x604 JUMP JUMPDEST SWAP1 POP PUSH3 0x6A9 DUP3 DUP3 PUSH3 0x65A JUMP JUMPDEST SWAP2 SWAP1 POP JUMP JUMPDEST PUSH0 PUSH8 0xFFFFFFFFFFFFFFFF DUP3 GT ISZERO PUSH3 0x6CB JUMPI PUSH3 0x6CA PUSH3 0x62D JUMP JUMPDEST JUMPDEST PUSH3 0x6D6 DUP3 PUSH3 0x61D JUMP JUMPDEST SWAP1 POP PUSH1 0x20 DUP2 ADD SWAP1 POP SWAP2 SWAP1 POP JUMP JUMPDEST PUSH0 JUMPDEST DUP4 DUP2 LT ISZERO PUSH3 0x702 JUMPI DUP1 DUP3 ADD MLOAD DUP2 DUP5 ADD MSTORE PUSH1 0x20 DUP2 ADD SWAP1 POP PUSH3 0x6E5 JUMP JUMPDEST PUSH0 DUP5 DUP5 ADD MSTORE POP POP POP POP JUMP JUMPDEST PUSH0 PUSH3 0x723 PUSH3 0x71D DUP5 PUSH3 0x6AE JUMP JUMPDEST PUSH3 0x690 JUMP JUMPDEST SWAP1 POP DUP3 DUP2 MSTORE PUSH1 0x20 DUP2 ADD DUP5 DUP5 DUP5 ADD GT ISZERO PUSH3 0x742 JUMPI PUSH3 0x741 PUSH3 0x619 JUMP JUMPDEST JUMPDEST PUSH3 0x74F DUP5 DUP3 DUP6 PUSH3 0x6E3 JUMP JUMPDEST POP SWAP4 SWAP3 POP POP POP JUMP JUMPDEST PUSH0 DUP3 PUSH1 0x1F DUP4 ADD SLT PUSH3 0x76E JUMPI PUSH3 0x76D PUSH3 0x615 JUMP JUMPDEST JUMPDEST DUP2 MLOAD PUSH3 0x780 DUP5 DUP3 PUSH1 0x20 DUP7 ADD PUSH3 0x70D JUMP JUMPDEST SWAP2 POP POP SWAP3 SWAP2 POP POP JUMP JUMPDEST PUSH0 PUSH20 0xFFFFFFFFFFFFFFFFFFFFFFFFFFFFFFFFFFFFFFFF DUP3 AND SWAP1 POP SWAP2 SWAP1 POP JUMP JUMPDEST PUSH0 PUSH3 0x7B4 DUP3 PUSH3 0x789 JUMP JUMPDEST SWAP1 POP SWAP2 SWAP1 POP JUMP JUMPDEST PUSH3 0x7C6 DUP2 PUSH3 0x7A8 JUMP JUMPDEST DUP2 EQ PUSH3 0x7D1 JUMPI PUSH0 DUP1 REVERT JUMPDEST POP JUMP JUMPDEST PUSH0 DUP2 MLOAD SWAP1 POP PUSH3 0x7E4 DUP2 PUSH3 0x7BB JUMP JUMPDEST SWAP3 SWAP2 POP POP JUMP JUMPDEST PUSH0 DUP2 SWAP1 POP SWAP2 SWAP1 POP JUMP JUMPDEST PUSH3 0x7FE DUP2 PUSH3 0x7EA JUMP JUMPDEST DUP2 EQ PUSH3 0x809 JUMPI PUSH0 DUP1 REVERT JUMPDEST POP JUMP JUMPDEST PUSH0 DUP2 MLOAD SWAP1 POP PUSH3 0x81C DUP2 PUSH3 0x7F3 JUMP JUMPDEST SWAP3 SWAP2 POP POP JUMP JUMPDEST PUSH0 PUSH8 0xFFFFFFFFFFFFFFFF DUP3 GT ISZERO PUSH3 0x83F JUMPI PUSH3 0x83E PUSH3 0x62D JUMP JUMPDEST JUMPDEST PUSH3 0x84A DUP3 PUSH3 0x61D JUMP JUMPDEST SWAP1 POP PUSH1 0x20 DUP2 ADD SWAP1 POP SWAP2 SWAP1 POP JUMP JUMPDEST PUSH0 PUSH3 0x86D PUSH3 0x867 DUP5 PUSH3 0x822 JUMP JUMPDEST PUSH3 0x690 JUMP JUMPDEST SWAP1 POP DUP3 DUP2 MSTORE PUSH1 0x20 DUP2 ADD DUP5 DUP5 DUP5 ADD GT ISZERO PUSH3 0x88C JUMPI PUSH3 0x88B PUSH3 0x619 JUMP JUMPDEST JUMPDEST PUSH3 0x899 DUP5 DUP3 DUP6 PUSH3 0x6E3 JUMP JUMPDEST POP SWAP4 SWAP3 POP POP POP JUMP JUMPDEST PUSH0 DUP3 PUSH1 0x1F DUP4 ADD SLT PUSH3 0x8B8 JUMPI PUSH3 0x8B7 PUSH3 0x615 JUMP JUMPDEST JUMPDEST DUP2 MLOAD PUSH3 0x8CA DUP5 DUP3 PUSH1 0x20 DUP7 ADD PUSH3 0x857 JUMP JUMPDEST SWAP2 POP POP SWAP3 SWAP2 POP POP JUMP JUMPDEST PUSH0 DUP1 PUSH0 DUP1 PUSH0 DUP1 PUSH1 0xC0 DUP8 DUP10 SUB SLT ISZERO PUSH3 0x8F0 JUMPI PUSH3 0x8EF PUSH3 0x60D JUMP JUMPDEST JUMPDEST PUSH0 DUP8 ADD MLOAD PUSH8 0xFFFFFFFFFFFFFFFF DUP2 GT ISZERO PUSH3 0x910 JUMPI PUSH3 0x90F PUSH3 0x611 JUMP JUMPDEST JUMPDEST PUSH3 0x91E DUP10 DUP3 DUP11 ADD PUSH3 0x757 JUMP JUMPDEST SWAP7 POP POP PUSH1 0x20 DUP8 ADD MLOAD PUSH8 0xFFFFFFFFFFFFFFFF DUP2 GT ISZERO PUSH3 0x942 JUMPI PUSH3 0x941 PUSH3 0x611 JUMP JUMPDEST JUMPDEST PUSH3 0x950 DUP10 DUP3 DUP11 ADD PUSH3 0x757 JUMP JUMPDEST SWAP6 POP POP PUSH1 0x40 PUSH3 0x963 DUP10 DUP3 DUP11 ADD PUSH3 0x7D4 JUMP JUMPDEST SWAP5 POP POP PUSH1 0x60 PUSH3 0x976 DUP10 DUP3 DUP11 ADD PUSH3 0x80C JUMP JUMPDEST SWAP4 POP POP PUSH1 0x80 DUP8 ADD MLOAD PUSH8 0xFFFFFFFFFFFFFFFF DUP2 GT ISZERO PUSH3 0x99A JUMPI PUSH3 0x999 PUSH3 0x611 JUMP JUMPDEST JUMPDEST PUSH3 0x9A8 DUP10 DUP3 DUP11 ADD PUSH3 0x8A1 JUMP JUMPDEST SWAP3 POP POP PUSH1 0xA0 PUSH3 0x9BB DUP10 DUP3 DUP11 ADD PUSH3 0x80C JUMP JUMPDEST SWAP2 POP POP SWAP3 SWAP6 POP SWAP3 SWAP6 POP SWAP3 SWAP6 JUMP JUMPDEST PUSH3 0x9D3 DUP2 PUSH3 0x7EA JUMP JUMPDEST DUP3 MSTORE POP POP JUMP JUMPDEST PUSH0 PUSH1 0x20 DUP3 ADD SWAP1 POP PUSH3 0x9EE PUSH0 DUP4 ADD DUP5 PUSH3 0x9C8 JUMP JUMPDEST SWAP3 SWAP2 POP POP JUMP JUMPDEST PUSH0 DUP2 MLOAD SWAP1 POP SWAP2 SWAP1 POP JUMP JUMPDEST PUSH32 0x4E487B7100000000000000000000000000000000000000000000000000000000 PUSH0 MSTORE PUSH1 0x22 PUSH1 0x4 MSTORE PUSH1 0x24 PUSH0 REVERT JUMPDEST PUSH0 PUSH1 0x2 DUP3 DIV SWAP1 POP PUSH1 0x1 DUP3 AND DUP1 PUSH3 0xA43 JUMPI PUSH1 0x7F DUP3 AND SWAP2 POP JUMPDEST PUSH1 0x20 DUP3 LT DUP2 SUB PUSH3 0xA59 JUMPI PUSH3 0xA58 PUSH3 0x9FE JUMP JUMPDEST JUMPDEST POP SWAP2 SWAP1 POP JUMP JUMPDEST PUSH0 DUP2 SWAP1 POP DUP2 PUSH0 MSTORE PUSH1 0x20 PUSH0 KECCAK256 SWAP1 POP SWAP2 SWAP1 POP JUMP JUMPDEST PUSH0 PUSH1 0x20 PUSH1 0x1F DUP4 ADD DIV SWAP1 POP SWAP2 SWAP1 POP JUMP JUMPDEST PUSH0 DUP3 DUP3 SHL SWAP1 POP SWAP3 SWAP2 POP POP JUMP JUMPDEST PUSH0 PUSH1 0x8 DUP4 MUL PUSH3 0xABD PUSH32 0xFFFFFFFFFFFFFFFFFFFFFFFFFFFFFFFFFFFFFFFFFFFFFFFFFFFFFFFFFFFFFFFF DUP3 PUSH3 0xA80 JUMP JUMPDEST PUSH3 0xAC9 DUP7 DUP4 PUSH3 0xA80 JUMP JUMPDEST SWAP6 POP DUP1 NOT DUP5 AND SWAP4 POP DUP1 DUP7 AND DUP5 OR SWAP3 POP POP POP SWAP4 SWAP3 POP POP POP JUMP JUMPDEST PUSH0 DUP2 SWAP1 POP SWAP2 SWAP1 POP JUMP JUMPDEST PUSH0 PUSH3 0xB0A PUSH3 0xB04 PUSH3 0xAFE DUP5 PUSH3 0x7EA JUMP JUMPDEST PUSH3 0xAE1 JUMP JUMPDEST PUSH3 0x7EA JUMP JUMPDEST SWAP1 POP SWAP2 SWAP1 POP JUMP JUMPDEST PUSH0 DUP2 SWAP1 POP SWAP2 SWAP1 POP JUMP JUMPDEST PUSH3 0xB25 DUP4 PUSH3 0xAEA JUMP JUMPDEST PUSH3 0xB3D PUSH3 0xB34 DUP3 PUSH3 0xB11 JUMP JUMPDEST DUP5 DUP5 SLOAD PUSH3 0xA8C JUMP JUMPDEST DUP3 SSTORE POP POP POP POP JUMP JUMPDEST PUSH0 SWAP1 JUMP JUMPDEST PUSH3 0xB53 PUSH3 0xB45 JUMP JUMPDEST PUSH3 0xB60 DUP2 DUP5 DUP5 PUSH3 0xB1A JUMP JUMPDEST POP POP POP JUMP JUMPDEST JUMPDEST DUP2 DUP2 LT ISZERO PUSH3 0xB87 JUMPI PUSH3 0xB7B PUSH0 DUP3 PUSH3 0xB49 JUMP JUMPDEST PUSH1 0x1 DUP2 ADD SWAP1 POP PUSH3 0xB66 JUMP JUMPDEST POP POP JUMP JUMPDEST PUSH1 0x1F DUP3 GT ISZERO PUSH3 0xBD6 JUMPI PUSH3 0xBA0 DUP2 PUSH3 0xA5F JUMP JUMPDEST PUSH3 0xBAB DUP5 PUSH3 0xA71 JUMP JUMPDEST DUP2 ADD PUSH1 0x20 DUP6 LT ISZERO PUSH3 0xBBB JUMPI DUP2 SWAP1 POP JUMPDEST PUSH3 0xBD3 PUSH3 0xBCA DUP6 PUSH3 0xA71 JUMP JUMPDEST DUP4 ADD DUP3 PUSH3 0xB65 JUMP JUMPDEST POP POP JUMPDEST POP POP POP JUMP JUMPDEST PUSH0 DUP3 DUP3 SHR SWAP1 POP SWAP3 SWAP2 POP POP JUMP JUMPDEST PUSH0 PUSH3 0xBF8 PUSH0 NOT DUP5 PUSH1 0x8 MUL PUSH3 0xBDB JUMP JUMPDEST NOT DUP1 DUP4 AND SWAP2 POP POP SWAP3 SWAP2 POP POP JUMP JUMPDEST PUSH0 PUSH3 0xC12 DUP4 DUP4 PUSH3 0xBE7 JUMP JUMPDEST SWAP2 POP DUP3 PUSH1 0x2 MUL DUP3 OR SWAP1 POP SWAP3 SWAP2 POP POP JUMP JUMPDEST PUSH3 0xC2D DUP3 PUSH3 0x9F4 JUMP JUMPDEST PUSH8 0xFFFFFFFFFFFFFFFF DUP2 GT ISZERO PUSH3 0xC49 JUMPI PUSH3 0xC48 PUSH3 0x62D JUMP JUMPDEST JUMPDEST PUSH3 0xC55 DUP3 SLOAD PUSH3 0xA2B JUMP JUMPDEST PUSH3 0xC62 DUP3 DUP3 DUP6 PUSH3 0xB8B JUMP JUMPDEST PUSH0 PUSH1 0x20 SWAP1 POP PUSH1 0x1F DUP4 GT PUSH1 0x1 DUP2 EQ PUSH3 0xC98 JUMPI PUSH0 DUP5 ISZERO PUSH3 0xC83 JUMPI DUP3 DUP8 ADD MLOAD SWAP1 POP JUMPDEST PUSH3 0xC8F DUP6 DUP3 PUSH3 0xC05 JUMP JUMPDEST DUP7 SSTORE POP PUSH3 0xCFE JUMP JUMPDEST PUSH1 0x1F NOT DUP5 AND PUSH3 0xCA8 DUP7 PUSH3 0xA5F JUMP JUMPDEST PUSH0 JUMPDEST DUP3 DUP2 LT ISZERO PUSH3 0xCD1 JUMPI DUP5 DUP10 ADD MLOAD DUP3 SSTORE PUSH1 0x1 DUP3 ADD SWAP2 POP PUSH1 0x20 DUP6 ADD SWAP5 POP PUSH1 0x20 DUP2 ADD SWAP1 POP PUSH3 0xCAA JUMP JUMPDEST DUP7 DUP4 LT ISZERO PUSH3 0xCF1 JUMPI DUP5 DUP10 ADD MLOAD PUSH3 0xCED PUSH1 0x1F DUP10 AND DUP3 PUSH3 0xBE7 JUMP JUMPDEST DUP4 SSTORE POP JUMPDEST PUSH1 0x1 PUSH1 0x2 DUP9 MUL ADD DUP9 SSTORE POP POP POP JUMPDEST POP POP POP POP POP POP JUMP JUMPDEST PUSH0 DUP3 DUP3 MSTORE PUSH1 0x20 DUP3 ADD SWAP1 POP SWAP3 SWAP2 POP POP JUMP JUMPDEST PUSH0 PUSH3 0xD22 DUP3 PUSH3 0x9F4 JUMP JUMPDEST PUSH3 0xD2E DUP2 DUP6 PUSH3 0xD06 JUMP JUMPDEST SWAP4 POP PUSH3 0xD40 DUP2 DUP6 PUSH1 0x20 DUP7 ADD PUSH3 0x6E3 JUMP JUMPDEST PUSH3 0xD4B DUP2 PUSH3 0x61D JUMP JUMPDEST DUP5 ADD SWAP2 POP POP SWAP3 SWAP2 POP POP JUMP JUMPDEST PUSH0 PUSH1 0x20 DUP3 ADD SWAP1 POP DUP2 DUP2 SUB PUSH0 DUP4 ADD MSTORE PUSH3 0xD70 DUP2 DUP5 PUSH3 0xD16 JUMP JUMPDEST SWAP1 POP SWAP3 SWAP2 POP POP JUMP JUMPDEST PUSH2 0x5C61 DUP1 PUSH3 0xD86 PUSH0 CODECOPY PUSH0 RETURN INVALID PUSH1 0x80 PUSH1 0x40 MSTORE PUSH1 0x4 CALLDATASIZE LT PUSH2 0x233 JUMPI PUSH0 CALLDATALOAD PUSH1 0xE0 SHR DUP1 PUSH4 0x715018A6 GT PUSH2 0x12D JUMPI DUP1 PUSH4 0xA8A65A78 GT PUSH2 0xAA JUMPI DUP1 PUSH4 0xDB8C9663 GT PUSH2 0x6E JUMPI DUP1 PUSH4 0xDB8C9663 EQ PUSH2 0x9BA JUMPI DUP1 PUSH4 0xDEDFF9C6 EQ PUSH2 0x9E2 JUMPI DUP1 PUSH4 0xF08E076D EQ PUSH2 0xA1E JUMPI DUP1 PUSH4 0xF2FDE38B EQ PUSH2 0xA5A JUMPI DUP1 PUSH4 0xF7B2A7BE EQ PUSH2 0xA82 JUMPI PUSH2 0x2AC JUMP JUMPDEST DUP1 PUSH4 0xA8A65A78 EQ PUSH2 0x8DC JUMPI DUP1 PUSH4 0xBE9F0E6F EQ PUSH2 0x904 JUMPI DUP1 PUSH4 0xC458D2AF EQ PUSH2 0x92C JUMPI DUP1 PUSH4 0xD54488FE EQ PUSH2 0x956 JUMPI DUP1 PUSH4 0xD6C1407C EQ PUSH2 0x992 JUMPI PUSH2 0x2AC JUMP JUMPDEST DUP1 PUSH4 0x8DA5CB5B GT PUSH2 0xF1 JUMPI DUP1 PUSH4 0x8DA5CB5B EQ PUSH2 0x7F6 JUMPI DUP1 PUSH4 0x92E18C4A EQ PUSH2 0x820 JUMPI DUP1 PUSH4 0x97902421 EQ PUSH2 0x848 JUMPI DUP1 PUSH4 0xA183177A EQ PUSH2 0x864 JUMPI DUP1 PUSH4 0xA3B261F2 EQ PUSH2 0x8A0 JUMPI PUSH2 0x2AC JUMP JUMPDEST DUP1 PUSH4 0x715018A6 EQ PUSH2 0x74C JUMPI DUP1 PUSH4 0x7AAD1F7D EQ PUSH2 0x762 JUMPI DUP1 PUSH4 0x7E87632C EQ PUSH2 0x78A JUMPI DUP1 PUSH4 0x7F23690C EQ PUSH2 0x7B2 JUMPI DUP1 PUSH4 0x86A10DDD EQ PUSH2 0x7CE JUMPI PUSH2 0x2AC JUMP JUMPDEST DUP1 PUSH4 0x2A3654A4 GT PUSH2 0x1BB JUMPI DUP1 PUSH4 0x5283C480 GT PUSH2 0x17F JUMPI DUP1 PUSH4 0x5283C480 EQ PUSH2 0x620 JUMPI DUP1 PUSH4 0x54F6127F EQ PUSH2 0x65C JUMPI DUP1 PUSH4 0x5ACC786E EQ PUSH2 0x698 JUMPI DUP1 PUSH4 0x6963D438 EQ PUSH2 0x6D4 JUMPI DUP1 PUSH4 0x70A08231 EQ PUSH2 0x710 JUMPI PUSH2 0x2AC JUMP JUMPDEST DUP1 PUSH4 0x2A3654A4 EQ PUSH2 0x508 JUMPI DUP1 PUSH4 0x3A22694B EQ PUSH2 0x544 JUMPI DUP1 PUSH4 0x49A6078D EQ PUSH2 0x580 JUMPI DUP1 PUSH4 0x4B74A1F1 EQ PUSH2 0x5BC JUMPI DUP1 PUSH4 0x511B6952 EQ PUSH2 0x5F8 JUMPI PUSH2 0x2AC JUMP JUMPDEST DUP1 PUSH4 0xC590F51 GT PUSH2 0x202 JUMPI DUP1 PUSH4 0xC590F51 EQ PUSH2 0x3EE JUMPI DUP1 PUSH4 0x16E023B3 EQ PUSH2 0x42A JUMPI DUP1 PUSH4 0x18160DDD EQ PUSH2 0x466 JUMPI DUP1 PUSH4 0x1D26FCE6 EQ PUSH2 0x490 JUMPI DUP1 PUSH4 0x217B2270 EQ PUSH2 0x4CC JUMPI PUSH2 0x2AC JUMP JUMPDEST DUP1 PUSH4 0x13EBA92 EQ PUSH2 0x312 JUMPI DUP1 PUSH4 0x1FFC9A7 EQ PUSH2 0x34E JUMPI DUP1 PUSH4 0x73C9695 EQ PUSH2 0x38A JUMPI DUP1 PUSH4 0x75BF131 EQ PUSH2 0x3B2 JUMPI PUSH2 0x2AC JUMP JUMPDEST CALLDATASIZE PUSH2 0x2AC JUMPI PUSH0 CALLVALUE SUB PUSH2 0x27A JUMPI PUSH1 0x40 MLOAD PUSH32 0xE5099EE300000000000000000000000000000000000000000000000000000000 DUP2 MSTORE PUSH1 0x4 ADD PUSH2 0x271 SWAP1 PUSH2 0x39A9 JUMP JUMPDEST PUSH1 0x40 MLOAD DUP1 SWAP2 SUB SWAP1 REVERT JUMPDEST PUSH1 0x40 MLOAD PUSH32 0x61F4944200000000000000000000000000000000000000000000000000000000 DUP2 MSTORE PUSH1 0x4 ADD PUSH1 0x40 MLOAD DUP1 SWAP2 SUB SWAP1 REVERT JUMPDEST PUSH0 CALLDATASIZE PUSH1 0x60 PUSH1 0x4 PUSH0 CALLDATASIZE SWAP1 POP LT ISZERO PUSH2 0x2FB JUMPI DUP3 DUP3 PUSH1 0x40 MLOAD PUSH32 0xE5099EE300000000000000000000000000000000000000000000000000000000 DUP2 MSTORE PUSH1 0x4 ADD PUSH2 0x2F2 SWAP3 SWAP2 SWAP1 PUSH2 0x3A11 JUMP JUMPDEST PUSH1 0x40 MLOAD DUP1 SWAP2 SUB SWAP1 REVERT JUMPDEST PUSH2 0x305 DUP4 DUP4 PUSH2 0xAAC JUMP JUMPDEST SWAP1 POP SWAP2 POP POP DUP1 MLOAD SWAP1 PUSH1 0x20 ADD RETURN JUMPDEST CALLVALUE DUP1 ISZERO PUSH2 0x31D JUMPI PUSH0 DUP1 REVERT JUMPDEST POP PUSH2 0x338 PUSH1 0x4 DUP1 CALLDATASIZE SUB DUP2 ADD SWAP1 PUSH2 0x333 SWAP2 SWAP1 PUSH2 0x3A9E JUMP JUMPDEST PUSH2 0xC22 JUMP JUMPDEST PUSH1 0x40 MLOAD PUSH2 0x345 SWAP2 SWAP1 PUSH2 0x3AE1 JUMP JUMPDEST PUSH1 0x40 MLOAD DUP1 SWAP2 SUB SWAP1 RETURN JUMPDEST CALLVALUE DUP1 ISZERO PUSH2 0x359 JUMPI PUSH0 DUP1 REVERT JUMPDEST POP PUSH2 0x374 PUSH1 0x4 DUP1 CALLDATASIZE SUB DUP2 ADD SWAP1 PUSH2 0x36F SWAP2 SWAP1 PUSH2 0x3B4F JUMP JUMPDEST PUSH2 0xC37 JUMP JUMPDEST PUSH1 0x40 MLOAD PUSH2 0x381 SWAP2 SWAP1 PUSH2 0x3B94 JUMP JUMPDEST PUSH1 0x40 MLOAD DUP1 SWAP2 SUB SWAP1 RETURN JUMPDEST CALLVALUE DUP1 ISZERO PUSH2 0x395 JUMPI PUSH0 DUP1 REVERT JUMPDEST POP PUSH2 0x3B0 PUSH1 0x4 DUP1 CALLDATASIZE SUB DUP2 ADD SWAP1 PUSH2 0x3AB SWAP2 SWAP1 PUSH2 0x3D28 JUMP JUMPDEST PUSH2 0xCA7 JUMP JUMPDEST STOP JUMPDEST CALLVALUE DUP1 ISZERO PUSH2 0x3BD JUMPI PUSH0 DUP1 REVERT JUMPDEST POP PUSH2 0x3D8 PUSH1 0x4 DUP1 CALLDATASIZE SUB DUP2 ADD SWAP1 PUSH2 0x3D3 SWAP2 SWAP1 PUSH2 0x3A9E JUMP JUMPDEST PUSH2 0xDCD JUMP JUMPDEST PUSH1 0x40 MLOAD PUSH2 0x3E5 SWAP2 SWAP1 PUSH2 0x3E12 JUMP JUMPDEST PUSH1 0x40 MLOAD DUP1 SWAP2 SUB SWAP1 RETURN JUMPDEST CALLVALUE DUP1 ISZERO PUSH2 0x3F9 JUMPI PUSH0 DUP1 REVERT JUMPDEST POP PUSH2 0x414 PUSH1 0x4 DUP1 CALLDATASIZE SUB DUP2 ADD SWAP1 PUSH2 0x40F SWAP2 SWAP1 PUSH2 0x3A9E JUMP JUMPDEST PUSH2 0xE68 JUMP JUMPDEST PUSH1 0x40 MLOAD PUSH2 0x421 SWAP2 SWAP1 PUSH2 0x3AE1 JUMP JUMPDEST PUSH1 0x40 MLOAD DUP1 SWAP2 SUB SWAP1 RETURN JUMPDEST CALLVALUE DUP1 ISZERO PUSH2 0x435 JUMPI PUSH0 DUP1 REVERT JUMPDEST POP PUSH2 0x450 PUSH1 0x4 DUP1 CALLDATASIZE SUB DUP2 ADD SWAP1 PUSH2 0x44B SWAP2 SWAP1 PUSH2 0x3E32 JUMP JUMPDEST PUSH2 0xEAE JUMP JUMPDEST PUSH1 0x40 MLOAD PUSH2 0x45D SWAP2 SWAP1 PUSH2 0x3E12 JUMP JUMPDEST PUSH1 0x40 MLOAD DUP1 SWAP2 SUB SWAP1 RETURN JUMPDEST CALLVALUE DUP1 ISZERO PUSH2 0x471 JUMPI PUSH0 DUP1 REVERT JUMPDEST POP PUSH2 0x47A PUSH2 0xEC2 JUMP JUMPDEST PUSH1 0x40 MLOAD PUSH2 0x487 SWAP2 SWAP1 PUSH2 0x3AE1 JUMP JUMPDEST PUSH1 0x40 MLOAD DUP1 SWAP2 SUB SWAP1 RETURN JUMPDEST CALLVALUE DUP1 ISZERO PUSH2 0x49B JUMPI PUSH0 DUP1 REVERT JUMPDEST POP PUSH2 0x4B6 PUSH1 0x4 DUP1 CALLDATASIZE SUB DUP2 ADD SWAP1 PUSH2 0x4B1 SWAP2 SWAP1 PUSH2 0x3F34 JUMP JUMPDEST PUSH2 0xECB JUMP JUMPDEST PUSH1 0x40 MLOAD PUSH2 0x4C3 SWAP2 SWAP1 PUSH2 0x40AD JUMP JUMPDEST PUSH1 0x40 MLOAD DUP1 SWAP2 SUB SWAP1 RETURN JUMPDEST CALLVALUE DUP1 ISZERO PUSH2 0x4D7 JUMPI PUSH0 DUP1 REVERT JUMPDEST POP PUSH2 0x4F2 PUSH1 0x4 DUP1 CALLDATASIZE SUB DUP2 ADD SWAP1 PUSH2 0x4ED SWAP2 SWAP1 PUSH2 0x40CD JUMP JUMPDEST PUSH2 0xFD2 JUMP JUMPDEST PUSH1 0x40 MLOAD PUSH2 0x4FF SWAP2 SWAP1 PUSH2 0x4107 JUMP JUMPDEST PUSH1 0x40 MLOAD DUP1 SWAP2 SUB SWAP1 RETURN JUMPDEST CALLVALUE DUP1 ISZERO PUSH2 0x513 JUMPI PUSH0 DUP1 REVERT JUMPDEST POP PUSH2 0x52E PUSH1 0x4 DUP1 CALLDATASIZE SUB DUP2 ADD SWAP1 PUSH2 0x529 SWAP2 SWAP1 PUSH2 0x4120 JUMP JUMPDEST PUSH2 0x1080 JUMP JUMPDEST PUSH1 0x40 MLOAD PUSH2 0x53B SWAP2 SWAP1 PUSH2 0x3B94 JUMP JUMPDEST PUSH1 0x40 MLOAD DUP1 SWAP2 SUB SWAP1 RETURN JUMPDEST CALLVALUE DUP1 ISZERO PUSH2 0x54F JUMPI PUSH0 DUP1 REVERT JUMPDEST POP PUSH2 0x56A PUSH1 0x4 DUP1 CALLDATASIZE SUB DUP2 ADD SWAP1 PUSH2 0x565 SWAP2 SWAP1 PUSH2 0x40CD JUMP JUMPDEST PUSH2 0x1093 JUMP JUMPDEST PUSH1 0x40 MLOAD PUSH2 0x577 SWAP2 SWAP1 PUSH2 0x3AE1 JUMP JUMPDEST PUSH1 0x40 MLOAD DUP1 SWAP2 SUB SWAP1 RETURN JUMPDEST CALLVALUE DUP1 ISZERO PUSH2 0x58B JUMPI PUSH0 DUP1 REVERT JUMPDEST POP PUSH2 0x5A6 PUSH1 0x4 DUP1 CALLDATASIZE SUB DUP2 ADD SWAP1 PUSH2 0x5A1 SWAP2 SWAP1 PUSH2 0x40CD JUMP JUMPDEST PUSH2 0x111C JUMP JUMPDEST PUSH1 0x40 MLOAD PUSH2 0x5B3 SWAP2 SWAP1 PUSH2 0x4215 JUMP JUMPDEST PUSH1 0x40 MLOAD DUP1 SWAP2 SUB SWAP1 RETURN JUMPDEST CALLVALUE DUP1 ISZERO PUSH2 0x5C7 JUMPI PUSH0 DUP1 REVERT JUMPDEST POP PUSH2 0x5E2 PUSH1 0x4 DUP1 CALLDATASIZE SUB DUP2 ADD SWAP1 PUSH2 0x5DD SWAP2 SWAP1 PUSH2 0x3A9E JUMP JUMPDEST PUSH2 0x1147 JUMP JUMPDEST PUSH1 0x40 MLOAD PUSH2 0x5EF SWAP2 SWAP1 PUSH2 0x3E12 JUMP JUMPDEST PUSH1 0x40 MLOAD DUP1 SWAP2 SUB SWAP1 RETURN JUMPDEST CALLVALUE DUP1 ISZERO PUSH2 0x603 JUMPI PUSH0 DUP1 REVERT JUMPDEST POP PUSH2 0x61E PUSH1 0x4 DUP1 CALLDATASIZE SUB DUP2 ADD SWAP1 PUSH2 0x619 SWAP2 SWAP1 PUSH2 0x425F JUMP JUMPDEST PUSH2 0x1214 JUMP JUMPDEST STOP JUMPDEST CALLVALUE DUP1 ISZERO PUSH2 0x62B JUMPI PUSH0 DUP1 REVERT JUMPDEST POP PUSH2 0x646 PUSH1 0x4 DUP1 CALLDATASIZE SUB DUP2 ADD SWAP1 PUSH2 0x641 SWAP2 SWAP1 PUSH2 0x42F2 JUMP JUMPDEST PUSH2 0x1275 JUMP JUMPDEST PUSH1 0x40 MLOAD PUSH2 0x653 SWAP2 SWAP1 PUSH2 0x3B94 JUMP JUMPDEST PUSH1 0x40 MLOAD DUP1 SWAP2 SUB SWAP1 RETURN JUMPDEST CALLVALUE DUP1 ISZERO PUSH2 0x667 JUMPI PUSH0 DUP1 REVERT JUMPDEST POP PUSH2 0x682 PUSH1 0x4 DUP1 CALLDATASIZE SUB DUP2 ADD SWAP1 PUSH2 0x67D SWAP2 SWAP1 PUSH2 0x40CD JUMP JUMPDEST PUSH2 0x129F JUMP JUMPDEST PUSH1 0x40 MLOAD PUSH2 0x68F SWAP2 SWAP1 PUSH2 0x3E12 JUMP JUMPDEST PUSH1 0x40 MLOAD DUP1 SWAP2 SUB SWAP1 RETURN JUMPDEST CALLVALUE DUP1 ISZERO PUSH2 0x6A3 JUMPI PUSH0 DUP1 REVERT JUMPDEST POP PUSH2 0x6BE PUSH1 0x4 DUP1 CALLDATASIZE SUB DUP2 ADD SWAP1 PUSH2 0x6B9 SWAP2 SWAP1 PUSH2 0x4330 JUMP JUMPDEST PUSH2 0x12B1 JUMP JUMPDEST PUSH1 0x40 MLOAD PUSH2 0x6CB SWAP2 SWAP1 PUSH2 0x4107 JUMP JUMPDEST PUSH1 0x40 MLOAD DUP1 SWAP2 SUB SWAP1 RETURN JUMPDEST CALLVALUE DUP1 ISZERO PUSH2 0x6DF JUMPI PUSH0 DUP1 REVERT JUMPDEST POP PUSH2 0x6FA PUSH1 0x4 DUP1 CALLDATASIZE SUB DUP2 ADD SWAP1 PUSH2 0x6F5 SWAP2 SWAP1 PUSH2 0x43C7 JUMP JUMPDEST PUSH2 0x12F9 JUMP JUMPDEST PUSH1 0x40 MLOAD PUSH2 0x707 SWAP2 SWAP1 PUSH2 0x40AD JUMP JUMPDEST PUSH1 0x40 MLOAD DUP1 SWAP2 SUB SWAP1 RETURN JUMPDEST CALLVALUE DUP1 ISZERO PUSH2 0x71B JUMPI PUSH0 DUP1 REVERT JUMPDEST POP PUSH2 0x736 PUSH1 0x4 DUP1 CALLDATASIZE SUB DUP2 ADD SWAP1 PUSH2 0x731 SWAP2 SWAP1 PUSH2 0x3A9E JUMP JUMPDEST PUSH2 0x146F JUMP JUMPDEST PUSH1 0x40 MLOAD PUSH2 0x743 SWAP2 SWAP1 PUSH2 0x3AE1 JUMP JUMPDEST PUSH1 0x40 MLOAD DUP1 SWAP2 SUB SWAP1 RETURN JUMPDEST CALLVALUE DUP1 ISZERO PUSH2 0x757 JUMPI PUSH0 DUP1 REVERT JUMPDEST POP PUSH2 0x760 PUSH2 0x14BC JUMP JUMPDEST STOP JUMPDEST CALLVALUE DUP1 ISZERO PUSH2 0x76D JUMPI PUSH0 DUP1 REVERT JUMPDEST POP PUSH2 0x788 PUSH1 0x4 DUP1 CALLDATASIZE SUB DUP2 ADD SWAP1 PUSH2 0x783 SWAP2 SWAP1 PUSH2 0x40CD JUMP JUMPDEST PUSH2 0x14CF JUMP JUMPDEST STOP JUMPDEST CALLVALUE DUP1 ISZERO PUSH2 0x795 JUMPI PUSH0 DUP1 REVERT JUMPDEST POP PUSH2 0x7B0 PUSH1 0x4 DUP1 CALLDATASIZE SUB DUP2 ADD SWAP1 PUSH2 0x7AB SWAP2 SWAP1 PUSH2 0x4670 JUMP JUMPDEST PUSH2 0x1682 JUMP JUMPDEST STOP JUMPDEST PUSH2 0x7CC PUSH1 0x4 DUP1 CALLDATASIZE SUB DUP2 ADD SWAP1 PUSH2 0x7C7 SWAP2 SWAP1 PUSH2 0x4773 JUMP JUMPDEST PUSH2 0x1794 JUMP JUMPDEST STOP JUMPDEST CALLVALUE DUP1 ISZERO PUSH2 0x7D9 JUMPI PUSH0 DUP1 REVERT JUMPDEST POP PUSH2 0x7F4 PUSH1 0x4 DUP1 CALLDATASIZE SUB DUP2 ADD SWAP1 PUSH2 0x7EF SWAP2 SWAP1 PUSH2 0x47CD JUMP JUMPDEST PUSH2 0x17E3 JUMP JUMPDEST STOP JUMPDEST CALLVALUE DUP1 ISZERO PUSH2 0x801 JUMPI PUSH0 DUP1 REVERT JUMPDEST POP PUSH2 0x80A PUSH2 0x1A39 JUMP JUMPDEST PUSH1 0x40 MLOAD PUSH2 0x817 SWAP2 SWAP1 PUSH2 0x4107 JUMP JUMPDEST PUSH1 0x40 MLOAD DUP1 SWAP2 SUB SWAP1 RETURN JUMPDEST CALLVALUE DUP1 ISZERO PUSH2 0x82B JUMPI PUSH0 DUP1 REVERT JUMPDEST POP PUSH2 0x846 PUSH1 0x4 DUP1 CALLDATASIZE SUB DUP2 ADD SWAP1 PUSH2 0x841 SWAP2 SWAP1 PUSH2 0x4839 JUMP JUMPDEST PUSH2 0x1A60 JUMP JUMPDEST STOP JUMPDEST PUSH2 0x862 PUSH1 0x4 DUP1 CALLDATASIZE SUB DUP2 ADD SWAP1 PUSH2 0x85D SWAP2 SWAP1 PUSH2 0x4893 JUMP JUMPDEST PUSH2 0x1AAF JUMP JUMPDEST STOP JUMPDEST CALLVALUE DUP1 ISZERO PUSH2 0x86F JUMPI PUSH0 DUP1 REVERT JUMPDEST POP PUSH2 0x88A PUSH1 0x4 DUP1 CALLDATASIZE SUB DUP2 ADD SWAP1 PUSH2 0x885 SWAP2 SWAP1 PUSH2 0x49A7 JUMP JUMPDEST PUSH2 0x1BBE JUMP JUMPDEST PUSH1 0x40 MLOAD PUSH2 0x897 SWAP2 SWAP1 PUSH2 0x4107 JUMP JUMPDEST PUSH1 0x40 MLOAD DUP1 SWAP2 SUB SWAP1 RETURN JUMPDEST CALLVALUE DUP1 ISZERO PUSH2 0x8AB JUMPI PUSH0 DUP1 REVERT JUMPDEST POP PUSH2 0x8C6 PUSH1 0x4 DUP1 CALLDATASIZE SUB DUP2 ADD SWAP1 PUSH2 0x8C1 SWAP2 SWAP1 PUSH2 0x3A9E JUMP JUMPDEST PUSH2 0x1DCB JUMP JUMPDEST PUSH1 0x40 MLOAD PUSH2 0x8D3 SWAP2 SWAP1 PUSH2 0x4B6B JUMP JUMPDEST PUSH1 0x40 MLOAD DUP1 SWAP2 SUB SWAP1 RETURN JUMPDEST CALLVALUE DUP1 ISZERO PUSH2 0x8E7 JUMPI PUSH0 DUP1 REVERT JUMPDEST POP PUSH2 0x902 PUSH1 0x4 DUP1 CALLDATASIZE SUB DUP2 ADD SWAP1 PUSH2 0x8FD SWAP2 SWAP1 PUSH2 0x4B8B JUMP JUMPDEST PUSH2 0x1E19 JUMP JUMPDEST STOP JUMPDEST CALLVALUE DUP1 ISZERO PUSH2 0x90F JUMPI PUSH0 DUP1 REVERT JUMPDEST POP PUSH2 0x92A PUSH1 0x4 DUP1 CALLDATASIZE SUB DUP2 ADD SWAP1 PUSH2 0x925 SWAP2 SWAP1 PUSH2 0x4BB6 JUMP JUMPDEST PUSH2 0x1E2B JUMP JUMPDEST STOP JUMPDEST CALLVALUE DUP1 ISZERO PUSH2 0x937 JUMPI PUSH0 DUP1 REVERT JUMPDEST POP PUSH2 0x940 PUSH2 0x1F2C JUMP JUMPDEST PUSH1 0x40 MLOAD PUSH2 0x94D SWAP2 SWAP1 PUSH2 0x3AE1 JUMP JUMPDEST PUSH1 0x40 MLOAD DUP1 SWAP2 SUB SWAP1 RETURN JUMPDEST CALLVALUE DUP1 ISZERO PUSH2 0x961 JUMPI PUSH0 DUP1 REVERT JUMPDEST POP PUSH2 0x97C PUSH1 0x4 DUP1 CALLDATASIZE SUB DUP2 ADD SWAP1 PUSH2 0x977 SWAP2 SWAP1 PUSH2 0x40CD JUMP JUMPDEST PUSH2 0x1F32 JUMP JUMPDEST PUSH1 0x40 MLOAD PUSH2 0x989 SWAP2 SWAP1 PUSH2 0x4215 JUMP JUMPDEST PUSH1 0x40 MLOAD DUP1 SWAP2 SUB SWAP1 RETURN JUMPDEST CALLVALUE DUP1 ISZERO PUSH2 0x99D JUMPI PUSH0 DUP1 REVERT JUMPDEST POP PUSH2 0x9B8 PUSH1 0x4 DUP1 CALLDATASIZE SUB DUP2 ADD SWAP1 PUSH2 0x9B3 SWAP2 SWAP1 PUSH2 0x4C5A JUMP JUMPDEST PUSH2 0x1FCE JUMP JUMPDEST STOP JUMPDEST CALLVALUE DUP1 ISZERO PUSH2 0x9C5 JUMPI PUSH0 DUP1 REVERT JUMPDEST POP PUSH2 0x9E0 PUSH1 0x4 DUP1 CALLDATASIZE SUB DUP2 ADD SWAP1 PUSH2 0x9DB SWAP2 SWAP1 PUSH2 0x4CC6 JUMP JUMPDEST PUSH2 0x1FE6 JUMP JUMPDEST STOP JUMPDEST CALLVALUE DUP1 ISZERO PUSH2 0x9ED JUMPI PUSH0 DUP1 REVERT JUMPDEST POP PUSH2 0xA08 PUSH1 0x4 DUP1 CALLDATASIZE SUB DUP2 ADD SWAP1 PUSH2 0xA03 SWAP2 SWAP1 PUSH2 0x4D46 JUMP JUMPDEST PUSH2 0x21B3 JUMP JUMPDEST PUSH1 0x40 MLOAD PUSH2 0xA15 SWAP2 SWAP1 PUSH2 0x40AD JUMP JUMPDEST PUSH1 0x40 MLOAD DUP1 SWAP2 SUB SWAP1 RETURN JUMPDEST CALLVALUE DUP1 ISZERO PUSH2 0xA29 JUMPI PUSH0 DUP1 REVERT JUMPDEST POP PUSH2 0xA44 PUSH1 0x4 DUP1 CALLDATASIZE SUB DUP2 ADD SWAP1 PUSH2 0xA3F SWAP2 SWAP1 PUSH2 0x3A9E JUMP JUMPDEST PUSH2 0x2263 JUMP JUMPDEST PUSH1 0x40 MLOAD PUSH2 0xA51 SWAP2 SWAP1 PUSH2 0x3AE1 JUMP JUMPDEST PUSH1 0x40 MLOAD DUP1 SWAP2 SUB SWAP1 RETURN JUMPDEST CALLVALUE DUP1 ISZERO PUSH2 0xA65 JUMPI PUSH0 DUP1 REVERT JUMPDEST POP PUSH2 0xA80 PUSH1 0x4 DUP1 CALLDATASIZE SUB DUP2 ADD SWAP1 PUSH2 0xA7B SWAP2 SWAP1 PUSH2 0x3A9E JUMP JUMPDEST PUSH2 0x2278 JUMP JUMPDEST STOP JUMPDEST CALLVALUE DUP1 ISZERO PUSH2 0xA8D JUMPI PUSH0 DUP1 REVERT JUMPDEST POP PUSH2 0xA96 PUSH2 0x22F1 JUMP JUMPDEST PUSH1 0x40 MLOAD PUSH2 0xAA3 SWAP2 SWAP1 PUSH2 0x3AE1 JUMP JUMPDEST PUSH1 0x40 MLOAD DUP1 SWAP2 SUB SWAP1 RETURN JUMPDEST PUSH1 0x60 PUSH0 PUSH2 0xADB PUSH0 CALLDATALOAD PUSH32 0xFFFFFFFF00000000000000000000000000000000000000000000000000000000 AND PUSH2 0x22F7 JUMP JUMPDEST POP SWAP1 POP PUSH0 PUSH20 0xFFFFFFFFFFFFFFFFFFFFFFFFFFFFFFFFFFFFFFFF AND DUP2 PUSH20 0xFFFFFFFFFFFFFFFFFFFFFFFFFFFFFFFFFFFFFFFF AND SUB PUSH2 0xB71 JUMPI PUSH0 CALLDATALOAD PUSH32 0xFFFFFFFF00000000000000000000000000000000000000000000000000000000 AND PUSH1 0x40 MLOAD PUSH32 0xBB370B2B00000000000000000000000000000000000000000000000000000000 DUP2 MSTORE PUSH1 0x4 ADD PUSH2 0xB68 SWAP2 SWAP1 PUSH2 0x4D9C JUMP JUMPDEST PUSH1 0x40 MLOAD DUP1 SWAP2 SUB SWAP1 REVERT JUMPDEST PUSH0 DUP1 DUP3 PUSH20 0xFFFFFFFFFFFFFFFFFFFFFFFFFFFFFFFFFFFFFFFF AND CALLVALUE DUP8 DUP8 CALLER CALLVALUE PUSH1 0x40 MLOAD PUSH1 0x20 ADD PUSH2 0xBA2 SWAP5 SWAP4 SWAP3 SWAP2 SWAP1 PUSH2 0x4E48 JUMP JUMPDEST PUSH1 0x40 MLOAD PUSH1 0x20 DUP2 DUP4 SUB SUB DUP2 MSTORE SWAP1 PUSH1 0x40 MSTORE PUSH1 0x40 MLOAD PUSH2 0xBBE SWAP2 SWAP1 PUSH2 0x4EB2 JUMP JUMPDEST PUSH0 PUSH1 0x40 MLOAD DUP1 DUP4 SUB DUP2 DUP6 DUP8 GAS CALL SWAP3 POP POP POP RETURNDATASIZE DUP1 PUSH0 DUP2 EQ PUSH2 0xBF8 JUMPI PUSH1 0x40 MLOAD SWAP2 POP PUSH1 0x1F NOT PUSH1 0x3F RETURNDATASIZE ADD AND DUP3 ADD PUSH1 0x40 MSTORE RETURNDATASIZE DUP3 MSTORE RETURNDATASIZE PUSH0 PUSH1 0x20 DUP5 ADD RETURNDATACOPY PUSH2 0xBFD JUMP JUMPDEST PUSH1 0x60 SWAP2 POP JUMPDEST POP SWAP2 POP SWAP2 POP DUP2 ISZERO PUSH2 0xC13 JUMPI DUP1 SWAP4 POP POP POP POP PUSH2 0xC1C JUMP JUMPDEST DUP1 MLOAD DUP1 PUSH1 0x20 DUP4 ADD REVERT JUMPDEST SWAP3 SWAP2 POP POP JUMP JUMPDEST PUSH1 0x9 PUSH1 0x20 MSTORE DUP1 PUSH0 MSTORE PUSH1 0x40 PUSH0 KECCAK256 PUSH0 SWAP2 POP SWAP1 POP SLOAD DUP2 JUMP JUMPDEST PUSH0 PUSH4 0x3A271706 PUSH1 0xE0 SHL PUSH28 0xFFFFFFFFFFFFFFFFFFFFFFFFFFFFFFFFFFFFFFFFFFFFFFFFFFFFFFFF NOT AND DUP3 PUSH28 0xFFFFFFFFFFFFFFFFFFFFFFFFFFFFFFFFFFFFFFFFFFFFFFFFFFFFFFFF NOT AND EQ DUP1 PUSH2 0xC90 JUMPI POP PUSH2 0xC8F DUP3 PUSH2 0x23AD JUMP JUMPDEST JUMPDEST DUP1 PUSH2 0xCA0 JUMPI POP PUSH2 0xC9F DUP3 PUSH2 0x240D JUMP JUMPDEST JUMPDEST SWAP1 POP SWAP2 SWAP1 POP JUMP JUMPDEST PUSH0 DUP3 GT PUSH2 0xCE9 JUMPI PUSH1 0x40 MLOAD PUSH32 0x8C379A000000000000000000000000000000000000000000000000000000000 DUP2 MSTORE PUSH1 0x4 ADD PUSH2 0xCE0 SWAP1 PUSH2 0x4F22 JUMP JUMPDEST PUSH1 0x40 MLOAD DUP1 SWAP2 SUB SWAP1 REVERT JUMPDEST PUSH0 DUP5 PUSH0 SHR SWAP1 POP DUP1 PUSH20 0xFFFFFFFFFFFFFFFFFFFFFFFFFFFFFFFFFFFFFFFF AND PUSH4 0x760D9BBA CALLER DUP7 DUP7 PUSH1 0x1 DUP8 PUSH1 0x40 MLOAD DUP7 PUSH4 0xFFFFFFFF AND PUSH1 0xE0 SHL DUP2 MSTORE PUSH1 0x4 ADD PUSH2 0xD31 SWAP6 SWAP5 SWAP4 SWAP3 SWAP2 SWAP1 PUSH2 0x4F40 JUMP JUMPDEST PUSH0 PUSH1 0x40 MLOAD DUP1 DUP4 SUB DUP2 PUSH0 DUP8 DUP1 EXTCODESIZE ISZERO DUP1 ISZERO PUSH2 0xD48 JUMPI PUSH0 DUP1 REVERT JUMPDEST POP GAS CALL ISZERO DUP1 ISZERO PUSH2 0xD5A JUMPI RETURNDATASIZE PUSH0 DUP1 RETURNDATACOPY RETURNDATASIZE PUSH0 REVERT JUMPDEST POP POP POP POP DUP5 DUP5 PUSH20 0xFFFFFFFFFFFFFFFFFFFFFFFFFFFFFFFFFFFFFFFF AND CALLER PUSH20 0xFFFFFFFFFFFFFFFFFFFFFFFFFFFFFFFFFFFFFFFF AND PUSH32 0x16F28F036659CC50493268CF426453374D9F751A0940DC150E214371E2BD1BDB DUP7 DUP7 PUSH1 0x40 MLOAD PUSH2 0xDBE SWAP3 SWAP2 SWAP1 PUSH2 0x4F98 JUMP JUMPDEST PUSH1 0x40 MLOAD DUP1 SWAP2 SUB SWAP1 LOG4 POP POP POP POP POP JUMP JUMPDEST PUSH1 0xD PUSH1 0x20 MSTORE DUP1 PUSH0 MSTORE PUSH1 0x40 PUSH0 KECCAK256 PUSH0 SWAP2 POP SWAP1 POP DUP1 SLOAD PUSH2 0xDE9 SWAP1 PUSH2 0x4FF3 JUMP JUMPDEST DUP1 PUSH1 0x1F ADD PUSH1 0x20 DUP1 SWAP2 DIV MUL PUSH1 0x20 ADD PUSH1 0x40 MLOAD SWAP1 DUP2 ADD PUSH1 0x40 MSTORE DUP1 SWAP3 SWAP2 SWAP1 DUP2 DUP2 MSTORE PUSH1 0x20 ADD DUP3 DUP1 SLOAD PUSH2 0xE15 SWAP1 PUSH2 0x4FF3 JUMP JUMPDEST DUP1 ISZERO PUSH2 0xE60 JUMPI DUP1 PUSH1 0x1F LT PUSH2 0xE37 JUMPI PUSH2 0x100 DUP1 DUP4 SLOAD DIV MUL DUP4 MSTORE SWAP2 PUSH1 0x20 ADD SWAP2 PUSH2 0xE60 JUMP JUMPDEST DUP3 ADD SWAP2 SWAP1 PUSH0 MSTORE PUSH1 0x20 PUSH0 KECCAK256 SWAP1 JUMPDEST DUP2 SLOAD DUP2 MSTORE SWAP1 PUSH1 0x1 ADD SWAP1 PUSH1 0x20 ADD DUP1 DUP4 GT PUSH2 0xE43 JUMPI DUP3 SWAP1 SUB PUSH1 0x1F AND DUP3 ADD SWAP2 JUMPDEST POP POP POP POP POP DUP2 JUMP JUMPDEST PUSH0 PUSH1 0xA PUSH0 DUP4 PUSH20 0xFFFFFFFFFFFFFFFFFFFFFFFFFFFFFFFFFFFFFFFF AND PUSH20 0xFFFFFFFFFFFFFFFFFFFFFFFFFFFFFFFFFFFFFFFF AND DUP2 MSTORE PUSH1 0x20 ADD SWAP1 DUP2 MSTORE PUSH1 0x20 ADD PUSH0 KECCAK256 SLOAD SWAP1 POP SWAP2 SWAP1 POP JUMP JUMPDEST PUSH1 0x60 PUSH2 0xEBA DUP4 DUP4 PUSH2 0x2471 JUMP JUMPDEST SWAP1 POP SWAP3 SWAP2 POP POP JUMP JUMPDEST PUSH0 PUSH1 0x2 SLOAD SWAP1 POP SWAP1 JUMP JUMPDEST PUSH1 0x60 DUP2 MLOAD DUP4 MLOAD EQ PUSH2 0xF08 JUMPI PUSH1 0x40 MLOAD PUSH32 0x2FA71DFE00000000000000000000000000000000000000000000000000000000 DUP2 MSTORE PUSH1 0x4 ADD PUSH1 0x40 MLOAD DUP1 SWAP2 SUB SWAP1 REVERT JUMPDEST DUP3 MLOAD PUSH8 0xFFFFFFFFFFFFFFFF DUP2 GT ISZERO PUSH2 0xF23 JUMPI PUSH2 0xF22 PUSH2 0x3C12 JUMP JUMPDEST JUMPDEST PUSH1 0x40 MLOAD SWAP1 DUP1 DUP3 MSTORE DUP1 PUSH1 0x20 MUL PUSH1 0x20 ADD DUP3 ADD PUSH1 0x40 MSTORE DUP1 ISZERO PUSH2 0xF56 JUMPI DUP2 PUSH1 0x20 ADD JUMPDEST PUSH1 0x60 DUP2 MSTORE PUSH1 0x20 ADD SWAP1 PUSH1 0x1 SWAP1 SUB SWAP1 DUP2 PUSH2 0xF41 JUMPI SWAP1 POP JUMPDEST POP SWAP1 POP PUSH0 JUMPDEST DUP4 MLOAD DUP2 LT ISZERO PUSH2 0xFCB JUMPI PUSH2 0xFA2 DUP5 DUP3 DUP2 MLOAD DUP2 LT PUSH2 0xF7A JUMPI PUSH2 0xF79 PUSH2 0x5023 JUMP JUMPDEST JUMPDEST PUSH1 0x20 MUL PUSH1 0x20 ADD ADD MLOAD DUP5 DUP4 DUP2 MLOAD DUP2 LT PUSH2 0xF95 JUMPI PUSH2 0xF94 PUSH2 0x5023 JUMP JUMPDEST JUMPDEST PUSH1 0x20 MUL PUSH1 0x20 ADD ADD MLOAD PUSH2 0x2471 JUMP JUMPDEST DUP3 DUP3 DUP2 MLOAD DUP2 LT PUSH2 0xFB5 JUMPI PUSH2 0xFB4 PUSH2 0x5023 JUMP JUMPDEST JUMPDEST PUSH1 0x20 MUL PUSH1 0x20 ADD ADD DUP2 SWAP1 MSTORE POP DUP1 PUSH1 0x1 ADD SWAP1 POP PUSH2 0xF5B JUMP JUMPDEST POP SWAP3 SWAP2 POP POP JUMP JUMPDEST PUSH0 DUP1 PUSH1 0x3 PUSH0 DUP5 DUP2 MSTORE PUSH1 0x20 ADD SWAP1 DUP2 MSTORE PUSH1 0x20 ADD PUSH0 KECCAK256 PUSH0 SWAP1 SLOAD SWAP1 PUSH2 0x100 EXP SWAP1 DIV PUSH20 0xFFFFFFFFFFFFFFFFFFFFFFFFFFFFFFFFFFFFFFFF AND SWAP1 POP PUSH0 PUSH20 0xFFFFFFFFFFFFFFFFFFFFFFFFFFFFFFFFFFFFFFFF AND DUP2 PUSH20 0xFFFFFFFFFFFFFFFFFFFFFFFFFFFFFFFFFFFFFFFF AND SUB PUSH2 0x1077 JUMPI DUP3 PUSH1 0x40 MLOAD PUSH32 0xAE8F9A3600000000000000000000000000000000000000000000000000000000 DUP2 MSTORE PUSH1 0x4 ADD PUSH2 0x106E SWAP2 SWAP1 PUSH2 0x505F JUMP JUMPDEST PUSH1 0x40 MLOAD DUP1 SWAP2 SUB SWAP1 REVERT JUMPDEST DUP1 SWAP2 POP POP SWAP2 SWAP1 POP JUMP JUMPDEST PUSH0 PUSH2 0x108B DUP4 DUP4 PUSH2 0x2485 JUMP JUMPDEST SWAP1 POP SWAP3 SWAP2 POP POP JUMP JUMPDEST PUSH0 DUP1 DUP3 PUSH0 SHR SWAP1 POP DUP1 PUSH20 0xFFFFFFFFFFFFFFFFFFFFFFFFFFFFFFFFFFFFFFFF AND PUSH4 0xDD62ED3E CALLER ADDRESS PUSH1 0x40 MLOAD DUP4 PUSH4 0xFFFFFFFF AND PUSH1 0xE0 SHL DUP2 MSTORE PUSH1 0x4 ADD PUSH2 0x10D5 SWAP3 SWAP2 SWAP1 PUSH2 0x5078 JUMP JUMPDEST PUSH1 0x20 PUSH1 0x40 MLOAD DUP1 DUP4 SUB DUP2 DUP7 GAS STATICCALL ISZERO DUP1 ISZERO PUSH2 0x10F0 JUMPI RETURNDATASIZE PUSH0 DUP1 RETURNDATACOPY RETURNDATASIZE PUSH0 REVERT JUMPDEST POP POP POP POP PUSH1 0x40 MLOAD RETURNDATASIZE PUSH1 0x1F NOT PUSH1 0x1F DUP3 ADD AND DUP3 ADD DUP1 PUSH1 0x40 MSTORE POP DUP2 ADD SWAP1 PUSH2 0x1114 SWAP2 SWAP1 PUSH2 0x50B3 JUMP JUMPDEST SWAP2 POP POP SWAP2 SWAP1 POP JUMP JUMPDEST PUSH1 0x60 PUSH2 0x1127 DUP3 PUSH2 0x24EF JUMP JUMPDEST PUSH2 0x1140 PUSH1 0x5 PUSH0 DUP5 DUP2 MSTORE PUSH1 0x20 ADD SWAP1 DUP2 MSTORE PUSH1 0x20 ADD PUSH0 KECCAK256 PUSH2 0x253C JUMP JUMPDEST SWAP1 POP SWAP2 SWAP1 POP JUMP JUMPDEST PUSH1 0x60 PUSH1 0xD PUSH0 DUP4 PUSH20 0xFFFFFFFFFFFFFFFFFFFFFFFFFFFFFFFFFFFFFFFF AND PUSH20 0xFFFFFFFFFFFFFFFFFFFFFFFFFFFFFFFFFFFFFFFF AND DUP2 MSTORE PUSH1 0x20 ADD SWAP1 DUP2 MSTORE PUSH1 0x20 ADD PUSH0 KECCAK256 DUP1 SLOAD PUSH2 0x1191 SWAP1 PUSH2 0x4FF3 JUMP JUMPDEST DUP1 PUSH1 0x1F ADD PUSH1 0x20 DUP1 SWAP2 DIV MUL PUSH1 0x20 ADD PUSH1 0x40 MLOAD SWAP1 DUP2 ADD PUSH1 0x40 MSTORE DUP1 SWAP3 SWAP2 SWAP1 DUP2 DUP2 MSTORE PUSH1 0x20 ADD DUP3 DUP1 SLOAD PUSH2 0x11BD SWAP1 PUSH2 0x4FF3 JUMP JUMPDEST DUP1 ISZERO PUSH2 0x1208 JUMPI DUP1 PUSH1 0x1F LT PUSH2 0x11DF JUMPI PUSH2 0x100 DUP1 DUP4 SLOAD DIV MUL DUP4 MSTORE SWAP2 PUSH1 0x20 ADD SWAP2 PUSH2 0x1208 JUMP JUMPDEST DUP3 ADD SWAP2 SWAP1 PUSH0 MSTORE PUSH1 0x20 PUSH0 KECCAK256 SWAP1 JUMPDEST DUP2 SLOAD DUP2 MSTORE SWAP1 PUSH1 0x1 ADD SWAP1 PUSH1 0x20 ADD DUP1 DUP4 GT PUSH2 0x11EB JUMPI DUP3 SWAP1 SUB PUSH1 0x1F AND DUP3 ADD SWAP2 JUMPDEST POP POP POP POP POP SWAP1 POP SWAP2 SWAP1 POP JUMP JUMPDEST PUSH2 0x121E CALLER DUP5 PUSH2 0x2485 JUMP JUMPDEST PUSH2 0x1261 JUMPI DUP3 CALLER PUSH1 0x40 MLOAD PUSH32 0x1294D2A900000000000000000000000000000000000000000000000000000000 DUP2 MSTORE PUSH1 0x4 ADD PUSH2 0x1258 SWAP3 SWAP2 SWAP1 PUSH2 0x50DE JUMP JUMPDEST PUSH1 0x40 MLOAD DUP1 SWAP2 SUB SWAP1 REVERT JUMPDEST PUSH2 0x126E DUP6 DUP6 DUP6 DUP6 DUP6 PUSH2 0x255B JUMP JUMPDEST POP POP POP POP POP JUMP JUMPDEST PUSH1 0xC PUSH1 0x20 MSTORE DUP2 PUSH0 MSTORE PUSH1 0x40 PUSH0 KECCAK256 PUSH1 0x20 MSTORE DUP1 PUSH0 MSTORE PUSH1 0x40 PUSH0 KECCAK256 PUSH0 SWAP2 POP SWAP2 POP SWAP1 SLOAD SWAP1 PUSH2 0x100 EXP SWAP1 DIV PUSH1 0xFF AND DUP2 JUMP JUMPDEST PUSH1 0x60 PUSH2 0x12AA DUP3 PUSH2 0x2885 JUMP JUMPDEST SWAP1 POP SWAP2 SWAP1 POP JUMP JUMPDEST PUSH1 0xB PUSH1 0x20 MSTORE DUP2 PUSH0 MSTORE PUSH1 0x40 PUSH0 KECCAK256 DUP2 DUP2 SLOAD DUP2 LT PUSH2 0x12CA JUMPI PUSH0 DUP1 REVERT JUMPDEST SWAP1 PUSH0 MSTORE PUSH1 0x20 PUSH0 KECCAK256 ADD PUSH0 SWAP2 POP SWAP2 POP SWAP1 SLOAD SWAP1 PUSH2 0x100 EXP SWAP1 DIV PUSH20 0xFFFFFFFFFFFFFFFFFFFFFFFFFFFFFFFFFFFFFFFF AND DUP2 JUMP JUMPDEST PUSH1 0x60 DUP3 DUP3 SWAP1 POP PUSH8 0xFFFFFFFFFFFFFFFF DUP2 GT ISZERO PUSH2 0x1318 JUMPI PUSH2 0x1317 PUSH2 0x3C12 JUMP JUMPDEST JUMPDEST PUSH1 0x40 MLOAD SWAP1 DUP1 DUP3 MSTORE DUP1 PUSH1 0x20 MUL PUSH1 0x20 ADD DUP3 ADD PUSH1 0x40 MSTORE DUP1 ISZERO PUSH2 0x134B JUMPI DUP2 PUSH1 0x20 ADD JUMPDEST PUSH1 0x60 DUP2 MSTORE PUSH1 0x20 ADD SWAP1 PUSH1 0x1 SWAP1 SUB SWAP1 DUP2 PUSH2 0x1336 JUMPI SWAP1 POP JUMPDEST POP SWAP1 POP PUSH0 JUMPDEST DUP4 DUP4 SWAP1 POP DUP2 LT ISZERO PUSH2 0x1468 JUMPI PUSH0 DUP1 ADDRESS PUSH20 0xFFFFFFFFFFFFFFFFFFFFFFFFFFFFFFFFFFFFFFFF AND DUP7 DUP7 DUP6 DUP2 DUP2 LT PUSH2 0x1387 JUMPI PUSH2 0x1386 PUSH2 0x5023 JUMP JUMPDEST JUMPDEST SWAP1 POP PUSH1 0x20 MUL DUP2 ADD SWAP1 PUSH2 0x1399 SWAP2 SWAP1 PUSH2 0x5111 JUMP JUMPDEST PUSH1 0x40 MLOAD PUSH2 0x13A7 SWAP3 SWAP2 SWAP1 PUSH2 0x5173 JUMP JUMPDEST PUSH0 PUSH1 0x40 MLOAD DUP1 DUP4 SUB DUP2 DUP6 GAS DELEGATECALL SWAP2 POP POP RETURNDATASIZE DUP1 PUSH0 DUP2 EQ PUSH2 0x13DF JUMPI PUSH1 0x40 MLOAD SWAP2 POP PUSH1 0x1F NOT PUSH1 0x3F RETURNDATASIZE ADD AND DUP3 ADD PUSH1 0x40 MSTORE RETURNDATASIZE DUP3 MSTORE RETURNDATASIZE PUSH0 PUSH1 0x20 DUP5 ADD RETURNDATACOPY PUSH2 0x13E4 JUMP JUMPDEST PUSH1 0x60 SWAP2 POP JUMPDEST POP SWAP2 POP SWAP2 POP DUP2 PUSH2 0x143C JUMPI PUSH0 DUP2 MLOAD EQ PUSH2 0x13FF JUMPI DUP1 MLOAD DUP1 DUP3 PUSH1 0x20 ADD REVERT JUMPDEST DUP3 PUSH1 0x40 MLOAD PUSH32 0x234EB81900000000000000000000000000000000000000000000000000000000 DUP2 MSTORE PUSH1 0x4 ADD PUSH2 0x1433 SWAP2 SWAP1 PUSH2 0x3AE1 JUMP JUMPDEST PUSH1 0x40 MLOAD DUP1 SWAP2 SUB SWAP1 REVERT JUMPDEST DUP1 DUP5 DUP5 DUP2 MLOAD DUP2 LT PUSH2 0x1450 JUMPI PUSH2 0x144F PUSH2 0x5023 JUMP JUMPDEST JUMPDEST PUSH1 0x20 MUL PUSH1 0x20 ADD ADD DUP2 SWAP1 MSTORE POP DUP3 PUSH1 0x1 ADD SWAP3 POP POP POP PUSH2 0x1350 JUMP JUMPDEST POP SWAP3 SWAP2 POP POP JUMP JUMPDEST PUSH0 PUSH2 0x14B5 PUSH1 0x4 PUSH0 DUP5 PUSH20 0xFFFFFFFFFFFFFFFFFFFFFFFFFFFFFFFFFFFFFFFF AND PUSH20 0xFFFFFFFFFFFFFFFFFFFFFFFFFFFFFFFFFFFFFFFF AND DUP2 MSTORE PUSH1 0x20 ADD SWAP1 DUP2 MSTORE PUSH1 0x20 ADD PUSH0 KECCAK256 PUSH2 0x2926 JUMP JUMPDEST SWAP1 POP SWAP2 SWAP1 POP JUMP JUMPDEST PUSH2 0x14C4 PUSH2 0x2939 JUMP JUMPDEST PUSH2 0x14CD PUSH0 PUSH2 0x29B2 JUMP JUMPDEST JUMP JUMPDEST PUSH1 0xC PUSH0 DUP3 DUP2 MSTORE PUSH1 0x20 ADD SWAP1 DUP2 MSTORE PUSH1 0x20 ADD PUSH0 KECCAK256 PUSH0 CALLER PUSH20 0xFFFFFFFFFFFFFFFFFFFFFFFFFFFFFFFFFFFFFFFF AND PUSH20 0xFFFFFFFFFFFFFFFFFFFFFFFFFFFFFFFFFFFFFFFF AND DUP2 MSTORE PUSH1 0x20 ADD SWAP1 DUP2 MSTORE PUSH1 0x20 ADD PUSH0 KECCAK256 PUSH0 SWAP1 SLOAD SWAP1 PUSH2 0x100 EXP SWAP1 DIV PUSH1 0xFF AND ISZERO PUSH2 0x1568 JUMPI PUSH1 0x40 MLOAD PUSH32 0x8C379A000000000000000000000000000000000000000000000000000000000 DUP2 MSTORE PUSH1 0x4 ADD PUSH2 0x155F SWAP1 PUSH2 0x51D5 JUMP JUMPDEST PUSH1 0x40 MLOAD DUP1 SWAP2 SUB SWAP1 REVERT JUMPDEST PUSH1 0xB PUSH0 DUP3 DUP2 MSTORE PUSH1 0x20 ADD SWAP1 DUP2 MSTORE PUSH1 0x20 ADD PUSH0 KECCAK256 CALLER SWAP1 DUP1 PUSH1 0x1 DUP2 SLOAD ADD DUP1 DUP3 SSTORE DUP1 SWAP2 POP POP PUSH1 0x1 SWAP1 SUB SWAP1 PUSH0 MSTORE PUSH1 0x20 PUSH0 KECCAK256 ADD PUSH0 SWAP1 SWAP2 SWAP1 SWAP2 SWAP1 SWAP2 PUSH2 0x100 EXP DUP2 SLOAD DUP2 PUSH20 0xFFFFFFFFFFFFFFFFFFFFFFFFFFFFFFFFFFFFFFFF MUL NOT AND SWAP1 DUP4 PUSH20 0xFFFFFFFFFFFFFFFFFFFFFFFFFFFFFFFFFFFFFFFF AND MUL OR SWAP1 SSTORE POP PUSH1 0x1 PUSH1 0xC PUSH0 DUP4 DUP2 MSTORE PUSH1 0x20 ADD SWAP1 DUP2 MSTORE PUSH1 0x20 ADD PUSH0 KECCAK256 PUSH0 CALLER PUSH20 0xFFFFFFFFFFFFFFFFFFFFFFFFFFFFFFFFFFFFFFFF AND PUSH20 0xFFFFFFFFFFFFFFFFFFFFFFFFFFFFFFFFFFFFFFFF AND DUP2 MSTORE PUSH1 0x20 ADD SWAP1 DUP2 MSTORE PUSH1 0x20 ADD PUSH0 KECCAK256 PUSH0 PUSH2 0x100 EXP DUP2 SLOAD DUP2 PUSH1 0xFF MUL NOT AND SWAP1 DUP4 ISZERO ISZERO MUL OR SWAP1 SSTORE POP DUP1 CALLER PUSH20 0xFFFFFFFFFFFFFFFFFFFFFFFFFFFFFFFFFFFFFFFF AND PUSH32 0xCC9AD2F72AC43FCCC2FBE8B5861DAFDD6C56E8902F0C792FFEB4DCAFFC4EA417 PUSH1 0x40 MLOAD PUSH1 0x40 MLOAD DUP1 SWAP2 SUB SWAP1 LOG3 POP JUMP JUMPDEST PUSH0 DUP6 MLOAD SWAP1 POP DUP5 MLOAD DUP2 EQ ISZERO DUP1 PUSH2 0x1698 JUMPI POP DUP4 MLOAD DUP2 EQ ISZERO JUMPDEST DUP1 PUSH2 0x16A4 JUMPI POP DUP3 MLOAD DUP2 EQ ISZERO JUMPDEST DUP1 PUSH2 0x16B0 JUMPI POP DUP2 MLOAD DUP2 EQ ISZERO JUMPDEST ISZERO PUSH2 0x16E7 JUMPI PUSH1 0x40 MLOAD PUSH32 0x93A8311900000000000000000000000000000000000000000000000000000000 DUP2 MSTORE PUSH1 0x4 ADD PUSH1 0x40 MLOAD DUP1 SWAP2 SUB SWAP1 REVERT JUMPDEST PUSH0 JUMPDEST DUP2 DUP2 LT ISZERO PUSH2 0x178B JUMPI PUSH2 0x1780 DUP8 DUP3 DUP2 MLOAD DUP2 LT PUSH2 0x1707 JUMPI PUSH2 0x1706 PUSH2 0x5023 JUMP JUMPDEST JUMPDEST PUSH1 0x20 MUL PUSH1 0x20 ADD ADD MLOAD DUP8 DUP4 DUP2 MLOAD DUP2 LT PUSH2 0x1722 JUMPI PUSH2 0x1721 PUSH2 0x5023 JUMP JUMPDEST JUMPDEST PUSH1 0x20 MUL PUSH1 0x20 ADD ADD MLOAD DUP8 DUP5 DUP2 MLOAD DUP2 LT PUSH2 0x173D JUMPI PUSH2 0x173C PUSH2 0x5023 JUMP JUMPDEST JUMPDEST PUSH1 0x20 MUL PUSH1 0x20 ADD ADD MLOAD DUP8 DUP6 DUP2 MLOAD DUP2 LT PUSH2 0x1758 JUMPI PUSH2 0x1757 PUSH2 0x5023 JUMP JUMPDEST JUMPDEST PUSH1 0x20 MUL PUSH1 0x20 ADD ADD MLOAD DUP8 DUP7 DUP2 MLOAD DUP2 LT PUSH2 0x1773 JUMPI PUSH2 0x1772 PUSH2 0x5023 JUMP JUMPDEST JUMPDEST PUSH1 0x20 MUL PUSH1 0x20 ADD ADD MLOAD PUSH2 0x1214 JUMP JUMPDEST DUP1 PUSH1 0x1 ADD SWAP1 POP PUSH2 0x16E9 JUMP JUMPDEST POP POP POP POP POP POP POP JUMP JUMPDEST PUSH2 0x179C PUSH2 0x2939 JUMP JUMPDEST PUSH0 CALLVALUE EQ PUSH2 0x17D5 JUMPI PUSH1 0x40 MLOAD PUSH32 0xF36BA73700000000000000000000000000000000000000000000000000000000 DUP2 MSTORE PUSH1 0x4 ADD PUSH1 0x40 MLOAD DUP1 SWAP2 SUB SWAP1 REVERT JUMPDEST PUSH2 0x17DF DUP3 DUP3 PUSH2 0x2AA8 JUMP JUMPDEST POP POP JUMP JUMPDEST PUSH0 PUSH2 0x17ED DUP4 PUSH2 0xFD2 JUMP JUMPDEST SWAP1 POP CALLER PUSH20 0xFFFFFFFFFFFFFFFFFFFFFFFFFFFFFFFFFFFFFFFF AND DUP2 PUSH20 0xFFFFFFFFFFFFFFFFFFFFFFFFFFFFFFFFFFFFFFFF AND EQ PUSH2 0x1863 JUMPI DUP1 DUP4 CALLER PUSH1 0x40 MLOAD PUSH32 0x5B271EA200000000000000000000000000000000000000000000000000000000 DUP2 MSTORE PUSH1 0x4 ADD PUSH2 0x185A SWAP4 SWAP3 SWAP2 SWAP1 PUSH2 0x51F3 JUMP JUMPDEST PUSH1 0x40 MLOAD DUP1 SWAP2 SUB SWAP1 REVERT JUMPDEST PUSH0 PUSH20 0xFFFFFFFFFFFFFFFFFFFFFFFFFFFFFFFFFFFFFFFF AND DUP5 PUSH20 0xFFFFFFFFFFFFFFFFFFFFFFFFFFFFFFFFFFFFFFFF AND SUB PUSH2 0x18C8 JUMPI PUSH1 0x40 MLOAD PUSH32 0x9577B8B300000000000000000000000000000000000000000000000000000000 DUP2 MSTORE PUSH1 0x4 ADD PUSH1 0x40 MLOAD DUP1 SWAP2 SUB SWAP1 REVERT JUMPDEST DUP4 PUSH20 0xFFFFFFFFFFFFFFFFFFFFFFFFFFFFFFFFFFFFFFFF AND DUP2 PUSH20 0xFFFFFFFFFFFFFFFFFFFFFFFFFFFFFFFFFFFFFFFF AND SUB PUSH2 0x192D JUMPI PUSH1 0x40 MLOAD PUSH32 0x89FDAD6200000000000000000000000000000000000000000000000000000000 DUP2 MSTORE PUSH1 0x4 ADD PUSH1 0x40 MLOAD DUP1 SWAP2 SUB SWAP1 REVERT JUMPDEST PUSH0 PUSH2 0x1951 DUP6 PUSH1 0x5 PUSH0 DUP8 DUP2 MSTORE PUSH1 0x20 ADD SWAP1 DUP2 MSTORE PUSH1 0x20 ADD PUSH0 KECCAK256 PUSH2 0x2B11 SWAP1 SWAP2 SWAP1 PUSH4 0xFFFFFFFF AND JUMP JUMPDEST SWAP1 POP DUP1 PUSH2 0x1997 JUMPI DUP5 DUP5 PUSH1 0x40 MLOAD PUSH32 0xA7626B6800000000000000000000000000000000000000000000000000000000 DUP2 MSTORE PUSH1 0x4 ADD PUSH2 0x198E SWAP3 SWAP2 SWAP1 PUSH2 0x5228 JUMP JUMPDEST PUSH1 0x40 MLOAD DUP1 SWAP2 SUB SWAP1 REVERT JUMPDEST DUP4 DUP3 PUSH20 0xFFFFFFFFFFFFFFFFFFFFFFFFFFFFFFFFFFFFFFFF AND DUP7 PUSH20 0xFFFFFFFFFFFFFFFFFFFFFFFFFFFFFFFFFFFFFFFF AND PUSH32 0x1B1B58AA2EC0CEC2228B2D37124556D41F5A1F7B12F089171F896CC236671215 DUP7 PUSH1 0x40 MLOAD PUSH2 0x19F5 SWAP2 SWAP1 PUSH2 0x3E12 JUMP JUMPDEST PUSH1 0x40 MLOAD DUP1 SWAP2 SUB SWAP1 LOG4 PUSH0 CALLER DUP6 PUSH1 0x1 DUP7 PUSH1 0x40 MLOAD PUSH1 0x20 ADD PUSH2 0x1A16 SWAP5 SWAP4 SWAP3 SWAP2 SWAP1 PUSH2 0x524F JUMP JUMPDEST PUSH1 0x40 MLOAD PUSH1 0x20 DUP2 DUP4 SUB SUB DUP2 MSTORE SWAP1 PUSH1 0x40 MSTORE SWAP1 POP PUSH2 0x1A31 DUP7 DUP3 PUSH2 0x2B3E JUMP JUMPDEST POP POP POP POP POP POP JUMP JUMPDEST PUSH0 DUP1 PUSH0 SWAP1 SLOAD SWAP1 PUSH2 0x100 EXP SWAP1 DIV PUSH20 0xFFFFFFFFFFFFFFFFFFFFFFFFFFFFFFFFFFFFFFFF AND SWAP1 POP SWAP1 JUMP JUMPDEST DUP1 PUSH1 0xD PUSH0 DUP5 PUSH20 0xFFFFFFFFFFFFFFFFFFFFFFFFFFFFFFFFFFFFFFFF AND PUSH20 0xFFFFFFFFFFFFFFFFFFFFFFFFFFFFFFFFFFFFFFFF AND DUP2 MSTORE PUSH1 0x20 ADD SWAP1 DUP2 MSTORE PUSH1 0x20 ADD PUSH0 KECCAK256 SWAP1 DUP2 PUSH2 0x1AAA SWAP2 SWAP1 PUSH2 0x5436 JUMP JUMPDEST POP POP POP JUMP JUMPDEST PUSH2 0x1AB7 PUSH2 0x2939 JUMP JUMPDEST PUSH0 CALLVALUE EQ PUSH2 0x1AF0 JUMPI PUSH1 0x40 MLOAD PUSH32 0xF36BA73700000000000000000000000000000000000000000000000000000000 DUP2 MSTORE PUSH1 0x4 ADD PUSH1 0x40 MLOAD DUP1 SWAP2 SUB SWAP1 REVERT JUMPDEST DUP1 MLOAD DUP3 MLOAD EQ PUSH2 0x1B2B JUMPI PUSH1 0x40 MLOAD PUSH32 0x3BCC897900000000000000000000000000000000000000000000000000000000 DUP2 MSTORE PUSH1 0x4 ADD PUSH1 0x40 MLOAD DUP1 SWAP2 SUB SWAP1 REVERT JUMPDEST PUSH0 DUP3 MLOAD SUB PUSH2 0x1B65 JUMPI PUSH1 0x40 MLOAD PUSH32 0x97DA5F9500000000000000000000000000000000000000000000000000000000 DUP2 MSTORE PUSH1 0x4 ADD PUSH1 0x40 MLOAD DUP1 SWAP2 SUB SWAP1 REVERT JUMPDEST PUSH0 JUMPDEST DUP3 MLOAD DUP2 LT ISZERO PUSH2 0x1BB9 JUMPI PUSH2 0x1BAE DUP4 DUP3 DUP2 MLOAD DUP2 LT PUSH2 0x1B86 JUMPI PUSH2 0x1B85 PUSH2 0x5023 JUMP JUMPDEST JUMPDEST PUSH1 0x20 MUL PUSH1 0x20 ADD ADD MLOAD DUP4 DUP4 DUP2 MLOAD DUP2 LT PUSH2 0x1BA1 JUMPI PUSH2 0x1BA0 PUSH2 0x5023 JUMP JUMPDEST JUMPDEST PUSH1 0x20 MUL PUSH1 0x20 ADD ADD MLOAD PUSH2 0x2AA8 JUMP JUMPDEST DUP1 PUSH1 0x1 ADD SWAP1 POP PUSH2 0x1B67 JUMP JUMPDEST POP POP POP JUMP JUMPDEST PUSH0 PUSH2 0x1BC7 PUSH2 0x2B6F JUMP JUMPDEST ISZERO PUSH2 0x1C07 JUMPI PUSH1 0x40 MLOAD PUSH32 0x8C379A000000000000000000000000000000000000000000000000000000000 DUP2 MSTORE PUSH1 0x4 ADD PUSH2 0x1BFE SWAP1 PUSH2 0x554F JUMP JUMPDEST PUSH1 0x40 MLOAD DUP1 SWAP2 SUB SWAP1 REVERT JUMPDEST PUSH1 0x2 PUSH1 0x8 DUP2 SWAP1 SSTORE POP PUSH20 0x0 PUSH4 0xB3B2981E DUP10 DUP10 PUSH1 0x8 SLOAD DUP11 DUP11 DUP11 DUP11 PUSH1 0x40 MLOAD DUP9 PUSH4 0xFFFFFFFF AND PUSH1 0xE0 SHL DUP2 MSTORE PUSH1 0x4 ADD PUSH2 0x1C54 SWAP8 SWAP7 SWAP6 SWAP5 SWAP4 SWAP3 SWAP2 SWAP1 PUSH2 0x5634 JUMP JUMPDEST PUSH1 0x20 PUSH1 0x40 MLOAD DUP1 DUP4 SUB DUP2 DUP7 GAS DELEGATECALL ISZERO DUP1 ISZERO PUSH2 0x1C6F JUMPI RETURNDATASIZE PUSH0 DUP1 RETURNDATACOPY RETURNDATASIZE PUSH0 REVERT JUMPDEST POP POP POP POP PUSH1 0x40 MLOAD RETURNDATASIZE PUSH1 0x1F NOT PUSH1 0x1F DUP3 ADD AND DUP3 ADD DUP1 PUSH1 0x40 MSTORE POP DUP2 ADD SWAP1 PUSH2 0x1C93 SWAP2 SWAP1 PUSH2 0x56CA JUMP JUMPDEST SWAP1 POP PUSH0 DUP2 PUSH20 0xFFFFFFFFFFFFFFFFFFFFFFFFFFFFFFFFFFFFFFFF AND PUSH0 SHL SWAP1 POP PUSH2 0x1CCC ADDRESS DUP3 PUSH1 0x1 PUSH1 0x40 MLOAD DUP1 PUSH1 0x20 ADD PUSH1 0x40 MSTORE DUP1 PUSH0 DUP2 MSTORE POP PUSH2 0x2BC3 JUMP JUMPDEST TIMESTAMP PUSH1 0x9 PUSH0 CALLER PUSH20 0xFFFFFFFFFFFFFFFFFFFFFFFFFFFFFFFFFFFFFFFF AND PUSH20 0xFFFFFFFFFFFFFFFFFFFFFFFFFFFFFFFFFFFFFFFF AND DUP2 MSTORE PUSH1 0x20 ADD SWAP1 DUP2 MSTORE PUSH1 0x20 ADD PUSH0 KECCAK256 DUP2 SWAP1 SSTORE POP TIMESTAMP PUSH1 0xA PUSH0 DUP5 PUSH20 0xFFFFFFFFFFFFFFFFFFFFFFFFFFFFFFFFFFFFFFFF AND PUSH20 0xFFFFFFFFFFFFFFFFFFFFFFFFFFFFFFFFFFFFFFFF AND DUP2 MSTORE PUSH1 0x20 ADD SWAP1 DUP2 MSTORE PUSH1 0x20 ADD PUSH0 KECCAK256 DUP2 SWAP1 SSTORE POP PUSH2 0x1D5A DUP3 DUP5 PUSH2 0x1A60 JUMP JUMPDEST DUP2 PUSH20 0xFFFFFFFFFFFFFFFFFFFFFFFFFFFFFFFFFFFFFFFF AND CALLER PUSH20 0xFFFFFFFFFFFFFFFFFFFFFFFFFFFFFFFFFFFFFFFF AND PUSH32 0xAB8530F87DC9B59234C4623BF917212BB2536D647574C8E7E5DA92C2EDE0C9F8 TIMESTAMP PUSH1 0x40 MLOAD PUSH2 0x1DB7 SWAP2 SWAP1 PUSH2 0x3AE1 JUMP JUMPDEST PUSH1 0x40 MLOAD DUP1 SWAP2 SUB SWAP1 LOG3 POP SWAP8 SWAP7 POP POP POP POP POP POP POP JUMP JUMPDEST PUSH1 0x60 PUSH2 0x1E12 PUSH1 0x4 PUSH0 DUP5 PUSH20 0xFFFFFFFFFFFFFFFFFFFFFFFFFFFFFFFFFFFFFFFF AND PUSH20 0xFFFFFFFFFFFFFFFFFFFFFFFFFFFFFFFFFFFFFFFF AND DUP2 MSTORE PUSH1 0x20 ADD SWAP1 DUP2 MSTORE PUSH1 0x20 ADD PUSH0 KECCAK256 PUSH2 0x2E31 JUMP JUMPDEST SWAP1 POP SWAP2 SWAP1 POP JUMP JUMPDEST PUSH2 0x1E21 PUSH2 0x2939 JUMP JUMPDEST DUP1 PUSH1 0x7 DUP2 SWAP1 SSTORE POP POP JUMP JUMPDEST PUSH2 0x1E33 PUSH2 0x2939 JUMP JUMPDEST DUP2 MLOAD DUP4 MLOAD EQ ISZERO DUP1 PUSH2 0x1E46 JUMPI POP DUP1 MLOAD DUP3 MLOAD EQ ISZERO JUMPDEST ISZERO PUSH2 0x1E7D JUMPI PUSH1 0x40 MLOAD PUSH32 0x2FA71DFE00000000000000000000000000000000000000000000000000000000 DUP2 MSTORE PUSH1 0x4 ADD PUSH1 0x40 MLOAD DUP1 SWAP2 SUB SWAP1 REVERT JUMPDEST PUSH0 DUP4 MLOAD SUB PUSH2 0x1EB7 JUMPI PUSH1 0x40 MLOAD PUSH32 0x80C9830500000000000000000000000000000000000000000000000000000000 DUP2 MSTORE PUSH1 0x4 ADD PUSH1 0x40 MLOAD DUP1 SWAP2 SUB SWAP1 REVERT JUMPDEST PUSH0 JUMPDEST DUP4 MLOAD DUP2 LT ISZERO PUSH2 0x1F26 JUMPI PUSH2 0x1F1B DUP5 DUP3 DUP2 MLOAD DUP2 LT PUSH2 0x1ED8 JUMPI PUSH2 0x1ED7 PUSH2 0x5023 JUMP JUMPDEST JUMPDEST PUSH1 0x20 MUL PUSH1 0x20 ADD ADD MLOAD DUP5 DUP4 DUP2 MLOAD DUP2 LT PUSH2 0x1EF3 JUMPI PUSH2 0x1EF2 PUSH2 0x5023 JUMP JUMPDEST JUMPDEST PUSH1 0x20 MUL PUSH1 0x20 ADD ADD MLOAD DUP5 DUP5 DUP2 MLOAD DUP2 LT PUSH2 0x1F0E JUMPI PUSH2 0x1F0D PUSH2 0x5023 JUMP JUMPDEST JUMPDEST PUSH1 0x20 MUL PUSH1 0x20 ADD ADD MLOAD PUSH2 0x2E50 JUMP JUMPDEST DUP1 PUSH1 0x1 ADD SWAP1 POP PUSH2 0x1EB9 JUMP JUMPDEST POP POP POP POP JUMP JUMPDEST PUSH1 0x8 SLOAD DUP2 JUMP JUMPDEST PUSH1 0x60 PUSH1 0xB PUSH0 DUP4 DUP2 MSTORE PUSH1 0x20 ADD SWAP1 DUP2 MSTORE PUSH1 0x20 ADD PUSH0 KECCAK256 DUP1 SLOAD DUP1 PUSH1 0x20 MUL PUSH1 0x20 ADD PUSH1 0x40 MLOAD SWAP1 DUP2 ADD PUSH1 0x40 MSTORE DUP1 SWAP3 SWAP2 SWAP1 DUP2 DUP2 MSTORE PUSH1 0x20 ADD DUP3 DUP1 SLOAD DUP1 ISZERO PUSH2 0x1FC2 JUMPI PUSH1 0x20 MUL DUP3 ADD SWAP2 SWAP1 PUSH0 MSTORE PUSH1 0x20 PUSH0 KECCAK256 SWAP1 JUMPDEST DUP2 PUSH0 SWAP1 SLOAD SWAP1 PUSH2 0x100 EXP SWAP1 DIV PUSH20 0xFFFFFFFFFFFFFFFFFFFFFFFFFFFFFFFFFFFFFFFF AND PUSH20 0xFFFFFFFFFFFFFFFFFFFFFFFFFFFFFFFFFFFFFFFF AND DUP2 MSTORE PUSH1 0x20 ADD SWAP1 PUSH1 0x1 ADD SWAP1 DUP1 DUP4 GT PUSH2 0x1F79 JUMPI JUMPDEST POP POP POP POP POP SWAP1 POP SWAP2 SWAP1 POP JUMP JUMPDEST PUSH2 0x1FD6 PUSH2 0x2939 JUMP JUMPDEST PUSH2 0x1FE1 DUP4 DUP4 DUP4 PUSH2 0x2E50 JUMP JUMPDEST POP POP POP JUMP JUMPDEST PUSH0 PUSH2 0x1FF0 DUP5 PUSH2 0xFD2 JUMP JUMPDEST SWAP1 POP DUP1 PUSH20 0xFFFFFFFFFFFFFFFFFFFFFFFFFFFFFFFFFFFFFFFF AND CALLER PUSH20 0xFFFFFFFFFFFFFFFFFFFFFFFFFFFFFFFFFFFFFFFF AND EQ PUSH2 0x209A JUMPI CALLER PUSH20 0xFFFFFFFFFFFFFFFFFFFFFFFFFFFFFFFFFFFFFFFF AND DUP6 PUSH20 0xFFFFFFFFFFFFFFFFFFFFFFFFFFFFFFFFFFFFFFFF AND EQ PUSH2 0x2099 JUMPI CALLER DUP2 DUP6 PUSH1 0x40 MLOAD PUSH32 0x760B5ACD00000000000000000000000000000000000000000000000000000000 DUP2 MSTORE PUSH1 0x4 ADD PUSH2 0x2090 SWAP4 SWAP3 SWAP2 SWAP1 PUSH2 0x56F5 JUMP JUMPDEST PUSH1 0x40 MLOAD DUP1 SWAP2 SUB SWAP1 REVERT JUMPDEST JUMPDEST PUSH0 PUSH20 0xFFFFFFFFFFFFFFFFFFFFFFFFFFFFFFFFFFFFFFFF AND DUP6 PUSH20 0xFFFFFFFFFFFFFFFFFFFFFFFFFFFFFFFFFFFFFFFF AND SUB PUSH2 0x20FF JUMPI PUSH1 0x40 MLOAD PUSH32 0x9577B8B300000000000000000000000000000000000000000000000000000000 DUP2 MSTORE PUSH1 0x4 ADD PUSH1 0x40 MLOAD DUP1 SWAP2 SUB SWAP1 REVERT JUMPDEST DUP5 PUSH20 0xFFFFFFFFFFFFFFFFFFFFFFFFFFFFFFFFFFFFFFFF AND DUP2 PUSH20 0xFFFFFFFFFFFFFFFFFFFFFFFFFFFFFFFFFFFFFFFF AND SUB PUSH2 0x2164 JUMPI PUSH1 0x40 MLOAD PUSH32 0x89FDAD6200000000000000000000000000000000000000000000000000000000 DUP2 MSTORE PUSH1 0x4 ADD PUSH1 0x40 MLOAD DUP1 SWAP2 SUB SWAP1 REVERT JUMPDEST PUSH2 0x2171 DUP6 DUP3 DUP7 DUP7 DUP7 PUSH2 0x2E99 JUMP JUMPDEST DUP3 ISZERO PUSH2 0x21AC JUMPI PUSH0 DUP2 DUP6 PUSH0 DUP6 PUSH1 0x40 MLOAD PUSH1 0x20 ADD PUSH2 0x218F SWAP5 SWAP4 SWAP3 SWAP2 SWAP1 PUSH2 0x524F JUMP JUMPDEST PUSH1 0x40 MLOAD PUSH1 0x20 DUP2 DUP4 SUB SUB DUP2 MSTORE SWAP1 PUSH1 0x40 MSTORE SWAP1 POP PUSH2 0x21AA DUP7 DUP3 PUSH2 0x2B3E JUMP JUMPDEST POP JUMPDEST POP POP POP POP POP JUMP JUMPDEST PUSH1 0x60 DUP2 MLOAD PUSH8 0xFFFFFFFFFFFFFFFF DUP2 GT ISZERO PUSH2 0x21D0 JUMPI PUSH2 0x21CF PUSH2 0x3C12 JUMP JUMPDEST JUMPDEST PUSH1 0x40 MLOAD SWAP1 DUP1 DUP3 MSTORE DUP1 PUSH1 0x20 MUL PUSH1 0x20 ADD DUP3 ADD PUSH1 0x40 MSTORE DUP1 ISZERO PUSH2 0x2203 JUMPI DUP2 PUSH1 0x20 ADD JUMPDEST PUSH1 0x60 DUP2 MSTORE PUSH1 0x20 ADD SWAP1 PUSH1 0x1 SWAP1 SUB SWAP1 DUP2 PUSH2 0x21EE JUMPI SWAP1 POP JUMPDEST POP SWAP1 POP PUSH0 JUMPDEST DUP3 MLOAD DUP2 LT ISZERO PUSH2 0x225D JUMPI PUSH2 0x2234 DUP4 DUP3 DUP2 MLOAD DUP2 LT PUSH2 0x2227 JUMPI PUSH2 0x2226 PUSH2 0x5023 JUMP JUMPDEST JUMPDEST PUSH1 0x20 MUL PUSH1 0x20 ADD ADD MLOAD PUSH2 0x2885 JUMP JUMPDEST DUP3 DUP3 DUP2 MLOAD DUP2 LT PUSH2 0x2247 JUMPI PUSH2 0x2246 PUSH2 0x5023 JUMP JUMPDEST JUMPDEST PUSH1 0x20 MUL PUSH1 0x20 ADD ADD DUP2 SWAP1 MSTORE POP DUP1 PUSH1 0x1 ADD SWAP1 POP PUSH2 0x2208 JUMP JUMPDEST POP SWAP2 SWAP1 POP JUMP JUMPDEST PUSH1 0xA PUSH1 0x20 MSTORE DUP1 PUSH0 MSTORE PUSH1 0x40 PUSH0 KECCAK256 PUSH0 SWAP2 POP SWAP1 POP SLOAD DUP2 JUMP JUMPDEST PUSH2 0x2280 PUSH2 0x2939 JUMP JUMPDEST PUSH0 PUSH20 0xFFFFFFFFFFFFFFFFFFFFFFFFFFFFFFFFFFFFFFFF AND DUP2 PUSH20 0xFFFFFFFFFFFFFFFFFFFFFFFFFFFFFFFFFFFFFFFF AND SUB PUSH2 0x22E5 JUMPI PUSH1 0x40 MLOAD PUSH32 0x1AD8836C00000000000000000000000000000000000000000000000000000000 DUP2 MSTORE PUSH1 0x4 ADD PUSH1 0x40 MLOAD DUP1 SWAP2 SUB SWAP1 REVERT JUMPDEST PUSH2 0x22EE DUP2 PUSH2 0x29B2 JUMP JUMPDEST POP JUMP JUMPDEST PUSH1 0x7 SLOAD DUP2 JUMP JUMPDEST PUSH0 DUP1 PUSH0 PUSH2 0x2330 PUSH10 0xCEE78B4094DA86011096 PUSH1 0xB0 SHL DUP6 PUSH28 0xFFFFFFFFFFFFFFFFFFFFFFFFFFFFFFFFFFFFFFFFFFFFFFFFFFFFFFFF NOT AND PUSH2 0x2F73 JUMP JUMPDEST SWAP1 POP PUSH0 PUSH2 0x233C DUP3 PUSH2 0x2885 JUMP JUMPDEST SWAP1 POP PUSH1 0x14 DUP2 MLOAD EQ ISZERO DUP1 ISZERO PUSH2 0x2351 JUMPI POP PUSH0 DUP2 MLOAD EQ ISZERO JUMPDEST ISZERO PUSH2 0x2393 JUMPI DUP1 PUSH1 0x40 MLOAD PUSH32 0x42BFE79F00000000000000000000000000000000000000000000000000000000 DUP2 MSTORE PUSH1 0x4 ADD PUSH2 0x238A SWAP2 SWAP1 PUSH2 0x3E12 JUMP JUMPDEST PUSH1 0x40 MLOAD DUP1 SWAP2 SUB SWAP1 REVERT JUMPDEST DUP1 PUSH2 0x239D SWAP1 PUSH2 0x5778 JUMP JUMPDEST PUSH1 0x60 SHR PUSH1 0x1 SWAP4 POP SWAP4 POP POP POP SWAP2 POP SWAP2 JUMP JUMPDEST PUSH0 PUSH4 0xA918FA6B PUSH1 0xE0 SHL PUSH28 0xFFFFFFFFFFFFFFFFFFFFFFFFFFFFFFFFFFFFFFFFFFFFFFFFFFFFFFFF NOT AND DUP3 PUSH28 0xFFFFFFFFFFFFFFFFFFFFFFFFFFFFFFFFFFFFFFFFFFFFFFFFFFFFFFFF NOT AND EQ DUP1 PUSH2 0x2406 JUMPI POP PUSH2 0x2405 DUP3 PUSH2 0x2FB1 JUMP JUMPDEST JUMPDEST SWAP1 POP SWAP2 SWAP1 POP JUMP JUMPDEST PUSH0 DUP1 PUSH2 0x241F PUSH4 0x1FFC9A7 PUSH1 0xE0 SHL PUSH2 0x22F7 JUMP JUMPDEST POP SWAP1 POP PUSH0 PUSH20 0xFFFFFFFFFFFFFFFFFFFFFFFFFFFFFFFFFFFFFFFF AND DUP2 PUSH20 0xFFFFFFFFFFFFFFFFFFFFFFFFFFFFFFFFFFFFFFFF AND SUB PUSH2 0x245E JUMPI PUSH0 SWAP2 POP POP PUSH2 0x246C JUMP JUMPDEST PUSH2 0x2468 DUP2 DUP5 PUSH2 0x3011 JUMP JUMPDEST SWAP2 POP POP JUMPDEST SWAP2 SWAP1 POP JUMP JUMPDEST PUSH1 0x60 PUSH2 0x247D DUP4 DUP4 PUSH2 0x30AA JUMP JUMPDEST SWAP1 POP SWAP3 SWAP2 POP POP JUMP JUMPDEST PUSH0 PUSH2 0x248F DUP3 PUSH2 0xFD2 JUMP JUMPDEST PUSH20 0xFFFFFFFFFFFFFFFFFFFFFFFFFFFFFFFFFFFFFFFF AND DUP4 PUSH20 0xFFFFFFFFFFFFFFFFFFFFFFFFFFFFFFFFFFFFFFFF AND EQ DUP1 PUSH2 0x24E7 JUMPI POP PUSH2 0x24E6 DUP4 PUSH1 0x5 PUSH0 DUP6 DUP2 MSTORE PUSH1 0x20 ADD SWAP1 DUP2 MSTORE PUSH1 0x20 ADD PUSH0 KECCAK256 PUSH2 0x3131 SWAP1 SWAP2 SWAP1 PUSH4 0xFFFFFFFF AND JUMP JUMPDEST JUMPDEST SWAP1 POP SWAP3 SWAP2 POP POP JUMP JUMPDEST PUSH2 0x24F8 DUP2 PUSH2 0x315E JUMP JUMPDEST PUSH2 0x2539 JUMPI DUP1 PUSH1 0x40 MLOAD PUSH32 0xAE8F9A3600000000000000000000000000000000000000000000000000000000 DUP2 MSTORE PUSH1 0x4 ADD PUSH2 0x2530 SWAP2 SWAP1 PUSH2 0x505F JUMP JUMPDEST PUSH1 0x40 MLOAD DUP1 SWAP2 SUB SWAP1 REVERT JUMPDEST POP JUMP JUMPDEST PUSH1 0x60 PUSH0 PUSH2 0x254A DUP4 PUSH0 ADD PUSH2 0x31C6 JUMP JUMPDEST SWAP1 POP PUSH1 0x60 DUP2 SWAP1 POP DUP1 SWAP3 POP POP POP SWAP2 SWAP1 POP JUMP JUMPDEST PUSH0 PUSH2 0x2565 DUP5 PUSH2 0xFD2 JUMP JUMPDEST SWAP1 POP DUP6 PUSH20 0xFFFFFFFFFFFFFFFFFFFFFFFFFFFFFFFFFFFFFFFF AND DUP2 PUSH20 0xFFFFFFFFFFFFFFFFFFFFFFFFFFFFFFFFFFFFFFFF AND EQ PUSH2 0x25DB JUMPI DUP1 DUP5 DUP8 PUSH1 0x40 MLOAD PUSH32 0x5B271EA200000000000000000000000000000000000000000000000000000000 DUP2 MSTORE PUSH1 0x4 ADD PUSH2 0x25D2 SWAP4 SWAP3 SWAP2 SWAP1 PUSH2 0x51F3 JUMP JUMPDEST PUSH1 0x40 MLOAD DUP1 SWAP2 SUB SWAP1 REVERT JUMPDEST PUSH0 PUSH20 0xFFFFFFFFFFFFFFFFFFFFFFFFFFFFFFFFFFFFFFFF AND DUP6 PUSH20 0xFFFFFFFFFFFFFFFFFFFFFFFFFFFFFFFFFFFFFFFF AND SUB PUSH2 0x2640 JUMPI PUSH1 0x40 MLOAD PUSH32 0x24ECEF4D00000000000000000000000000000000000000000000000000000000 DUP2 MSTORE PUSH1 0x4 ADD PUSH1 0x40 MLOAD DUP1 SWAP2 SUB SWAP1 REVERT JUMPDEST PUSH2 0x264C DUP7 DUP7 DUP7 DUP6 PUSH2 0x321F JUMP JUMPDEST PUSH0 PUSH2 0x2656 DUP6 PUSH2 0xFD2 JUMP JUMPDEST SWAP1 POP DUP1 PUSH20 0xFFFFFFFFFFFFFFFFFFFFFFFFFFFFFFFFFFFFFFFF AND DUP3 PUSH20 0xFFFFFFFFFFFFFFFFFFFFFFFFFFFFFFFFFFFFFFFF AND EQ PUSH2 0x26CC JUMPI DUP5 DUP3 DUP3 PUSH1 0x40 MLOAD PUSH32 0x5A9C31D300000000000000000000000000000000000000000000000000000000 DUP2 MSTORE PUSH1 0x4 ADD PUSH2 0x26C3 SWAP4 SWAP3 SWAP2 SWAP1 PUSH2 0x57DE JUMP JUMPDEST PUSH1 0x40 MLOAD DUP1 SWAP2 SUB SWAP1 REVERT JUMPDEST PUSH2 0x26D6 DUP8 DUP7 PUSH2 0x3225 JUMP JUMPDEST PUSH2 0x2725 DUP6 PUSH1 0x4 PUSH0 DUP11 PUSH20 0xFFFFFFFFFFFFFFFFFFFFFFFFFFFFFFFFFFFFFFFF AND PUSH20 0xFFFFFFFFFFFFFFFFFFFFFFFFFFFFFFFFFFFFFFFF AND DUP2 MSTORE PUSH1 0x20 ADD SWAP1 DUP2 MSTORE PUSH1 0x20 ADD PUSH0 KECCAK256 PUSH2 0x3293 SWAP1 SWAP2 SWAP1 PUSH4 0xFFFFFFFF AND JUMP JUMPDEST POP PUSH2 0x2775 DUP6 PUSH1 0x4 PUSH0 DUP10 PUSH20 0xFFFFFFFFFFFFFFFFFFFFFFFFFFFFFFFFFFFFFFFF AND PUSH20 0xFFFFFFFFFFFFFFFFFFFFFFFFFFFFFFFFFFFFFFFF AND DUP2 MSTORE PUSH1 0x20 ADD SWAP1 DUP2 MSTORE PUSH1 0x20 ADD PUSH0 KECCAK256 PUSH2 0x32A8 SWAP1 SWAP2 SWAP1 PUSH4 0xFFFFFFFF AND JUMP JUMPDEST POP DUP6 PUSH1 0x3 PUSH0 DUP8 DUP2 MSTORE PUSH1 0x20 ADD SWAP1 DUP2 MSTORE PUSH1 0x20 ADD PUSH0 KECCAK256 PUSH0 PUSH2 0x100 EXP DUP2 SLOAD DUP2 PUSH20 0xFFFFFFFFFFFFFFFFFFFFFFFFFFFFFFFFFFFFFFFF MUL NOT AND SWAP1 DUP4 PUSH20 0xFFFFFFFFFFFFFFFFFFFFFFFFFFFFFFFFFFFFFFFF AND MUL OR SWAP1 SSTORE POP DUP5 DUP7 PUSH20 0xFFFFFFFFFFFFFFFFFFFFFFFFFFFFFFFFFFFFFFFF AND DUP9 PUSH20 0xFFFFFFFFFFFFFFFFFFFFFFFFFFFFFFFFFFFFFFFF AND PUSH32 0xB333C813A7426A7A11E2B190CAD52C44119421594B47F6F32ACE6D8C7207B2BF CALLER DUP9 DUP9 PUSH1 0x40 MLOAD PUSH2 0x2827 SWAP4 SWAP3 SWAP2 SWAP1 PUSH2 0x5813 JUMP JUMPDEST PUSH1 0x40 MLOAD DUP1 SWAP2 SUB SWAP1 LOG4 PUSH2 0x283B DUP8 DUP8 DUP8 DUP7 PUSH2 0x32BD JUMP JUMPDEST PUSH0 CALLER DUP9 DUP9 DUP9 DUP8 PUSH1 0x40 MLOAD PUSH1 0x20 ADD PUSH2 0x2855 SWAP6 SWAP5 SWAP4 SWAP3 SWAP2 SWAP1 PUSH2 0x584F JUMP JUMPDEST PUSH1 0x40 MLOAD PUSH1 0x20 DUP2 DUP4 SUB SUB DUP2 MSTORE SWAP1 PUSH1 0x40 MSTORE SWAP1 POP PUSH2 0x2870 DUP9 DUP3 PUSH2 0x32C3 JUMP JUMPDEST PUSH2 0x287B DUP8 DUP7 DUP4 PUSH2 0x32F4 JUMP JUMPDEST POP POP POP POP POP POP POP POP JUMP JUMPDEST PUSH1 0x60 PUSH1 0x1 PUSH0 DUP4 DUP2 MSTORE PUSH1 0x20 ADD SWAP1 DUP2 MSTORE PUSH1 0x20 ADD PUSH0 KECCAK256 DUP1 SLOAD PUSH2 0x28A3 SWAP1 PUSH2 0x4FF3 JUMP JUMPDEST DUP1 PUSH1 0x1F ADD PUSH1 0x20 DUP1 SWAP2 DIV MUL PUSH1 0x20 ADD PUSH1 0x40 MLOAD SWAP1 DUP2 ADD PUSH1 0x40 MSTORE DUP1 SWAP3 SWAP2 SWAP1 DUP2 DUP2 MSTORE PUSH1 0x20 ADD DUP3 DUP1 SLOAD PUSH2 0x28CF SWAP1 PUSH2 0x4FF3 JUMP JUMPDEST DUP1 ISZERO PUSH2 0x291A JUMPI DUP1 PUSH1 0x1F LT PUSH2 0x28F1 JUMPI PUSH2 0x100 DUP1 DUP4 SLOAD DIV MUL DUP4 MSTORE SWAP2 PUSH1 0x20 ADD SWAP2 PUSH2 0x291A JUMP JUMPDEST DUP3 ADD SWAP2 SWAP1 PUSH0 MSTORE PUSH1 0x20 PUSH0 KECCAK256 SWAP1 JUMPDEST DUP2 SLOAD DUP2 MSTORE SWAP1 PUSH1 0x1 ADD SWAP1 PUSH1 0x20 ADD DUP1 DUP4 GT PUSH2 0x28FD JUMPI DUP3 SWAP1 SUB PUSH1 0x1F AND DUP3 ADD SWAP2 JUMPDEST POP POP POP POP POP SWAP1 POP SWAP2 SWAP1 POP JUMP JUMPDEST PUSH0 PUSH2 0x2932 DUP3 PUSH0 ADD PUSH2 0x3453 JUMP JUMPDEST SWAP1 POP SWAP2 SWAP1 POP JUMP JUMPDEST CALLER PUSH20 0xFFFFFFFFFFFFFFFFFFFFFFFFFFFFFFFFFFFFFFFF AND PUSH2 0x2958 PUSH2 0x1A39 JUMP JUMPDEST PUSH20 0xFFFFFFFFFFFFFFFFFFFFFFFFFFFFFFFFFFFFFFFF AND EQ PUSH2 0x29B0 JUMPI CALLER PUSH1 0x40 MLOAD PUSH32 0xBF1169C500000000000000000000000000000000000000000000000000000000 DUP2 MSTORE PUSH1 0x4 ADD PUSH2 0x29A7 SWAP2 SWAP1 PUSH2 0x4107 JUMP JUMPDEST PUSH1 0x40 MLOAD DUP1 SWAP2 SUB SWAP1 REVERT JUMPDEST JUMP JUMPDEST PUSH2 0x29BA PUSH2 0x1A39 JUMP JUMPDEST PUSH20 0xFFFFFFFFFFFFFFFFFFFFFFFFFFFFFFFFFFFFFFFF AND DUP2 PUSH20 0xFFFFFFFFFFFFFFFFFFFFFFFFFFFFFFFFFFFFFFFF AND EQ PUSH2 0x2AA5 JUMPI DUP1 PUSH20 0xFFFFFFFFFFFFFFFFFFFFFFFFFFFFFFFFFFFFFFFF AND PUSH0 DUP1 SLOAD SWAP1 PUSH2 0x100 EXP SWAP1 DIV PUSH20 0xFFFFFFFFFFFFFFFFFFFFFFFFFFFFFFFFFFFFFFFF AND PUSH20 0xFFFFFFFFFFFFFFFFFFFFFFFFFFFFFFFFFFFFFFFF AND PUSH32 0x8BE0079C531659141344CD1FD0A4F28419497F9722A3DAAFE3B4186F6B6457E0 PUSH1 0x40 MLOAD PUSH1 0x40 MLOAD DUP1 SWAP2 SUB SWAP1 LOG3 DUP1 PUSH0 DUP1 PUSH2 0x100 EXP DUP2 SLOAD DUP2 PUSH20 0xFFFFFFFFFFFFFFFFFFFFFFFFFFFFFFFFFFFFFFFF MUL NOT AND SWAP1 DUP4 PUSH20 0xFFFFFFFFFFFFFFFFFFFFFFFFFFFFFFFFFFFFFFFF AND MUL OR SWAP1 SSTORE POP JUMPDEST POP JUMP JUMPDEST PUSH32 0xF675E9361AF1C1664C1868CFA3EB97672D6B1A513AA5B81DEC34C9EE330E818D PUSH0 SHL DUP3 SUB PUSH2 0x2B03 JUMPI PUSH1 0x40 MLOAD PUSH32 0x3664800A00000000000000000000000000000000000000000000000000000000 DUP2 MSTORE PUSH1 0x4 ADD PUSH1 0x40 MLOAD DUP1 SWAP2 SUB SWAP1 REVERT JUMPDEST PUSH2 0x2B0D DUP3 DUP3 PUSH2 0x3462 JUMP JUMPDEST POP POP JUMP JUMPDEST PUSH0 PUSH2 0x2B36 DUP4 PUSH0 ADD DUP4 PUSH20 0xFFFFFFFFFFFFFFFFFFFFFFFFFFFFFFFFFFFFFFFF AND PUSH0 SHL PUSH2 0x3470 JUMP JUMPDEST SWAP1 POP SWAP3 SWAP2 POP POP JUMP JUMPDEST PUSH2 0x2B6B DUP3 PUSH32 0x8A1C15A8799F71B547E08E2BCB2E85257E81B0A07EEE2CE6712549EEF1F00970 PUSH0 SHL DUP4 PUSH2 0x34D7 JUMP JUMPDEST POP POP JUMP JUMPDEST PUSH0 PUSH3 0x15180 PUSH1 0x9 PUSH0 CALLER PUSH20 0xFFFFFFFFFFFFFFFFFFFFFFFFFFFFFFFFFFFFFFFF AND PUSH20 0xFFFFFFFFFFFFFFFFFFFFFFFFFFFFFFFFFFFFFFFF AND DUP2 MSTORE PUSH1 0x20 ADD SWAP1 DUP2 MSTORE PUSH1 0x20 ADD PUSH0 KECCAK256 SLOAD PUSH2 0x2BBC SWAP2 SWAP1 PUSH2 0x58D4 JUMP JUMPDEST TIMESTAMP LT SWAP1 POP SWAP1 JUMP JUMPDEST PUSH0 PUSH20 0xFFFFFFFFFFFFFFFFFFFFFFFFFFFFFFFFFFFFFFFF AND DUP5 PUSH20 0xFFFFFFFFFFFFFFFFFFFFFFFFFFFFFFFFFFFFFFFF AND SUB PUSH2 0x2C28 JUMPI PUSH1 0x40 MLOAD PUSH32 0x24ECEF4D00000000000000000000000000000000000000000000000000000000 DUP2 MSTORE PUSH1 0x4 ADD PUSH1 0x40 MLOAD DUP1 SWAP2 SUB SWAP1 REVERT JUMPDEST PUSH2 0x2C31 DUP4 PUSH2 0x315E JUMP JUMPDEST ISZERO PUSH2 0x2C73 JUMPI DUP3 PUSH1 0x40 MLOAD PUSH32 0x34C7B51100000000000000000000000000000000000000000000000000000000 DUP2 MSTORE PUSH1 0x4 ADD PUSH2 0x2C6A SWAP2 SWAP1 PUSH2 0x505F JUMP JUMPDEST PUSH1 0x40 MLOAD DUP1 SWAP2 SUB SWAP1 REVERT JUMPDEST PUSH2 0x2C7F PUSH0 DUP6 DUP6 DUP5 PUSH2 0x321F JUMP JUMPDEST PUSH2 0x2C88 DUP4 PUSH2 0x315E JUMP JUMPDEST ISZERO PUSH2 0x2CCA JUMPI DUP3 PUSH1 0x40 MLOAD PUSH32 0x34C7B51100000000000000000000000000000000000000000000000000000000 DUP2 MSTORE PUSH1 0x4 ADD PUSH2 0x2CC1 SWAP2 SWAP1 PUSH2 0x505F JUMP JUMPDEST PUSH1 0x40 MLOAD DUP1 SWAP2 SUB SWAP1 REVERT JUMPDEST PUSH1 0x2 PUSH0 DUP2 SLOAD PUSH2 0x2CD8 SWAP1 PUSH2 0x5907 JUMP JUMPDEST SWAP2 SWAP1 POP DUP2 SWAP1 SSTORE POP PUSH2 0x2D2E DUP4 PUSH1 0x4 PUSH0 DUP8 PUSH20 0xFFFFFFFFFFFFFFFFFFFFFFFFFFFFFFFFFFFFFFFF AND PUSH20 0xFFFFFFFFFFFFFFFFFFFFFFFFFFFFFFFFFFFFFFFF AND DUP2 MSTORE PUSH1 0x20 ADD SWAP1 DUP2 MSTORE PUSH1 0x20 ADD PUSH0 KECCAK256 PUSH2 0x32A8 SWAP1 SWAP2 SWAP1 PUSH4 0xFFFFFFFF AND JUMP JUMPDEST POP DUP4 PUSH1 0x3 PUSH0 DUP6 DUP2 MSTORE PUSH1 0x20 ADD SWAP1 DUP2 MSTORE PUSH1 0x20 ADD PUSH0 KECCAK256 PUSH0 PUSH2 0x100 EXP DUP2 SLOAD DUP2 PUSH20 0xFFFFFFFFFFFFFFFFFFFFFFFFFFFFFFFFFFFFFFFF MUL NOT AND SWAP1 DUP4 PUSH20 0xFFFFFFFFFFFFFFFFFFFFFFFFFFFFFFFFFFFFFFFF AND MUL OR SWAP1 SSTORE POP DUP3 DUP5 PUSH20 0xFFFFFFFFFFFFFFFFFFFFFFFFFFFFFFFFFFFFFFFF AND PUSH0 PUSH20 0xFFFFFFFFFFFFFFFFFFFFFFFFFFFFFFFFFFFFFFFF AND PUSH32 0xB333C813A7426A7A11E2B190CAD52C44119421594B47F6F32ACE6D8C7207B2BF CALLER DUP7 DUP7 PUSH1 0x40 MLOAD PUSH2 0x2DE0 SWAP4 SWAP3 SWAP2 SWAP1 PUSH2 0x5813 JUMP JUMPDEST PUSH1 0x40 MLOAD DUP1 SWAP2 SUB SWAP1 LOG4 PUSH2 0x2DF4 PUSH0 DUP6 DUP6 DUP5 PUSH2 0x32BD JUMP JUMPDEST PUSH0 CALLER PUSH0 DUP7 DUP7 DUP6 PUSH1 0x40 MLOAD PUSH1 0x20 ADD PUSH2 0x2E0E SWAP6 SWAP5 SWAP4 SWAP3 SWAP2 SWAP1 PUSH2 0x584F JUMP JUMPDEST PUSH1 0x40 MLOAD PUSH1 0x20 DUP2 DUP4 SUB SUB DUP2 MSTORE SWAP1 PUSH1 0x40 MSTORE SWAP1 POP PUSH2 0x2E2A DUP6 DUP5 DUP4 PUSH2 0x32F4 JUMP JUMPDEST POP POP POP POP POP JUMP JUMPDEST PUSH1 0x60 PUSH0 PUSH2 0x2E3F DUP4 PUSH0 ADD PUSH2 0x31C6 JUMP JUMPDEST SWAP1 POP PUSH1 0x60 DUP2 SWAP1 POP DUP1 SWAP3 POP POP POP SWAP2 SWAP1 POP JUMP JUMPDEST PUSH2 0x2E5B DUP4 DUP4 DUP4 PUSH2 0x3591 JUMP JUMPDEST DUP2 DUP4 PUSH32 0xA6E4251F855F750545FE414F120DB91C76B88DEF14D120969E5BB2D3F05DEBBB DUP4 PUSH1 0x40 MLOAD PUSH2 0x2E8C SWAP2 SWAP1 PUSH2 0x3E12 JUMP JUMPDEST PUSH1 0x40 MLOAD DUP1 SWAP2 SUB SWAP1 LOG3 POP POP POP JUMP JUMPDEST PUSH0 PUSH2 0x2EBD DUP7 PUSH1 0x5 PUSH0 DUP8 DUP2 MSTORE PUSH1 0x20 ADD SWAP1 DUP2 MSTORE PUSH1 0x20 ADD PUSH0 KECCAK256 PUSH2 0x3600 SWAP1 SWAP2 SWAP1 PUSH4 0xFFFFFFFF AND JUMP JUMPDEST SWAP1 POP DUP1 PUSH2 0x2F03 JUMPI DUP6 DUP5 PUSH1 0x40 MLOAD PUSH32 0x4AA31A8C00000000000000000000000000000000000000000000000000000000 DUP2 MSTORE PUSH1 0x4 ADD PUSH2 0x2EFA SWAP3 SWAP2 SWAP1 PUSH2 0x5228 JUMP JUMPDEST PUSH1 0x40 MLOAD DUP1 SWAP2 SUB SWAP1 REVERT JUMPDEST DUP4 DUP6 PUSH20 0xFFFFFFFFFFFFFFFFFFFFFFFFFFFFFFFFFFFFFFFF AND DUP8 PUSH20 0xFFFFFFFFFFFFFFFFFFFFFFFFFFFFFFFFFFFFFFFF AND PUSH32 0xC78CD419D6136F9F1C1C6AEC1D3FAE098CFFAF8BC86314A8F2685E32FE574E3C DUP7 DUP7 PUSH1 0x40 MLOAD PUSH2 0x2F63 SWAP3 SWAP2 SWAP1 PUSH2 0x594E JUMP JUMPDEST PUSH1 0x40 MLOAD DUP1 SWAP2 SUB SWAP1 LOG4 POP POP POP POP POP POP JUMP JUMPDEST PUSH0 DUP1 DUP4 PUSH0 PUSH1 0xF0 SHL DUP5 PUSH1 0x40 MLOAD PUSH1 0x20 ADD PUSH2 0x2F8D SWAP4 SWAP3 SWAP2 SWAP1 PUSH2 0x5A32 JUMP JUMPDEST PUSH1 0x40 MLOAD PUSH1 0x20 DUP2 DUP4 SUB SUB DUP2 MSTORE SWAP1 PUSH1 0x40 MSTORE SWAP1 POP DUP1 PUSH2 0x2FA8 SWAP1 PUSH2 0x5A82 JUMP JUMPDEST SWAP2 POP POP SWAP3 SWAP2 POP POP JUMP JUMPDEST PUSH0 PUSH4 0x629AA694 PUSH1 0xE0 SHL PUSH28 0xFFFFFFFFFFFFFFFFFFFFFFFFFFFFFFFFFFFFFFFFFFFFFFFFFFFFFFFF NOT AND DUP3 PUSH28 0xFFFFFFFFFFFFFFFFFFFFFFFFFFFFFFFFFFFFFFFFFFFFFFFFFFFFFFFF NOT AND EQ DUP1 PUSH2 0x300A JUMPI POP PUSH2 0x3009 DUP3 PUSH2 0x362D JUMP JUMPDEST JUMPDEST SWAP1 POP SWAP2 SWAP1 POP JUMP JUMPDEST PUSH0 DUP1 DUP3 PUSH1 0x40 MLOAD PUSH1 0x24 ADD PUSH2 0x3024 SWAP2 SWAP1 PUSH2 0x4D9C JUMP JUMPDEST PUSH1 0x40 MLOAD PUSH1 0x20 DUP2 DUP4 SUB SUB DUP2 MSTORE SWAP1 PUSH1 0x40 MSTORE PUSH4 0x1FFC9A7 PUSH1 0xE0 SHL PUSH1 0x20 DUP3 ADD DUP1 MLOAD PUSH28 0xFFFFFFFFFFFFFFFFFFFFFFFFFFFFFFFFFFFFFFFFFFFFFFFFFFFFFFFF DUP4 DUP2 DUP4 AND OR DUP4 MSTORE POP POP POP POP SWAP1 POP PUSH0 DUP1 PUSH0 PUSH1 0x20 PUSH0 DUP6 MLOAD PUSH1 0x20 DUP8 ADD DUP11 PUSH2 0x7530 STATICCALL SWAP3 POP RETURNDATASIZE SWAP2 POP PUSH0 MLOAD SWAP1 POP DUP3 DUP1 ISZERO PUSH2 0x3093 JUMPI POP PUSH1 0x20 DUP3 LT ISZERO JUMPDEST DUP1 ISZERO PUSH2 0x309E JUMPI POP PUSH0 DUP2 GT JUMPDEST SWAP5 POP POP POP POP POP SWAP3 SWAP2 POP POP JUMP JUMPDEST PUSH1 0x60 DUP3 PUSH0 SHR PUSH20 0xFFFFFFFFFFFFFFFFFFFFFFFFFFFFFFFFFFFFFFFF AND PUSH4 0x54F6127F DUP4 PUSH1 0x40 MLOAD DUP3 PUSH4 0xFFFFFFFF AND PUSH1 0xE0 SHL DUP2 MSTORE PUSH1 0x4 ADD PUSH2 0x30E7 SWAP2 SWAP1 PUSH2 0x505F JUMP JUMPDEST PUSH0 PUSH1 0x40 MLOAD DUP1 DUP4 SUB DUP2 DUP7 GAS STATICCALL ISZERO DUP1 ISZERO PUSH2 0x3101 JUMPI RETURNDATASIZE PUSH0 DUP1 RETURNDATACOPY RETURNDATASIZE PUSH0 REVERT JUMPDEST POP POP POP POP PUSH1 0x40 MLOAD RETURNDATASIZE PUSH0 DUP3 RETURNDATACOPY RETURNDATASIZE PUSH1 0x1F NOT PUSH1 0x1F DUP3 ADD AND DUP3 ADD DUP1 PUSH1 0x40 MSTORE POP DUP2 ADD SWAP1 PUSH2 0x3129 SWAP2 SWAP1 PUSH2 0x5B56 JUMP JUMPDEST SWAP1 POP SWAP3 SWAP2 POP POP JUMP JUMPDEST PUSH0 PUSH2 0x3156 DUP4 PUSH0 ADD DUP4 PUSH20 0xFFFFFFFFFFFFFFFFFFFFFFFFFFFFFFFFFFFFFFFF AND PUSH0 SHL PUSH2 0x3696 JUMP JUMPDEST SWAP1 POP SWAP3 SWAP2 POP POP JUMP JUMPDEST PUSH0 DUP1 PUSH20 0xFFFFFFFFFFFFFFFFFFFFFFFFFFFFFFFFFFFFFFFF AND PUSH1 0x3 PUSH0 DUP5 DUP2 MSTORE PUSH1 0x20 ADD SWAP1 DUP2 MSTORE PUSH1 0x20 ADD PUSH0 KECCAK256 PUSH0 SWAP1 SLOAD SWAP1 PUSH2 0x100 EXP SWAP1 DIV PUSH20 0xFFFFFFFFFFFFFFFFFFFFFFFFFFFFFFFFFFFFFFFF AND PUSH20 0xFFFFFFFFFFFFFFFFFFFFFFFFFFFFFFFFFFFFFFFF AND EQ ISZERO SWAP1 POP SWAP2 SWAP1 POP JUMP JUMPDEST PUSH1 0x60 DUP2 PUSH0 ADD DUP1 SLOAD DUP1 PUSH1 0x20 MUL PUSH1 0x20 ADD PUSH1 0x40 MLOAD SWAP1 DUP2 ADD PUSH1 0x40 MSTORE DUP1 SWAP3 SWAP2 SWAP1 DUP2 DUP2 MSTORE PUSH1 0x20 ADD DUP3 DUP1 SLOAD DUP1 ISZERO PUSH2 0x3213 JUMPI PUSH1 0x20 MUL DUP3 ADD SWAP2 SWAP1 PUSH0 MSTORE PUSH1 0x20 PUSH0 KECCAK256 SWAP1 JUMPDEST DUP2 SLOAD DUP2 MSTORE PUSH1 0x20 ADD SWAP1 PUSH1 0x1 ADD SWAP1 DUP1 DUP4 GT PUSH2 0x31FF JUMPI JUMPDEST POP POP POP POP POP SWAP1 POP SWAP2 SWAP1 POP JUMP JUMPDEST POP POP POP POP JUMP JUMPDEST PUSH0 PUSH1 0x5 PUSH0 DUP4 DUP2 MSTORE PUSH1 0x20 ADD SWAP1 DUP2 MSTORE PUSH1 0x20 ADD PUSH0 KECCAK256 SWAP1 POP PUSH0 PUSH2 0x3243 DUP3 PUSH2 0x36B6 JUMP JUMPDEST SWAP1 POP PUSH0 DUP1 JUMPDEST DUP3 DUP2 LT ISZERO PUSH2 0x328B JUMPI PUSH2 0x3263 PUSH0 DUP6 PUSH2 0x36C9 SWAP1 SWAP2 SWAP1 PUSH4 0xFFFFFFFF AND JUMP JUMPDEST SWAP2 POP PUSH2 0x3280 DUP3 DUP8 DUP8 PUSH0 PUSH1 0x40 MLOAD DUP1 PUSH1 0x20 ADD PUSH1 0x40 MSTORE DUP1 PUSH0 DUP2 MSTORE POP PUSH2 0x2E99 JUMP JUMPDEST DUP1 PUSH1 0x1 ADD SWAP1 POP PUSH2 0x3248 JUMP JUMPDEST POP POP POP POP POP POP JUMP JUMPDEST PUSH0 PUSH2 0x32A0 DUP4 PUSH0 ADD DUP4 PUSH2 0x36E0 JUMP JUMPDEST SWAP1 POP SWAP3 SWAP2 POP POP JUMP JUMPDEST PUSH0 PUSH2 0x32B5 DUP4 PUSH0 ADD DUP4 PUSH2 0x3470 JUMP JUMPDEST SWAP1 POP SWAP3 SWAP2 POP POP JUMP JUMPDEST POP POP POP POP JUMP JUMPDEST PUSH2 0x32F0 DUP3 PUSH32 0xB23EAE7E6D1564B295B4C3E3BE402D9A2F0776C57BDF365903496F6FA481AB00 PUSH0 SHL DUP4 PUSH2 0x34D7 JUMP JUMPDEST POP POP JUMP JUMPDEST PUSH2 0x3305 DUP4 PUSH4 0x6BB56A14 PUSH1 0xE0 SHL PUSH2 0x3011 JUMP JUMPDEST ISZERO PUSH2 0x33B0 JUMPI DUP3 PUSH20 0xFFFFFFFFFFFFFFFFFFFFFFFFFFFFFFFFFFFFFFFF AND PUSH4 0x6BB56A14 PUSH32 0xB084A55EBF70FD3C06FD755269DAC2212C4D3F0F4D09079780BFA50C1B2984D PUSH0 SHL DUP4 PUSH1 0x40 MLOAD DUP4 PUSH4 0xFFFFFFFF AND PUSH1 0xE0 SHL DUP2 MSTORE PUSH1 0x4 ADD PUSH2 0x3367 SWAP3 SWAP2 SWAP1 PUSH2 0x5B9D JUMP JUMPDEST PUSH0 PUSH1 0x40 MLOAD DUP1 DUP4 SUB DUP2 PUSH0 DUP8 GAS CALL ISZERO DUP1 ISZERO PUSH2 0x3382 JUMPI RETURNDATASIZE PUSH0 DUP1 RETURNDATACOPY RETURNDATASIZE PUSH0 REVERT JUMPDEST POP POP POP POP PUSH1 0x40 MLOAD RETURNDATASIZE PUSH0 DUP3 RETURNDATACOPY RETURNDATASIZE PUSH1 0x1F NOT PUSH1 0x1F DUP3 ADD AND DUP3 ADD DUP1 PUSH1 0x40 MSTORE POP DUP2 ADD SWAP1 PUSH2 0x33AA SWAP2 SWAP1 PUSH2 0x5B56 JUMP JUMPDEST POP PUSH2 0x344E JUMP JUMPDEST DUP2 PUSH2 0x344D JUMPI PUSH0 DUP4 PUSH20 0xFFFFFFFFFFFFFFFFFFFFFFFFFFFFFFFFFFFFFFFF AND EXTCODESIZE EQ PUSH2 0x3410 JUMPI DUP3 PUSH1 0x40 MLOAD PUSH32 0x4349776D00000000000000000000000000000000000000000000000000000000 DUP2 MSTORE PUSH1 0x4 ADD PUSH2 0x3407 SWAP2 SWAP1 PUSH2 0x4107 JUMP JUMPDEST PUSH1 0x40 MLOAD DUP1 SWAP2 SUB SWAP1 REVERT JUMPDEST DUP3 PUSH1 0x40 MLOAD PUSH32 0x317313700000000000000000000000000000000000000000000000000000000 DUP2 MSTORE PUSH1 0x4 ADD PUSH2 0x3444 SWAP2 SWAP1 PUSH2 0x4107 JUMP JUMPDEST PUSH1 0x40 MLOAD DUP1 SWAP2 SUB SWAP1 REVERT JUMPDEST JUMPDEST POP POP POP JUMP JUMPDEST PUSH0 DUP2 PUSH0 ADD DUP1 SLOAD SWAP1 POP SWAP1 POP SWAP2 SWAP1 POP JUMP JUMPDEST PUSH2 0x346C DUP3 DUP3 PUSH2 0x37DC JUMP JUMPDEST POP POP JUMP JUMPDEST PUSH0 PUSH2 0x347B DUP4 DUP4 PUSH2 0x3696 JUMP JUMPDEST PUSH2 0x34CD JUMPI DUP3 PUSH0 ADD DUP3 SWAP1 DUP1 PUSH1 0x1 DUP2 SLOAD ADD DUP1 DUP3 SSTORE DUP1 SWAP2 POP POP PUSH1 0x1 SWAP1 SUB SWAP1 PUSH0 MSTORE PUSH1 0x20 PUSH0 KECCAK256 ADD PUSH0 SWAP1 SWAP2 SWAP1 SWAP2 SWAP1 SWAP2 POP SSTORE DUP3 PUSH0 ADD DUP1 SLOAD SWAP1 POP DUP4 PUSH1 0x1 ADD PUSH0 DUP5 DUP2 MSTORE PUSH1 0x20 ADD SWAP1 DUP2 MSTORE PUSH1 0x20 ADD PUSH0 KECCAK256 DUP2 SWAP1 SSTORE POP PUSH1 0x1 SWAP1 POP PUSH2 0x34D1 JUMP JUMPDEST PUSH0 SWAP1 POP JUMPDEST SWAP3 SWAP2 POP POP JUMP JUMPDEST PUSH2 0x3507 PUSH4 0x6BB56A14 PUSH1 0xE0 SHL DUP5 PUSH20 0xFFFFFFFFFFFFFFFFFFFFFFFFFFFFFFFFFFFFFFFF AND PUSH2 0x3011 SWAP1 SWAP2 SWAP1 PUSH4 0xFFFFFFFF AND JUMP JUMPDEST ISZERO PUSH2 0x358C JUMPI DUP3 PUSH20 0xFFFFFFFFFFFFFFFFFFFFFFFFFFFFFFFFFFFFFFFF AND PUSH4 0x6BB56A14 DUP4 DUP4 PUSH1 0x40 MLOAD DUP4 PUSH4 0xFFFFFFFF AND PUSH1 0xE0 SHL DUP2 MSTORE PUSH1 0x4 ADD PUSH2 0x3547 SWAP3 SWAP2 SWAP1 PUSH2 0x5B9D JUMP JUMPDEST PUSH0 PUSH1 0x40 MLOAD DUP1 DUP4 SUB DUP2 PUSH0 DUP8 GAS CALL ISZERO DUP1 ISZERO PUSH2 0x3562 JUMPI RETURNDATASIZE PUSH0 DUP1 RETURNDATACOPY RETURNDATASIZE PUSH0 REVERT JUMPDEST POP POP POP POP PUSH1 0x40 MLOAD RETURNDATASIZE PUSH0 DUP3 RETURNDATACOPY RETURNDATASIZE PUSH1 0x1F NOT PUSH1 0x1F DUP3 ADD AND DUP3 ADD DUP1 PUSH1 0x40 MSTORE POP DUP2 ADD SWAP1 PUSH2 0x358A SWAP2 SWAP1 PUSH2 0x5B56 JUMP JUMPDEST POP JUMPDEST POP POP POP JUMP JUMPDEST DUP3 PUSH0 SHR PUSH20 0xFFFFFFFFFFFFFFFFFFFFFFFFFFFFFFFFFFFFFFFF AND PUSH4 0x7F23690C DUP4 DUP4 PUSH1 0x40 MLOAD DUP4 PUSH4 0xFFFFFFFF AND PUSH1 0xE0 SHL DUP2 MSTORE PUSH1 0x4 ADD PUSH2 0x35CE SWAP3 SWAP2 SWAP1 PUSH2 0x5B9D JUMP JUMPDEST PUSH0 PUSH1 0x40 MLOAD DUP1 DUP4 SUB DUP2 PUSH0 DUP8 DUP1 EXTCODESIZE ISZERO DUP1 ISZERO PUSH2 0x35E5 JUMPI PUSH0 DUP1 REVERT JUMPDEST POP GAS CALL ISZERO DUP1 ISZERO PUSH2 0x35F7 JUMPI RETURNDATASIZE PUSH0 DUP1 RETURNDATACOPY RETURNDATASIZE PUSH0 REVERT JUMPDEST POP POP POP POP POP POP POP JUMP JUMPDEST PUSH0 PUSH2 0x3625 DUP4 PUSH0 ADD DUP4 PUSH20 0xFFFFFFFFFFFFFFFFFFFFFFFFFFFFFFFFFFFFFFFF AND PUSH0 SHL PUSH2 0x36E0 JUMP JUMPDEST SWAP1 POP SWAP3 SWAP2 POP POP JUMP JUMPDEST PUSH0 PUSH32 0x1FFC9A700000000000000000000000000000000000000000000000000000000 PUSH28 0xFFFFFFFFFFFFFFFFFFFFFFFFFFFFFFFFFFFFFFFFFFFFFFFFFFFFFFFF NOT AND DUP3 PUSH28 0xFFFFFFFFFFFFFFFFFFFFFFFFFFFFFFFFFFFFFFFFFFFFFFFFFFFFFFFF NOT AND EQ SWAP1 POP SWAP2 SWAP1 POP JUMP JUMPDEST PUSH0 DUP1 DUP4 PUSH1 0x1 ADD PUSH0 DUP5 DUP2 MSTORE PUSH1 0x20 ADD SWAP1 DUP2 MSTORE PUSH1 0x20 ADD PUSH0 KECCAK256 SLOAD EQ ISZERO SWAP1 POP SWAP3 SWAP2 POP POP JUMP JUMPDEST PUSH0 PUSH2 0x36C2 DUP3 PUSH0 ADD PUSH2 0x3453 JUMP JUMPDEST SWAP1 POP SWAP2 SWAP1 POP JUMP JUMPDEST PUSH0 PUSH2 0x36D6 DUP4 PUSH0 ADD DUP4 PUSH2 0x3948 JUMP JUMPDEST PUSH0 SHR SWAP1 POP SWAP3 SWAP2 POP POP JUMP JUMPDEST PUSH0 DUP1 DUP4 PUSH1 0x1 ADD PUSH0 DUP5 DUP2 MSTORE PUSH1 0x20 ADD SWAP1 DUP2 MSTORE PUSH1 0x20 ADD PUSH0 KECCAK256 SLOAD SWAP1 POP PUSH0 DUP2 EQ PUSH2 0x37D1 JUMPI PUSH0 PUSH1 0x1 DUP3 PUSH2 0x370D SWAP2 SWAP1 PUSH2 0x5BCB JUMP JUMPDEST SWAP1 POP PUSH0 PUSH1 0x1 DUP7 PUSH0 ADD DUP1 SLOAD SWAP1 POP PUSH2 0x3723 SWAP2 SWAP1 PUSH2 0x5BCB JUMP JUMPDEST SWAP1 POP DUP1 DUP3 EQ PUSH2 0x3789 JUMPI PUSH0 DUP7 PUSH0 ADD DUP3 DUP2 SLOAD DUP2 LT PUSH2 0x3742 JUMPI PUSH2 0x3741 PUSH2 0x5023 JUMP JUMPDEST JUMPDEST SWAP1 PUSH0 MSTORE PUSH1 0x20 PUSH0 KECCAK256 ADD SLOAD SWAP1 POP DUP1 DUP8 PUSH0 ADD DUP5 DUP2 SLOAD DUP2 LT PUSH2 0x3763 JUMPI PUSH2 0x3762 PUSH2 0x5023 JUMP JUMPDEST JUMPDEST SWAP1 PUSH0 MSTORE PUSH1 0x20 PUSH0 KECCAK256 ADD DUP2 SWAP1 SSTORE POP DUP4 DUP8 PUSH1 0x1 ADD PUSH0 DUP4 DUP2 MSTORE PUSH1 0x20 ADD SWAP1 DUP2 MSTORE PUSH1 0x20 ADD PUSH0 KECCAK256 DUP2 SWAP1 SSTORE POP POP JUMPDEST DUP6 PUSH0 ADD DUP1 SLOAD DUP1 PUSH2 0x379C JUMPI PUSH2 0x379B PUSH2 0x5BFE JUMP JUMPDEST JUMPDEST PUSH1 0x1 SWAP1 SUB DUP2 DUP2 SWAP1 PUSH0 MSTORE PUSH1 0x20 PUSH0 KECCAK256 ADD PUSH0 SWAP1 SSTORE SWAP1 SSTORE DUP6 PUSH1 0x1 ADD PUSH0 DUP7 DUP2 MSTORE PUSH1 0x20 ADD SWAP1 DUP2 MSTORE PUSH1 0x20 ADD PUSH0 KECCAK256 PUSH0 SWAP1 SSTORE PUSH1 0x1 SWAP4 POP POP POP POP PUSH2 0x37D6 JUMP JUMPDEST PUSH0 SWAP2 POP POP JUMPDEST SWAP3 SWAP2 POP POP JUMP JUMPDEST PUSH32 0xDEBA1E292F8BA88238E10AB3C7F88BD4BE4FAC56CAD5194B6ECCEAF653468AF1 PUSH0 SHL DUP3 SUB PUSH2 0x3837 JUMPI PUSH1 0x40 MLOAD PUSH32 0x85C169BD00000000000000000000000000000000000000000000000000000000 DUP2 MSTORE PUSH1 0x4 ADD PUSH1 0x40 MLOAD DUP1 SWAP2 SUB SWAP1 REVERT JUMPDEST PUSH32 0x2F0A68AB07768E01943A599E73362A0E17A63A72E94DD2E384D2C1D4DB932756 PUSH0 SHL DUP3 SUB PUSH2 0x3892 JUMPI PUSH1 0x40 MLOAD PUSH32 0x76755B3800000000000000000000000000000000000000000000000000000000 DUP2 MSTORE PUSH1 0x4 ADD PUSH1 0x40 MLOAD DUP1 SWAP2 SUB SWAP1 REVERT JUMPDEST PUSH32 0xE0261FA95DB2EB3B5439BD033CDA66D56B96F92F243A8228FD87550ED7BDFDB3 PUSH0 SHL DUP3 SUB PUSH2 0x38ED JUMPI PUSH1 0x40 MLOAD PUSH32 0x4EF6D7FB00000000000000000000000000000000000000000000000000000000 DUP2 MSTORE PUSH1 0x4 ADD PUSH1 0x40 MLOAD DUP1 SWAP2 SUB SWAP1 REVERT JUMPDEST DUP1 PUSH1 0x1 PUSH0 DUP5 DUP2 MSTORE PUSH1 0x20 ADD SWAP1 DUP2 MSTORE PUSH1 0x20 ADD PUSH0 KECCAK256 SWAP1 DUP2 PUSH2 0x390B SWAP2 SWAP1 PUSH2 0x5436 JUMP JUMPDEST POP DUP2 PUSH32 0xECE574603820D07BC9B91F2A932BAADF4628AABCB8AFBA49776529C14A6104B2 DUP3 PUSH1 0x40 MLOAD PUSH2 0x393C SWAP2 SWAP1 PUSH2 0x3E12 JUMP JUMPDEST PUSH1 0x40 MLOAD DUP1 SWAP2 SUB SWAP1 LOG2 POP POP JUMP JUMPDEST PUSH0 DUP3 PUSH0 ADD DUP3 DUP2 SLOAD DUP2 LT PUSH2 0x395E JUMPI PUSH2 0x395D PUSH2 0x5023 JUMP JUMPDEST JUMPDEST SWAP1 PUSH0 MSTORE PUSH1 0x20 PUSH0 KECCAK256 ADD SLOAD SWAP1 POP SWAP3 SWAP2 POP POP JUMP JUMPDEST PUSH0 DUP3 DUP3 MSTORE PUSH1 0x20 DUP3 ADD SWAP1 POP SWAP3 SWAP2 POP POP JUMP JUMPDEST PUSH0 DUP1 DUP3 ADD MSTORE POP JUMP JUMPDEST PUSH0 PUSH2 0x3993 PUSH1 0x4 DUP4 PUSH2 0x396F JUMP JUMPDEST SWAP2 POP PUSH2 0x399E DUP3 PUSH2 0x397F JUMP JUMPDEST PUSH1 0x20 DUP3 ADD SWAP1 POP SWAP2 SWAP1 POP JUMP JUMPDEST PUSH0 PUSH1 0x20 DUP3 ADD SWAP1 POP DUP2 DUP2 SUB PUSH0 DUP4 ADD MSTORE PUSH2 0x39C0 DUP2 PUSH2 0x3987 JUMP JUMPDEST SWAP1 POP SWAP2 SWAP1 POP JUMP JUMPDEST DUP3 DUP2 DUP4 CALLDATACOPY PUSH0 DUP4 DUP4 ADD MSTORE POP POP POP JUMP JUMPDEST PUSH0 PUSH1 0x1F NOT PUSH1 0x1F DUP4 ADD AND SWAP1 POP SWAP2 SWAP1 POP JUMP JUMPDEST PUSH0 PUSH2 0x39F0 DUP4 DUP6 PUSH2 0x396F JUMP JUMPDEST SWAP4 POP PUSH2 0x39FD DUP4 DUP6 DUP5 PUSH2 0x39C7 JUMP JUMPDEST PUSH2 0x3A06 DUP4 PUSH2 0x39D5 JUMP JUMPDEST DUP5 ADD SWAP1 POP SWAP4 SWAP3 POP POP POP JUMP JUMPDEST PUSH0 PUSH1 0x20 DUP3 ADD SWAP1 POP DUP2 DUP2 SUB PUSH0 DUP4 ADD MSTORE PUSH2 0x3A2A DUP2 DUP5 DUP7 PUSH2 0x39E5 JUMP JUMPDEST SWAP1 POP SWAP4 SWAP3 POP POP POP JUMP JUMPDEST PUSH0 PUSH1 0x40 MLOAD SWAP1 POP SWAP1 JUMP JUMPDEST PUSH0 DUP1 REVERT JUMPDEST PUSH0 DUP1 REVERT JUMPDEST PUSH0 PUSH20 0xFFFFFFFFFFFFFFFFFFFFFFFFFFFFFFFFFFFFFFFF DUP3 AND SWAP1 POP SWAP2 SWAP1 POP JUMP JUMPDEST PUSH0 PUSH2 0x3A6D DUP3 PUSH2 0x3A44 JUMP JUMPDEST SWAP1 POP SWAP2 SWAP1 POP JUMP JUMPDEST PUSH2 0x3A7D DUP2 PUSH2 0x3A63 JUMP JUMPDEST DUP2 EQ PUSH2 0x3A87 JUMPI PUSH0 DUP1 REVERT JUMPDEST POP JUMP JUMPDEST PUSH0 DUP2 CALLDATALOAD SWAP1 POP PUSH2 0x3A98 DUP2 PUSH2 0x3A74 JUMP JUMPDEST SWAP3 SWAP2 POP POP JUMP JUMPDEST PUSH0 PUSH1 0x20 DUP3 DUP5 SUB SLT ISZERO PUSH2 0x3AB3 JUMPI PUSH2 0x3AB2 PUSH2 0x3A3C JUMP JUMPDEST JUMPDEST PUSH0 PUSH2 0x3AC0 DUP5 DUP3 DUP6 ADD PUSH2 0x3A8A JUMP JUMPDEST SWAP2 POP POP SWAP3 SWAP2 POP POP JUMP JUMPDEST PUSH0 DUP2 SWAP1 POP SWAP2 SWAP1 POP JUMP JUMPDEST PUSH2 0x3ADB DUP2 PUSH2 0x3AC9 JUMP JUMPDEST DUP3 MSTORE POP POP JUMP JUMPDEST PUSH0 PUSH1 0x20 DUP3 ADD SWAP1 POP PUSH2 0x3AF4 PUSH0 DUP4 ADD DUP5 PUSH2 0x3AD2 JUMP JUMPDEST SWAP3 SWAP2 POP POP JUMP JUMPDEST PUSH0 PUSH32 0xFFFFFFFF00000000000000000000000000000000000000000000000000000000 DUP3 AND SWAP1 POP SWAP2 SWAP1 POP JUMP JUMPDEST PUSH2 0x3B2E DUP2 PUSH2 0x3AFA JUMP JUMPDEST DUP2 EQ PUSH2 0x3B38 JUMPI PUSH0 DUP1 REVERT JUMPDEST POP JUMP JUMPDEST PUSH0 DUP2 CALLDATALOAD SWAP1 POP PUSH2 0x3B49 DUP2 PUSH2 0x3B25 JUMP JUMPDEST SWAP3 SWAP2 POP POP JUMP JUMPDEST PUSH0 PUSH1 0x20 DUP3 DUP5 SUB SLT ISZERO PUSH2 0x3B64 JUMPI PUSH2 0x3B63 PUSH2 0x3A3C JUMP JUMPDEST JUMPDEST PUSH0 PUSH2 0x3B71 DUP5 DUP3 DUP6 ADD PUSH2 0x3B3B JUMP JUMPDEST SWAP2 POP POP SWAP3 SWAP2 POP POP JUMP JUMPDEST PUSH0 DUP2 ISZERO ISZERO SWAP1 POP SWAP2 SWAP1 POP JUMP JUMPDEST PUSH2 0x3B8E DUP2 PUSH2 0x3B7A JUMP JUMPDEST DUP3 MSTORE POP POP JUMP JUMPDEST PUSH0 PUSH1 0x20 DUP3 ADD SWAP1 POP PUSH2 0x3BA7 PUSH0 DUP4 ADD DUP5 PUSH2 0x3B85 JUMP JUMPDEST SWAP3 SWAP2 POP POP JUMP JUMPDEST PUSH0 DUP2 SWAP1 POP SWAP2 SWAP1 POP JUMP JUMPDEST PUSH2 0x3BBF DUP2 PUSH2 0x3BAD JUMP JUMPDEST DUP2 EQ PUSH2 0x3BC9 JUMPI PUSH0 DUP1 REVERT JUMPDEST POP JUMP JUMPDEST PUSH0 DUP2 CALLDATALOAD SWAP1 POP PUSH2 0x3BDA DUP2 PUSH2 0x3BB6 JUMP JUMPDEST SWAP3 SWAP2 POP POP JUMP JUMPDEST PUSH2 0x3BE9 DUP2 PUSH2 0x3AC9 JUMP JUMPDEST DUP2 EQ PUSH2 0x3BF3 JUMPI PUSH0 DUP1 REVERT JUMPDEST POP JUMP JUMPDEST PUSH0 DUP2 CALLDATALOAD SWAP1 POP PUSH2 0x3C04 DUP2 PUSH2 0x3BE0 JUMP JUMPDEST SWAP3 SWAP2 POP POP JUMP JUMPDEST PUSH0 DUP1 REVERT JUMPDEST PUSH0 DUP1 REVERT JUMPDEST PUSH32 0x4E487B7100000000000000000000000000000000000000000000000000000000 PUSH0 MSTORE PUSH1 0x41 PUSH1 0x4 MSTORE PUSH1 0x24 PUSH0 REVERT JUMPDEST PUSH2 0x3C48 DUP3 PUSH2 0x39D5 JUMP JUMPDEST DUP2 ADD DUP2 DUP2 LT PUSH8 0xFFFFFFFFFFFFFFFF DUP3 GT OR ISZERO PUSH2 0x3C67 JUMPI PUSH2 0x3C66 PUSH2 0x3C12 JUMP JUMPDEST JUMPDEST DUP1 PUSH1 0x40 MSTORE POP POP POP JUMP JUMPDEST PUSH0 PUSH2 0x3C79 PUSH2 0x3A33 JUMP JUMPDEST SWAP1 POP PUSH2 0x3C85 DUP3 DUP3 PUSH2 0x3C3F JUMP JUMPDEST SWAP2 SWAP1 POP JUMP JUMPDEST PUSH0 PUSH8 0xFFFFFFFFFFFFFFFF DUP3 GT ISZERO PUSH2 0x3CA4 JUMPI PUSH2 0x3CA3 PUSH2 0x3C12 JUMP JUMPDEST JUMPDEST PUSH2 0x3CAD DUP3 PUSH2 0x39D5 JUMP JUMPDEST SWAP1 POP PUSH1 0x20 DUP2 ADD SWAP1 POP SWAP2 SWAP1 POP JUMP JUMPDEST PUSH0 PUSH2 0x3CCC PUSH2 0x3CC7 DUP5 PUSH2 0x3C8A JUMP JUMPDEST PUSH2 0x3C70 JUMP JUMPDEST SWAP1 POP DUP3 DUP2 MSTORE PUSH1 0x20 DUP2 ADD DUP5 DUP5 DUP5 ADD GT ISZERO PUSH2 0x3CE8 JUMPI PUSH2 0x3CE7 PUSH2 0x3C0E JUMP JUMPDEST JUMPDEST PUSH2 0x3CF3 DUP5 DUP3 DUP6 PUSH2 0x39C7 JUMP JUMPDEST POP SWAP4 SWAP3 POP POP POP JUMP JUMPDEST PUSH0 DUP3 PUSH1 0x1F DUP4 ADD SLT PUSH2 0x3D0F JUMPI PUSH2 0x3D0E PUSH2 0x3C0A JUMP JUMPDEST JUMPDEST DUP2 CALLDATALOAD PUSH2 0x3D1F DUP5 DUP3 PUSH1 0x20 DUP7 ADD PUSH2 0x3CBA JUMP JUMPDEST SWAP2 POP POP SWAP3 SWAP2 POP POP JUMP JUMPDEST PUSH0 DUP1 PUSH0 DUP1 PUSH1 0x80 DUP6 DUP8 SUB SLT ISZERO PUSH2 0x3D40 JUMPI PUSH2 0x3D3F PUSH2 0x3A3C JUMP JUMPDEST JUMPDEST PUSH0 PUSH2 0x3D4D DUP8 DUP3 DUP9 ADD PUSH2 0x3BCC JUMP JUMPDEST SWAP5 POP POP PUSH1 0x20 PUSH2 0x3D5E DUP8 DUP3 DUP9 ADD PUSH2 0x3A8A JUMP JUMPDEST SWAP4 POP POP PUSH1 0x40 PUSH2 0x3D6F DUP8 DUP3 DUP9 ADD PUSH2 0x3BF6 JUMP JUMPDEST SWAP3 POP POP PUSH1 0x60 DUP6 ADD CALLDATALOAD PUSH8 0xFFFFFFFFFFFFFFFF DUP2 GT ISZERO PUSH2 0x3D90 JUMPI PUSH2 0x3D8F PUSH2 0x3A40 JUMP JUMPDEST JUMPDEST PUSH2 0x3D9C DUP8 DUP3 DUP9 ADD PUSH2 0x3CFB JUMP JUMPDEST SWAP2 POP POP SWAP3 SWAP6 SWAP2 SWAP5 POP SWAP3 POP JUMP JUMPDEST PUSH0 DUP2 MLOAD SWAP1 POP SWAP2 SWAP1 POP JUMP JUMPDEST PUSH0 JUMPDEST DUP4 DUP2 LT ISZERO PUSH2 0x3DCF JUMPI DUP1 DUP3 ADD MLOAD DUP2 DUP5 ADD MSTORE PUSH1 0x20 DUP2 ADD SWAP1 POP PUSH2 0x3DB4 JUMP JUMPDEST PUSH0 DUP5 DUP5 ADD MSTORE POP POP POP POP JUMP JUMPDEST PUSH0 PUSH2 0x3DE4 DUP3 PUSH2 0x3DA8 JUMP JUMPDEST PUSH2 0x3DEE DUP2 DUP6 PUSH2 0x396F JUMP JUMPDEST SWAP4 POP PUSH2 0x3DFE DUP2 DUP6 PUSH1 0x20 DUP7 ADD PUSH2 0x3DB2 JUMP JUMPDEST PUSH2 0x3E07 DUP2 PUSH2 0x39D5 JUMP JUMPDEST DUP5 ADD SWAP2 POP POP SWAP3 SWAP2 POP POP JUMP JUMPDEST PUSH0 PUSH1 0x20 DUP3 ADD SWAP1 POP DUP2 DUP2 SUB PUSH0 DUP4 ADD MSTORE PUSH2 0x3E2A DUP2 DUP5 PUSH2 0x3DDA JUMP JUMPDEST SWAP1 POP SWAP3 SWAP2 POP POP JUMP JUMPDEST PUSH0 DUP1 PUSH1 0x40 DUP4 DUP6 SUB SLT ISZERO PUSH2 0x3E48 JUMPI PUSH2 0x3E47 PUSH2 0x3A3C JUMP JUMPDEST JUMPDEST PUSH0 PUSH2 0x3E55 DUP6 DUP3 DUP7 ADD PUSH2 0x3BCC JUMP JUMPDEST SWAP3 POP POP PUSH1 0x20 PUSH2 0x3E66 DUP6 DUP3 DUP7 ADD PUSH2 0x3BCC JUMP JUMPDEST SWAP2 POP POP SWAP3 POP SWAP3 SWAP1 POP JUMP JUMPDEST PUSH0 PUSH8 0xFFFFFFFFFFFFFFFF DUP3 GT ISZERO PUSH2 0x3E8A JUMPI PUSH2 0x3E89 PUSH2 0x3C12 JUMP JUMPDEST JUMPDEST PUSH1 0x20 DUP3 MUL SWAP1 POP PUSH1 0x20 DUP2 ADD SWAP1 POP SWAP2 SWAP1 POP JUMP JUMPDEST PUSH0 DUP1 REVERT JUMPDEST PUSH0 PUSH2 0x3EB1 PUSH2 0x3EAC DUP5 PUSH2 0x3E70 JUMP JUMPDEST PUSH2 0x3C70 JUMP JUMPDEST SWAP1 POP DUP1 DUP4 DUP3 MSTORE PUSH1 0x20 DUP3 ADD SWAP1 POP PUSH1 0x20 DUP5 MUL DUP4 ADD DUP6 DUP2 GT ISZERO PUSH2 0x3ED4 JUMPI PUSH2 0x3ED3 PUSH2 0x3E9B JUMP JUMPDEST JUMPDEST DUP4 JUMPDEST DUP2 DUP2 LT ISZERO PUSH2 0x3EFD JUMPI DUP1 PUSH2 0x3EE9 DUP9 DUP3 PUSH2 0x3BCC JUMP JUMPDEST DUP5 MSTORE PUSH1 0x20 DUP5 ADD SWAP4 POP POP PUSH1 0x20 DUP2 ADD SWAP1 POP PUSH2 0x3ED6 JUMP JUMPDEST POP POP POP SWAP4 SWAP3 POP POP POP JUMP JUMPDEST PUSH0 DUP3 PUSH1 0x1F DUP4 ADD SLT PUSH2 0x3F1B JUMPI PUSH2 0x3F1A PUSH2 0x3C0A JUMP JUMPDEST JUMPDEST DUP2 CALLDATALOAD PUSH2 0x3F2B DUP5 DUP3 PUSH1 0x20 DUP7 ADD PUSH2 0x3E9F JUMP JUMPDEST SWAP2 POP POP SWAP3 SWAP2 POP POP JUMP JUMPDEST PUSH0 DUP1 PUSH1 0x40 DUP4 DUP6 SUB SLT ISZERO PUSH2 0x3F4A JUMPI PUSH2 0x3F49 PUSH2 0x3A3C JUMP JUMPDEST JUMPDEST PUSH0 DUP4 ADD CALLDATALOAD PUSH8 0xFFFFFFFFFFFFFFFF DUP2 GT ISZERO PUSH2 0x3F67 JUMPI PUSH2 0x3F66 PUSH2 0x3A40 JUMP JUMPDEST JUMPDEST PUSH2 0x3F73 DUP6 DUP3 DUP7 ADD PUSH2 0x3F07 JUMP JUMPDEST SWAP3 POP POP PUSH1 0x20 DUP4 ADD CALLDATALOAD PUSH8 0xFFFFFFFFFFFFFFFF DUP2 GT ISZERO PUSH2 0x3F94 JUMPI PUSH2 0x3F93 PUSH2 0x3A40 JUMP JUMPDEST JUMPDEST PUSH2 0x3FA0 DUP6 DUP3 DUP7 ADD PUSH2 0x3F07 JUMP JUMPDEST SWAP2 POP POP SWAP3 POP SWAP3 SWAP1 POP JUMP JUMPDEST PUSH0 DUP2 MLOAD SWAP1 POP SWAP2 SWAP1 POP JUMP JUMPDEST PUSH0 DUP3 DUP3 MSTORE PUSH1 0x20 DUP3 ADD SWAP1 POP SWAP3 SWAP2 POP POP JUMP JUMPDEST PUSH0 DUP2 SWAP1 POP PUSH1 0x20 DUP3 ADD SWAP1 POP SWAP2 SWAP1 POP JUMP JUMPDEST PUSH0 DUP3 DUP3 MSTORE PUSH1 0x20 DUP3 ADD SWAP1 POP SWAP3 SWAP2 POP POP JUMP JUMPDEST PUSH0 PUSH2 0x3FED DUP3 PUSH2 0x3DA8 JUMP JUMPDEST PUSH2 0x3FF7 DUP2 DUP6 PUSH2 0x3FD3 JUMP JUMPDEST SWAP4 POP PUSH2 0x4007 DUP2 DUP6 PUSH1 0x20 DUP7 ADD PUSH2 0x3DB2 JUMP JUMPDEST PUSH2 0x4010 DUP2 PUSH2 0x39D5 JUMP JUMPDEST DUP5 ADD SWAP2 POP POP SWAP3 SWAP2 POP POP JUMP JUMPDEST PUSH0 PUSH2 0x4026 DUP4 DUP4 PUSH2 0x3FE3 JUMP JUMPDEST SWAP1 POP SWAP3 SWAP2 POP POP JUMP JUMPDEST PUSH0 PUSH1 0x20 DUP3 ADD SWAP1 POP SWAP2 SWAP1 POP JUMP JUMPDEST PUSH0 PUSH2 0x4044 DUP3 PUSH2 0x3FAA JUMP JUMPDEST PUSH2 0x404E DUP2 DUP6 PUSH2 0x3FB4 JUMP JUMPDEST SWAP4 POP DUP4 PUSH1 0x20 DUP3 MUL DUP6 ADD PUSH2 0x4060 DUP6 PUSH2 0x3FC4 JUMP JUMPDEST DUP1 PUSH0 JUMPDEST DUP6 DUP2 LT ISZERO PUSH2 0x409B JUMPI DUP5 DUP5 SUB DUP10 MSTORE DUP2 MLOAD PUSH2 0x407C DUP6 DUP3 PUSH2 0x401B JUMP JUMPDEST SWAP5 POP PUSH2 0x4087 DUP4 PUSH2 0x402E JUMP JUMPDEST SWAP3 POP PUSH1 0x20 DUP11 ADD SWAP10 POP POP PUSH1 0x1 DUP2 ADD SWAP1 POP PUSH2 0x4063 JUMP JUMPDEST POP DUP3 SWAP8 POP DUP8 SWAP6 POP POP POP POP POP POP SWAP3 SWAP2 POP POP JUMP JUMPDEST PUSH0 PUSH1 0x20 DUP3 ADD SWAP1 POP DUP2 DUP2 SUB PUSH0 DUP4 ADD MSTORE PUSH2 0x40C5 DUP2 DUP5 PUSH2 0x403A JUMP JUMPDEST SWAP1 POP SWAP3 SWAP2 POP POP JUMP JUMPDEST PUSH0 PUSH1 0x20 DUP3 DUP5 SUB SLT ISZERO PUSH2 0x40E2 JUMPI PUSH2 0x40E1 PUSH2 0x3A3C JUMP JUMPDEST JUMPDEST PUSH0 PUSH2 0x40EF DUP5 DUP3 DUP6 ADD PUSH2 0x3BCC JUMP JUMPDEST SWAP2 POP POP SWAP3 SWAP2 POP POP JUMP JUMPDEST PUSH2 0x4101 DUP2 PUSH2 0x3A63 JUMP JUMPDEST DUP3 MSTORE POP POP JUMP JUMPDEST PUSH0 PUSH1 0x20 DUP3 ADD SWAP1 POP PUSH2 0x411A PUSH0 DUP4 ADD DUP5 PUSH2 0x40F8 JUMP JUMPDEST SWAP3 SWAP2 POP POP JUMP JUMPDEST PUSH0 DUP1 PUSH1 0x40 DUP4 DUP6 SUB SLT ISZERO PUSH2 0x4136 JUMPI PUSH2 0x4135 PUSH2 0x3A3C JUMP JUMPDEST JUMPDEST PUSH0 PUSH2 0x4143 DUP6 DUP3 DUP7 ADD PUSH2 0x3A8A JUMP JUMPDEST SWAP3 POP POP PUSH1 0x20 PUSH2 0x4154 DUP6 DUP3 DUP7 ADD PUSH2 0x3BCC JUMP JUMPDEST SWAP2 POP POP SWAP3 POP SWAP3 SWAP1 POP JUMP JUMPDEST PUSH0 DUP2 MLOAD SWAP1 POP SWAP2 SWAP1 POP JUMP JUMPDEST PUSH0 DUP3 DUP3 MSTORE PUSH1 0x20 DUP3 ADD SWAP1 POP SWAP3 SWAP2 POP POP JUMP JUMPDEST PUSH0 DUP2 SWAP1 POP PUSH1 0x20 DUP3 ADD SWAP1 POP SWAP2 SWAP1 POP JUMP JUMPDEST PUSH2 0x4190 DUP2 PUSH2 0x3A63 JUMP JUMPDEST DUP3 MSTORE POP POP JUMP JUMPDEST PUSH0 PUSH2 0x41A1 DUP4 DUP4 PUSH2 0x4187 JUMP JUMPDEST PUSH1 0x20 DUP4 ADD SWAP1 POP SWAP3 SWAP2 POP POP JUMP JUMPDEST PUSH0 PUSH1 0x20 DUP3 ADD SWAP1 POP SWAP2 SWAP1 POP JUMP JUMPDEST PUSH0 PUSH2 0x41C3 DUP3 PUSH2 0x415E JUMP JUMPDEST PUSH2 0x41CD DUP2 DUP6 PUSH2 0x4168 JUMP JUMPDEST SWAP4 POP PUSH2 0x41D8 DUP4 PUSH2 0x4178 JUMP JUMPDEST DUP1 PUSH0 JUMPDEST DUP4 DUP2 LT ISZERO PUSH2 0x4208 JUMPI DUP2 MLOAD PUSH2 0x41EF DUP9 DUP3 PUSH2 0x4196 JUMP JUMPDEST SWAP8 POP PUSH2 0x41FA DUP4 PUSH2 0x41AD JUMP JUMPDEST SWAP3 POP POP PUSH1 0x1 DUP2 ADD SWAP1 POP PUSH2 0x41DB JUMP JUMPDEST POP DUP6 SWAP4 POP POP POP POP SWAP3 SWAP2 POP POP JUMP JUMPDEST PUSH0 PUSH1 0x20 DUP3 ADD SWAP1 POP DUP2 DUP2 SUB PUSH0 DUP4 ADD MSTORE PUSH2 0x422D DUP2 DUP5 PUSH2 0x41B9 JUMP JUMPDEST SWAP1 POP SWAP3 SWAP2 POP POP JUMP JUMPDEST PUSH2 0x423E DUP2 PUSH2 0x3B7A JUMP JUMPDEST DUP2 EQ PUSH2 0x4248 JUMPI PUSH0 DUP1 REVERT JUMPDEST POP JUMP JUMPDEST PUSH0 DUP2 CALLDATALOAD SWAP1 POP PUSH2 0x4259 DUP2 PUSH2 0x4235 JUMP JUMPDEST SWAP3 SWAP2 POP POP JUMP JUMPDEST PUSH0 DUP1 PUSH0 DUP1 PUSH0 PUSH1 0xA0 DUP7 DUP9 SUB SLT ISZERO PUSH2 0x4278 JUMPI PUSH2 0x4277 PUSH2 0x3A3C JUMP JUMPDEST JUMPDEST PUSH0 PUSH2 0x4285 DUP9 DUP3 DUP10 ADD PUSH2 0x3A8A JUMP JUMPDEST SWAP6 POP POP PUSH1 0x20 PUSH2 0x4296 DUP9 DUP3 DUP10 ADD PUSH2 0x3A8A JUMP JUMPDEST SWAP5 POP POP PUSH1 0x40 PUSH2 0x42A7 DUP9 DUP3 DUP10 ADD PUSH2 0x3BCC JUMP JUMPDEST SWAP4 POP POP PUSH1 0x60 PUSH2 0x42B8 DUP9 DUP3 DUP10 ADD PUSH2 0x424B JUMP JUMPDEST SWAP3 POP POP PUSH1 0x80 DUP7 ADD CALLDATALOAD PUSH8 0xFFFFFFFFFFFFFFFF DUP2 GT ISZERO PUSH2 0x42D9 JUMPI PUSH2 0x42D8 PUSH2 0x3A40 JUMP JUMPDEST JUMPDEST PUSH2 0x42E5 DUP9 DUP3 DUP10 ADD PUSH2 0x3CFB JUMP JUMPDEST SWAP2 POP POP SWAP3 SWAP6 POP SWAP3 SWAP6 SWAP1 SWAP4 POP JUMP JUMPDEST PUSH0 DUP1 PUSH1 0x40 DUP4 DUP6 SUB SLT ISZERO PUSH2 0x4308 JUMPI PUSH2 0x4307 PUSH2 0x3A3C JUMP JUMPDEST JUMPDEST PUSH0 PUSH2 0x4315 DUP6 DUP3 DUP7 ADD PUSH2 0x3BCC JUMP JUMPDEST SWAP3 POP POP PUSH1 0x20 PUSH2 0x4326 DUP6 DUP3 DUP7 ADD PUSH2 0x3A8A JUMP JUMPDEST SWAP2 POP POP SWAP3 POP SWAP3 SWAP1 POP JUMP JUMPDEST PUSH0 DUP1 PUSH1 0x40 DUP4 DUP6 SUB SLT ISZERO PUSH2 0x4346 JUMPI PUSH2 0x4345 PUSH2 0x3A3C JUMP JUMPDEST JUMPDEST PUSH0 PUSH2 0x4353 DUP6 DUP3 DUP7 ADD PUSH2 0x3BCC JUMP JUMPDEST SWAP3 POP POP PUSH1 0x20 PUSH2 0x4364 DUP6 DUP3 DUP7 ADD PUSH2 0x3BF6 JUMP JUMPDEST SWAP2 POP POP SWAP3 POP SWAP3 SWAP1 POP JUMP JUMPDEST PUSH0 DUP1 REVERT JUMPDEST PUSH0 DUP1 DUP4 PUSH1 0x1F DUP5 ADD SLT PUSH2 0x4387 JUMPI PUSH2 0x4386 PUSH2 0x3C0A JUMP JUMPDEST JUMPDEST DUP3 CALLDATALOAD SWAP1 POP PUSH8 0xFFFFFFFFFFFFFFFF DUP2 GT ISZERO PUSH2 0x43A4 JUMPI PUSH2 0x43A3 PUSH2 0x436E JUMP JUMPDEST JUMPDEST PUSH1 0x20 DUP4 ADD SWAP2 POP DUP4 PUSH1 0x20 DUP3 MUL DUP4 ADD GT ISZERO PUSH2 0x43C0 JUMPI PUSH2 0x43BF PUSH2 0x3E9B JUMP JUMPDEST JUMPDEST SWAP3 POP SWAP3 SWAP1 POP JUMP JUMPDEST PUSH0 DUP1 PUSH1 0x20 DUP4 DUP6 SUB SLT ISZERO PUSH2 0x43DD JUMPI PUSH2 0x43DC PUSH2 0x3A3C JUMP JUMPDEST JUMPDEST PUSH0 DUP4 ADD CALLDATALOAD PUSH8 0xFFFFFFFFFFFFFFFF DUP2 GT ISZERO PUSH2 0x43FA JUMPI PUSH2 0x43F9 PUSH2 0x3A40 JUMP JUMPDEST JUMPDEST PUSH2 0x4406 DUP6 DUP3 DUP7 ADD PUSH2 0x4372 JUMP JUMPDEST SWAP3 POP SWAP3 POP POP SWAP3 POP SWAP3 SWAP1 POP JUMP JUMPDEST PUSH0 PUSH8 0xFFFFFFFFFFFFFFFF DUP3 GT ISZERO PUSH2 0x442C JUMPI PUSH2 0x442B PUSH2 0x3C12 JUMP JUMPDEST JUMPDEST PUSH1 0x20 DUP3 MUL SWAP1 POP PUSH1 0x20 DUP2 ADD SWAP1 POP SWAP2 SWAP1 POP JUMP JUMPDEST PUSH0 PUSH2 0x444F PUSH2 0x444A DUP5 PUSH2 0x4412 JUMP JUMPDEST PUSH2 0x3C70 JUMP JUMPDEST SWAP1 POP DUP1 DUP4 DUP3 MSTORE PUSH1 0x20 DUP3 ADD SWAP1 POP PUSH1 0x20 DUP5 MUL DUP4 ADD DUP6 DUP2 GT ISZERO PUSH2 0x4472 JUMPI PUSH2 0x4471 PUSH2 0x3E9B JUMP JUMPDEST JUMPDEST DUP4 JUMPDEST DUP2 DUP2 LT ISZERO PUSH2 0x449B JUMPI DUP1 PUSH2 0x4487 DUP9 DUP3 PUSH2 0x3A8A JUMP JUMPDEST DUP5 MSTORE PUSH1 0x20 DUP5 ADD SWAP4 POP POP PUSH1 0x20 DUP2 ADD SWAP1 POP PUSH2 0x4474 JUMP JUMPDEST POP POP POP SWAP4 SWAP3 POP POP POP JUMP JUMPDEST PUSH0 DUP3 PUSH1 0x1F DUP4 ADD SLT PUSH2 0x44B9 JUMPI PUSH2 0x44B8 PUSH2 0x3C0A JUMP JUMPDEST JUMPDEST DUP2 CALLDATALOAD PUSH2 0x44C9 DUP5 DUP3 PUSH1 0x20 DUP7 ADD PUSH2 0x443D JUMP JUMPDEST SWAP2 POP POP SWAP3 SWAP2 POP POP JUMP JUMPDEST PUSH0 PUSH8 0xFFFFFFFFFFFFFFFF DUP3 GT ISZERO PUSH2 0x44EC JUMPI PUSH2 0x44EB PUSH2 0x3C12 JUMP JUMPDEST JUMPDEST PUSH1 0x20 DUP3 MUL SWAP1 POP PUSH1 0x20 DUP2 ADD SWAP1 POP SWAP2 SWAP1 POP JUMP JUMPDEST PUSH0 PUSH2 0x450F PUSH2 0x450A DUP5 PUSH2 0x44D2 JUMP JUMPDEST PUSH2 0x3C70 JUMP JUMPDEST SWAP1 POP DUP1 DUP4 DUP3 MSTORE PUSH1 0x20 DUP3 ADD SWAP1 POP PUSH1 0x20 DUP5 MUL DUP4 ADD DUP6 DUP2 GT ISZERO PUSH2 0x4532 JUMPI PUSH2 0x4531 PUSH2 0x3E9B JUMP JUMPDEST JUMPDEST DUP4 JUMPDEST DUP2 DUP2 LT ISZERO PUSH2 0x455B JUMPI DUP1 PUSH2 0x4547 DUP9 DUP3 PUSH2 0x424B JUMP JUMPDEST DUP5 MSTORE PUSH1 0x20 DUP5 ADD SWAP4 POP POP PUSH1 0x20 DUP2 ADD SWAP1 POP PUSH2 0x4534 JUMP JUMPDEST POP POP POP SWAP4 SWAP3 POP POP POP JUMP JUMPDEST PUSH0 DUP3 PUSH1 0x1F DUP4 ADD SLT PUSH2 0x4579 JUMPI PUSH2 0x4578 PUSH2 0x3C0A JUMP JUMPDEST JUMPDEST DUP2 CALLDATALOAD PUSH2 0x4589 DUP5 DUP3 PUSH1 0x20 DUP7 ADD PUSH2 0x44FD JUMP JUMPDEST SWAP2 POP POP SWAP3 SWAP2 POP POP JUMP JUMPDEST PUSH0 PUSH8 0xFFFFFFFFFFFFFFFF DUP3 GT ISZERO PUSH2 0x45AC JUMPI PUSH2 0x45AB PUSH2 0x3C12 JUMP JUMPDEST JUMPDEST PUSH1 0x20 DUP3 MUL SWAP1 POP PUSH1 0x20 DUP2 ADD SWAP1 POP SWAP2 SWAP1 POP JUMP JUMPDEST PUSH0 PUSH2 0x45CF PUSH2 0x45CA DUP5 PUSH2 0x4592 JUMP JUMPDEST PUSH2 0x3C70 JUMP JUMPDEST SWAP1 POP DUP1 DUP4 DUP3 MSTORE PUSH1 0x20 DUP3 ADD SWAP1 POP PUSH1 0x20 DUP5 MUL DUP4 ADD DUP6 DUP2 GT ISZERO PUSH2 0x45F2 JUMPI PUSH2 0x45F1 PUSH2 0x3E9B JUMP JUMPDEST JUMPDEST DUP4 JUMPDEST DUP2 DUP2 LT ISZERO PUSH2 0x4639 JUMPI DUP1 CALLDATALOAD PUSH8 0xFFFFFFFFFFFFFFFF DUP2 GT ISZERO PUSH2 0x4617 JUMPI PUSH2 0x4616 PUSH2 0x3C0A JUMP JUMPDEST JUMPDEST DUP1 DUP7 ADD PUSH2 0x4624 DUP10 DUP3 PUSH2 0x3CFB JUMP JUMPDEST DUP6 MSTORE PUSH1 0x20 DUP6 ADD SWAP5 POP POP POP PUSH1 0x20 DUP2 ADD SWAP1 POP PUSH2 0x45F4 JUMP JUMPDEST POP POP POP SWAP4 SWAP3 POP POP POP JUMP JUMPDEST PUSH0 DUP3 PUSH1 0x1F DUP4 ADD SLT PUSH2 0x4657 JUMPI PUSH2 0x4656 PUSH2 0x3C0A JUMP JUMPDEST JUMPDEST DUP2 CALLDATALOAD PUSH2 0x4667 DUP5 DUP3 PUSH1 0x20 DUP7 ADD PUSH2 0x45BD JUMP JUMPDEST SWAP2 POP POP SWAP3 SWAP2 POP POP JUMP JUMPDEST PUSH0 DUP1 PUSH0 DUP1 PUSH0 PUSH1 0xA0 DUP7 DUP9 SUB SLT ISZERO PUSH2 0x4689 JUMPI PUSH2 0x4688 PUSH2 0x3A3C JUMP JUMPDEST JUMPDEST PUSH0 DUP7 ADD CALLDATALOAD PUSH8 0xFFFFFFFFFFFFFFFF DUP2 GT ISZERO PUSH2 0x46A6 JUMPI PUSH2 0x46A5 PUSH2 0x3A40 JUMP JUMPDEST JUMPDEST PUSH2 0x46B2 DUP9 DUP3 DUP10 ADD PUSH2 0x44A5 JUMP JUMPDEST SWAP6 POP POP PUSH1 0x20 DUP7 ADD CALLDATALOAD PUSH8 0xFFFFFFFFFFFFFFFF DUP2 GT ISZERO PUSH2 0x46D3 JUMPI PUSH2 0x46D2 PUSH2 0x3A40 JUMP JUMPDEST JUMPDEST PUSH2 0x46DF DUP9 DUP3 DUP10 ADD PUSH2 0x44A5 JUMP JUMPDEST SWAP5 POP POP PUSH1 0x40 DUP7 ADD CALLDATALOAD PUSH8 0xFFFFFFFFFFFFFFFF DUP2 GT ISZERO PUSH2 0x4700 JUMPI PUSH2 0x46FF PUSH2 0x3A40 JUMP JUMPDEST JUMPDEST PUSH2 0x470C DUP9 DUP3 DUP10 ADD PUSH2 0x3F07 JUMP JUMPDEST SWAP4 POP POP PUSH1 0x60 DUP7 ADD CALLDATALOAD PUSH8 0xFFFFFFFFFFFFFFFF DUP2 GT ISZERO PUSH2 0x472D JUMPI PUSH2 0x472C PUSH2 0x3A40 JUMP JUMPDEST JUMPDEST PUSH2 0x4739 DUP9 DUP3 DUP10 ADD PUSH2 0x4565 JUMP JUMPDEST SWAP3 POP POP PUSH1 0x80 DUP7 ADD CALLDATALOAD PUSH8 0xFFFFFFFFFFFFFFFF DUP2 GT ISZERO PUSH2 0x475A JUMPI PUSH2 0x4759 PUSH2 0x3A40 JUMP JUMPDEST JUMPDEST PUSH2 0x4766 DUP9 DUP3 DUP10 ADD PUSH2 0x4643 JUMP JUMPDEST SWAP2 POP POP SWAP3 SWAP6 POP SWAP3 SWAP6 SWAP1 SWAP4 POP JUMP JUMPDEST PUSH0 DUP1 PUSH1 0x40 DUP4 DUP6 SUB SLT ISZERO PUSH2 0x4789 JUMPI PUSH2 0x4788 PUSH2 0x3A3C JUMP JUMPDEST JUMPDEST PUSH0 PUSH2 0x4796 DUP6 DUP3 DUP7 ADD PUSH2 0x3BCC JUMP JUMPDEST SWAP3 POP POP PUSH1 0x20 DUP4 ADD CALLDATALOAD PUSH8 0xFFFFFFFFFFFFFFFF DUP2 GT ISZERO PUSH2 0x47B7 JUMPI PUSH2 0x47B6 PUSH2 0x3A40 JUMP JUMPDEST JUMPDEST PUSH2 0x47C3 DUP6 DUP3 DUP7 ADD PUSH2 0x3CFB JUMP JUMPDEST SWAP2 POP POP SWAP3 POP SWAP3 SWAP1 POP JUMP JUMPDEST PUSH0 DUP1 PUSH0 PUSH1 0x60 DUP5 DUP7 SUB SLT ISZERO PUSH2 0x47E4 JUMPI PUSH2 0x47E3 PUSH2 0x3A3C JUMP JUMPDEST JUMPDEST PUSH0 PUSH2 0x47F1 DUP7 DUP3 DUP8 ADD PUSH2 0x3A8A JUMP JUMPDEST SWAP4 POP POP PUSH1 0x20 PUSH2 0x4802 DUP7 DUP3 DUP8 ADD PUSH2 0x3BCC JUMP JUMPDEST SWAP3 POP POP PUSH1 0x40 DUP5 ADD CALLDATALOAD PUSH8 0xFFFFFFFFFFFFFFFF DUP2 GT ISZERO PUSH2 0x4823 JUMPI PUSH2 0x4822 PUSH2 0x3A40 JUMP JUMPDEST JUMPDEST PUSH2 0x482F DUP7 DUP3 DUP8 ADD PUSH2 0x3CFB JUMP JUMPDEST SWAP2 POP POP SWAP3 POP SWAP3 POP SWAP3 JUMP JUMPDEST PUSH0 DUP1 PUSH1 0x40 DUP4 DUP6 SUB SLT ISZERO PUSH2 0x484F JUMPI PUSH2 0x484E PUSH2 0x3A3C JUMP JUMPDEST JUMPDEST PUSH0 PUSH2 0x485C DUP6 DUP3 DUP7 ADD PUSH2 0x3A8A JUMP JUMPDEST SWAP3 POP POP PUSH1 0x20 DUP4 ADD CALLDATALOAD PUSH8 0xFFFFFFFFFFFFFFFF DUP2 GT ISZERO PUSH2 0x487D JUMPI PUSH2 0x487C PUSH2 0x3A40 JUMP JUMPDEST JUMPDEST PUSH2 0x4889 DUP6 DUP3 DUP7 ADD PUSH2 0x3CFB JUMP JUMPDEST SWAP2 POP POP SWAP3 POP SWAP3 SWAP1 POP JUMP JUMPDEST PUSH0 DUP1 PUSH1 0x40 DUP4 DUP6 SUB SLT ISZERO PUSH2 0x48A9 JUMPI PUSH2 0x48A8 PUSH2 0x3A3C JUMP JUMPDEST JUMPDEST PUSH0 DUP4 ADD CALLDATALOAD PUSH8 0xFFFFFFFFFFFFFFFF DUP2 GT ISZERO PUSH2 0x48C6 JUMPI PUSH2 0x48C5 PUSH2 0x3A40 JUMP JUMPDEST JUMPDEST PUSH2 0x48D2 DUP6 DUP3 DUP7 ADD PUSH2 0x3F07 JUMP JUMPDEST SWAP3 POP POP PUSH1 0x20 DUP4 ADD CALLDATALOAD PUSH8 0xFFFFFFFFFFFFFFFF DUP2 GT ISZERO PUSH2 0x48F3 JUMPI PUSH2 0x48F2 PUSH2 0x3A40 JUMP JUMPDEST JUMPDEST PUSH2 0x48FF DUP6 DUP3 DUP7 ADD PUSH2 0x4643 JUMP JUMPDEST SWAP2 POP POP SWAP3 POP SWAP3 SWAP1 POP JUMP JUMPDEST PUSH0 PUSH8 0xFFFFFFFFFFFFFFFF DUP3 GT ISZERO PUSH2 0x4923 JUMPI PUSH2 0x4922 PUSH2 0x3C12 JUMP JUMPDEST JUMPDEST PUSH2 0x492C DUP3 PUSH2 0x39D5 JUMP JUMPDEST SWAP1 POP PUSH1 0x20 DUP2 ADD SWAP1 POP SWAP2 SWAP1 POP JUMP JUMPDEST PUSH0 PUSH2 0x494B PUSH2 0x4946 DUP5 PUSH2 0x4909 JUMP JUMPDEST PUSH2 0x3C70 JUMP JUMPDEST SWAP1 POP DUP3 DUP2 MSTORE PUSH1 0x20 DUP2 ADD DUP5 DUP5 DUP5 ADD GT ISZERO PUSH2 0x4967 JUMPI PUSH2 0x4966 PUSH2 0x3C0E JUMP JUMPDEST JUMPDEST PUSH2 0x4972 DUP5 DUP3 DUP6 PUSH2 0x39C7 JUMP JUMPDEST POP SWAP4 SWAP3 POP POP POP JUMP JUMPDEST PUSH0 DUP3 PUSH1 0x1F DUP4 ADD SLT PUSH2 0x498E JUMPI PUSH2 0x498D PUSH2 0x3C0A JUMP JUMPDEST JUMPDEST DUP2 CALLDATALOAD PUSH2 0x499E DUP5 DUP3 PUSH1 0x20 DUP7 ADD PUSH2 0x4939 JUMP JUMPDEST SWAP2 POP POP SWAP3 SWAP2 POP POP JUMP JUMPDEST PUSH0 DUP1 PUSH0 DUP1 PUSH0 DUP1 PUSH0 PUSH1 0xE0 DUP9 DUP11 SUB SLT ISZERO PUSH2 0x49C2 JUMPI PUSH2 0x49C1 PUSH2 0x3A3C JUMP JUMPDEST JUMPDEST PUSH0 DUP9 ADD CALLDATALOAD PUSH8 0xFFFFFFFFFFFFFFFF DUP2 GT ISZERO PUSH2 0x49DF JUMPI PUSH2 0x49DE PUSH2 0x3A40 JUMP JUMPDEST JUMPDEST PUSH2 0x49EB DUP11 DUP3 DUP12 ADD PUSH2 0x497A JUMP JUMPDEST SWAP8 POP POP PUSH1 0x20 DUP9 ADD CALLDATALOAD PUSH8 0xFFFFFFFFFFFFFFFF DUP2 GT ISZERO PUSH2 0x4A0C JUMPI PUSH2 0x4A0B PUSH2 0x3A40 JUMP JUMPDEST JUMPDEST PUSH2 0x4A18 DUP11 DUP3 DUP12 ADD PUSH2 0x497A JUMP JUMPDEST SWAP7 POP POP PUSH1 0x40 PUSH2 0x4A29 DUP11 DUP3 DUP12 ADD PUSH2 0x424B JUMP JUMPDEST SWAP6 POP POP PUSH1 0x60 PUSH2 0x4A3A DUP11 DUP3 DUP12 ADD PUSH2 0x3BF6 JUMP JUMPDEST SWAP5 POP POP PUSH1 0x80 PUSH2 0x4A4B DUP11 DUP3 DUP12 ADD PUSH2 0x3A8A JUMP JUMPDEST SWAP4 POP POP PUSH1 0xA0 DUP9 ADD CALLDATALOAD PUSH8 0xFFFFFFFFFFFFFFFF DUP2 GT ISZERO PUSH2 0x4A6C JUMPI PUSH2 0x4A6B PUSH2 0x3A40 JUMP JUMPDEST JUMPDEST PUSH2 0x4A78 DUP11 DUP3 DUP12 ADD PUSH2 0x3CFB JUMP JUMPDEST SWAP3 POP POP PUSH1 0xC0 DUP9 ADD CALLDATALOAD PUSH8 0xFFFFFFFFFFFFFFFF DUP2 GT ISZERO PUSH2 0x4A99 JUMPI PUSH2 0x4A98 PUSH2 0x3A40 JUMP JUMPDEST JUMPDEST PUSH2 0x4AA5 DUP11 DUP3 DUP12 ADD PUSH2 0x3CFB JUMP JUMPDEST SWAP2 POP POP SWAP3 SWAP6 SWAP9 SWAP2 SWAP5 SWAP8 POP SWAP3 SWAP6 POP JUMP JUMPDEST PUSH0 DUP2 MLOAD SWAP1 POP SWAP2 SWAP1 POP JUMP JUMPDEST PUSH0 DUP3 DUP3 MSTORE PUSH1 0x20 DUP3 ADD SWAP1 POP SWAP3 SWAP2 POP POP JUMP JUMPDEST PUSH0 DUP2 SWAP1 POP PUSH1 0x20 DUP3 ADD SWAP1 POP SWAP2 SWAP1 POP JUMP JUMPDEST PUSH2 0x4AE6 DUP2 PUSH2 0x3BAD JUMP JUMPDEST DUP3 MSTORE POP POP JUMP JUMPDEST PUSH0 PUSH2 0x4AF7 DUP4 DUP4 PUSH2 0x4ADD JUMP JUMPDEST PUSH1 0x20 DUP4 ADD SWAP1 POP SWAP3 SWAP2 POP POP JUMP JUMPDEST PUSH0 PUSH1 0x20 DUP3 ADD SWAP1 POP SWAP2 SWAP1 POP JUMP JUMPDEST PUSH0 PUSH2 0x4B19 DUP3 PUSH2 0x4AB4 JUMP JUMPDEST PUSH2 0x4B23 DUP2 DUP6 PUSH2 0x4ABE JUMP JUMPDEST SWAP4 POP PUSH2 0x4B2E DUP4 PUSH2 0x4ACE JUMP JUMPDEST DUP1 PUSH0 JUMPDEST DUP4 DUP2 LT ISZERO PUSH2 0x4B5E JUMPI DUP2 MLOAD PUSH2 0x4B45 DUP9 DUP3 PUSH2 0x4AEC JUMP JUMPDEST SWAP8 POP PUSH2 0x4B50 DUP4 PUSH2 0x4B03 JUMP JUMPDEST SWAP3 POP POP PUSH1 0x1 DUP2 ADD SWAP1 POP PUSH2 0x4B31 JUMP JUMPDEST POP DUP6 SWAP4 POP POP POP POP SWAP3 SWAP2 POP POP JUMP JUMPDEST PUSH0 PUSH1 0x20 DUP3 ADD SWAP1 POP DUP2 DUP2 SUB PUSH0 DUP4 ADD MSTORE PUSH2 0x4B83 DUP2 DUP5 PUSH2 0x4B0F JUMP JUMPDEST SWAP1 POP SWAP3 SWAP2 POP POP JUMP JUMPDEST PUSH0 PUSH1 0x20 DUP3 DUP5 SUB SLT ISZERO PUSH2 0x4BA0 JUMPI PUSH2 0x4B9F PUSH2 0x3A3C JUMP JUMPDEST JUMPDEST PUSH0 PUSH2 0x4BAD DUP5 DUP3 DUP6 ADD PUSH2 0x3BF6 JUMP JUMPDEST SWAP2 POP POP SWAP3 SWAP2 POP POP JUMP JUMPDEST PUSH0 DUP1 PUSH0 PUSH1 0x60 DUP5 DUP7 SUB SLT ISZERO PUSH2 0x4BCD JUMPI PUSH2 0x4BCC PUSH2 0x3A3C JUMP JUMPDEST JUMPDEST PUSH0 DUP5 ADD CALLDATALOAD PUSH8 0xFFFFFFFFFFFFFFFF DUP2 GT ISZERO PUSH2 0x4BEA JUMPI PUSH2 0x4BE9 PUSH2 0x3A40 JUMP JUMPDEST JUMPDEST PUSH2 0x4BF6 DUP7 DUP3 DUP8 ADD PUSH2 0x3F07 JUMP JUMPDEST SWAP4 POP POP PUSH1 0x20 DUP5 ADD CALLDATALOAD PUSH8 0xFFFFFFFFFFFFFFFF DUP2 GT ISZERO PUSH2 0x4C17 JUMPI PUSH2 0x4C16 PUSH2 0x3A40 JUMP JUMPDEST JUMPDEST PUSH2 0x4C23 DUP7 DUP3 DUP8 ADD PUSH2 0x3F07 JUMP JUMPDEST SWAP3 POP POP PUSH1 0x40 DUP5 ADD CALLDATALOAD PUSH8 0xFFFFFFFFFFFFFFFF DUP2 GT ISZERO PUSH2 0x4C44 JUMPI PUSH2 0x4C43 PUSH2 0x3A40 JUMP JUMPDEST JUMPDEST PUSH2 0x4C50 DUP7 DUP3 DUP8 ADD PUSH2 0x4643 JUMP JUMPDEST SWAP2 POP POP SWAP3 POP SWAP3 POP SWAP3 JUMP JUMPDEST PUSH0 DUP1 PUSH0 PUSH1 0x60 DUP5 DUP7 SUB SLT ISZERO PUSH2 0x4C71 JUMPI PUSH2 0x4C70 PUSH2 0x3A3C JUMP JUMPDEST JUMPDEST PUSH0 PUSH2 0x4C7E DUP7 DUP3 DUP8 ADD PUSH2 0x3BCC JUMP JUMPDEST SWAP4 POP POP PUSH1 0x20 PUSH2 0x4C8F DUP7 DUP3 DUP8 ADD PUSH2 0x3BCC JUMP JUMPDEST SWAP3 POP POP PUSH1 0x40 DUP5 ADD CALLDATALOAD PUSH8 0xFFFFFFFFFFFFFFFF DUP2 GT ISZERO PUSH2 0x4CB0 JUMPI PUSH2 0x4CAF PUSH2 0x3A40 JUMP JUMPDEST JUMPDEST PUSH2 0x4CBC DUP7 DUP3 DUP8 ADD PUSH2 0x3CFB JUMP JUMPDEST SWAP2 POP POP SWAP3 POP SWAP3 POP SWAP3 JUMP JUMPDEST PUSH0 DUP1 PUSH0 DUP1 PUSH1 0x80 DUP6 DUP8 SUB SLT ISZERO PUSH2 0x4CDE JUMPI PUSH2 0x4CDD PUSH2 0x3A3C JUMP JUMPDEST JUMPDEST PUSH0 PUSH2 0x4CEB DUP8 DUP3 DUP9 ADD PUSH2 0x3A8A JUMP JUMPDEST SWAP5 POP POP PUSH1 0x20 PUSH2 0x4CFC DUP8 DUP3 DUP9 ADD PUSH2 0x3BCC JUMP JUMPDEST SWAP4 POP POP PUSH1 0x40 PUSH2 0x4D0D DUP8 DUP3 DUP9 ADD PUSH2 0x424B JUMP JUMPDEST SWAP3 POP POP PUSH1 0x60 DUP6 ADD CALLDATALOAD PUSH8 0xFFFFFFFFFFFFFFFF DUP2 GT ISZERO PUSH2 0x4D2E JUMPI PUSH2 0x4D2D PUSH2 0x3A40 JUMP JUMPDEST JUMPDEST PUSH2 0x4D3A DUP8 DUP3 DUP9 ADD PUSH2 0x3CFB JUMP JUMPDEST SWAP2 POP POP SWAP3 SWAP6 SWAP2 SWAP5 POP SWAP3 POP JUMP JUMPDEST PUSH0 PUSH1 0x20 DUP3 DUP5 SUB SLT ISZERO PUSH2 0x4D5B JUMPI PUSH2 0x4D5A PUSH2 0x3A3C JUMP JUMPDEST JUMPDEST PUSH0 DUP3 ADD CALLDATALOAD PUSH8 0xFFFFFFFFFFFFFFFF DUP2 GT ISZERO PUSH2 0x4D78 JUMPI PUSH2 0x4D77 PUSH2 0x3A40 JUMP JUMPDEST JUMPDEST PUSH2 0x4D84 DUP5 DUP3 DUP6 ADD PUSH2 0x3F07 JUMP JUMPDEST SWAP2 POP POP SWAP3 SWAP2 POP POP JUMP JUMPDEST PUSH2 0x4D96 DUP2 PUSH2 0x3AFA JUMP JUMPDEST DUP3 MSTORE POP POP JUMP JUMPDEST PUSH0 PUSH1 0x20 DUP3 ADD SWAP1 POP PUSH2 0x4DAF PUSH0 DUP4 ADD DUP5 PUSH2 0x4D8D JUMP JUMPDEST SWAP3 SWAP2 POP POP JUMP JUMPDEST PUSH0 DUP2 SWAP1 POP SWAP3 SWAP2 POP POP JUMP JUMPDEST PUSH0 PUSH2 0x4DCA DUP4 DUP6 PUSH2 0x4DB5 JUMP JUMPDEST SWAP4 POP PUSH2 0x4DD7 DUP4 DUP6 DUP5 PUSH2 0x39C7 JUMP JUMPDEST DUP3 DUP5 ADD SWAP1 POP SWAP4 SWAP3 POP POP POP JUMP JUMPDEST PUSH0 DUP2 PUSH1 0x60 SHL SWAP1 POP SWAP2 SWAP1 POP JUMP JUMPDEST PUSH0 PUSH2 0x4DF9 DUP3 PUSH2 0x4DE3 JUMP JUMPDEST SWAP1 POP SWAP2 SWAP1 POP JUMP JUMPDEST PUSH0 PUSH2 0x4E0A DUP3 PUSH2 0x4DEF JUMP JUMPDEST SWAP1 POP SWAP2 SWAP1 POP JUMP JUMPDEST PUSH2 0x4E22 PUSH2 0x4E1D DUP3 PUSH2 0x3A63 JUMP JUMPDEST PUSH2 0x4E00 JUMP JUMPDEST DUP3 MSTORE POP POP JUMP JUMPDEST PUSH0 DUP2 SWAP1 POP SWAP2 SWAP1 POP JUMP JUMPDEST PUSH2 0x4E42 PUSH2 0x4E3D DUP3 PUSH2 0x3AC9 JUMP JUMPDEST PUSH2 0x4E28 JUMP JUMPDEST DUP3 MSTORE POP POP JUMP JUMPDEST PUSH0 PUSH2 0x4E54 DUP3 DUP7 DUP9 PUSH2 0x4DBF JUMP JUMPDEST SWAP2 POP PUSH2 0x4E60 DUP3 DUP6 PUSH2 0x4E11 JUMP JUMPDEST PUSH1 0x14 DUP3 ADD SWAP2 POP PUSH2 0x4E70 DUP3 DUP5 PUSH2 0x4E31 JUMP JUMPDEST PUSH1 0x20 DUP3 ADD SWAP2 POP DUP2 SWAP1 POP SWAP6 SWAP5 POP POP POP POP POP JUMP JUMPDEST PUSH0 PUSH2 0x4E8C DUP3 PUSH2 0x3DA8 JUMP JUMPDEST PUSH2 0x4E96 DUP2 DUP6 PUSH2 0x4DB5 JUMP JUMPDEST SWAP4 POP PUSH2 0x4EA6 DUP2 DUP6 PUSH1 0x20 DUP7 ADD PUSH2 0x3DB2 JUMP JUMPDEST DUP1 DUP5 ADD SWAP2 POP POP SWAP3 SWAP2 POP POP JUMP JUMPDEST PUSH0 PUSH2 0x4EBD DUP3 DUP5 PUSH2 0x4E82 JUMP JUMPDEST SWAP2 POP DUP2 SWAP1 POP SWAP3 SWAP2 POP POP JUMP JUMPDEST PUSH0 DUP3 DUP3 MSTORE PUSH1 0x20 DUP3 ADD SWAP1 POP SWAP3 SWAP2 POP POP JUMP JUMPDEST PUSH32 0x416D6F756E74206D7573742062652067726561746572207468616E207A65726F PUSH0 DUP3 ADD MSTORE POP JUMP JUMPDEST PUSH0 PUSH2 0x4F0C PUSH1 0x20 DUP4 PUSH2 0x4EC8 JUMP JUMPDEST SWAP2 POP PUSH2 0x4F17 DUP3 PUSH2 0x4ED8 JUMP JUMPDEST PUSH1 0x20 DUP3 ADD SWAP1 POP SWAP2 SWAP1 POP JUMP JUMPDEST PUSH0 PUSH1 0x20 DUP3 ADD SWAP1 POP DUP2 DUP2 SUB PUSH0 DUP4 ADD MSTORE PUSH2 0x4F39 DUP2 PUSH2 0x4F00 JUMP JUMPDEST SWAP1 POP SWAP2 SWAP1 POP JUMP JUMPDEST PUSH0 PUSH1 0xA0 DUP3 ADD SWAP1 POP PUSH2 0x4F53 PUSH0 DUP4 ADD DUP9 PUSH2 0x40F8 JUMP JUMPDEST PUSH2 0x4F60 PUSH1 0x20 DUP4 ADD DUP8 PUSH2 0x40F8 JUMP JUMPDEST PUSH2 0x4F6D PUSH1 0x40 DUP4 ADD DUP7 PUSH2 0x3AD2 JUMP JUMPDEST PUSH2 0x4F7A PUSH1 0x60 DUP4 ADD DUP6 PUSH2 0x3B85 JUMP JUMPDEST DUP2 DUP2 SUB PUSH1 0x80 DUP4 ADD MSTORE PUSH2 0x4F8C DUP2 DUP5 PUSH2 0x3DDA JUMP JUMPDEST SWAP1 POP SWAP7 SWAP6 POP POP POP POP POP POP JUMP JUMPDEST PUSH0 PUSH1 0x40 DUP3 ADD SWAP1 POP PUSH2 0x4FAB PUSH0 DUP4 ADD DUP6 PUSH2 0x3AD2 JUMP JUMPDEST DUP2 DUP2 SUB PUSH1 0x20 DUP4 ADD MSTORE PUSH2 0x4FBD DUP2 DUP5 PUSH2 0x3DDA JUMP JUMPDEST SWAP1 POP SWAP4 SWAP3 POP POP POP JUMP JUMPDEST PUSH32 0x4E487B7100000000000000000000000000000000000000000000000000000000 PUSH0 MSTORE PUSH1 0x22 PUSH1 0x4 MSTORE PUSH1 0x24 PUSH0 REVERT JUMPDEST PUSH0 PUSH1 0x2 DUP3 DIV SWAP1 POP PUSH1 0x1 DUP3 AND DUP1 PUSH2 0x500A JUMPI PUSH1 0x7F DUP3 AND SWAP2 POP JUMPDEST PUSH1 0x20 DUP3 LT DUP2 SUB PUSH2 0x501D JUMPI PUSH2 0x501C PUSH2 0x4FC6 JUMP JUMPDEST JUMPDEST POP SWAP2 SWAP1 POP JUMP JUMPDEST PUSH32 0x4E487B7100000000000000000000000000000000000000000000000000000000 PUSH0 MSTORE PUSH1 0x32 PUSH1 0x4 MSTORE PUSH1 0x24 PUSH0 REVERT JUMPDEST PUSH2 0x5059 DUP2 PUSH2 0x3BAD JUMP JUMPDEST DUP3 MSTORE POP POP JUMP JUMPDEST PUSH0 PUSH1 0x20 DUP3 ADD SWAP1 POP PUSH2 0x5072 PUSH0 DUP4 ADD DUP5 PUSH2 0x5050 JUMP JUMPDEST SWAP3 SWAP2 POP POP JUMP JUMPDEST PUSH0 PUSH1 0x40 DUP3 ADD SWAP1 POP PUSH2 0x508B PUSH0 DUP4 ADD DUP6 PUSH2 0x40F8 JUMP JUMPDEST PUSH2 0x5098 PUSH1 0x20 DUP4 ADD DUP5 PUSH2 0x40F8 JUMP JUMPDEST SWAP4 SWAP3 POP POP POP JUMP JUMPDEST PUSH0 DUP2 MLOAD SWAP1 POP PUSH2 0x50AD DUP2 PUSH2 0x3BE0 JUMP JUMPDEST SWAP3 SWAP2 POP POP JUMP JUMPDEST PUSH0 PUSH1 0x20 DUP3 DUP5 SUB SLT ISZERO PUSH2 0x50C8 JUMPI PUSH2 0x50C7 PUSH2 0x3A3C JUMP JUMPDEST JUMPDEST PUSH0 PUSH2 0x50D5 DUP5 DUP3 DUP6 ADD PUSH2 0x509F JUMP JUMPDEST SWAP2 POP POP SWAP3 SWAP2 POP POP JUMP JUMPDEST PUSH0 PUSH1 0x40 DUP3 ADD SWAP1 POP PUSH2 0x50F1 PUSH0 DUP4 ADD DUP6 PUSH2 0x5050 JUMP JUMPDEST PUSH2 0x50FE PUSH1 0x20 DUP4 ADD DUP5 PUSH2 0x40F8 JUMP JUMPDEST SWAP4 SWAP3 POP POP POP JUMP JUMPDEST PUSH0 DUP1 REVERT JUMPDEST PUSH0 DUP1 REVERT JUMPDEST PUSH0 DUP1 REVERT JUMPDEST PUSH0 DUP1 DUP4 CALLDATALOAD PUSH1 0x1 PUSH1 0x20 SUB DUP5 CALLDATASIZE SUB SUB DUP2 SLT PUSH2 0x512D JUMPI PUSH2 0x512C PUSH2 0x5105 JUMP JUMPDEST JUMPDEST DUP1 DUP5 ADD SWAP3 POP DUP3 CALLDATALOAD SWAP2 POP PUSH8 0xFFFFFFFFFFFFFFFF DUP3 GT ISZERO PUSH2 0x514F JUMPI PUSH2 0x514E PUSH2 0x5109 JUMP JUMPDEST JUMPDEST PUSH1 0x20 DUP4 ADD SWAP3 POP PUSH1 0x1 DUP3 MUL CALLDATASIZE SUB DUP4 SGT ISZERO PUSH2 0x516B JUMPI PUSH2 0x516A PUSH2 0x510D JUMP JUMPDEST JUMPDEST POP SWAP3 POP SWAP3 SWAP1 POP JUMP JUMPDEST PUSH0 PUSH2 0x517F DUP3 DUP5 DUP7 PUSH2 0x4DBF JUMP JUMPDEST SWAP2 POP DUP2 SWAP1 POP SWAP4 SWAP3 POP POP POP JUMP JUMPDEST PUSH32 0x596F752063616E206F6E6C79206C696B65206120746F6B656E206F6E63650000 PUSH0 DUP3 ADD MSTORE POP JUMP JUMPDEST PUSH0 PUSH2 0x51BF PUSH1 0x1E DUP4 PUSH2 0x4EC8 JUMP JUMPDEST SWAP2 POP PUSH2 0x51CA DUP3 PUSH2 0x518B JUMP JUMPDEST PUSH1 0x20 DUP3 ADD SWAP1 POP SWAP2 SWAP1 POP JUMP JUMPDEST PUSH0 PUSH1 0x20 DUP3 ADD SWAP1 POP DUP2 DUP2 SUB PUSH0 DUP4 ADD MSTORE PUSH2 0x51EC DUP2 PUSH2 0x51B3 JUMP JUMPDEST SWAP1 POP SWAP2 SWAP1 POP JUMP JUMPDEST PUSH0 PUSH1 0x60 DUP3 ADD SWAP1 POP PUSH2 0x5206 PUSH0 DUP4 ADD DUP7 PUSH2 0x40F8 JUMP JUMPDEST PUSH2 0x5213 PUSH1 0x20 DUP4 ADD DUP6 PUSH2 0x5050 JUMP JUMPDEST PUSH2 0x5220 PUSH1 0x40 DUP4 ADD DUP5 PUSH2 0x40F8 JUMP JUMPDEST SWAP5 SWAP4 POP POP POP POP JUMP JUMPDEST PUSH0 PUSH1 0x40 DUP3 ADD SWAP1 POP PUSH2 0x523B PUSH0 DUP4 ADD DUP6 PUSH2 0x40F8 JUMP JUMPDEST PUSH2 0x5248 PUSH1 0x20 DUP4 ADD DUP5 PUSH2 0x5050 JUMP JUMPDEST SWAP4 SWAP3 POP POP POP JUMP JUMPDEST PUSH0 PUSH1 0x80 DUP3 ADD SWAP1 POP PUSH2 0x5262 PUSH0 DUP4 ADD DUP8 PUSH2 0x40F8 JUMP JUMPDEST PUSH2 0x526F PUSH1 0x20 DUP4 ADD DUP7 PUSH2 0x5050 JUMP JUMPDEST PUSH2 0x527C PUSH1 0x40 DUP4 ADD DUP6 PUSH2 0x3B85 JUMP JUMPDEST DUP2 DUP2 SUB PUSH1 0x60 DUP4 ADD MSTORE PUSH2 0x528E DUP2 DUP5 PUSH2 0x3DDA JUMP JUMPDEST SWAP1 POP SWAP6 SWAP5 POP POP POP POP POP JUMP JUMPDEST PUSH0 DUP2 SWAP1 POP DUP2 PUSH0 MSTORE PUSH1 0x20 PUSH0 KECCAK256 SWAP1 POP SWAP2 SWAP1 POP JUMP JUMPDEST PUSH0 PUSH1 0x20 PUSH1 0x1F DUP4 ADD DIV SWAP1 POP SWAP2 SWAP1 POP JUMP JUMPDEST PUSH0 DUP3 DUP3 SHL SWAP1 POP SWAP3 SWAP2 POP POP JUMP JUMPDEST PUSH0 PUSH1 0x8 DUP4 MUL PUSH2 0x52F5 PUSH32 0xFFFFFFFFFFFFFFFFFFFFFFFFFFFFFFFFFFFFFFFFFFFFFFFFFFFFFFFFFFFFFFFF DUP3 PUSH2 0x52BA JUMP JUMPDEST PUSH2 0x52FF DUP7 DUP4 PUSH2 0x52BA JUMP JUMPDEST SWAP6 POP DUP1 NOT DUP5 AND SWAP4 POP DUP1 DUP7 AND DUP5 OR SWAP3 POP POP POP SWAP4 SWAP3 POP POP POP JUMP JUMPDEST PUSH0 DUP2 SWAP1 POP SWAP2 SWAP1 POP JUMP JUMPDEST PUSH0 PUSH2 0x533A PUSH2 0x5335 PUSH2 0x5330 DUP5 PUSH2 0x3AC9 JUMP JUMPDEST PUSH2 0x5317 JUMP JUMPDEST PUSH2 0x3AC9 JUMP JUMPDEST SWAP1 POP SWAP2 SWAP1 POP JUMP JUMPDEST PUSH0 DUP2 SWAP1 POP SWAP2 SWAP1 POP JUMP JUMPDEST PUSH2 0x5353 DUP4 PUSH2 0x5320 JUMP JUMPDEST PUSH2 0x5367 PUSH2 0x535F DUP3 PUSH2 0x5341 JUMP JUMPDEST DUP5 DUP5 SLOAD PUSH2 0x52C6 JUMP JUMPDEST DUP3 SSTORE POP POP POP POP JUMP JUMPDEST PUSH0 SWAP1 JUMP JUMPDEST PUSH2 0x537B PUSH2 0x536F JUMP JUMPDEST PUSH2 0x5386 DUP2 DUP5 DUP5 PUSH2 0x534A JUMP JUMPDEST POP POP POP JUMP JUMPDEST JUMPDEST DUP2 DUP2 LT ISZERO PUSH2 0x53A9 JUMPI PUSH2 0x539E PUSH0 DUP3 PUSH2 0x5373 JUMP JUMPDEST PUSH1 0x1 DUP2 ADD SWAP1 POP PUSH2 0x538C JUMP JUMPDEST POP POP JUMP JUMPDEST PUSH1 0x1F DUP3 GT ISZERO PUSH2 0x53EE JUMPI PUSH2 0x53BF DUP2 PUSH2 0x5299 JUMP JUMPDEST PUSH2 0x53C8 DUP5 PUSH2 0x52AB JUMP JUMPDEST DUP2 ADD PUSH1 0x20 DUP6 LT ISZERO PUSH2 0x53D7 JUMPI DUP2 SWAP1 POP JUMPDEST PUSH2 0x53EB PUSH2 0x53E3 DUP6 PUSH2 0x52AB JUMP JUMPDEST DUP4 ADD DUP3 PUSH2 0x538B JUMP JUMPDEST POP POP JUMPDEST POP POP POP JUMP JUMPDEST PUSH0 DUP3 DUP3 SHR SWAP1 POP SWAP3 SWAP2 POP POP JUMP JUMPDEST PUSH0 PUSH2 0x540E PUSH0 NOT DUP5 PUSH1 0x8 MUL PUSH2 0x53F3 JUMP JUMPDEST NOT DUP1 DUP4 AND SWAP2 POP POP SWAP3 SWAP2 POP POP JUMP JUMPDEST PUSH0 PUSH2 0x5426 DUP4 DUP4 PUSH2 0x53FF JUMP JUMPDEST SWAP2 POP DUP3 PUSH1 0x2 MUL DUP3 OR SWAP1 POP SWAP3 SWAP2 POP POP JUMP JUMPDEST PUSH2 0x543F DUP3 PUSH2 0x3DA8 JUMP JUMPDEST PUSH8 0xFFFFFFFFFFFFFFFF DUP2 GT ISZERO PUSH2 0x5458 JUMPI PUSH2 0x5457 PUSH2 0x3C12 JUMP JUMPDEST JUMPDEST PUSH2 0x5462 DUP3 SLOAD PUSH2 0x4FF3 JUMP JUMPDEST PUSH2 0x546D DUP3 DUP3 DUP6 PUSH2 0x53AD JUMP JUMPDEST PUSH0 PUSH1 0x20 SWAP1 POP PUSH1 0x1F DUP4 GT PUSH1 0x1 DUP2 EQ PUSH2 0x549E JUMPI PUSH0 DUP5 ISZERO PUSH2 0x548C JUMPI DUP3 DUP8 ADD MLOAD SWAP1 POP JUMPDEST PUSH2 0x5496 DUP6 DUP3 PUSH2 0x541B JUMP JUMPDEST DUP7 SSTORE POP PUSH2 0x54FD JUMP JUMPDEST PUSH1 0x1F NOT DUP5 AND PUSH2 0x54AC DUP7 PUSH2 0x5299 JUMP JUMPDEST PUSH0 JUMPDEST DUP3 DUP2 LT ISZERO PUSH2 0x54D3 JUMPI DUP5 DUP10 ADD MLOAD DUP3 SSTORE PUSH1 0x1 DUP3 ADD SWAP2 POP PUSH1 0x20 DUP6 ADD SWAP5 POP PUSH1 0x20 DUP2 ADD SWAP1 POP PUSH2 0x54AE JUMP JUMPDEST DUP7 DUP4 LT ISZERO PUSH2 0x54F0 JUMPI DUP5 DUP10 ADD MLOAD PUSH2 0x54EC PUSH1 0x1F DUP10 AND DUP3 PUSH2 0x53FF JUMP JUMPDEST DUP4 SSTORE POP JUMPDEST PUSH1 0x1 PUSH1 0x2 DUP9 MUL ADD DUP9 SSTORE POP POP POP JUMPDEST POP POP POP POP POP POP JUMP JUMPDEST PUSH32 0x4D696E74696E67206F6E6C79206F6E6365206120646179000000000000000000 PUSH0 DUP3 ADD MSTORE POP JUMP JUMPDEST PUSH0 PUSH2 0x5539 PUSH1 0x17 DUP4 PUSH2 0x4EC8 JUMP JUMPDEST SWAP2 POP PUSH2 0x5544 DUP3 PUSH2 0x5505 JUMP JUMPDEST PUSH1 0x20 DUP3 ADD SWAP1 POP SWAP2 SWAP1 POP JUMP JUMPDEST PUSH0 PUSH1 0x20 DUP3 ADD SWAP1 POP DUP2 DUP2 SUB PUSH0 DUP4 ADD MSTORE PUSH2 0x5566 DUP2 PUSH2 0x552D JUMP JUMPDEST SWAP1 POP SWAP2 SWAP1 POP JUMP JUMPDEST PUSH0 DUP2 MLOAD SWAP1 POP SWAP2 SWAP1 POP JUMP JUMPDEST PUSH0 DUP3 DUP3 MSTORE PUSH1 0x20 DUP3 ADD SWAP1 POP SWAP3 SWAP2 POP POP JUMP JUMPDEST PUSH0 PUSH2 0x5591 DUP3 PUSH2 0x556D JUMP JUMPDEST PUSH2 0x559B DUP2 DUP6 PUSH2 0x5577 JUMP JUMPDEST SWAP4 POP PUSH2 0x55AB DUP2 DUP6 PUSH1 0x20 DUP7 ADD PUSH2 0x3DB2 JUMP JUMPDEST PUSH2 0x55B4 DUP2 PUSH2 0x39D5 JUMP JUMPDEST DUP5 ADD SWAP2 POP POP SWAP3 SWAP2 POP POP JUMP JUMPDEST PUSH2 0x55C8 DUP2 PUSH2 0x3AC9 JUMP JUMPDEST DUP3 MSTORE POP POP JUMP JUMPDEST PUSH2 0x55D7 DUP2 PUSH2 0x3B7A JUMP JUMPDEST DUP3 MSTORE POP POP JUMP JUMPDEST PUSH2 0x55E6 DUP2 PUSH2 0x3A63 JUMP JUMPDEST DUP3 MSTORE POP POP JUMP JUMPDEST PUSH0 DUP3 DUP3 MSTORE PUSH1 0x20 DUP3 ADD SWAP1 POP SWAP3 SWAP2 POP POP JUMP JUMPDEST PUSH0 PUSH2 0x5606 DUP3 PUSH2 0x3DA8 JUMP JUMPDEST PUSH2 0x5610 DUP2 DUP6 PUSH2 0x55EC JUMP JUMPDEST SWAP4 POP PUSH2 0x5620 DUP2 DUP6 PUSH1 0x20 DUP7 ADD PUSH2 0x3DB2 JUMP JUMPDEST PUSH2 0x5629 DUP2 PUSH2 0x39D5 JUMP JUMPDEST DUP5 ADD SWAP2 POP POP SWAP3 SWAP2 POP POP JUMP JUMPDEST PUSH0 PUSH1 0xE0 DUP3 ADD SWAP1 POP DUP2 DUP2 SUB PUSH0 DUP4 ADD MSTORE PUSH2 0x564C DUP2 DUP11 PUSH2 0x5587 JUMP JUMPDEST SWAP1 POP DUP2 DUP2 SUB PUSH1 0x20 DUP4 ADD MSTORE PUSH2 0x5660 DUP2 DUP10 PUSH2 0x5587 JUMP JUMPDEST SWAP1 POP PUSH2 0x566F PUSH1 0x40 DUP4 ADD DUP9 PUSH2 0x55BF JUMP JUMPDEST PUSH2 0x567C PUSH1 0x60 DUP4 ADD DUP8 PUSH2 0x55CE JUMP JUMPDEST PUSH2 0x5689 PUSH1 0x80 DUP4 ADD DUP7 PUSH2 0x55BF JUMP JUMPDEST PUSH2 0x5696 PUSH1 0xA0 DUP4 ADD DUP6 PUSH2 0x55DD JUMP JUMPDEST DUP2 DUP2 SUB PUSH1 0xC0 DUP4 ADD MSTORE PUSH2 0x56A8 DUP2 DUP5 PUSH2 0x55FC JUMP JUMPDEST SWAP1 POP SWAP9 SWAP8 POP POP POP POP POP POP POP POP JUMP JUMPDEST PUSH0 DUP2 MLOAD SWAP1 POP PUSH2 0x56C4 DUP2 PUSH2 0x3A74 JUMP JUMPDEST SWAP3 SWAP2 POP POP JUMP JUMPDEST PUSH0 PUSH1 0x20 DUP3 DUP5 SUB SLT ISZERO PUSH2 0x56DF JUMPI PUSH2 0x56DE PUSH2 0x3A3C JUMP JUMPDEST JUMPDEST PUSH0 PUSH2 0x56EC DUP5 DUP3 DUP6 ADD PUSH2 0x56B6 JUMP JUMPDEST SWAP2 POP POP SWAP3 SWAP2 POP POP JUMP JUMPDEST PUSH0 PUSH1 0x60 DUP3 ADD SWAP1 POP PUSH2 0x5708 PUSH0 DUP4 ADD DUP7 PUSH2 0x40F8 JUMP JUMPDEST PUSH2 0x5715 PUSH1 0x20 DUP4 ADD DUP6 PUSH2 0x40F8 JUMP JUMPDEST PUSH2 0x5722 PUSH1 0x40 DUP4 ADD DUP5 PUSH2 0x5050 JUMP JUMPDEST SWAP5 SWAP4 POP POP POP POP JUMP JUMPDEST PUSH0 DUP2 SWAP1 POP PUSH1 0x20 DUP3 ADD SWAP1 POP SWAP2 SWAP1 POP JUMP JUMPDEST PUSH0 PUSH32 0xFFFFFFFFFFFFFFFFFFFFFFFFFFFFFFFFFFFFFFFF000000000000000000000000 DUP3 AND SWAP1 POP SWAP2 SWAP1 POP JUMP JUMPDEST PUSH0 PUSH2 0x576F DUP3 MLOAD PUSH2 0x5739 JUMP JUMPDEST DUP1 SWAP2 POP POP SWAP2 SWAP1 POP JUMP JUMPDEST PUSH0 PUSH2 0x5782 DUP3 PUSH2 0x3DA8 JUMP JUMPDEST DUP3 PUSH2 0x578C DUP5 PUSH2 0x572A JUMP JUMPDEST SWAP1 POP PUSH2 0x5797 DUP2 PUSH2 0x5764 JUMP JUMPDEST SWAP3 POP PUSH1 0x14 DUP3 LT ISZERO PUSH2 0x57D7 JUMPI PUSH2 0x57D2 PUSH32 0xFFFFFFFFFFFFFFFFFFFFFFFFFFFFFFFFFFFFFFFF000000000000000000000000 DUP4 PUSH1 0x14 SUB PUSH1 0x8 MUL PUSH2 0x52BA JUMP JUMPDEST DUP4 AND SWAP3 POP JUMPDEST POP POP SWAP2 SWAP1 POP JUMP JUMPDEST PUSH0 PUSH1 0x60 DUP3 ADD SWAP1 POP PUSH2 0x57F1 PUSH0 DUP4 ADD DUP7 PUSH2 0x5050 JUMP JUMPDEST PUSH2 0x57FE PUSH1 0x20 DUP4 ADD DUP6 PUSH2 0x40F8 JUMP JUMPDEST PUSH2 0x580B PUSH1 0x40 DUP4 ADD DUP5 PUSH2 0x40F8 JUMP JUMPDEST SWAP5 SWAP4 POP POP POP POP JUMP JUMPDEST PUSH0 PUSH1 0x60 DUP3 ADD SWAP1 POP PUSH2 0x5826 PUSH0 DUP4 ADD DUP7 PUSH2 0x40F8 JUMP JUMPDEST PUSH2 0x5833 PUSH1 0x20 DUP4 ADD DUP6 PUSH2 0x3B85 JUMP JUMPDEST DUP2 DUP2 SUB PUSH1 0x40 DUP4 ADD MSTORE PUSH2 0x5845 DUP2 DUP5 PUSH2 0x3DDA JUMP JUMPDEST SWAP1 POP SWAP5 SWAP4 POP POP POP POP JUMP JUMPDEST PUSH0 PUSH1 0xA0 DUP3 ADD SWAP1 POP PUSH2 0x5862 PUSH0 DUP4 ADD DUP9 PUSH2 0x40F8 JUMP JUMPDEST PUSH2 0x586F PUSH1 0x20 DUP4 ADD DUP8 PUSH2 0x40F8 JUMP JUMPDEST PUSH2 0x587C PUSH1 0x40 DUP4 ADD DUP7 PUSH2 0x40F8 JUMP JUMPDEST PUSH2 0x5889 PUSH1 0x60 DUP4 ADD DUP6 PUSH2 0x5050 JUMP JUMPDEST DUP2 DUP2 SUB PUSH1 0x80 DUP4 ADD MSTORE PUSH2 0x589B DUP2 DUP5 PUSH2 0x3DDA JUMP JUMPDEST SWAP1 POP SWAP7 SWAP6 POP POP POP POP POP POP JUMP JUMPDEST PUSH32 0x4E487B7100000000000000000000000000000000000000000000000000000000 PUSH0 MSTORE PUSH1 0x11 PUSH1 0x4 MSTORE PUSH1 0x24 PUSH0 REVERT JUMPDEST PUSH0 PUSH2 0x58DE DUP3 PUSH2 0x3AC9 JUMP JUMPDEST SWAP2 POP PUSH2 0x58E9 DUP4 PUSH2 0x3AC9 JUMP JUMPDEST SWAP3 POP DUP3 DUP3 ADD SWAP1 POP DUP1 DUP3 GT ISZERO PUSH2 0x5901 JUMPI PUSH2 0x5900 PUSH2 0x58A7 JUMP JUMPDEST JUMPDEST SWAP3 SWAP2 POP POP JUMP JUMPDEST PUSH0 PUSH2 0x5911 DUP3 PUSH2 0x3AC9 JUMP JUMPDEST SWAP2 POP PUSH32 0xFFFFFFFFFFFFFFFFFFFFFFFFFFFFFFFFFFFFFFFFFFFFFFFFFFFFFFFFFFFFFFFF DUP3 SUB PUSH2 0x5943 JUMPI PUSH2 0x5942 PUSH2 0x58A7 JUMP JUMPDEST JUMPDEST PUSH1 0x1 DUP3 ADD SWAP1 POP SWAP2 SWAP1 POP JUMP JUMPDEST PUSH0 PUSH1 0x40 DUP3 ADD SWAP1 POP PUSH2 0x5961 PUSH0 DUP4 ADD DUP6 PUSH2 0x3B85 JUMP JUMPDEST DUP2 DUP2 SUB PUSH1 0x20 DUP4 ADD MSTORE PUSH2 0x5973 DUP2 DUP5 PUSH2 0x3DDA JUMP JUMPDEST SWAP1 POP SWAP4 SWAP3 POP POP POP JUMP JUMPDEST PUSH0 PUSH32 0xFFFFFFFFFFFFFFFFFFFF00000000000000000000000000000000000000000000 DUP3 AND SWAP1 POP SWAP2 SWAP1 POP JUMP JUMPDEST PUSH0 DUP2 SWAP1 POP SWAP2 SWAP1 POP JUMP JUMPDEST PUSH2 0x59C1 PUSH2 0x59BC DUP3 PUSH2 0x597C JUMP JUMPDEST PUSH2 0x59A7 JUMP JUMPDEST DUP3 MSTORE POP POP JUMP JUMPDEST PUSH0 PUSH32 0xFFFF000000000000000000000000000000000000000000000000000000000000 DUP3 AND SWAP1 POP SWAP2 SWAP1 POP JUMP JUMPDEST PUSH0 DUP2 SWAP1 POP SWAP2 SWAP1 POP JUMP JUMPDEST PUSH2 0x5A0C PUSH2 0x5A07 DUP3 PUSH2 0x59C7 JUMP JUMPDEST PUSH2 0x59F2 JUMP JUMPDEST DUP3 MSTORE POP POP JUMP JUMPDEST PUSH0 DUP2 SWAP1 POP SWAP2 SWAP1 POP JUMP JUMPDEST PUSH2 0x5A2C PUSH2 0x5A27 DUP3 PUSH2 0x5739 JUMP JUMPDEST PUSH2 0x5A12 JUMP JUMPDEST DUP3 MSTORE POP POP JUMP JUMPDEST PUSH0 PUSH2 0x5A3D DUP3 DUP7 PUSH2 0x59B0 JUMP JUMPDEST PUSH1 0xA DUP3 ADD SWAP2 POP PUSH2 0x5A4D DUP3 DUP6 PUSH2 0x59FB JUMP JUMPDEST PUSH1 0x2 DUP3 ADD SWAP2 POP PUSH2 0x5A5D DUP3 DUP5 PUSH2 0x5A1B JUMP JUMPDEST PUSH1 0x14 DUP3 ADD SWAP2 POP DUP2 SWAP1 POP SWAP5 SWAP4 POP POP POP POP JUMP JUMPDEST PUSH0 PUSH2 0x5A79 DUP3 MLOAD PUSH2 0x3BAD JUMP JUMPDEST DUP1 SWAP2 POP POP SWAP2 SWAP1 POP JUMP JUMPDEST PUSH0 PUSH2 0x5A8C DUP3 PUSH2 0x3DA8 JUMP JUMPDEST DUP3 PUSH2 0x5A96 DUP5 PUSH2 0x572A JUMP JUMPDEST SWAP1 POP PUSH2 0x5AA1 DUP2 PUSH2 0x5A6E JUMP JUMPDEST SWAP3 POP PUSH1 0x20 DUP3 LT ISZERO PUSH2 0x5AE1 JUMPI PUSH2 0x5ADC PUSH32 0xFFFFFFFFFFFFFFFFFFFFFFFFFFFFFFFFFFFFFFFFFFFFFFFFFFFFFFFFFFFFFFFF DUP4 PUSH1 0x20 SUB PUSH1 0x8 MUL PUSH2 0x52BA JUMP JUMPDEST DUP4 AND SWAP3 POP JUMPDEST POP POP SWAP2 SWAP1 POP JUMP JUMPDEST PUSH0 PUSH2 0x5AFA PUSH2 0x5AF5 DUP5 PUSH2 0x3C8A JUMP JUMPDEST PUSH2 0x3C70 JUMP JUMPDEST SWAP1 POP DUP3 DUP2 MSTORE PUSH1 0x20 DUP2 ADD DUP5 DUP5 DUP5 ADD GT ISZERO PUSH2 0x5B16 JUMPI PUSH2 0x5B15 PUSH2 0x3C0E JUMP JUMPDEST JUMPDEST PUSH2 0x5B21 DUP5 DUP3 DUP6 PUSH2 0x3DB2 JUMP JUMPDEST POP SWAP4 SWAP3 POP POP POP JUMP JUMPDEST PUSH0 DUP3 PUSH1 0x1F DUP4 ADD SLT PUSH2 0x5B3D JUMPI PUSH2 0x5B3C PUSH2 0x3C0A JUMP JUMPDEST JUMPDEST DUP2 MLOAD PUSH2 0x5B4D DUP5 DUP3 PUSH1 0x20 DUP7 ADD PUSH2 0x5AE8 JUMP JUMPDEST SWAP2 POP POP SWAP3 SWAP2 POP POP JUMP JUMPDEST PUSH0 PUSH1 0x20 DUP3 DUP5 SUB SLT ISZERO PUSH2 0x5B6B JUMPI PUSH2 0x5B6A PUSH2 0x3A3C JUMP JUMPDEST JUMPDEST PUSH0 DUP3 ADD MLOAD PUSH8 0xFFFFFFFFFFFFFFFF DUP2 GT ISZERO PUSH2 0x5B88 JUMPI PUSH2 0x5B87 PUSH2 0x3A40 JUMP JUMPDEST JUMPDEST PUSH2 0x5B94 DUP5 DUP3 DUP6 ADD PUSH2 0x5B29 JUMP JUMPDEST SWAP2 POP POP SWAP3 SWAP2 POP POP JUMP JUMPDEST PUSH0 PUSH1 0x40 DUP3 ADD SWAP1 POP PUSH2 0x5BB0 PUSH0 DUP4 ADD DUP6 PUSH2 0x5050 JUMP JUMPDEST DUP2 DUP2 SUB PUSH1 0x20 DUP4 ADD MSTORE PUSH2 0x5BC2 DUP2 DUP5 PUSH2 0x3DDA JUMP JUMPDEST SWAP1 POP SWAP4 SWAP3 POP POP POP JUMP JUMPDEST PUSH0 PUSH2 0x5BD5 DUP3 PUSH2 0x3AC9 JUMP JUMPDEST SWAP2 POP PUSH2 0x5BE0 DUP4 PUSH2 0x3AC9 JUMP JUMPDEST SWAP3 POP DUP3 DUP3 SUB SWAP1 POP DUP2 DUP2 GT ISZERO PUSH2 0x5BF8 JUMPI PUSH2 0x5BF7 PUSH2 0x58A7 JUMP JUMPDEST JUMPDEST SWAP3 SWAP2 POP POP JUMP JUMPDEST PUSH32 0x4E487B7100000000000000000000000000000000000000000000000000000000 PUSH0 MSTORE PUSH1 0x31 PUSH1 0x4 MSTORE PUSH1 0x24 PUSH0 REVERT INVALID LOG2 PUSH5 0x6970667358 0x22 SLT KECCAK256 0xAC SWAP9 0xD3 0xAE PUSH26 0xE5F73621997651B92AE38BBB786CEC59303DBCEC8AC734ECF25D SIGNEXTEND PUSH5 0x736F6C6343 STOP ADDMOD EQ STOP CALLER "
		},
		"gasEstimates": {
			"creation": {
				"codeDepositCost": "4729800",
				"executionCost": "infinite",
				"totalCost": "infinite"
			},
			"external": {
				"": "infinite",
				"authorizeOperator(address,bytes32,bytes)": "infinite",
				"balanceOf(address)": "3064",
				"batchCalls(bytes[])": "infinite",
				"encryptedEncryptionKeys(address)": "infinite",
				"getAuthorizedAmount(bytes32)": "infinite",
				"getData(bytes32)": "infinite",
				"getDataBatch(bytes32[])": "infinite",
				"getDataBatchForTokenIds(bytes32[],bytes32[])": "infinite",
				"getDataForTokenId(bytes32,bytes32)": "infinite",
				"getEncryptedKey(address)": "infinite",
				"getLikes(bytes32)": "infinite",
				"getMintingDate(address)": "2875",
				"getOperatorsOf(bytes32)": "infinite",
				"hasLiked(bytes32,address)": "3116",
				"isOperatorFor(address,bytes32)": "infinite",
				"lastClaimed(address)": "2849",
				"like(bytes32)": "77405",
				"lsp7TokenType()": "2514",
				"mint(string,string,bool,uint256,address,bytes,bytes)": "infinite",
				"mintingDates(address)": "2890",
				"owner()": "2560",
				"renounceOwnership()": "infinite",
				"revokeOperator(address,bytes32,bool,bytes)": "infinite",
				"rewardAmount()": "2557",
				"setData(bytes32,bytes)": "infinite",
				"setDataBatch(bytes32[],bytes[])": "infinite",
				"setDataBatchForTokenIds(bytes32[],bytes32[],bytes[])": "infinite",
				"setDataForTokenId(bytes32,bytes32,bytes)": "infinite",
				"setRewardAmount(uint256)": "24787",
				"storeEncryptedKey(address,bytes)": "infinite",
				"supportsInterface(bytes4)": "infinite",
				"tokenIdsOf(address)": "infinite",
				"tokenLikes(bytes32,uint256)": "5271",
				"tokenOwnerOf(bytes32)": "infinite",
				"totalSupply()": "2522",
				"transfer(address,address,bytes32,bool,bytes)": "infinite",
				"transferBatch(address[],address[],bytes32[],bool[],bytes[])": "infinite",
				"transferNFT(bytes32,address,uint256,bytes)": "infinite",
				"transferOwnership(address)": "infinite"
			},
			"internal": {
				"_getDataForTokenId(bytes32,bytes32)": "infinite",
				"_setDataForTokenId(bytes32,bytes32,bytes memory)": "infinite",
				"mintState()": "infinite"
			}
		},
		"methodIdentifiers": {
			"authorizeOperator(address,bytes32,bytes)": "86a10ddd",
			"balanceOf(address)": "70a08231",
			"batchCalls(bytes[])": "6963d438",
			"encryptedEncryptionKeys(address)": "075bf131",
			"getAuthorizedAmount(bytes32)": "3a22694b",
			"getData(bytes32)": "54f6127f",
			"getDataBatch(bytes32[])": "dedff9c6",
			"getDataBatchForTokenIds(bytes32[],bytes32[])": "1d26fce6",
			"getDataForTokenId(bytes32,bytes32)": "16e023b3",
			"getEncryptedKey(address)": "4b74a1f1",
			"getLikes(bytes32)": "d54488fe",
			"getMintingDate(address)": "0c590f51",
			"getOperatorsOf(bytes32)": "49a6078d",
			"hasLiked(bytes32,address)": "5283c480",
			"isOperatorFor(address,bytes32)": "2a3654a4",
			"lastClaimed(address)": "013eba92",
			"like(bytes32)": "7aad1f7d",
			"lsp7TokenType()": "c458d2af",
			"mint(string,string,bool,uint256,address,bytes,bytes)": "a183177a",
			"mintingDates(address)": "f08e076d",
			"owner()": "8da5cb5b",
			"renounceOwnership()": "715018a6",
			"revokeOperator(address,bytes32,bool,bytes)": "db8c9663",
			"rewardAmount()": "f7b2a7be",
			"setData(bytes32,bytes)": "7f23690c",
			"setDataBatch(bytes32[],bytes[])": "97902421",
			"setDataBatchForTokenIds(bytes32[],bytes32[],bytes[])": "be9f0e6f",
			"setDataForTokenId(bytes32,bytes32,bytes)": "d6c1407c",
			"setRewardAmount(uint256)": "a8a65a78",
			"storeEncryptedKey(address,bytes)": "92e18c4a",
			"supportsInterface(bytes4)": "01ffc9a7",
			"tokenIdsOf(address)": "a3b261f2",
			"tokenLikes(bytes32,uint256)": "5acc786e",
			"tokenOwnerOf(bytes32)": "217b2270",
			"totalSupply()": "18160ddd",
			"transfer(address,address,bytes32,bool,bytes)": "511b6952",
			"transferBatch(address[],address[],bytes32[],bool[],bytes[])": "7e87632c",
			"transferNFT(bytes32,address,uint256,bytes)": "073c9695",
			"transferOwnership(address)": "f2fde38b"
		}
	},
	"abi": [
		{
			"inputs": [
				{
					"internalType": "string",
					"name": "name_",
					"type": "string"
				},
				{
					"internalType": "string",
					"name": "symbol_",
					"type": "string"
				},
				{
					"internalType": "address",
					"name": "newOwner_",
					"type": "address"
				},
				{
					"internalType": "uint256",
					"name": "lsp4TokenType_",
					"type": "uint256"
				},
				{
					"internalType": "bytes",
					"name": "lsp4MetadataURI_",
					"type": "bytes"
				},
				{
					"internalType": "uint256",
					"name": "_rewardAmount",
					"type": "uint256"
				}
			],
			"stateMutability": "nonpayable",
			"type": "constructor"
		},
		{
			"inputs": [],
			"name": "ERC725Y_DataKeysValuesEmptyArray",
			"type": "error"
		},
		{
			"inputs": [],
			"name": "ERC725Y_DataKeysValuesLengthMismatch",
			"type": "error"
		},
		{
			"inputs": [],
			"name": "ERC725Y_MsgValueDisallowed",
			"type": "error"
		},
		{
			"inputs": [
				{
					"internalType": "bytes",
					"name": "storedData",
					"type": "bytes"
				}
			],
			"name": "InvalidExtensionAddress",
			"type": "error"
		},
		{
			"inputs": [
				{
					"internalType": "bytes",
					"name": "data",
					"type": "bytes"
				}
			],
			"name": "InvalidFunctionSelector",
			"type": "error"
		},
		{
			"inputs": [],
			"name": "LSP4TokenNameNotEditable",
			"type": "error"
		},
		{
			"inputs": [],
			"name": "LSP4TokenSymbolNotEditable",
			"type": "error"
		},
		{
			"inputs": [],
			"name": "LSP4TokenTypeNotEditable",
			"type": "error"
		},
		{
			"inputs": [
				{
					"internalType": "uint256",
					"name": "callIndex",
					"type": "uint256"
				}
			],
			"name": "LSP8BatchCallFailed",
			"type": "error"
		},
		{
			"inputs": [],
			"name": "LSP8CannotSendToAddressZero",
			"type": "error"
		},
		{
			"inputs": [],
			"name": "LSP8CannotUseAddressZeroAsOperator",
			"type": "error"
		},
		{
			"inputs": [],
			"name": "LSP8InvalidTransferBatch",
			"type": "error"
		},
		{
			"inputs": [
				{
					"internalType": "bytes32",
					"name": "tokenId",
					"type": "bytes32"
				}
			],
			"name": "LSP8NonExistentTokenId",
			"type": "error"
		},
		{
			"inputs": [
				{
					"internalType": "address",
					"name": "operator",
					"type": "address"
				},
				{
					"internalType": "bytes32",
					"name": "tokenId",
					"type": "bytes32"
				}
			],
			"name": "LSP8NonExistingOperator",
			"type": "error"
		},
		{
			"inputs": [
				{
					"internalType": "bytes32",
					"name": "tokenId",
					"type": "bytes32"
				},
				{
					"internalType": "address",
					"name": "caller",
					"type": "address"
				}
			],
			"name": "LSP8NotTokenOperator",
			"type": "error"
		},
		{
			"inputs": [
				{
					"internalType": "address",
					"name": "tokenOwner",
					"type": "address"
				},
				{
					"internalType": "bytes32",
					"name": "tokenId",
					"type": "bytes32"
				},
				{
					"internalType": "address",
					"name": "caller",
					"type": "address"
				}
			],
			"name": "LSP8NotTokenOwner",
			"type": "error"
		},
		{
			"inputs": [
				{
					"internalType": "address",
					"name": "tokenReceiver",
					"type": "address"
				}
			],
			"name": "LSP8NotifyTokenReceiverContractMissingLSP1Interface",
			"type": "error"
		},
		{
			"inputs": [
				{
					"internalType": "address",
					"name": "tokenReceiver",
					"type": "address"
				}
			],
			"name": "LSP8NotifyTokenReceiverIsEOA",
			"type": "error"
		},
		{
			"inputs": [
				{
					"internalType": "address",
					"name": "operator",
					"type": "address"
				},
				{
					"internalType": "bytes32",
					"name": "tokenId",
					"type": "bytes32"
				}
			],
			"name": "LSP8OperatorAlreadyAuthorized",
			"type": "error"
		},
		{
			"inputs": [
				{
					"internalType": "address",
					"name": "caller",
					"type": "address"
				},
				{
					"internalType": "address",
					"name": "tokenOwner",
					"type": "address"
				},
				{
					"internalType": "bytes32",
					"name": "tokenId",
					"type": "bytes32"
				}
			],
			"name": "LSP8RevokeOperatorNotAuthorized",
			"type": "error"
		},
		{
			"inputs": [],
			"name": "LSP8TokenContractCannotHoldValue",
			"type": "error"
		},
		{
			"inputs": [
				{
					"internalType": "bytes32",
					"name": "tokenId",
					"type": "bytes32"
				}
			],
			"name": "LSP8TokenIdAlreadyMinted",
			"type": "error"
		},
		{
			"inputs": [],
			"name": "LSP8TokenIdFormatNotEditable",
			"type": "error"
		},
		{
			"inputs": [],
			"name": "LSP8TokenIdsDataEmptyArray",
			"type": "error"
		},
		{
			"inputs": [],
			"name": "LSP8TokenIdsDataLengthMismatch",
			"type": "error"
		},
		{
			"inputs": [],
			"name": "LSP8TokenOwnerCannotBeOperator",
			"type": "error"
		},
		{
			"inputs": [
				{
					"internalType": "bytes32",
					"name": "tokenId",
					"type": "bytes32"
				},
				{
					"internalType": "address",
					"name": "oldOwner",
					"type": "address"
				},
				{
					"internalType": "address",
					"name": "newOwner",
					"type": "address"
				}
			],
			"name": "LSP8TokenOwnerChanged",
			"type": "error"
		},
		{
			"inputs": [
				{
					"internalType": "bytes4",
					"name": "functionSelector",
					"type": "bytes4"
				}
			],
			"name": "NoExtensionFoundForFunctionSelector",
			"type": "error"
		},
		{
			"inputs": [
				{
					"internalType": "address",
					"name": "callerAddress",
					"type": "address"
				}
			],
			"name": "OwnableCallerNotTheOwner",
			"type": "error"
		},
		{
			"inputs": [],
			"name": "OwnableCannotSetZeroAddressAsOwner",
			"type": "error"
		},
		{
			"anonymous": false,
			"inputs": [
				{
					"indexed": true,
					"internalType": "bytes32",
					"name": "dataKey",
					"type": "bytes32"
				},
				{
					"indexed": false,
					"internalType": "bytes",
					"name": "dataValue",
					"type": "bytes"
				}
			],
			"name": "DataChanged",
			"type": "event"
		},
		{
			"anonymous": false,
			"inputs": [
				{
					"indexed": true,
					"internalType": "address",
					"name": "liker",
					"type": "address"
				},
				{
					"indexed": true,
					"internalType": "bytes32",
					"name": "tokenId",
					"type": "bytes32"
				}
			],
			"name": "Like",
			"type": "event"
		},
		{
			"anonymous": false,
			"inputs": [
				{
					"indexed": true,
					"internalType": "address",
					"name": "minter",
					"type": "address"
				},
				{
					"indexed": true,
					"internalType": "address",
					"name": "lsp7SubCollectionAddress",
					"type": "address"
				},
				{
					"indexed": false,
					"internalType": "uint256",
					"name": "timestamp",
					"type": "uint256"
				}
			],
			"name": "Mint",
			"type": "event"
		},
		{
			"anonymous": false,
			"inputs": [
				{
					"indexed": true,
					"internalType": "address",
					"name": "operator",
					"type": "address"
				},
				{
					"indexed": true,
					"internalType": "address",
					"name": "tokenOwner",
					"type": "address"
				},
				{
					"indexed": true,
					"internalType": "bytes32",
					"name": "tokenId",
					"type": "bytes32"
				},
				{
					"indexed": false,
					"internalType": "bytes",
					"name": "operatorNotificationData",
					"type": "bytes"
				}
			],
			"name": "OperatorAuthorizationChanged",
			"type": "event"
		},
		{
			"anonymous": false,
			"inputs": [
				{
					"indexed": true,
					"internalType": "address",
					"name": "operator",
					"type": "address"
				},
				{
					"indexed": true,
					"internalType": "address",
					"name": "tokenOwner",
					"type": "address"
				},
				{
					"indexed": true,
					"internalType": "bytes32",
					"name": "tokenId",
					"type": "bytes32"
				},
				{
					"indexed": false,
					"internalType": "bool",
					"name": "notified",
					"type": "bool"
				},
				{
					"indexed": false,
					"internalType": "bytes",
					"name": "operatorNotificationData",
					"type": "bytes"
				}
			],
			"name": "OperatorRevoked",
			"type": "event"
		},
		{
			"anonymous": false,
			"inputs": [
				{
					"indexed": true,
					"internalType": "address",
					"name": "previousOwner",
					"type": "address"
				},
				{
					"indexed": true,
					"internalType": "address",
					"name": "newOwner",
					"type": "address"
				}
			],
			"name": "OwnershipTransferred",
			"type": "event"
		},
		{
			"anonymous": false,
			"inputs": [
				{
					"indexed": true,
					"internalType": "bytes32",
					"name": "tokenId",
					"type": "bytes32"
				},
				{
					"indexed": true,
					"internalType": "bytes32",
					"name": "dataKey",
					"type": "bytes32"
				},
				{
					"indexed": false,
					"internalType": "bytes",
					"name": "dataValue",
					"type": "bytes"
				}
			],
			"name": "TokenIdDataChanged",
			"type": "event"
		},
		{
			"anonymous": false,
			"inputs": [
				{
					"indexed": false,
					"internalType": "address",
					"name": "operator",
					"type": "address"
				},
				{
					"indexed": true,
					"internalType": "address",
					"name": "from",
					"type": "address"
				},
				{
					"indexed": true,
					"internalType": "address",
					"name": "to",
					"type": "address"
				},
				{
					"indexed": true,
					"internalType": "bytes32",
					"name": "tokenId",
					"type": "bytes32"
				},
				{
					"indexed": false,
					"internalType": "bool",
					"name": "force",
					"type": "bool"
				},
				{
					"indexed": false,
					"internalType": "bytes",
					"name": "data",
					"type": "bytes"
				}
			],
			"name": "Transfer",
			"type": "event"
		},
		{
			"anonymous": false,
			"inputs": [
				{
					"indexed": true,
					"internalType": "address",
					"name": "from",
					"type": "address"
				},
				{
					"indexed": true,
					"internalType": "address",
					"name": "to",
					"type": "address"
				},
				{
					"indexed": true,
					"internalType": "bytes32",
					"name": "tokenId",
					"type": "bytes32"
				},
				{
					"indexed": false,
					"internalType": "uint256",
					"name": "amount",
					"type": "uint256"
				},
				{
					"indexed": false,
					"internalType": "bytes",
					"name": "data",
					"type": "bytes"
				}
			],
			"name": "Transfer",
			"type": "event"
		},
		{
			"stateMutability": "payable",
			"type": "fallback"
		},
		{
			"inputs": [
				{
					"internalType": "address",
					"name": "operator",
					"type": "address"
				},
				{
					"internalType": "bytes32",
					"name": "tokenId",
					"type": "bytes32"
				},
				{
					"internalType": "bytes",
					"name": "operatorNotificationData",
					"type": "bytes"
				}
			],
			"name": "authorizeOperator",
			"outputs": [],
			"stateMutability": "nonpayable",
			"type": "function"
		},
		{
			"inputs": [
				{
					"internalType": "address",
					"name": "tokenOwner",
					"type": "address"
				}
			],
			"name": "balanceOf",
			"outputs": [
				{
					"internalType": "uint256",
					"name": "",
					"type": "uint256"
				}
			],
			"stateMutability": "view",
			"type": "function"
		},
		{
			"inputs": [
				{
					"internalType": "bytes[]",
					"name": "data",
					"type": "bytes[]"
				}
			],
			"name": "batchCalls",
			"outputs": [
				{
					"internalType": "bytes[]",
					"name": "results",
					"type": "bytes[]"
				}
			],
			"stateMutability": "nonpayable",
			"type": "function"
		},
		{
			"inputs": [
				{
					"internalType": "address",
					"name": "",
					"type": "address"
				}
			],
			"name": "encryptedEncryptionKeys",
			"outputs": [
				{
					"internalType": "bytes",
					"name": "",
					"type": "bytes"
				}
			],
			"stateMutability": "view",
			"type": "function"
		},
		{
			"inputs": [
				{
					"internalType": "bytes32",
					"name": "tokenId",
					"type": "bytes32"
				}
			],
			"name": "getAuthorizedAmount",
			"outputs": [
				{
					"internalType": "uint256",
					"name": "",
					"type": "uint256"
				}
			],
			"stateMutability": "view",
			"type": "function"
		},
		{
			"inputs": [
				{
					"internalType": "bytes32",
					"name": "dataKey",
					"type": "bytes32"
				}
			],
			"name": "getData",
			"outputs": [
				{
					"internalType": "bytes",
					"name": "dataValue",
					"type": "bytes"
				}
			],
			"stateMutability": "view",
			"type": "function"
		},
		{
			"inputs": [
				{
					"internalType": "bytes32[]",
					"name": "dataKeys",
					"type": "bytes32[]"
				}
			],
			"name": "getDataBatch",
			"outputs": [
				{
					"internalType": "bytes[]",
					"name": "dataValues",
					"type": "bytes[]"
				}
			],
			"stateMutability": "view",
			"type": "function"
		},
		{
			"inputs": [
				{
					"internalType": "bytes32[]",
					"name": "tokenIds",
					"type": "bytes32[]"
				},
				{
					"internalType": "bytes32[]",
					"name": "dataKeys",
					"type": "bytes32[]"
				}
			],
			"name": "getDataBatchForTokenIds",
			"outputs": [
				{
					"internalType": "bytes[]",
					"name": "dataValues",
					"type": "bytes[]"
				}
			],
			"stateMutability": "view",
			"type": "function"
		},
		{
			"inputs": [
				{
					"internalType": "bytes32",
					"name": "tokenId",
					"type": "bytes32"
				},
				{
					"internalType": "bytes32",
					"name": "dataKey",
					"type": "bytes32"
				}
			],
			"name": "getDataForTokenId",
			"outputs": [
				{
					"internalType": "bytes",
					"name": "dataValue",
					"type": "bytes"
				}
			],
			"stateMutability": "view",
			"type": "function"
		},
		{
			"inputs": [
				{
					"internalType": "address",
					"name": "lsp7contractaddress",
					"type": "address"
				}
			],
			"name": "getEncryptedKey",
			"outputs": [
				{
					"internalType": "bytes",
					"name": "",
					"type": "bytes"
				}
			],
			"stateMutability": "view",
			"type": "function"
		},
		{
			"inputs": [
				{
					"internalType": "bytes32",
					"name": "tokenId",
					"type": "bytes32"
				}
			],
			"name": "getLikes",
			"outputs": [
				{
					"internalType": "address[]",
					"name": "",
					"type": "address[]"
				}
			],
			"stateMutability": "view",
			"type": "function"
		},
		{
			"inputs": [
				{
					"internalType": "address",
					"name": "lsp7CollectionAddress",
					"type": "address"
				}
			],
			"name": "getMintingDate",
			"outputs": [
				{
					"internalType": "uint256",
					"name": "",
					"type": "uint256"
				}
			],
			"stateMutability": "view",
			"type": "function"
		},
		{
			"inputs": [
				{
					"internalType": "bytes32",
					"name": "tokenId",
					"type": "bytes32"
				}
			],
			"name": "getOperatorsOf",
			"outputs": [
				{
					"internalType": "address[]",
					"name": "",
					"type": "address[]"
				}
			],
			"stateMutability": "view",
			"type": "function"
		},
		{
			"inputs": [
				{
					"internalType": "bytes32",
					"name": "",
					"type": "bytes32"
				},
				{
					"internalType": "address",
					"name": "",
					"type": "address"
				}
			],
			"name": "hasLiked",
			"outputs": [
				{
					"internalType": "bool",
					"name": "",
					"type": "bool"
				}
			],
			"stateMutability": "view",
			"type": "function"
		},
		{
			"inputs": [
				{
					"internalType": "address",
					"name": "operator",
					"type": "address"
				},
				{
					"internalType": "bytes32",
					"name": "tokenId",
					"type": "bytes32"
				}
			],
			"name": "isOperatorFor",
			"outputs": [
				{
					"internalType": "bool",
					"name": "",
					"type": "bool"
				}
			],
			"stateMutability": "view",
			"type": "function"
		},
		{
			"inputs": [
				{
					"internalType": "address",
					"name": "",
					"type": "address"
				}
			],
			"name": "lastClaimed",
			"outputs": [
				{
					"internalType": "uint256",
					"name": "",
					"type": "uint256"
				}
			],
			"stateMutability": "view",
			"type": "function"
		},
		{
			"inputs": [
				{
					"internalType": "bytes32",
					"name": "tokenId",
					"type": "bytes32"
				}
			],
			"name": "like",
			"outputs": [],
			"stateMutability": "nonpayable",
			"type": "function"
		},
		{
			"inputs": [],
			"name": "lsp7TokenType",
			"outputs": [
				{
					"internalType": "uint256",
					"name": "",
					"type": "uint256"
				}
			],
			"stateMutability": "view",
			"type": "function"
		},
		{
			"inputs": [
				{
					"internalType": "string",
					"name": "nameOfLSP7_",
					"type": "string"
				},
				{
					"internalType": "string",
					"name": "symbolOfLSP7_",
					"type": "string"
				},
				{
					"internalType": "bool",
					"name": "isNonDivisible_",
					"type": "bool"
				},
				{
					"internalType": "uint256",
					"name": "totalSupplyOfLSP7_",
					"type": "uint256"
				},
				{
					"internalType": "address",
					"name": "receiverOfInitialTokens_",
					"type": "address"
				},
				{
					"internalType": "bytes",
					"name": "lsp4MetadataURIOfLSP7_",
					"type": "bytes"
				},
				{
					"internalType": "bytes",
					"name": "encryptedEncryptionKey_",
					"type": "bytes"
				}
			],
			"name": "mint",
			"outputs": [
				{
					"internalType": "address",
					"name": "lsp7SubCollectionAddress",
					"type": "address"
				}
			],
			"stateMutability": "nonpayable",
			"type": "function"
		},
		{
			"inputs": [
				{
					"internalType": "address",
					"name": "",
					"type": "address"
				}
			],
			"name": "mintingDates",
			"outputs": [
				{
					"internalType": "uint256",
					"name": "",
					"type": "uint256"
				}
			],
			"stateMutability": "view",
			"type": "function"
		},
		{
			"inputs": [],
			"name": "owner",
			"outputs": [
				{
					"internalType": "address",
					"name": "",
					"type": "address"
				}
			],
			"stateMutability": "view",
			"type": "function"
		},
		{
			"inputs": [],
			"name": "renounceOwnership",
			"outputs": [],
			"stateMutability": "nonpayable",
			"type": "function"
		},
		{
			"inputs": [
				{
					"internalType": "address",
					"name": "operator",
					"type": "address"
				},
				{
					"internalType": "bytes32",
					"name": "tokenId",
					"type": "bytes32"
				},
				{
					"internalType": "bool",
					"name": "notify",
					"type": "bool"
				},
				{
					"internalType": "bytes",
					"name": "operatorNotificationData",
					"type": "bytes"
				}
			],
			"name": "revokeOperator",
			"outputs": [],
			"stateMutability": "nonpayable",
			"type": "function"
		},
		{
			"inputs": [],
			"name": "rewardAmount",
			"outputs": [
				{
					"internalType": "uint256",
					"name": "",
					"type": "uint256"
				}
			],
			"stateMutability": "view",
			"type": "function"
		},
		{
			"inputs": [
				{
					"internalType": "bytes32",
					"name": "dataKey",
					"type": "bytes32"
				},
				{
					"internalType": "bytes",
					"name": "dataValue",
					"type": "bytes"
				}
			],
			"name": "setData",
			"outputs": [],
			"stateMutability": "payable",
			"type": "function"
		},
		{
			"inputs": [
				{
					"internalType": "bytes32[]",
					"name": "dataKeys",
					"type": "bytes32[]"
				},
				{
					"internalType": "bytes[]",
					"name": "dataValues",
					"type": "bytes[]"
				}
			],
			"name": "setDataBatch",
			"outputs": [],
			"stateMutability": "payable",
			"type": "function"
		},
		{
			"inputs": [
				{
					"internalType": "bytes32[]",
					"name": "tokenIds",
					"type": "bytes32[]"
				},
				{
					"internalType": "bytes32[]",
					"name": "dataKeys",
					"type": "bytes32[]"
				},
				{
					"internalType": "bytes[]",
					"name": "dataValues",
					"type": "bytes[]"
				}
			],
			"name": "setDataBatchForTokenIds",
			"outputs": [],
			"stateMutability": "nonpayable",
			"type": "function"
		},
		{
			"inputs": [
				{
					"internalType": "bytes32",
					"name": "tokenId",
					"type": "bytes32"
				},
				{
					"internalType": "bytes32",
					"name": "dataKey",
					"type": "bytes32"
				},
				{
					"internalType": "bytes",
					"name": "dataValue",
					"type": "bytes"
				}
			],
			"name": "setDataForTokenId",
			"outputs": [],
			"stateMutability": "nonpayable",
			"type": "function"
		},
		{
			"inputs": [
				{
					"internalType": "uint256",
					"name": "_rewardAmount",
					"type": "uint256"
				}
			],
			"name": "setRewardAmount",
			"outputs": [],
			"stateMutability": "nonpayable",
			"type": "function"
		},
		{
			"inputs": [
				{
					"internalType": "address",
					"name": "lsp7contractaddress",
					"type": "address"
				},
				{
					"internalType": "bytes",
					"name": "encryptedEncryptionKey",
					"type": "bytes"
				}
			],
			"name": "storeEncryptedKey",
			"outputs": [],
			"stateMutability": "nonpayable",
			"type": "function"
		},
		{
			"inputs": [
				{
					"internalType": "bytes4",
					"name": "interfaceId",
					"type": "bytes4"
				}
			],
			"name": "supportsInterface",
			"outputs": [
				{
					"internalType": "bool",
					"name": "",
					"type": "bool"
				}
			],
			"stateMutability": "view",
			"type": "function"
		},
		{
			"inputs": [
				{
					"internalType": "address",
					"name": "tokenOwner",
					"type": "address"
				}
			],
			"name": "tokenIdsOf",
			"outputs": [
				{
					"internalType": "bytes32[]",
					"name": "",
					"type": "bytes32[]"
				}
			],
			"stateMutability": "view",
			"type": "function"
		},
		{
			"inputs": [
				{
					"internalType": "bytes32",
					"name": "",
					"type": "bytes32"
				},
				{
					"internalType": "uint256",
					"name": "",
					"type": "uint256"
				}
			],
			"name": "tokenLikes",
			"outputs": [
				{
					"internalType": "address",
					"name": "",
					"type": "address"
				}
			],
			"stateMutability": "view",
			"type": "function"
		},
		{
			"inputs": [
				{
					"internalType": "bytes32",
					"name": "tokenId",
					"type": "bytes32"
				}
			],
			"name": "tokenOwnerOf",
			"outputs": [
				{
					"internalType": "address",
					"name": "",
					"type": "address"
				}
			],
			"stateMutability": "view",
			"type": "function"
		},
		{
			"inputs": [],
			"name": "totalSupply",
			"outputs": [
				{
					"internalType": "uint256",
					"name": "",
					"type": "uint256"
				}
			],
			"stateMutability": "view",
			"type": "function"
		},
		{
			"inputs": [
				{
					"internalType": "address",
					"name": "from",
					"type": "address"
				},
				{
					"internalType": "address",
					"name": "to",
					"type": "address"
				},
				{
					"internalType": "bytes32",
					"name": "tokenId",
					"type": "bytes32"
				},
				{
					"internalType": "bool",
					"name": "force",
					"type": "bool"
				},
				{
					"internalType": "bytes",
					"name": "data",
					"type": "bytes"
				}
			],
			"name": "transfer",
			"outputs": [],
			"stateMutability": "nonpayable",
			"type": "function"
		},
		{
			"inputs": [
				{
					"internalType": "address[]",
					"name": "from",
					"type": "address[]"
				},
				{
					"internalType": "address[]",
					"name": "to",
					"type": "address[]"
				},
				{
					"internalType": "bytes32[]",
					"name": "tokenId",
					"type": "bytes32[]"
				},
				{
					"internalType": "bool[]",
					"name": "force",
					"type": "bool[]"
				},
				{
					"internalType": "bytes[]",
					"name": "data",
					"type": "bytes[]"
				}
			],
			"name": "transferBatch",
			"outputs": [],
			"stateMutability": "nonpayable",
			"type": "function"
		},
		{
			"inputs": [
				{
					"internalType": "bytes32",
					"name": "tokenId",
					"type": "bytes32"
				},
				{
					"internalType": "address",
					"name": "to",
					"type": "address"
				},
				{
					"internalType": "uint256",
					"name": "amount",
					"type": "uint256"
				},
				{
					"internalType": "bytes",
					"name": "data",
					"type": "bytes"
				}
			],
			"name": "transferNFT",
			"outputs": [],
			"stateMutability": "nonpayable",
			"type": "function"
		},
		{
			"inputs": [
				{
					"internalType": "address",
					"name": "newOwner",
					"type": "address"
				}
			],
			"name": "transferOwnership",
			"outputs": [],
			"stateMutability": "nonpayable",
			"type": "function"
		},
		{
			"stateMutability": "payable",
			"type": "receive"
		}
	]
}