{
	"data": {
		"bytecode": {
			"linkReferences": {},
			"object": "608060405234801561000f575f80fd5b5060405161535a38038061535a83398181016040528101906100319190610c9d565b878787868684848484815f73ffffffffffffffffffffffffffffffffffffffff168173ffffffffffffffffffffffffffffffffffffffff16036100a0576040517f1ad8836c00000000000000000000000000000000000000000000000000000000815260040160405180910390fd5b6100af816102b960201b60201c565b506101177feafec4d89fa9619884b60000a4d96624a38f7ac2d8d9a604ecf07c12c77e480c5f1b6040518060400160405280600481526020017fa4d96624000000000000000000000000000000000000000000000000000000008152506103b560201b60201c565b6101497fdeba1e292f8ba88238e10ab3c7f88bd4be4fac56cad5194b6ecceaf653468af15f1b856103b560201b60201c565b61017b7f2f0a68ab07768e01943a599e73362a0e17a63a72e94dd2e384d2c1d4db9327565f1b846103b560201b60201c565b6101cc7fe0261fa95db2eb3b5439bd033cda66d56b96f92f243a8228fd87550ed7bdfdb35f1b826040516020016101b29190610db1565b6040516020818303038152906040526103b560201b60201c565b505050508060025f6101000a81548160ff02191690831515021790555050505050506102597f708e7b881795f2e6b6c2752108c177ec89248458de3bf69d0d43480b3e5034e65f1b333073ffffffffffffffffffffffffffffffffffffffff165f1b60405160200161023f929190610e38565b60405160208183030381529060405261041060201b60201c565b61028b7f9afb95cacc9f95858ec44aa8c3b685511002e30ae54415823f406128b85b238e5f1b8261042460201b60201c565b6102ac8583600160405180602001604052805f81525061049c60201b60201c565b5050505050505050611418565b6102c761065360201b60201c565b73ffffffffffffffffffffffffffffffffffffffff168173ffffffffffffffffffffffffffffffffffffffff16146103b2578073ffffffffffffffffffffffffffffffffffffffff165f8054906101000a900473ffffffffffffffffffffffffffffffffffffffff1673ffffffffffffffffffffffffffffffffffffffff167f8be0079c531659141344cd1fd0a4f28419497f9722a3daafe3b4186f6b6457e060405160405180910390a3805f806101000a81548173ffffffffffffffffffffffffffffffffffffffff021916908373ffffffffffffffffffffffffffffffffffffffff1602179055505b50565b8060015f8481526020019081526020015f2090816103d39190611067565b50817fece574603820d07bc9b91f2a932baadf4628aabcb8afba49776529c14a6104b282604051610404919061117e565b60405180910390a25050565b610420828261067a60201b60201c565b5050565b7f708e7b881795f2e6b6c2752108c177ec89248458de3bf69d0d43480b3e5034e65f1b8203610488576040517f08c379a000000000000000000000000000000000000000000000000000000000815260040161047f906111f8565b60405180910390fd5b610498828261041060201b60201c565b5050565b5f73ffffffffffffffffffffffffffffffffffffffff168473ffffffffffffffffffffffffffffffffffffffff1603610501576040517fd2d5ec3000000000000000000000000000000000000000000000000000000000815260040160405180910390fd5b6105135f8585846107e660201b60201c565b8260035f8282546105249190611243565b925050819055508260045f8673ffffffffffffffffffffffffffffffffffffffff1673ffffffffffffffffffffffffffffffffffffffff1681526020019081526020015f205f8282546105779190611243565b925050819055508373ffffffffffffffffffffffffffffffffffffffff165f73ffffffffffffffffffffffffffffffffffffffff163373ffffffffffffffffffffffffffffffffffffffff167f3997e418d2cef0b3b0e907b1e39605c3f7d32dbd061e82ea5b4a770d46a160a68686866040516105f693929190611285565b60405180910390a46106105f8585846107ec60201b60201c565b5f335f86868560405160200161062a9594939291906112d0565b604051602081830303815290604052905061064c8584836107f260201b60201c565b5050505050565b5f805f9054906101000a900473ffffffffffffffffffffffffffffffffffffffff16905090565b7fdeba1e292f8ba88238e10ab3c7f88bd4be4fac56cad5194b6ecceaf653468af15f1b82036106d5576040517f85c169bd00000000000000000000000000000000000000000000000000000000815260040160405180910390fd5b7f2f0a68ab07768e01943a599e73362a0e17a63a72e94dd2e384d2c1d4db9327565f1b8203610730576040517f76755b3800000000000000000000000000000000000000000000000000000000815260040160405180910390fd5b7fe0261fa95db2eb3b5439bd033cda66d56b96f92f243a8228fd87550ed7bdfdb35f1b820361078b576040517f4ef6d7fb00000000000000000000000000000000000000000000000000000000815260040160405180910390fd5b8060015f8481526020019081526020015f2090816107a99190611067565b50817fece574603820d07bc9b91f2a932baadf4628aabcb8afba49776529c14a6104b2826040516107da919061117e565b60405180910390a25050565b50505050565b50505050565b61080983636bb56a1460e01b61095760201b60201c565b156108b4578273ffffffffffffffffffffffffffffffffffffffff16636bb56a147f20804611b3e2ea21c480dc465142210acf4a2485947541770ec1fb87dee4a55c5f1b836040518363ffffffff1660e01b815260040161086b929190611337565b5f604051808303815f875af1158015610886573d5f803e3d5ffd5b505050506040513d5f823e3d601f19601f820116820180604052508101906108ae9190611365565b50610952565b81610951575f8373ffffffffffffffffffffffffffffffffffffffff163b1461091457826040517fa608fbb600000000000000000000000000000000000000000000000000000000815260040161090b91906113ac565b60405180910390fd5b826040517f26c247f400000000000000000000000000000000000000000000000000000000815260040161094891906113ac565b60405180910390fd5b5b505050565b5f808260405160240161096a91906113ff565b6040516020818303038152906040526301ffc9a760e01b6020820180517bffffffffffffffffffffffffffffffffffffffffffffffffffffffff838183161783525050505090505f805f60205f8551602087018a617530fa92503d91505f5190508280156109d9575060208210155b80156109e457505f81115b94505050505092915050565b5f604051905090565b5f80fd5b5f80fd5b5f80fd5b5f80fd5b5f601f19601f8301169050919050565b7f4e487b71000000000000000000000000000000000000000000000000000000005f52604160045260245ffd5b610a4f82610a09565b810181811067ffffffffffffffff82111715610a6e57610a6d610a19565b5b80604052505050565b5f610a806109f0565b9050610a8c8282610a46565b919050565b5f67ffffffffffffffff821115610aab57610aaa610a19565b5b610ab482610a09565b9050602081019050919050565b8281835e5f83830152505050565b5f610ae1610adc84610a91565b610a77565b905082815260208101848484011115610afd57610afc610a05565b5b610b08848285610ac1565b509392505050565b5f82601f830112610b2457610b23610a01565b5b8151610b34848260208601610acf565b91505092915050565b5f73ffffffffffffffffffffffffffffffffffffffff82169050919050565b5f610b6682610b3d565b9050919050565b610b7681610b5c565b8114610b80575f80fd5b50565b5f81519050610b9181610b6d565b92915050565b5f819050919050565b610ba981610b97565b8114610bb3575f80fd5b50565b5f81519050610bc481610ba0565b92915050565b5f8115159050919050565b610bde81610bca565b8114610be8575f80fd5b50565b5f81519050610bf981610bd5565b92915050565b5f67ffffffffffffffff821115610c1957610c18610a19565b5b610c2282610a09565b9050602081019050919050565b5f610c41610c3c84610bff565b610a77565b905082815260208101848484011115610c5d57610c5c610a05565b5b610c68848285610ac1565b509392505050565b5f82601f830112610c8457610c83610a01565b5b8151610c94848260208601610c2f565b91505092915050565b5f805f805f805f80610100898b031215610cba57610cb96109f9565b5b5f89015167ffffffffffffffff811115610cd757610cd66109fd565b5b610ce38b828c01610b10565b985050602089015167ffffffffffffffff811115610d0457610d036109fd565b5b610d108b828c01610b10565b9750506040610d218b828c01610b83565b9650506060610d328b828c01610b83565b9550506080610d438b828c01610bb6565b94505060a0610d548b828c01610beb565b93505060c0610d658b828c01610bb6565b92505060e089015167ffffffffffffffff811115610d8657610d856109fd565b5b610d928b828c01610c70565b9150509295985092959890939650565b610dab81610b97565b82525050565b5f602082019050610dc45f830184610da2565b92915050565b5f8160601b9050919050565b5f610de082610dca565b9050919050565b5f610df182610dd6565b9050919050565b610e09610e0482610b5c565b610de7565b82525050565b5f819050919050565b5f819050919050565b610e32610e2d82610e0f565b610e18565b82525050565b5f610e438285610df8565b601482019150610e538284610e21565b6020820191508190509392505050565b5f81519050919050565b7f4e487b71000000000000000000000000000000000000000000000000000000005f52602260045260245ffd5b5f6002820490506001821680610eb157607f821691505b602082108103610ec457610ec3610e6d565b5b50919050565b5f819050815f5260205f209050919050565b5f6020601f8301049050919050565b5f82821b905092915050565b5f60088302610f267fffffffffffffffffffffffffffffffffffffffffffffffffffffffffffffffff82610eeb565b610f308683610eeb565b95508019841693508086168417925050509392505050565b5f819050919050565b5f610f6b610f66610f6184610b97565b610f48565b610b97565b9050919050565b5f819050919050565b610f8483610f51565b610f98610f9082610f72565b848454610ef7565b825550505050565b5f90565b610fac610fa0565b610fb7818484610f7b565b505050565b5b81811015610fda57610fcf5f82610fa4565b600181019050610fbd565b5050565b601f82111561101f57610ff081610eca565b610ff984610edc565b81016020851015611008578190505b61101c61101485610edc565b830182610fbc565b50505b505050565b5f82821c905092915050565b5f61103f5f1984600802611024565b1980831691505092915050565b5f6110578383611030565b9150826002028217905092915050565b61107082610e63565b67ffffffffffffffff81111561108957611088610a19565b5b6110938254610e9a565b61109e828285610fde565b5f60209050601f8311600181146110cf575f84156110bd578287015190505b6110c7858261104c565b86555061112e565b601f1984166110dd86610eca565b5f5b82811015611104578489015182556001820191506020850194506020810190506110df565b86831015611121578489015161111d601f891682611030565b8355505b6001600288020188555050505b505050505050565b5f82825260208201905092915050565b5f61115082610e63565b61115a8185611136565b935061116a818560208601610ac1565b61117381610a09565b840191505092915050565b5f6020820190508181035f8301526111968184611146565b905092915050565b5f82825260208201905092915050565b7f4c5350385265666572656e6365436f6e74726163744e6f744564697461626c655f82015250565b5f6111e260208361119e565b91506111ed826111ae565b602082019050919050565b5f6020820190508181035f83015261120f816111d6565b9050919050565b7f4e487b71000000000000000000000000000000000000000000000000000000005f52601160045260245ffd5b5f61124d82610b97565b915061125883610b97565b92508282019050808211156112705761126f611216565b5b92915050565b61127f81610bca565b82525050565b5f6060820190506112985f830186610da2565b6112a56020830185611276565b81810360408301526112b78184611146565b9050949350505050565b6112ca81610b5c565b82525050565b5f60a0820190506112e35f8301886112c1565b6112f060208301876112c1565b6112fd60408301866112c1565b61130a6060830185610da2565b818103608083015261131c8184611146565b90509695505050505050565b61133181610e0f565b82525050565b5f60408201905061134a5f830185611328565b818103602083015261135c8184611146565b90509392505050565b5f6020828403121561137a576113796109f9565b5b5f82015167ffffffffffffffff811115611397576113966109fd565b5b6113a384828501610c70565b91505092915050565b5f6020820190506113bf5f8301846112c1565b92915050565b5f7fffffffff0000000000000000000000000000000000000000000000000000000082169050919050565b6113f9816113c5565b82525050565b5f6020820190506114125f8301846113f0565b92915050565b613f35806114255f395ff3fe608060405260043610610122575f3560e01c8063715018a61161009f578063979024211161006357806397902421146104a5578063b49506fd146104c1578063d72fc29a146104e9578063dedff9c614610525578063f2fde38b146105615761019b565b8063715018a6146103f9578063760d9bba1461040f57806378381670146104375780637f23690c1461045f5780638da5cb5b1461047b5761019b565b8063313ce567116100e6578063313ce567146102df57806354f6127f1461030957806365aeaa95146103455780636963d4381461038157806370a08231146103bd5761019b565b806301ffc9a71461020157806318160ddd1461023d5780632bc1da82146102675780632d7667c91461028f57806330d0dc37146102b75761019b565b3661019b575f3403610169576040517fe5099ee300000000000000000000000000000000000000000000000000000000815260040161016090612495565b60405180910390fd5b6040517f388f5adc00000000000000000000000000000000000000000000000000000000815260040160405180910390fd5b5f36606060045f36905010156101ea5782826040517fe5099ee30000000000000000000000000000000000000000000000000000000081526004016101e19291906124fd565b60405180910390fd5b6101f48383610589565b9050915050805190602001f35b34801561020c575f80fd5b5061022760048036038101906102229190612585565b6106ff565b60405161023491906125ca565b60405180910390f35b348015610248575f80fd5b5061025161076f565b60405161025e91906125fb565b60405180910390f35b348015610272575f80fd5b5061028d600480360381019061028891906127b6565b610778565b005b34801561029a575f80fd5b506102b560048036038101906102b09190612b6e565b61081f565b005b3480156102c2575f80fd5b506102dd60048036038101906102d89190612c71565b610931565b005b3480156102ea575f80fd5b506102f3610a2b565b6040516103009190612d0c565b60405180910390f35b348015610314575f80fd5b5061032f600480360381019061032a9190612d58565b610a4d565b60405161033c9190612dd3565b60405180910390f35b348015610350575f80fd5b5061036b60048036038101906103669190612df3565b610a5f565b60405161037891906125fb565b60405180910390f35b34801561038c575f80fd5b506103a760048036038101906103a29190612e8a565b610b5a565b6040516103b49190612fd8565b60405180910390f35b3480156103c8575f80fd5b506103e360048036038101906103de9190612ff8565b610cd0565b6040516103f091906125fb565b60405180910390f35b348015610404575f80fd5b5061040d610d16565b005b34801561041a575f80fd5b5061043560048036038101906104309190613023565b610d29565b005b348015610442575f80fd5b5061045d600480360381019061045891906130b6565b610d7c565b005b61047960048036038101906104749190613136565b610ebf565b005b348015610486575f80fd5b5061048f610f0e565b60405161049c919061319f565b60405180910390f35b6104bf60048036038101906104ba9190613278565b610f35565b005b3480156104cc575f80fd5b506104e760048036038101906104e291906127b6565b611044565b005b3480156104f4575f80fd5b5061050f600480360381019061050a9190612ff8565b611089565b60405161051c91906133a5565b60405180910390f35b348015610530575f80fd5b5061054b600480360381019061054691906133c5565b6110d7565b6040516105589190612fd8565b60405180910390f35b34801561056c575f80fd5b5061058760048036038101906105829190612ff8565b611187565b005b60605f6105b85f357fffffffff0000000000000000000000000000000000000000000000000000000016611200565b5090505f73ffffffffffffffffffffffffffffffffffffffff168173ffffffffffffffffffffffffffffffffffffffff160361064e575f357fffffffff00000000000000000000000000000000000000000000000000000000166040517fbb370b2b000000000000000000000000000000000000000000000000000000008152600401610645919061341b565b60405180910390fd5b5f808273ffffffffffffffffffffffffffffffffffffffff16348787333460405160200161067f94939291906134c7565b60405160208183030381529060405260405161069b9190613531565b5f6040518083038185875af1925050503d805f81146106d5576040519150601f19603f3d011682016040523d82523d5f602084013e6106da565b606091505b509150915081156106f0578093505050506106f9565b80518060208301fd5b92915050565b5f63c52d600860e01b7bffffffffffffffffffffffffffffffffffffffffffffffffffffffff1916827bffffffffffffffffffffffffffffffffffffffffffffffffffffffff191614806107585750610757826112b6565b5b80610768575061076782611316565b5b9050919050565b5f600354905090565b5f6107838433610a5f565b90505f81036107c957836040517fcba6e9770000000000000000000000000000000000000000000000000000000081526004016107c0919061319f565b60405180910390fd5b5f83826107d69190613574565b90506107e633868360018761137a565b5f3382856040516020016107fc939291906135a7565b60405160208183030381529060405290506108178682611643565b505050505050565b5f85519050845181141580610835575083518114155b80610841575082518114155b8061084d575081518114155b15610884576040517f263eee8d00000000000000000000000000000000000000000000000000000000815260040160405180910390fd5b5f5b818110156109285761091d8782815181106108a4576108a36135e3565b5b60200260200101518783815181106108bf576108be6135e3565b5b60200260200101518784815181106108da576108d96135e3565b5b60200260200101518785815181106108f5576108f46135e3565b5b60200260200101518786815181106109105761090f6135e3565b5b6020026020010151610d29565b806001019050610886565b50505050505050565b8273ffffffffffffffffffffffffffffffffffffffff163373ffffffffffffffffffffffffffffffffffffffff161415801561099957508373ffffffffffffffffffffffffffffffffffffffff163373ffffffffffffffffffffffffffffffffffffffff1614155b156109df573383856040517f1a525b320000000000000000000000000000000000000000000000000000000081526004016109d693929190613610565b60405180910390fd5b6109ec83855f858561137a565b8115610a25575f835f83604051602001610a0893929190613687565b6040516020818303038152906040529050610a238582611643565b505b50505050565b5f60025f9054906101000a900460ff16610a46576012610a48565b5f5b905090565b6060610a5882611674565b9050919050565b5f8273ffffffffffffffffffffffffffffffffffffffff168273ffffffffffffffffffffffffffffffffffffffff1603610ad85760045f8373ffffffffffffffffffffffffffffffffffffffff1673ffffffffffffffffffffffffffffffffffffffff1681526020019081526020015f20549050610b54565b60065f8373ffffffffffffffffffffffffffffffffffffffff1673ffffffffffffffffffffffffffffffffffffffff1681526020019081526020015f205f8473ffffffffffffffffffffffffffffffffffffffff1673ffffffffffffffffffffffffffffffffffffffff1681526020019081526020015f205490505b92915050565b60608282905067ffffffffffffffff811115610b7957610b786126a0565b5b604051908082528060200260200182016040528015610bac57816020015b6060815260200190600190039081610b975790505b5090505f5b83839050811015610cc9575f803073ffffffffffffffffffffffffffffffffffffffff16868685818110610be857610be76135e3565b5b9050602002810190610bfa91906136cf565b604051610c08929190613731565b5f60405180830381855af49150503d805f8114610c40576040519150601f19603f3d011682016040523d82523d5f602084013e610c45565b606091505b509150915081610c9d575f815114610c605780518082602001fd5b826040517fb774c284000000000000000000000000000000000000000000000000000000008152600401610c9491906125fb565b60405180910390fd5b80848481518110610cb157610cb06135e3565b5b60200260200101819052508260010192505050610bb1565b5092915050565b5f60045f8373ffffffffffffffffffffffffffffffffffffffff1673ffffffffffffffffffffffffffffffffffffffff1681526020019081526020015f20549050919050565b610d1e611715565b610d275f61178e565b565b8473ffffffffffffffffffffffffffffffffffffffff163373ffffffffffffffffffffffffffffffffffffffff1614610d6857610d67338685611884565b5b610d758585858585611977565b5050505050565b8273ffffffffffffffffffffffffffffffffffffffff163373ffffffffffffffffffffffffffffffffffffffff1614158015610de457508373ffffffffffffffffffffffffffffffffffffffff163373ffffffffffffffffffffffffffffffffffffffff1614155b15610e2a573383856040517f98ce2945000000000000000000000000000000000000000000000000000000008152600401610e2193929190613610565b60405180910390fd5b5f610e358585610a5f565b905082811015610e71576040517f0ef76c3500000000000000000000000000000000000000000000000000000000815260040160405180910390fd5b5f8382039050610e8585878360018761137a565b5f858285604051602001610e9b939291906135a7565b6040516020818303038152906040529050610eb68782611643565b50505050505050565b610ec7611715565b5f3414610f00576040517ff36ba73700000000000000000000000000000000000000000000000000000000815260040160405180910390fd5b610f0a8282611c24565b5050565b5f805f9054906101000a900473ffffffffffffffffffffffffffffffffffffffff16905090565b610f3d611715565b5f3414610f76576040517ff36ba73700000000000000000000000000000000000000000000000000000000815260040160405180910390fd5b8051825114610fb1576040517f3bcc897900000000000000000000000000000000000000000000000000000000815260040160405180910390fd5b5f825103610feb576040517f97da5f9500000000000000000000000000000000000000000000000000000000815260040160405180910390fd5b5f5b825181101561103f5761103483828151811061100c5761100b6135e3565b5b6020026020010151838381518110611027576110266135e3565b5b6020026020010151611c24565b806001019050610fed565b505050565b61105233848460018561137a565b5f338383604051602001611068939291906135a7565b60405160208183030381529060405290506110838482611643565b50505050565b60606110d060055f8473ffffffffffffffffffffffffffffffffffffffff1673ffffffffffffffffffffffffffffffffffffffff1681526020019081526020015f20611c96565b9050919050565b6060815167ffffffffffffffff8111156110f4576110f36126a0565b5b60405190808252806020026020018201604052801561112757816020015b60608152602001906001900390816111125790505b5090505f5b82518110156111815761115883828151811061114b5761114a6135e3565b5b6020026020010151611674565b82828151811061116b5761116a6135e3565b5b602002602001018190525080600101905061112c565b50919050565b61118f611715565b5f73ffffffffffffffffffffffffffffffffffffffff168173ffffffffffffffffffffffffffffffffffffffff16036111f4576040517f1ad8836c00000000000000000000000000000000000000000000000000000000815260040160405180910390fd5b6111fd8161178e565b50565b5f805f61123969cee78b4094da8601109660b01b857bffffffffffffffffffffffffffffffffffffffffffffffffffffffff1916611cb5565b90505f61124582611674565b9050601481511415801561125a57505f815114155b1561129c57806040517f42bfe79f0000000000000000000000000000000000000000000000000000000081526004016112939190612dd3565b60405180910390fd5b806112a6906137a3565b60601c6001935093505050915091565b5f63a918fa6b60e01b7bffffffffffffffffffffffffffffffffffffffffffffffffffffffff1916827bffffffffffffffffffffffffffffffffffffffffffffffffffffffff1916148061130f575061130e82611cf3565b5b9050919050565b5f806113286301ffc9a760e01b611200565b5090505f73ffffffffffffffffffffffffffffffffffffffff168173ffffffffffffffffffffffffffffffffffffffff1603611367575f915050611375565b6113718184611dbc565b9150505b919050565b5f73ffffffffffffffffffffffffffffffffffffffff168473ffffffffffffffffffffffffffffffffffffffff16036113df576040517f6355e76600000000000000000000000000000000000000000000000000000000815260040160405180910390fd5b8473ffffffffffffffffffffffffffffffffffffffff168473ffffffffffffffffffffffffffffffffffffffff1603611444576040517fdab7504700000000000000000000000000000000000000000000000000000000815260040160405180910390fd5b8260065f8773ffffffffffffffffffffffffffffffffffffffff1673ffffffffffffffffffffffffffffffffffffffff1681526020019081526020015f205f8673ffffffffffffffffffffffffffffffffffffffff1673ffffffffffffffffffffffffffffffffffffffff1681526020019081526020015f20819055505f8314611583576115178460055f8873ffffffffffffffffffffffffffffffffffffffff1673ffffffffffffffffffffffffffffffffffffffff1681526020019081526020015f20611e5590919063ffffffff16565b50828573ffffffffffffffffffffffffffffffffffffffff168573ffffffffffffffffffffffffffffffffffffffff167ff772a43bfdf4729b196e3fb54a818b91a2ca6c49d10b2e16278752f9f515c25d846040516115769190612dd3565b60405180910390a461163c565b6115d28460055f8873ffffffffffffffffffffffffffffffffffffffff1673ffffffffffffffffffffffffffffffffffffffff1681526020019081526020015f20611e8290919063ffffffff16565b508115158573ffffffffffffffffffffffffffffffffffffffff168573ffffffffffffffffffffffffffffffffffffffff167f0ebf5762d8855cbe012d2ca42fb33a81175e17c8a8751f8859931ba453bd4167846040516116339190612dd3565b60405180910390a45b5050505050565b611670827f386072cc5a58e61263b434c722725f21031cd06e7c552cfaa06db5de8a320dbc5f1b83611eaf565b5050565b606060015f8381526020019081526020015f20805461169290613836565b80601f01602080910402602001604051908101604052809291908181526020018280546116be90613836565b80156117095780601f106116e057610100808354040283529160200191611709565b820191905f5260205f20905b8154815290600101906020018083116116ec57829003601f168201915b50505050509050919050565b3373ffffffffffffffffffffffffffffffffffffffff16611734610f0e565b73ffffffffffffffffffffffffffffffffffffffff161461178c57336040517fbf1169c5000000000000000000000000000000000000000000000000000000008152600401611783919061319f565b60405180910390fd5b565b611796610f0e565b73ffffffffffffffffffffffffffffffffffffffff168173ffffffffffffffffffffffffffffffffffffffff1614611881578073ffffffffffffffffffffffffffffffffffffffff165f8054906101000a900473ffffffffffffffffffffffffffffffffffffffff1673ffffffffffffffffffffffffffffffffffffffff167f8be0079c531659141344cd1fd0a4f28419497f9722a3daafe3b4186f6b6457e060405160405180910390a3805f806101000a81548173ffffffffffffffffffffffffffffffffffffffff021916908373ffffffffffffffffffffffffffffffffffffffff1602179055505b50565b5f60065f8473ffffffffffffffffffffffffffffffffffffffff1673ffffffffffffffffffffffffffffffffffffffff1681526020019081526020015f205f8573ffffffffffffffffffffffffffffffffffffffff1673ffffffffffffffffffffffffffffffffffffffff1681526020019081526020015f205490508082111561194b57828185846040517ff3a6b6910000000000000000000000000000000000000000000000000000000081526004016119429493929190613866565b60405180910390fd5b6119718385848461195c91906138a9565b5f60405180602001604052805f81525061137a565b50505050565b5f73ffffffffffffffffffffffffffffffffffffffff168573ffffffffffffffffffffffffffffffffffffffff1614806119dc57505f73ffffffffffffffffffffffffffffffffffffffff168473ffffffffffffffffffffffffffffffffffffffff16145b15611a13576040517fd2d5ec3000000000000000000000000000000000000000000000000000000000815260040160405180910390fd5b611a1f85858584611f69565b5f60045f8773ffffffffffffffffffffffffffffffffffffffff1673ffffffffffffffffffffffffffffffffffffffff1681526020019081526020015f2054905080841115611aa9578086856040517f08d47949000000000000000000000000000000000000000000000000000000008152600401611aa0939291906138dc565b60405180910390fd5b8360045f8873ffffffffffffffffffffffffffffffffffffffff1673ffffffffffffffffffffffffffffffffffffffff1681526020019081526020015f205f828254611af591906138a9565b925050819055508360045f8773ffffffffffffffffffffffffffffffffffffffff1673ffffffffffffffffffffffffffffffffffffffff1681526020019081526020015f205f828254611b489190613574565b925050819055508473ffffffffffffffffffffffffffffffffffffffff168673ffffffffffffffffffffffffffffffffffffffff163373ffffffffffffffffffffffffffffffffffffffff167f3997e418d2cef0b3b0e907b1e39605c3f7d32dbd061e82ea5b4a770d46a160a6878787604051611bc793929190613911565b60405180910390a4611bdb86868685611f6f565b5f3387878786604051602001611bf595949392919061394d565b6040516020818303038152906040529050611c108782611f75565b611c1b868583611fa6565b50505050505050565b7f708e7b881795f2e6b6c2752108c177ec89248458de3bf69d0d43480b3e5034e65f1b8203611c88576040517f08c379a0000000000000000000000000000000000000000000000000000000008152600401611c7f906139ff565b60405180910390fd5b611c928282612105565b5050565b60605f611ca4835f01612113565b905060608190508092505050919050565b5f80835f60f01b84604051602001611ccf93929190613ad3565b604051602081830303815290604052905080611cea90613b23565b91505092915050565b5f63629aa69460e01b7bffffffffffffffffffffffffffffffffffffffffffffffffffffffff1916827bffffffffffffffffffffffffffffffffffffffffffffffffffffffff19161480611d4c5750611d4b82611d53565b5b9050919050565b5f7f01ffc9a7000000000000000000000000000000000000000000000000000000007bffffffffffffffffffffffffffffffffffffffffffffffffffffffff1916827bffffffffffffffffffffffffffffffffffffffffffffffffffffffff1916149050919050565b5f8082604051602401611dcf919061341b565b6040516020818303038152906040526301ffc9a760e01b6020820180517bffffffffffffffffffffffffffffffffffffffffffffffffffffffff838183161783525050505090505f805f60205f8551602087018a617530fa92503d91505f519050828015611e3e575060208210155b8015611e4957505f81115b94505050505092915050565b5f611e7a835f018373ffffffffffffffffffffffffffffffffffffffff165f1b61216c565b905092915050565b5f611ea7835f018373ffffffffffffffffffffffffffffffffffffffff165f1b6121d3565b905092915050565b611edf636bb56a1460e01b8473ffffffffffffffffffffffffffffffffffffffff16611dbc90919063ffffffff16565b15611f64578273ffffffffffffffffffffffffffffffffffffffff16636bb56a1483836040518363ffffffff1660e01b8152600401611f1f929190613b98565b5f604051808303815f875af1158015611f3a573d5f803e3d5ffd5b505050506040513d5f823e3d601f19601f82011682018060405250810190611f629190613c34565b505b505050565b50505050565b50505050565b611fa2827f429ac7a06903dbc9c13dfcb3c9d11df8194581fa047c96d7a4171fc7402958ea5f1b83611eaf565b5050565b611fb783636bb56a1460e01b611dbc565b15612062578273ffffffffffffffffffffffffffffffffffffffff16636bb56a147f20804611b3e2ea21c480dc465142210acf4a2485947541770ec1fb87dee4a55c5f1b836040518363ffffffff1660e01b8152600401612019929190613b98565b5f604051808303815f875af1158015612034573d5f803e3d5ffd5b505050506040513d5f823e3d601f19601f8201168201806040525081019061205c9190613c34565b50612100565b816120ff575f8373ffffffffffffffffffffffffffffffffffffffff163b146120c257826040517fa608fbb60000000000000000000000000000000000000000000000000000000081526004016120b9919061319f565b60405180910390fd5b826040517f26c247f40000000000000000000000000000000000000000000000000000000081526004016120f6919061319f565b60405180910390fd5b5b505050565b61210f82826122cf565b5050565b6060815f0180548060200260200160405190810160405280929190818152602001828054801561216057602002820191905f5260205f20905b81548152602001906001019080831161214c575b50505050509050919050565b5f612177838361243b565b6121c957825f0182908060018154018082558091505060019003905f5260205f20015f9091909190915055825f0180549050836001015f8481526020019081526020015f2081905550600190506121cd565b5f90505b92915050565b5f80836001015f8481526020019081526020015f205490505f81146122c4575f60018261220091906138a9565b90505f6001865f018054905061221691906138a9565b905080821461227c575f865f018281548110612235576122346135e3565b5b905f5260205f200154905080875f018481548110612256576122556135e3565b5b905f5260205f20018190555083876001015f8381526020019081526020015f2081905550505b855f0180548061228f5761228e613c7b565b5b600190038181905f5260205f20015f90559055856001015f8681526020019081526020015f205f9055600193505050506122c9565b5f9150505b92915050565b7fdeba1e292f8ba88238e10ab3c7f88bd4be4fac56cad5194b6ecceaf653468af15f1b820361232a576040517f85c169bd00000000000000000000000000000000000000000000000000000000815260040160405180910390fd5b7f2f0a68ab07768e01943a599e73362a0e17a63a72e94dd2e384d2c1d4db9327565f1b8203612385576040517f76755b3800000000000000000000000000000000000000000000000000000000815260040160405180910390fd5b7fe0261fa95db2eb3b5439bd033cda66d56b96f92f243a8228fd87550ed7bdfdb35f1b82036123e0576040517f4ef6d7fb00000000000000000000000000000000000000000000000000000000815260040160405180910390fd5b8060015f8481526020019081526020015f2090816123fe9190613e30565b50817fece574603820d07bc9b91f2a932baadf4628aabcb8afba49776529c14a6104b28260405161242f9190612dd3565b60405180910390a25050565b5f80836001015f8481526020019081526020015f20541415905092915050565b5f82825260208201905092915050565b5f8082015250565b5f61247f60048361245b565b915061248a8261246b565b602082019050919050565b5f6020820190508181035f8301526124ac81612473565b9050919050565b828183375f83830152505050565b5f601f19601f8301169050919050565b5f6124dc838561245b565b93506124e98385846124b3565b6124f2836124c1565b840190509392505050565b5f6020820190508181035f8301526125168184866124d1565b90509392505050565b5f604051905090565b5f80fd5b5f80fd5b5f7fffffffff0000000000000000000000000000000000000000000000000000000082169050919050565b61256481612530565b811461256e575f80fd5b50565b5f8135905061257f8161255b565b92915050565b5f6020828403121561259a57612599612528565b5b5f6125a784828501612571565b91505092915050565b5f8115159050919050565b6125c4816125b0565b82525050565b5f6020820190506125dd5f8301846125bb565b92915050565b5f819050919050565b6125f5816125e3565b82525050565b5f60208201905061260e5f8301846125ec565b92915050565b5f73ffffffffffffffffffffffffffffffffffffffff82169050919050565b5f61263d82612614565b9050919050565b61264d81612633565b8114612657575f80fd5b50565b5f8135905061266881612644565b92915050565b612677816125e3565b8114612681575f80fd5b50565b5f813590506126928161266e565b92915050565b5f80fd5b5f80fd5b7f4e487b71000000000000000000000000000000000000000000000000000000005f52604160045260245ffd5b6126d6826124c1565b810181811067ffffffffffffffff821117156126f5576126f46126a0565b5b80604052505050565b5f61270761251f565b905061271382826126cd565b919050565b5f67ffffffffffffffff821115612732576127316126a0565b5b61273b826124c1565b9050602081019050919050565b5f61275a61275584612718565b6126fe565b9050828152602081018484840111156127765761277561269c565b5b6127818482856124b3565b509392505050565b5f82601f83011261279d5761279c612698565b5b81356127ad848260208601612748565b91505092915050565b5f805f606084860312156127cd576127cc612528565b5b5f6127da8682870161265a565b93505060206127eb86828701612684565b925050604084013567ffffffffffffffff81111561280c5761280b61252c565b5b61281886828701612789565b9150509250925092565b5f67ffffffffffffffff82111561283c5761283b6126a0565b5b602082029050602081019050919050565b5f80fd5b5f61286361285e84612822565b6126fe565b905080838252602082019050602084028301858111156128865761288561284d565b5b835b818110156128af578061289b888261265a565b845260208401935050602081019050612888565b5050509392505050565b5f82601f8301126128cd576128cc612698565b5b81356128dd848260208601612851565b91505092915050565b5f67ffffffffffffffff821115612900576128ff6126a0565b5b602082029050602081019050919050565b5f61292361291e846128e6565b6126fe565b905080838252602082019050602084028301858111156129465761294561284d565b5b835b8181101561296f578061295b8882612684565b845260208401935050602081019050612948565b5050509392505050565b5f82601f83011261298d5761298c612698565b5b813561299d848260208601612911565b91505092915050565b5f67ffffffffffffffff8211156129c0576129bf6126a0565b5b602082029050602081019050919050565b6129da816125b0565b81146129e4575f80fd5b50565b5f813590506129f5816129d1565b92915050565b5f612a0d612a08846129a6565b6126fe565b90508083825260208201905060208402830185811115612a3057612a2f61284d565b5b835b81811015612a595780612a4588826129e7565b845260208401935050602081019050612a32565b5050509392505050565b5f82601f830112612a7757612a76612698565b5b8135612a878482602086016129fb565b91505092915050565b5f67ffffffffffffffff821115612aaa57612aa96126a0565b5b602082029050602081019050919050565b5f612acd612ac884612a90565b6126fe565b90508083825260208201905060208402830185811115612af057612aef61284d565b5b835b81811015612b3757803567ffffffffffffffff811115612b1557612b14612698565b5b808601612b228982612789565b85526020850194505050602081019050612af2565b5050509392505050565b5f82601f830112612b5557612b54612698565b5b8135612b65848260208601612abb565b91505092915050565b5f805f805f60a08688031215612b8757612b86612528565b5b5f86013567ffffffffffffffff811115612ba457612ba361252c565b5b612bb0888289016128b9565b955050602086013567ffffffffffffffff811115612bd157612bd061252c565b5b612bdd888289016128b9565b945050604086013567ffffffffffffffff811115612bfe57612bfd61252c565b5b612c0a88828901612979565b935050606086013567ffffffffffffffff811115612c2b57612c2a61252c565b5b612c3788828901612a63565b925050608086013567ffffffffffffffff811115612c5857612c5761252c565b5b612c6488828901612b41565b9150509295509295909350565b5f805f8060808587031215612c8957612c88612528565b5b5f612c968782880161265a565b9450506020612ca78782880161265a565b9350506040612cb8878288016129e7565b925050606085013567ffffffffffffffff811115612cd957612cd861252c565b5b612ce587828801612789565b91505092959194509250565b5f60ff82169050919050565b612d0681612cf1565b82525050565b5f602082019050612d1f5f830184612cfd565b92915050565b5f819050919050565b612d3781612d25565b8114612d41575f80fd5b50565b5f81359050612d5281612d2e565b92915050565b5f60208284031215612d6d57612d6c612528565b5b5f612d7a84828501612d44565b91505092915050565b5f81519050919050565b8281835e5f83830152505050565b5f612da582612d83565b612daf818561245b565b9350612dbf818560208601612d8d565b612dc8816124c1565b840191505092915050565b5f6020820190508181035f830152612deb8184612d9b565b905092915050565b5f8060408385031215612e0957612e08612528565b5b5f612e168582860161265a565b9250506020612e278582860161265a565b9150509250929050565b5f80fd5b5f8083601f840112612e4a57612e49612698565b5b8235905067ffffffffffffffff811115612e6757612e66612e31565b5b602083019150836020820283011115612e8357612e8261284d565b5b9250929050565b5f8060208385031215612ea057612e9f612528565b5b5f83013567ffffffffffffffff811115612ebd57612ebc61252c565b5b612ec985828601612e35565b92509250509250929050565b5f81519050919050565b5f82825260208201905092915050565b5f819050602082019050919050565b5f82825260208201905092915050565b5f612f1882612d83565b612f228185612efe565b9350612f32818560208601612d8d565b612f3b816124c1565b840191505092915050565b5f612f518383612f0e565b905092915050565b5f602082019050919050565b5f612f6f82612ed5565b612f798185612edf565b935083602082028501612f8b85612eef565b805f5b85811015612fc65784840389528151612fa78582612f46565b9450612fb283612f59565b925060208a01995050600181019050612f8e565b50829750879550505050505092915050565b5f6020820190508181035f830152612ff08184612f65565b905092915050565b5f6020828403121561300d5761300c612528565b5b5f61301a8482850161265a565b91505092915050565b5f805f805f60a0868803121561303c5761303b612528565b5b5f6130498882890161265a565b955050602061305a8882890161265a565b945050604061306b88828901612684565b935050606061307c888289016129e7565b925050608086013567ffffffffffffffff81111561309d5761309c61252c565b5b6130a988828901612789565b9150509295509295909350565b5f805f80608085870312156130ce576130cd612528565b5b5f6130db8782880161265a565b94505060206130ec8782880161265a565b93505060406130fd87828801612684565b925050606085013567ffffffffffffffff81111561311e5761311d61252c565b5b61312a87828801612789565b91505092959194509250565b5f806040838503121561314c5761314b612528565b5b5f61315985828601612d44565b925050602083013567ffffffffffffffff81111561317a5761317961252c565b5b61318685828601612789565b9150509250929050565b61319981612633565b82525050565b5f6020820190506131b25f830184613190565b92915050565b5f67ffffffffffffffff8211156131d2576131d16126a0565b5b602082029050602081019050919050565b5f6131f56131f0846131b8565b6126fe565b905080838252602082019050602084028301858111156132185761321761284d565b5b835b81811015613241578061322d8882612d44565b84526020840193505060208101905061321a565b5050509392505050565b5f82601f83011261325f5761325e612698565b5b813561326f8482602086016131e3565b91505092915050565b5f806040838503121561328e5761328d612528565b5b5f83013567ffffffffffffffff8111156132ab576132aa61252c565b5b6132b78582860161324b565b925050602083013567ffffffffffffffff8111156132d8576132d761252c565b5b6132e485828601612b41565b9150509250929050565b5f81519050919050565b5f82825260208201905092915050565b5f819050602082019050919050565b61332081612633565b82525050565b5f6133318383613317565b60208301905092915050565b5f602082019050919050565b5f613353826132ee565b61335d81856132f8565b935061336883613308565b805f5b8381101561339857815161337f8882613326565b975061338a8361333d565b92505060018101905061336b565b5085935050505092915050565b5f6020820190508181035f8301526133bd8184613349565b905092915050565b5f602082840312156133da576133d9612528565b5b5f82013567ffffffffffffffff8111156133f7576133f661252c565b5b6134038482850161324b565b91505092915050565b61341581612530565b82525050565b5f60208201905061342e5f83018461340c565b92915050565b5f81905092915050565b5f6134498385613434565b93506134568385846124b3565b82840190509392505050565b5f8160601b9050919050565b5f61347882613462565b9050919050565b5f6134898261346e565b9050919050565b6134a161349c82612633565b61347f565b82525050565b5f819050919050565b6134c16134bc826125e3565b6134a7565b82525050565b5f6134d382868861343e565b91506134df8285613490565b6014820191506134ef82846134b0565b60208201915081905095945050505050565b5f61350b82612d83565b6135158185613434565b9350613525818560208601612d8d565b80840191505092915050565b5f61353c8284613501565b915081905092915050565b7f4e487b71000000000000000000000000000000000000000000000000000000005f52601160045260245ffd5b5f61357e826125e3565b9150613589836125e3565b92508282019050808211156135a1576135a0613547565b5b92915050565b5f6060820190506135ba5f830186613190565b6135c760208301856125ec565b81810360408301526135d98184612d9b565b9050949350505050565b7f4e487b71000000000000000000000000000000000000000000000000000000005f52603260045260245ffd5b5f6060820190506136235f830186613190565b6136306020830185613190565b61363d6040830184613190565b949350505050565b5f819050919050565b5f819050919050565b5f61367161366c61366784613645565b61364e565b612cf1565b9050919050565b61368181613657565b82525050565b5f60608201905061369a5f830186613190565b6136a76020830185613678565b81810360408301526136b98184612d9b565b9050949350505050565b5f80fd5b5f80fd5b5f80fd5b5f80833560016020038436030381126136eb576136ea6136c3565b5b80840192508235915067ffffffffffffffff82111561370d5761370c6136c7565b5b602083019250600182023603831315613729576137286136cb565b5b509250929050565b5f61373d82848661343e565b91508190509392505050565b5f819050602082019050919050565b5f7fffffffffffffffffffffffffffffffffffffffff00000000000000000000000082169050919050565b5f61378e8251613758565b80915050919050565b5f82821b905092915050565b5f6137ad82612d83565b826137b784613749565b90506137c281613783565b92506014821015613802576137fd7fffffffffffffffffffffffffffffffffffffffff00000000000000000000000083601403600802613797565b831692505b5050919050565b7f4e487b71000000000000000000000000000000000000000000000000000000005f52602260045260245ffd5b5f600282049050600182168061384d57607f821691505b6020821081036138605761385f613809565b5b50919050565b5f6080820190506138795f830187613190565b61388660208301866125ec565b6138936040830185613190565b6138a060608301846125ec565b95945050505050565b5f6138b3826125e3565b91506138be836125e3565b92508282039050818111156138d6576138d5613547565b5b92915050565b5f6060820190506138ef5f8301866125ec565b6138fc6020830185613190565b61390960408301846125ec565b949350505050565b5f6060820190506139245f8301866125ec565b61393160208301856125bb565b81810360408301526139438184612d9b565b9050949350505050565b5f60a0820190506139605f830188613190565b61396d6020830187613190565b61397a6040830186613190565b61398760608301856125ec565b81810360808301526139998184612d9b565b90509695505050505050565b5f82825260208201905092915050565b7f4c5350385265666572656e6365436f6e74726163744e6f744564697461626c655f82015250565b5f6139e96020836139a5565b91506139f4826139b5565b602082019050919050565b5f6020820190508181035f830152613a16816139dd565b9050919050565b5f7fffffffffffffffffffff0000000000000000000000000000000000000000000082169050919050565b5f819050919050565b613a62613a5d82613a1d565b613a48565b82525050565b5f7fffff00000000000000000000000000000000000000000000000000000000000082169050919050565b5f819050919050565b613aad613aa882613a68565b613a93565b82525050565b5f819050919050565b613acd613ac882613758565b613ab3565b82525050565b5f613ade8286613a51565b600a82019150613aee8285613a9c565b600282019150613afe8284613abc565b601482019150819050949350505050565b5f613b1a8251612d25565b80915050919050565b5f613b2d82612d83565b82613b3784613749565b9050613b4281613b0f565b92506020821015613b8257613b7d7fffffffffffffffffffffffffffffffffffffffffffffffffffffffffffffffff83602003600802613797565b831692505b5050919050565b613b9281612d25565b82525050565b5f604082019050613bab5f830185613b89565b8181036020830152613bbd8184612d9b565b90509392505050565b5f613bd8613bd384612718565b6126fe565b905082815260208101848484011115613bf457613bf361269c565b5b613bff848285612d8d565b509392505050565b5f82601f830112613c1b57613c1a612698565b5b8151613c2b848260208601613bc6565b91505092915050565b5f60208284031215613c4957613c48612528565b5b5f82015167ffffffffffffffff811115613c6657613c6561252c565b5b613c7284828501613c07565b91505092915050565b7f4e487b71000000000000000000000000000000000000000000000000000000005f52603160045260245ffd5b5f819050815f5260205f209050919050565b5f6020601f8301049050919050565b5f60088302613cf87fffffffffffffffffffffffffffffffffffffffffffffffffffffffffffffffff82613797565b613d028683613797565b95508019841693508086168417925050509392505050565b5f613d34613d2f613d2a846125e3565b61364e565b6125e3565b9050919050565b5f819050919050565b613d4d83613d1a565b613d61613d5982613d3b565b848454613cc9565b825550505050565b5f90565b613d75613d69565b613d80818484613d44565b505050565b5b81811015613da357613d985f82613d6d565b600181019050613d86565b5050565b601f821115613de857613db981613ca8565b613dc284613cba565b81016020851015613dd1578190505b613de5613ddd85613cba565b830182613d85565b50505b505050565b5f82821c905092915050565b5f613e085f1984600802613ded565b1980831691505092915050565b5f613e208383613df9565b9150826002028217905092915050565b613e3982612d83565b67ffffffffffffffff811115613e5257613e516126a0565b5b613e5c8254613836565b613e67828285613da7565b5f60209050601f831160018114613e98575f8415613e86578287015190505b613e908582613e15565b865550613ef7565b601f198416613ea686613ca8565b5f5b82811015613ecd57848901518255600182019150602085019450602081019050613ea8565b86831015613eea5784890151613ee6601f891682613df9565b8355505b6001600288020188555050505b50505050505056fea26469706673582212208630d5be928e5d016b6b0a214379bc2e4eb59f787c3226ecb815988e361851cf64736f6c63430008190033",
			"opcodes": "PUSH1 0x80 PUSH1 0x40 MSTORE CALLVALUE DUP1 ISZERO PUSH2 0xF JUMPI PUSH0 DUP1 REVERT JUMPDEST POP PUSH1 0x40 MLOAD PUSH2 0x535A CODESIZE SUB DUP1 PUSH2 0x535A DUP4 CODECOPY DUP2 DUP2 ADD PUSH1 0x40 MSTORE DUP2 ADD SWAP1 PUSH2 0x31 SWAP2 SWAP1 PUSH2 0xC9D JUMP JUMPDEST DUP8 DUP8 DUP8 DUP7 DUP7 DUP5 DUP5 DUP5 DUP5 DUP2 PUSH0 PUSH20 0xFFFFFFFFFFFFFFFFFFFFFFFFFFFFFFFFFFFFFFFF AND DUP2 PUSH20 0xFFFFFFFFFFFFFFFFFFFFFFFFFFFFFFFFFFFFFFFF AND SUB PUSH2 0xA0 JUMPI PUSH1 0x40 MLOAD PUSH32 0x1AD8836C00000000000000000000000000000000000000000000000000000000 DUP2 MSTORE PUSH1 0x4 ADD PUSH1 0x40 MLOAD DUP1 SWAP2 SUB SWAP1 REVERT JUMPDEST PUSH2 0xAF DUP2 PUSH2 0x2B9 PUSH1 0x20 SHL PUSH1 0x20 SHR JUMP JUMPDEST POP PUSH2 0x117 PUSH32 0xEAFEC4D89FA9619884B60000A4D96624A38F7AC2D8D9A604ECF07C12C77E480C PUSH0 SHL PUSH1 0x40 MLOAD DUP1 PUSH1 0x40 ADD PUSH1 0x40 MSTORE DUP1 PUSH1 0x4 DUP2 MSTORE PUSH1 0x20 ADD PUSH32 0xA4D9662400000000000000000000000000000000000000000000000000000000 DUP2 MSTORE POP PUSH2 0x3B5 PUSH1 0x20 SHL PUSH1 0x20 SHR JUMP JUMPDEST PUSH2 0x149 PUSH32 0xDEBA1E292F8BA88238E10AB3C7F88BD4BE4FAC56CAD5194B6ECCEAF653468AF1 PUSH0 SHL DUP6 PUSH2 0x3B5 PUSH1 0x20 SHL PUSH1 0x20 SHR JUMP JUMPDEST PUSH2 0x17B PUSH32 0x2F0A68AB07768E01943A599E73362A0E17A63A72E94DD2E384D2C1D4DB932756 PUSH0 SHL DUP5 PUSH2 0x3B5 PUSH1 0x20 SHL PUSH1 0x20 SHR JUMP JUMPDEST PUSH2 0x1CC PUSH32 0xE0261FA95DB2EB3B5439BD033CDA66D56B96F92F243A8228FD87550ED7BDFDB3 PUSH0 SHL DUP3 PUSH1 0x40 MLOAD PUSH1 0x20 ADD PUSH2 0x1B2 SWAP2 SWAP1 PUSH2 0xDB1 JUMP JUMPDEST PUSH1 0x40 MLOAD PUSH1 0x20 DUP2 DUP4 SUB SUB DUP2 MSTORE SWAP1 PUSH1 0x40 MSTORE PUSH2 0x3B5 PUSH1 0x20 SHL PUSH1 0x20 SHR JUMP JUMPDEST POP POP POP POP DUP1 PUSH1 0x2 PUSH0 PUSH2 0x100 EXP DUP2 SLOAD DUP2 PUSH1 0xFF MUL NOT AND SWAP1 DUP4 ISZERO ISZERO MUL OR SWAP1 SSTORE POP POP POP POP POP POP PUSH2 0x259 PUSH32 0x708E7B881795F2E6B6C2752108C177EC89248458DE3BF69D0D43480B3E5034E6 PUSH0 SHL CALLER ADDRESS PUSH20 0xFFFFFFFFFFFFFFFFFFFFFFFFFFFFFFFFFFFFFFFF AND PUSH0 SHL PUSH1 0x40 MLOAD PUSH1 0x20 ADD PUSH2 0x23F SWAP3 SWAP2 SWAP1 PUSH2 0xE38 JUMP JUMPDEST PUSH1 0x40 MLOAD PUSH1 0x20 DUP2 DUP4 SUB SUB DUP2 MSTORE SWAP1 PUSH1 0x40 MSTORE PUSH2 0x410 PUSH1 0x20 SHL PUSH1 0x20 SHR JUMP JUMPDEST PUSH2 0x28B PUSH32 0x9AFB95CACC9F95858EC44AA8C3B685511002E30AE54415823F406128B85B238E PUSH0 SHL DUP3 PUSH2 0x424 PUSH1 0x20 SHL PUSH1 0x20 SHR JUMP JUMPDEST PUSH2 0x2AC DUP6 DUP4 PUSH1 0x1 PUSH1 0x40 MLOAD DUP1 PUSH1 0x20 ADD PUSH1 0x40 MSTORE DUP1 PUSH0 DUP2 MSTORE POP PUSH2 0x49C PUSH1 0x20 SHL PUSH1 0x20 SHR JUMP JUMPDEST POP POP POP POP POP POP POP POP PUSH2 0x1418 JUMP JUMPDEST PUSH2 0x2C7 PUSH2 0x653 PUSH1 0x20 SHL PUSH1 0x20 SHR JUMP JUMPDEST PUSH20 0xFFFFFFFFFFFFFFFFFFFFFFFFFFFFFFFFFFFFFFFF AND DUP2 PUSH20 0xFFFFFFFFFFFFFFFFFFFFFFFFFFFFFFFFFFFFFFFF AND EQ PUSH2 0x3B2 JUMPI DUP1 PUSH20 0xFFFFFFFFFFFFFFFFFFFFFFFFFFFFFFFFFFFFFFFF AND PUSH0 DUP1 SLOAD SWAP1 PUSH2 0x100 EXP SWAP1 DIV PUSH20 0xFFFFFFFFFFFFFFFFFFFFFFFFFFFFFFFFFFFFFFFF AND PUSH20 0xFFFFFFFFFFFFFFFFFFFFFFFFFFFFFFFFFFFFFFFF AND PUSH32 0x8BE0079C531659141344CD1FD0A4F28419497F9722A3DAAFE3B4186F6B6457E0 PUSH1 0x40 MLOAD PUSH1 0x40 MLOAD DUP1 SWAP2 SUB SWAP1 LOG3 DUP1 PUSH0 DUP1 PUSH2 0x100 EXP DUP2 SLOAD DUP2 PUSH20 0xFFFFFFFFFFFFFFFFFFFFFFFFFFFFFFFFFFFFFFFF MUL NOT AND SWAP1 DUP4 PUSH20 0xFFFFFFFFFFFFFFFFFFFFFFFFFFFFFFFFFFFFFFFF AND MUL OR SWAP1 SSTORE POP JUMPDEST POP JUMP JUMPDEST DUP1 PUSH1 0x1 PUSH0 DUP5 DUP2 MSTORE PUSH1 0x20 ADD SWAP1 DUP2 MSTORE PUSH1 0x20 ADD PUSH0 KECCAK256 SWAP1 DUP2 PUSH2 0x3D3 SWAP2 SWAP1 PUSH2 0x1067 JUMP JUMPDEST POP DUP2 PUSH32 0xECE574603820D07BC9B91F2A932BAADF4628AABCB8AFBA49776529C14A6104B2 DUP3 PUSH1 0x40 MLOAD PUSH2 0x404 SWAP2 SWAP1 PUSH2 0x117E JUMP JUMPDEST PUSH1 0x40 MLOAD DUP1 SWAP2 SUB SWAP1 LOG2 POP POP JUMP JUMPDEST PUSH2 0x420 DUP3 DUP3 PUSH2 0x67A PUSH1 0x20 SHL PUSH1 0x20 SHR JUMP JUMPDEST POP POP JUMP JUMPDEST PUSH32 0x708E7B881795F2E6B6C2752108C177EC89248458DE3BF69D0D43480B3E5034E6 PUSH0 SHL DUP3 SUB PUSH2 0x488 JUMPI PUSH1 0x40 MLOAD PUSH32 0x8C379A000000000000000000000000000000000000000000000000000000000 DUP2 MSTORE PUSH1 0x4 ADD PUSH2 0x47F SWAP1 PUSH2 0x11F8 JUMP JUMPDEST PUSH1 0x40 MLOAD DUP1 SWAP2 SUB SWAP1 REVERT JUMPDEST PUSH2 0x498 DUP3 DUP3 PUSH2 0x410 PUSH1 0x20 SHL PUSH1 0x20 SHR JUMP JUMPDEST POP POP JUMP JUMPDEST PUSH0 PUSH20 0xFFFFFFFFFFFFFFFFFFFFFFFFFFFFFFFFFFFFFFFF AND DUP5 PUSH20 0xFFFFFFFFFFFFFFFFFFFFFFFFFFFFFFFFFFFFFFFF AND SUB PUSH2 0x501 JUMPI PUSH1 0x40 MLOAD PUSH32 0xD2D5EC3000000000000000000000000000000000000000000000000000000000 DUP2 MSTORE PUSH1 0x4 ADD PUSH1 0x40 MLOAD DUP1 SWAP2 SUB SWAP1 REVERT JUMPDEST PUSH2 0x513 PUSH0 DUP6 DUP6 DUP5 PUSH2 0x7E6 PUSH1 0x20 SHL PUSH1 0x20 SHR JUMP JUMPDEST DUP3 PUSH1 0x3 PUSH0 DUP3 DUP3 SLOAD PUSH2 0x524 SWAP2 SWAP1 PUSH2 0x1243 JUMP JUMPDEST SWAP3 POP POP DUP2 SWAP1 SSTORE POP DUP3 PUSH1 0x4 PUSH0 DUP7 PUSH20 0xFFFFFFFFFFFFFFFFFFFFFFFFFFFFFFFFFFFFFFFF AND PUSH20 0xFFFFFFFFFFFFFFFFFFFFFFFFFFFFFFFFFFFFFFFF AND DUP2 MSTORE PUSH1 0x20 ADD SWAP1 DUP2 MSTORE PUSH1 0x20 ADD PUSH0 KECCAK256 PUSH0 DUP3 DUP3 SLOAD PUSH2 0x577 SWAP2 SWAP1 PUSH2 0x1243 JUMP JUMPDEST SWAP3 POP POP DUP2 SWAP1 SSTORE POP DUP4 PUSH20 0xFFFFFFFFFFFFFFFFFFFFFFFFFFFFFFFFFFFFFFFF AND PUSH0 PUSH20 0xFFFFFFFFFFFFFFFFFFFFFFFFFFFFFFFFFFFFFFFF AND CALLER PUSH20 0xFFFFFFFFFFFFFFFFFFFFFFFFFFFFFFFFFFFFFFFF AND PUSH32 0x3997E418D2CEF0B3B0E907B1E39605C3F7D32DBD061E82EA5B4A770D46A160A6 DUP7 DUP7 DUP7 PUSH1 0x40 MLOAD PUSH2 0x5F6 SWAP4 SWAP3 SWAP2 SWAP1 PUSH2 0x1285 JUMP JUMPDEST PUSH1 0x40 MLOAD DUP1 SWAP2 SUB SWAP1 LOG4 PUSH2 0x610 PUSH0 DUP6 DUP6 DUP5 PUSH2 0x7EC PUSH1 0x20 SHL PUSH1 0x20 SHR JUMP JUMPDEST PUSH0 CALLER PUSH0 DUP7 DUP7 DUP6 PUSH1 0x40 MLOAD PUSH1 0x20 ADD PUSH2 0x62A SWAP6 SWAP5 SWAP4 SWAP3 SWAP2 SWAP1 PUSH2 0x12D0 JUMP JUMPDEST PUSH1 0x40 MLOAD PUSH1 0x20 DUP2 DUP4 SUB SUB DUP2 MSTORE SWAP1 PUSH1 0x40 MSTORE SWAP1 POP PUSH2 0x64C DUP6 DUP5 DUP4 PUSH2 0x7F2 PUSH1 0x20 SHL PUSH1 0x20 SHR JUMP JUMPDEST POP POP POP POP POP JUMP JUMPDEST PUSH0 DUP1 PUSH0 SWAP1 SLOAD SWAP1 PUSH2 0x100 EXP SWAP1 DIV PUSH20 0xFFFFFFFFFFFFFFFFFFFFFFFFFFFFFFFFFFFFFFFF AND SWAP1 POP SWAP1 JUMP JUMPDEST PUSH32 0xDEBA1E292F8BA88238E10AB3C7F88BD4BE4FAC56CAD5194B6ECCEAF653468AF1 PUSH0 SHL DUP3 SUB PUSH2 0x6D5 JUMPI PUSH1 0x40 MLOAD PUSH32 0x85C169BD00000000000000000000000000000000000000000000000000000000 DUP2 MSTORE PUSH1 0x4 ADD PUSH1 0x40 MLOAD DUP1 SWAP2 SUB SWAP1 REVERT JUMPDEST PUSH32 0x2F0A68AB07768E01943A599E73362A0E17A63A72E94DD2E384D2C1D4DB932756 PUSH0 SHL DUP3 SUB PUSH2 0x730 JUMPI PUSH1 0x40 MLOAD PUSH32 0x76755B3800000000000000000000000000000000000000000000000000000000 DUP2 MSTORE PUSH1 0x4 ADD PUSH1 0x40 MLOAD DUP1 SWAP2 SUB SWAP1 REVERT JUMPDEST PUSH32 0xE0261FA95DB2EB3B5439BD033CDA66D56B96F92F243A8228FD87550ED7BDFDB3 PUSH0 SHL DUP3 SUB PUSH2 0x78B JUMPI PUSH1 0x40 MLOAD PUSH32 0x4EF6D7FB00000000000000000000000000000000000000000000000000000000 DUP2 MSTORE PUSH1 0x4 ADD PUSH1 0x40 MLOAD DUP1 SWAP2 SUB SWAP1 REVERT JUMPDEST DUP1 PUSH1 0x1 PUSH0 DUP5 DUP2 MSTORE PUSH1 0x20 ADD SWAP1 DUP2 MSTORE PUSH1 0x20 ADD PUSH0 KECCAK256 SWAP1 DUP2 PUSH2 0x7A9 SWAP2 SWAP1 PUSH2 0x1067 JUMP JUMPDEST POP DUP2 PUSH32 0xECE574603820D07BC9B91F2A932BAADF4628AABCB8AFBA49776529C14A6104B2 DUP3 PUSH1 0x40 MLOAD PUSH2 0x7DA SWAP2 SWAP1 PUSH2 0x117E JUMP JUMPDEST PUSH1 0x40 MLOAD DUP1 SWAP2 SUB SWAP1 LOG2 POP POP JUMP JUMPDEST POP POP POP POP JUMP JUMPDEST POP POP POP POP JUMP JUMPDEST PUSH2 0x809 DUP4 PUSH4 0x6BB56A14 PUSH1 0xE0 SHL PUSH2 0x957 PUSH1 0x20 SHL PUSH1 0x20 SHR JUMP JUMPDEST ISZERO PUSH2 0x8B4 JUMPI DUP3 PUSH20 0xFFFFFFFFFFFFFFFFFFFFFFFFFFFFFFFFFFFFFFFF AND PUSH4 0x6BB56A14 PUSH32 0x20804611B3E2EA21C480DC465142210ACF4A2485947541770EC1FB87DEE4A55C PUSH0 SHL DUP4 PUSH1 0x40 MLOAD DUP4 PUSH4 0xFFFFFFFF AND PUSH1 0xE0 SHL DUP2 MSTORE PUSH1 0x4 ADD PUSH2 0x86B SWAP3 SWAP2 SWAP1 PUSH2 0x1337 JUMP JUMPDEST PUSH0 PUSH1 0x40 MLOAD DUP1 DUP4 SUB DUP2 PUSH0 DUP8 GAS CALL ISZERO DUP1 ISZERO PUSH2 0x886 JUMPI RETURNDATASIZE PUSH0 DUP1 RETURNDATACOPY RETURNDATASIZE PUSH0 REVERT JUMPDEST POP POP POP POP PUSH1 0x40 MLOAD RETURNDATASIZE PUSH0 DUP3 RETURNDATACOPY RETURNDATASIZE PUSH1 0x1F NOT PUSH1 0x1F DUP3 ADD AND DUP3 ADD DUP1 PUSH1 0x40 MSTORE POP DUP2 ADD SWAP1 PUSH2 0x8AE SWAP2 SWAP1 PUSH2 0x1365 JUMP JUMPDEST POP PUSH2 0x952 JUMP JUMPDEST DUP2 PUSH2 0x951 JUMPI PUSH0 DUP4 PUSH20 0xFFFFFFFFFFFFFFFFFFFFFFFFFFFFFFFFFFFFFFFF AND EXTCODESIZE EQ PUSH2 0x914 JUMPI DUP3 PUSH1 0x40 MLOAD PUSH32 0xA608FBB600000000000000000000000000000000000000000000000000000000 DUP2 MSTORE PUSH1 0x4 ADD PUSH2 0x90B SWAP2 SWAP1 PUSH2 0x13AC JUMP JUMPDEST PUSH1 0x40 MLOAD DUP1 SWAP2 SUB SWAP1 REVERT JUMPDEST DUP3 PUSH1 0x40 MLOAD PUSH32 0x26C247F400000000000000000000000000000000000000000000000000000000 DUP2 MSTORE PUSH1 0x4 ADD PUSH2 0x948 SWAP2 SWAP1 PUSH2 0x13AC JUMP JUMPDEST PUSH1 0x40 MLOAD DUP1 SWAP2 SUB SWAP1 REVERT JUMPDEST JUMPDEST POP POP POP JUMP JUMPDEST PUSH0 DUP1 DUP3 PUSH1 0x40 MLOAD PUSH1 0x24 ADD PUSH2 0x96A SWAP2 SWAP1 PUSH2 0x13FF JUMP JUMPDEST PUSH1 0x40 MLOAD PUSH1 0x20 DUP2 DUP4 SUB SUB DUP2 MSTORE SWAP1 PUSH1 0x40 MSTORE PUSH4 0x1FFC9A7 PUSH1 0xE0 SHL PUSH1 0x20 DUP3 ADD DUP1 MLOAD PUSH28 0xFFFFFFFFFFFFFFFFFFFFFFFFFFFFFFFFFFFFFFFFFFFFFFFFFFFFFFFF DUP4 DUP2 DUP4 AND OR DUP4 MSTORE POP POP POP POP SWAP1 POP PUSH0 DUP1 PUSH0 PUSH1 0x20 PUSH0 DUP6 MLOAD PUSH1 0x20 DUP8 ADD DUP11 PUSH2 0x7530 STATICCALL SWAP3 POP RETURNDATASIZE SWAP2 POP PUSH0 MLOAD SWAP1 POP DUP3 DUP1 ISZERO PUSH2 0x9D9 JUMPI POP PUSH1 0x20 DUP3 LT ISZERO JUMPDEST DUP1 ISZERO PUSH2 0x9E4 JUMPI POP PUSH0 DUP2 GT JUMPDEST SWAP5 POP POP POP POP POP SWAP3 SWAP2 POP POP JUMP JUMPDEST PUSH0 PUSH1 0x40 MLOAD SWAP1 POP SWAP1 JUMP JUMPDEST PUSH0 DUP1 REVERT JUMPDEST PUSH0 DUP1 REVERT JUMPDEST PUSH0 DUP1 REVERT JUMPDEST PUSH0 DUP1 REVERT JUMPDEST PUSH0 PUSH1 0x1F NOT PUSH1 0x1F DUP4 ADD AND SWAP1 POP SWAP2 SWAP1 POP JUMP JUMPDEST PUSH32 0x4E487B7100000000000000000000000000000000000000000000000000000000 PUSH0 MSTORE PUSH1 0x41 PUSH1 0x4 MSTORE PUSH1 0x24 PUSH0 REVERT JUMPDEST PUSH2 0xA4F DUP3 PUSH2 0xA09 JUMP JUMPDEST DUP2 ADD DUP2 DUP2 LT PUSH8 0xFFFFFFFFFFFFFFFF DUP3 GT OR ISZERO PUSH2 0xA6E JUMPI PUSH2 0xA6D PUSH2 0xA19 JUMP JUMPDEST JUMPDEST DUP1 PUSH1 0x40 MSTORE POP POP POP JUMP JUMPDEST PUSH0 PUSH2 0xA80 PUSH2 0x9F0 JUMP JUMPDEST SWAP1 POP PUSH2 0xA8C DUP3 DUP3 PUSH2 0xA46 JUMP JUMPDEST SWAP2 SWAP1 POP JUMP JUMPDEST PUSH0 PUSH8 0xFFFFFFFFFFFFFFFF DUP3 GT ISZERO PUSH2 0xAAB JUMPI PUSH2 0xAAA PUSH2 0xA19 JUMP JUMPDEST JUMPDEST PUSH2 0xAB4 DUP3 PUSH2 0xA09 JUMP JUMPDEST SWAP1 POP PUSH1 0x20 DUP2 ADD SWAP1 POP SWAP2 SWAP1 POP JUMP JUMPDEST DUP3 DUP2 DUP4 MCOPY PUSH0 DUP4 DUP4 ADD MSTORE POP POP POP JUMP JUMPDEST PUSH0 PUSH2 0xAE1 PUSH2 0xADC DUP5 PUSH2 0xA91 JUMP JUMPDEST PUSH2 0xA77 JUMP JUMPDEST SWAP1 POP DUP3 DUP2 MSTORE PUSH1 0x20 DUP2 ADD DUP5 DUP5 DUP5 ADD GT ISZERO PUSH2 0xAFD JUMPI PUSH2 0xAFC PUSH2 0xA05 JUMP JUMPDEST JUMPDEST PUSH2 0xB08 DUP5 DUP3 DUP6 PUSH2 0xAC1 JUMP JUMPDEST POP SWAP4 SWAP3 POP POP POP JUMP JUMPDEST PUSH0 DUP3 PUSH1 0x1F DUP4 ADD SLT PUSH2 0xB24 JUMPI PUSH2 0xB23 PUSH2 0xA01 JUMP JUMPDEST JUMPDEST DUP2 MLOAD PUSH2 0xB34 DUP5 DUP3 PUSH1 0x20 DUP7 ADD PUSH2 0xACF JUMP JUMPDEST SWAP2 POP POP SWAP3 SWAP2 POP POP JUMP JUMPDEST PUSH0 PUSH20 0xFFFFFFFFFFFFFFFFFFFFFFFFFFFFFFFFFFFFFFFF DUP3 AND SWAP1 POP SWAP2 SWAP1 POP JUMP JUMPDEST PUSH0 PUSH2 0xB66 DUP3 PUSH2 0xB3D JUMP JUMPDEST SWAP1 POP SWAP2 SWAP1 POP JUMP JUMPDEST PUSH2 0xB76 DUP2 PUSH2 0xB5C JUMP JUMPDEST DUP2 EQ PUSH2 0xB80 JUMPI PUSH0 DUP1 REVERT JUMPDEST POP JUMP JUMPDEST PUSH0 DUP2 MLOAD SWAP1 POP PUSH2 0xB91 DUP2 PUSH2 0xB6D JUMP JUMPDEST SWAP3 SWAP2 POP POP JUMP JUMPDEST PUSH0 DUP2 SWAP1 POP SWAP2 SWAP1 POP JUMP JUMPDEST PUSH2 0xBA9 DUP2 PUSH2 0xB97 JUMP JUMPDEST DUP2 EQ PUSH2 0xBB3 JUMPI PUSH0 DUP1 REVERT JUMPDEST POP JUMP JUMPDEST PUSH0 DUP2 MLOAD SWAP1 POP PUSH2 0xBC4 DUP2 PUSH2 0xBA0 JUMP JUMPDEST SWAP3 SWAP2 POP POP JUMP JUMPDEST PUSH0 DUP2 ISZERO ISZERO SWAP1 POP SWAP2 SWAP1 POP JUMP JUMPDEST PUSH2 0xBDE DUP2 PUSH2 0xBCA JUMP JUMPDEST DUP2 EQ PUSH2 0xBE8 JUMPI PUSH0 DUP1 REVERT JUMPDEST POP JUMP JUMPDEST PUSH0 DUP2 MLOAD SWAP1 POP PUSH2 0xBF9 DUP2 PUSH2 0xBD5 JUMP JUMPDEST SWAP3 SWAP2 POP POP JUMP JUMPDEST PUSH0 PUSH8 0xFFFFFFFFFFFFFFFF DUP3 GT ISZERO PUSH2 0xC19 JUMPI PUSH2 0xC18 PUSH2 0xA19 JUMP JUMPDEST JUMPDEST PUSH2 0xC22 DUP3 PUSH2 0xA09 JUMP JUMPDEST SWAP1 POP PUSH1 0x20 DUP2 ADD SWAP1 POP SWAP2 SWAP1 POP JUMP JUMPDEST PUSH0 PUSH2 0xC41 PUSH2 0xC3C DUP5 PUSH2 0xBFF JUMP JUMPDEST PUSH2 0xA77 JUMP JUMPDEST SWAP1 POP DUP3 DUP2 MSTORE PUSH1 0x20 DUP2 ADD DUP5 DUP5 DUP5 ADD GT ISZERO PUSH2 0xC5D JUMPI PUSH2 0xC5C PUSH2 0xA05 JUMP JUMPDEST JUMPDEST PUSH2 0xC68 DUP5 DUP3 DUP6 PUSH2 0xAC1 JUMP JUMPDEST POP SWAP4 SWAP3 POP POP POP JUMP JUMPDEST PUSH0 DUP3 PUSH1 0x1F DUP4 ADD SLT PUSH2 0xC84 JUMPI PUSH2 0xC83 PUSH2 0xA01 JUMP JUMPDEST JUMPDEST DUP2 MLOAD PUSH2 0xC94 DUP5 DUP3 PUSH1 0x20 DUP7 ADD PUSH2 0xC2F JUMP JUMPDEST SWAP2 POP POP SWAP3 SWAP2 POP POP JUMP JUMPDEST PUSH0 DUP1 PUSH0 DUP1 PUSH0 DUP1 PUSH0 DUP1 PUSH2 0x100 DUP10 DUP12 SUB SLT ISZERO PUSH2 0xCBA JUMPI PUSH2 0xCB9 PUSH2 0x9F9 JUMP JUMPDEST JUMPDEST PUSH0 DUP10 ADD MLOAD PUSH8 0xFFFFFFFFFFFFFFFF DUP2 GT ISZERO PUSH2 0xCD7 JUMPI PUSH2 0xCD6 PUSH2 0x9FD JUMP JUMPDEST JUMPDEST PUSH2 0xCE3 DUP12 DUP3 DUP13 ADD PUSH2 0xB10 JUMP JUMPDEST SWAP9 POP POP PUSH1 0x20 DUP10 ADD MLOAD PUSH8 0xFFFFFFFFFFFFFFFF DUP2 GT ISZERO PUSH2 0xD04 JUMPI PUSH2 0xD03 PUSH2 0x9FD JUMP JUMPDEST JUMPDEST PUSH2 0xD10 DUP12 DUP3 DUP13 ADD PUSH2 0xB10 JUMP JUMPDEST SWAP8 POP POP PUSH1 0x40 PUSH2 0xD21 DUP12 DUP3 DUP13 ADD PUSH2 0xB83 JUMP JUMPDEST SWAP7 POP POP PUSH1 0x60 PUSH2 0xD32 DUP12 DUP3 DUP13 ADD PUSH2 0xB83 JUMP JUMPDEST SWAP6 POP POP PUSH1 0x80 PUSH2 0xD43 DUP12 DUP3 DUP13 ADD PUSH2 0xBB6 JUMP JUMPDEST SWAP5 POP POP PUSH1 0xA0 PUSH2 0xD54 DUP12 DUP3 DUP13 ADD PUSH2 0xBEB JUMP JUMPDEST SWAP4 POP POP PUSH1 0xC0 PUSH2 0xD65 DUP12 DUP3 DUP13 ADD PUSH2 0xBB6 JUMP JUMPDEST SWAP3 POP POP PUSH1 0xE0 DUP10 ADD MLOAD PUSH8 0xFFFFFFFFFFFFFFFF DUP2 GT ISZERO PUSH2 0xD86 JUMPI PUSH2 0xD85 PUSH2 0x9FD JUMP JUMPDEST JUMPDEST PUSH2 0xD92 DUP12 DUP3 DUP13 ADD PUSH2 0xC70 JUMP JUMPDEST SWAP2 POP POP SWAP3 SWAP6 SWAP9 POP SWAP3 SWAP6 SWAP9 SWAP1 SWAP4 SWAP7 POP JUMP JUMPDEST PUSH2 0xDAB DUP2 PUSH2 0xB97 JUMP JUMPDEST DUP3 MSTORE POP POP JUMP JUMPDEST PUSH0 PUSH1 0x20 DUP3 ADD SWAP1 POP PUSH2 0xDC4 PUSH0 DUP4 ADD DUP5 PUSH2 0xDA2 JUMP JUMPDEST SWAP3 SWAP2 POP POP JUMP JUMPDEST PUSH0 DUP2 PUSH1 0x60 SHL SWAP1 POP SWAP2 SWAP1 POP JUMP JUMPDEST PUSH0 PUSH2 0xDE0 DUP3 PUSH2 0xDCA JUMP JUMPDEST SWAP1 POP SWAP2 SWAP1 POP JUMP JUMPDEST PUSH0 PUSH2 0xDF1 DUP3 PUSH2 0xDD6 JUMP JUMPDEST SWAP1 POP SWAP2 SWAP1 POP JUMP JUMPDEST PUSH2 0xE09 PUSH2 0xE04 DUP3 PUSH2 0xB5C JUMP JUMPDEST PUSH2 0xDE7 JUMP JUMPDEST DUP3 MSTORE POP POP JUMP JUMPDEST PUSH0 DUP2 SWAP1 POP SWAP2 SWAP1 POP JUMP JUMPDEST PUSH0 DUP2 SWAP1 POP SWAP2 SWAP1 POP JUMP JUMPDEST PUSH2 0xE32 PUSH2 0xE2D DUP3 PUSH2 0xE0F JUMP JUMPDEST PUSH2 0xE18 JUMP JUMPDEST DUP3 MSTORE POP POP JUMP JUMPDEST PUSH0 PUSH2 0xE43 DUP3 DUP6 PUSH2 0xDF8 JUMP JUMPDEST PUSH1 0x14 DUP3 ADD SWAP2 POP PUSH2 0xE53 DUP3 DUP5 PUSH2 0xE21 JUMP JUMPDEST PUSH1 0x20 DUP3 ADD SWAP2 POP DUP2 SWAP1 POP SWAP4 SWAP3 POP POP POP JUMP JUMPDEST PUSH0 DUP2 MLOAD SWAP1 POP SWAP2 SWAP1 POP JUMP JUMPDEST PUSH32 0x4E487B7100000000000000000000000000000000000000000000000000000000 PUSH0 MSTORE PUSH1 0x22 PUSH1 0x4 MSTORE PUSH1 0x24 PUSH0 REVERT JUMPDEST PUSH0 PUSH1 0x2 DUP3 DIV SWAP1 POP PUSH1 0x1 DUP3 AND DUP1 PUSH2 0xEB1 JUMPI PUSH1 0x7F DUP3 AND SWAP2 POP JUMPDEST PUSH1 0x20 DUP3 LT DUP2 SUB PUSH2 0xEC4 JUMPI PUSH2 0xEC3 PUSH2 0xE6D JUMP JUMPDEST JUMPDEST POP SWAP2 SWAP1 POP JUMP JUMPDEST PUSH0 DUP2 SWAP1 POP DUP2 PUSH0 MSTORE PUSH1 0x20 PUSH0 KECCAK256 SWAP1 POP SWAP2 SWAP1 POP JUMP JUMPDEST PUSH0 PUSH1 0x20 PUSH1 0x1F DUP4 ADD DIV SWAP1 POP SWAP2 SWAP1 POP JUMP JUMPDEST PUSH0 DUP3 DUP3 SHL SWAP1 POP SWAP3 SWAP2 POP POP JUMP JUMPDEST PUSH0 PUSH1 0x8 DUP4 MUL PUSH2 0xF26 PUSH32 0xFFFFFFFFFFFFFFFFFFFFFFFFFFFFFFFFFFFFFFFFFFFFFFFFFFFFFFFFFFFFFFFF DUP3 PUSH2 0xEEB JUMP JUMPDEST PUSH2 0xF30 DUP7 DUP4 PUSH2 0xEEB JUMP JUMPDEST SWAP6 POP DUP1 NOT DUP5 AND SWAP4 POP DUP1 DUP7 AND DUP5 OR SWAP3 POP POP POP SWAP4 SWAP3 POP POP POP JUMP JUMPDEST PUSH0 DUP2 SWAP1 POP SWAP2 SWAP1 POP JUMP JUMPDEST PUSH0 PUSH2 0xF6B PUSH2 0xF66 PUSH2 0xF61 DUP5 PUSH2 0xB97 JUMP JUMPDEST PUSH2 0xF48 JUMP JUMPDEST PUSH2 0xB97 JUMP JUMPDEST SWAP1 POP SWAP2 SWAP1 POP JUMP JUMPDEST PUSH0 DUP2 SWAP1 POP SWAP2 SWAP1 POP JUMP JUMPDEST PUSH2 0xF84 DUP4 PUSH2 0xF51 JUMP JUMPDEST PUSH2 0xF98 PUSH2 0xF90 DUP3 PUSH2 0xF72 JUMP JUMPDEST DUP5 DUP5 SLOAD PUSH2 0xEF7 JUMP JUMPDEST DUP3 SSTORE POP POP POP POP JUMP JUMPDEST PUSH0 SWAP1 JUMP JUMPDEST PUSH2 0xFAC PUSH2 0xFA0 JUMP JUMPDEST PUSH2 0xFB7 DUP2 DUP5 DUP5 PUSH2 0xF7B JUMP JUMPDEST POP POP POP JUMP JUMPDEST JUMPDEST DUP2 DUP2 LT ISZERO PUSH2 0xFDA JUMPI PUSH2 0xFCF PUSH0 DUP3 PUSH2 0xFA4 JUMP JUMPDEST PUSH1 0x1 DUP2 ADD SWAP1 POP PUSH2 0xFBD JUMP JUMPDEST POP POP JUMP JUMPDEST PUSH1 0x1F DUP3 GT ISZERO PUSH2 0x101F JUMPI PUSH2 0xFF0 DUP2 PUSH2 0xECA JUMP JUMPDEST PUSH2 0xFF9 DUP5 PUSH2 0xEDC JUMP JUMPDEST DUP2 ADD PUSH1 0x20 DUP6 LT ISZERO PUSH2 0x1008 JUMPI DUP2 SWAP1 POP JUMPDEST PUSH2 0x101C PUSH2 0x1014 DUP6 PUSH2 0xEDC JUMP JUMPDEST DUP4 ADD DUP3 PUSH2 0xFBC JUMP JUMPDEST POP POP JUMPDEST POP POP POP JUMP JUMPDEST PUSH0 DUP3 DUP3 SHR SWAP1 POP SWAP3 SWAP2 POP POP JUMP JUMPDEST PUSH0 PUSH2 0x103F PUSH0 NOT DUP5 PUSH1 0x8 MUL PUSH2 0x1024 JUMP JUMPDEST NOT DUP1 DUP4 AND SWAP2 POP POP SWAP3 SWAP2 POP POP JUMP JUMPDEST PUSH0 PUSH2 0x1057 DUP4 DUP4 PUSH2 0x1030 JUMP JUMPDEST SWAP2 POP DUP3 PUSH1 0x2 MUL DUP3 OR SWAP1 POP SWAP3 SWAP2 POP POP JUMP JUMPDEST PUSH2 0x1070 DUP3 PUSH2 0xE63 JUMP JUMPDEST PUSH8 0xFFFFFFFFFFFFFFFF DUP2 GT ISZERO PUSH2 0x1089 JUMPI PUSH2 0x1088 PUSH2 0xA19 JUMP JUMPDEST JUMPDEST PUSH2 0x1093 DUP3 SLOAD PUSH2 0xE9A JUMP JUMPDEST PUSH2 0x109E DUP3 DUP3 DUP6 PUSH2 0xFDE JUMP JUMPDEST PUSH0 PUSH1 0x20 SWAP1 POP PUSH1 0x1F DUP4 GT PUSH1 0x1 DUP2 EQ PUSH2 0x10CF JUMPI PUSH0 DUP5 ISZERO PUSH2 0x10BD JUMPI DUP3 DUP8 ADD MLOAD SWAP1 POP JUMPDEST PUSH2 0x10C7 DUP6 DUP3 PUSH2 0x104C JUMP JUMPDEST DUP7 SSTORE POP PUSH2 0x112E JUMP JUMPDEST PUSH1 0x1F NOT DUP5 AND PUSH2 0x10DD DUP7 PUSH2 0xECA JUMP JUMPDEST PUSH0 JUMPDEST DUP3 DUP2 LT ISZERO PUSH2 0x1104 JUMPI DUP5 DUP10 ADD MLOAD DUP3 SSTORE PUSH1 0x1 DUP3 ADD SWAP2 POP PUSH1 0x20 DUP6 ADD SWAP5 POP PUSH1 0x20 DUP2 ADD SWAP1 POP PUSH2 0x10DF JUMP JUMPDEST DUP7 DUP4 LT ISZERO PUSH2 0x1121 JUMPI DUP5 DUP10 ADD MLOAD PUSH2 0x111D PUSH1 0x1F DUP10 AND DUP3 PUSH2 0x1030 JUMP JUMPDEST DUP4 SSTORE POP JUMPDEST PUSH1 0x1 PUSH1 0x2 DUP9 MUL ADD DUP9 SSTORE POP POP POP JUMPDEST POP POP POP POP POP POP JUMP JUMPDEST PUSH0 DUP3 DUP3 MSTORE PUSH1 0x20 DUP3 ADD SWAP1 POP SWAP3 SWAP2 POP POP JUMP JUMPDEST PUSH0 PUSH2 0x1150 DUP3 PUSH2 0xE63 JUMP JUMPDEST PUSH2 0x115A DUP2 DUP6 PUSH2 0x1136 JUMP JUMPDEST SWAP4 POP PUSH2 0x116A DUP2 DUP6 PUSH1 0x20 DUP7 ADD PUSH2 0xAC1 JUMP JUMPDEST PUSH2 0x1173 DUP2 PUSH2 0xA09 JUMP JUMPDEST DUP5 ADD SWAP2 POP POP SWAP3 SWAP2 POP POP JUMP JUMPDEST PUSH0 PUSH1 0x20 DUP3 ADD SWAP1 POP DUP2 DUP2 SUB PUSH0 DUP4 ADD MSTORE PUSH2 0x1196 DUP2 DUP5 PUSH2 0x1146 JUMP JUMPDEST SWAP1 POP SWAP3 SWAP2 POP POP JUMP JUMPDEST PUSH0 DUP3 DUP3 MSTORE PUSH1 0x20 DUP3 ADD SWAP1 POP SWAP3 SWAP2 POP POP JUMP JUMPDEST PUSH32 0x4C5350385265666572656E6365436F6E74726163744E6F744564697461626C65 PUSH0 DUP3 ADD MSTORE POP JUMP JUMPDEST PUSH0 PUSH2 0x11E2 PUSH1 0x20 DUP4 PUSH2 0x119E JUMP JUMPDEST SWAP2 POP PUSH2 0x11ED DUP3 PUSH2 0x11AE JUMP JUMPDEST PUSH1 0x20 DUP3 ADD SWAP1 POP SWAP2 SWAP1 POP JUMP JUMPDEST PUSH0 PUSH1 0x20 DUP3 ADD SWAP1 POP DUP2 DUP2 SUB PUSH0 DUP4 ADD MSTORE PUSH2 0x120F DUP2 PUSH2 0x11D6 JUMP JUMPDEST SWAP1 POP SWAP2 SWAP1 POP JUMP JUMPDEST PUSH32 0x4E487B7100000000000000000000000000000000000000000000000000000000 PUSH0 MSTORE PUSH1 0x11 PUSH1 0x4 MSTORE PUSH1 0x24 PUSH0 REVERT JUMPDEST PUSH0 PUSH2 0x124D DUP3 PUSH2 0xB97 JUMP JUMPDEST SWAP2 POP PUSH2 0x1258 DUP4 PUSH2 0xB97 JUMP JUMPDEST SWAP3 POP DUP3 DUP3 ADD SWAP1 POP DUP1 DUP3 GT ISZERO PUSH2 0x1270 JUMPI PUSH2 0x126F PUSH2 0x1216 JUMP JUMPDEST JUMPDEST SWAP3 SWAP2 POP POP JUMP JUMPDEST PUSH2 0x127F DUP2 PUSH2 0xBCA JUMP JUMPDEST DUP3 MSTORE POP POP JUMP JUMPDEST PUSH0 PUSH1 0x60 DUP3 ADD SWAP1 POP PUSH2 0x1298 PUSH0 DUP4 ADD DUP7 PUSH2 0xDA2 JUMP JUMPDEST PUSH2 0x12A5 PUSH1 0x20 DUP4 ADD DUP6 PUSH2 0x1276 JUMP JUMPDEST DUP2 DUP2 SUB PUSH1 0x40 DUP4 ADD MSTORE PUSH2 0x12B7 DUP2 DUP5 PUSH2 0x1146 JUMP JUMPDEST SWAP1 POP SWAP5 SWAP4 POP POP POP POP JUMP JUMPDEST PUSH2 0x12CA DUP2 PUSH2 0xB5C JUMP JUMPDEST DUP3 MSTORE POP POP JUMP JUMPDEST PUSH0 PUSH1 0xA0 DUP3 ADD SWAP1 POP PUSH2 0x12E3 PUSH0 DUP4 ADD DUP9 PUSH2 0x12C1 JUMP JUMPDEST PUSH2 0x12F0 PUSH1 0x20 DUP4 ADD DUP8 PUSH2 0x12C1 JUMP JUMPDEST PUSH2 0x12FD PUSH1 0x40 DUP4 ADD DUP7 PUSH2 0x12C1 JUMP JUMPDEST PUSH2 0x130A PUSH1 0x60 DUP4 ADD DUP6 PUSH2 0xDA2 JUMP JUMPDEST DUP2 DUP2 SUB PUSH1 0x80 DUP4 ADD MSTORE PUSH2 0x131C DUP2 DUP5 PUSH2 0x1146 JUMP JUMPDEST SWAP1 POP SWAP7 SWAP6 POP POP POP POP POP POP JUMP JUMPDEST PUSH2 0x1331 DUP2 PUSH2 0xE0F JUMP JUMPDEST DUP3 MSTORE POP POP JUMP JUMPDEST PUSH0 PUSH1 0x40 DUP3 ADD SWAP1 POP PUSH2 0x134A PUSH0 DUP4 ADD DUP6 PUSH2 0x1328 JUMP JUMPDEST DUP2 DUP2 SUB PUSH1 0x20 DUP4 ADD MSTORE PUSH2 0x135C DUP2 DUP5 PUSH2 0x1146 JUMP JUMPDEST SWAP1 POP SWAP4 SWAP3 POP POP POP JUMP JUMPDEST PUSH0 PUSH1 0x20 DUP3 DUP5 SUB SLT ISZERO PUSH2 0x137A JUMPI PUSH2 0x1379 PUSH2 0x9F9 JUMP JUMPDEST JUMPDEST PUSH0 DUP3 ADD MLOAD PUSH8 0xFFFFFFFFFFFFFFFF DUP2 GT ISZERO PUSH2 0x1397 JUMPI PUSH2 0x1396 PUSH2 0x9FD JUMP JUMPDEST JUMPDEST PUSH2 0x13A3 DUP5 DUP3 DUP6 ADD PUSH2 0xC70 JUMP JUMPDEST SWAP2 POP POP SWAP3 SWAP2 POP POP JUMP JUMPDEST PUSH0 PUSH1 0x20 DUP3 ADD SWAP1 POP PUSH2 0x13BF PUSH0 DUP4 ADD DUP5 PUSH2 0x12C1 JUMP JUMPDEST SWAP3 SWAP2 POP POP JUMP JUMPDEST PUSH0 PUSH32 0xFFFFFFFF00000000000000000000000000000000000000000000000000000000 DUP3 AND SWAP1 POP SWAP2 SWAP1 POP JUMP JUMPDEST PUSH2 0x13F9 DUP2 PUSH2 0x13C5 JUMP JUMPDEST DUP3 MSTORE POP POP JUMP JUMPDEST PUSH0 PUSH1 0x20 DUP3 ADD SWAP1 POP PUSH2 0x1412 PUSH0 DUP4 ADD DUP5 PUSH2 0x13F0 JUMP JUMPDEST SWAP3 SWAP2 POP POP JUMP JUMPDEST PUSH2 0x3F35 DUP1 PUSH2 0x1425 PUSH0 CODECOPY PUSH0 RETURN INVALID PUSH1 0x80 PUSH1 0x40 MSTORE PUSH1 0x4 CALLDATASIZE LT PUSH2 0x122 JUMPI PUSH0 CALLDATALOAD PUSH1 0xE0 SHR DUP1 PUSH4 0x715018A6 GT PUSH2 0x9F JUMPI DUP1 PUSH4 0x97902421 GT PUSH2 0x63 JUMPI DUP1 PUSH4 0x97902421 EQ PUSH2 0x4A5 JUMPI DUP1 PUSH4 0xB49506FD EQ PUSH2 0x4C1 JUMPI DUP1 PUSH4 0xD72FC29A EQ PUSH2 0x4E9 JUMPI DUP1 PUSH4 0xDEDFF9C6 EQ PUSH2 0x525 JUMPI DUP1 PUSH4 0xF2FDE38B EQ PUSH2 0x561 JUMPI PUSH2 0x19B JUMP JUMPDEST DUP1 PUSH4 0x715018A6 EQ PUSH2 0x3F9 JUMPI DUP1 PUSH4 0x760D9BBA EQ PUSH2 0x40F JUMPI DUP1 PUSH4 0x78381670 EQ PUSH2 0x437 JUMPI DUP1 PUSH4 0x7F23690C EQ PUSH2 0x45F JUMPI DUP1 PUSH4 0x8DA5CB5B EQ PUSH2 0x47B JUMPI PUSH2 0x19B JUMP JUMPDEST DUP1 PUSH4 0x313CE567 GT PUSH2 0xE6 JUMPI DUP1 PUSH4 0x313CE567 EQ PUSH2 0x2DF JUMPI DUP1 PUSH4 0x54F6127F EQ PUSH2 0x309 JUMPI DUP1 PUSH4 0x65AEAA95 EQ PUSH2 0x345 JUMPI DUP1 PUSH4 0x6963D438 EQ PUSH2 0x381 JUMPI DUP1 PUSH4 0x70A08231 EQ PUSH2 0x3BD JUMPI PUSH2 0x19B JUMP JUMPDEST DUP1 PUSH4 0x1FFC9A7 EQ PUSH2 0x201 JUMPI DUP1 PUSH4 0x18160DDD EQ PUSH2 0x23D JUMPI DUP1 PUSH4 0x2BC1DA82 EQ PUSH2 0x267 JUMPI DUP1 PUSH4 0x2D7667C9 EQ PUSH2 0x28F JUMPI DUP1 PUSH4 0x30D0DC37 EQ PUSH2 0x2B7 JUMPI PUSH2 0x19B JUMP JUMPDEST CALLDATASIZE PUSH2 0x19B JUMPI PUSH0 CALLVALUE SUB PUSH2 0x169 JUMPI PUSH1 0x40 MLOAD PUSH32 0xE5099EE300000000000000000000000000000000000000000000000000000000 DUP2 MSTORE PUSH1 0x4 ADD PUSH2 0x160 SWAP1 PUSH2 0x2495 JUMP JUMPDEST PUSH1 0x40 MLOAD DUP1 SWAP2 SUB SWAP1 REVERT JUMPDEST PUSH1 0x40 MLOAD PUSH32 0x388F5ADC00000000000000000000000000000000000000000000000000000000 DUP2 MSTORE PUSH1 0x4 ADD PUSH1 0x40 MLOAD DUP1 SWAP2 SUB SWAP1 REVERT JUMPDEST PUSH0 CALLDATASIZE PUSH1 0x60 PUSH1 0x4 PUSH0 CALLDATASIZE SWAP1 POP LT ISZERO PUSH2 0x1EA JUMPI DUP3 DUP3 PUSH1 0x40 MLOAD PUSH32 0xE5099EE300000000000000000000000000000000000000000000000000000000 DUP2 MSTORE PUSH1 0x4 ADD PUSH2 0x1E1 SWAP3 SWAP2 SWAP1 PUSH2 0x24FD JUMP JUMPDEST PUSH1 0x40 MLOAD DUP1 SWAP2 SUB SWAP1 REVERT JUMPDEST PUSH2 0x1F4 DUP4 DUP4 PUSH2 0x589 JUMP JUMPDEST SWAP1 POP SWAP2 POP POP DUP1 MLOAD SWAP1 PUSH1 0x20 ADD RETURN JUMPDEST CALLVALUE DUP1 ISZERO PUSH2 0x20C JUMPI PUSH0 DUP1 REVERT JUMPDEST POP PUSH2 0x227 PUSH1 0x4 DUP1 CALLDATASIZE SUB DUP2 ADD SWAP1 PUSH2 0x222 SWAP2 SWAP1 PUSH2 0x2585 JUMP JUMPDEST PUSH2 0x6FF JUMP JUMPDEST PUSH1 0x40 MLOAD PUSH2 0x234 SWAP2 SWAP1 PUSH2 0x25CA JUMP JUMPDEST PUSH1 0x40 MLOAD DUP1 SWAP2 SUB SWAP1 RETURN JUMPDEST CALLVALUE DUP1 ISZERO PUSH2 0x248 JUMPI PUSH0 DUP1 REVERT JUMPDEST POP PUSH2 0x251 PUSH2 0x76F JUMP JUMPDEST PUSH1 0x40 MLOAD PUSH2 0x25E SWAP2 SWAP1 PUSH2 0x25FB JUMP JUMPDEST PUSH1 0x40 MLOAD DUP1 SWAP2 SUB SWAP1 RETURN JUMPDEST CALLVALUE DUP1 ISZERO PUSH2 0x272 JUMPI PUSH0 DUP1 REVERT JUMPDEST POP PUSH2 0x28D PUSH1 0x4 DUP1 CALLDATASIZE SUB DUP2 ADD SWAP1 PUSH2 0x288 SWAP2 SWAP1 PUSH2 0x27B6 JUMP JUMPDEST PUSH2 0x778 JUMP JUMPDEST STOP JUMPDEST CALLVALUE DUP1 ISZERO PUSH2 0x29A JUMPI PUSH0 DUP1 REVERT JUMPDEST POP PUSH2 0x2B5 PUSH1 0x4 DUP1 CALLDATASIZE SUB DUP2 ADD SWAP1 PUSH2 0x2B0 SWAP2 SWAP1 PUSH2 0x2B6E JUMP JUMPDEST PUSH2 0x81F JUMP JUMPDEST STOP JUMPDEST CALLVALUE DUP1 ISZERO PUSH2 0x2C2 JUMPI PUSH0 DUP1 REVERT JUMPDEST POP PUSH2 0x2DD PUSH1 0x4 DUP1 CALLDATASIZE SUB DUP2 ADD SWAP1 PUSH2 0x2D8 SWAP2 SWAP1 PUSH2 0x2C71 JUMP JUMPDEST PUSH2 0x931 JUMP JUMPDEST STOP JUMPDEST CALLVALUE DUP1 ISZERO PUSH2 0x2EA JUMPI PUSH0 DUP1 REVERT JUMPDEST POP PUSH2 0x2F3 PUSH2 0xA2B JUMP JUMPDEST PUSH1 0x40 MLOAD PUSH2 0x300 SWAP2 SWAP1 PUSH2 0x2D0C JUMP JUMPDEST PUSH1 0x40 MLOAD DUP1 SWAP2 SUB SWAP1 RETURN JUMPDEST CALLVALUE DUP1 ISZERO PUSH2 0x314 JUMPI PUSH0 DUP1 REVERT JUMPDEST POP PUSH2 0x32F PUSH1 0x4 DUP1 CALLDATASIZE SUB DUP2 ADD SWAP1 PUSH2 0x32A SWAP2 SWAP1 PUSH2 0x2D58 JUMP JUMPDEST PUSH2 0xA4D JUMP JUMPDEST PUSH1 0x40 MLOAD PUSH2 0x33C SWAP2 SWAP1 PUSH2 0x2DD3 JUMP JUMPDEST PUSH1 0x40 MLOAD DUP1 SWAP2 SUB SWAP1 RETURN JUMPDEST CALLVALUE DUP1 ISZERO PUSH2 0x350 JUMPI PUSH0 DUP1 REVERT JUMPDEST POP PUSH2 0x36B PUSH1 0x4 DUP1 CALLDATASIZE SUB DUP2 ADD SWAP1 PUSH2 0x366 SWAP2 SWAP1 PUSH2 0x2DF3 JUMP JUMPDEST PUSH2 0xA5F JUMP JUMPDEST PUSH1 0x40 MLOAD PUSH2 0x378 SWAP2 SWAP1 PUSH2 0x25FB JUMP JUMPDEST PUSH1 0x40 MLOAD DUP1 SWAP2 SUB SWAP1 RETURN JUMPDEST CALLVALUE DUP1 ISZERO PUSH2 0x38C JUMPI PUSH0 DUP1 REVERT JUMPDEST POP PUSH2 0x3A7 PUSH1 0x4 DUP1 CALLDATASIZE SUB DUP2 ADD SWAP1 PUSH2 0x3A2 SWAP2 SWAP1 PUSH2 0x2E8A JUMP JUMPDEST PUSH2 0xB5A JUMP JUMPDEST PUSH1 0x40 MLOAD PUSH2 0x3B4 SWAP2 SWAP1 PUSH2 0x2FD8 JUMP JUMPDEST PUSH1 0x40 MLOAD DUP1 SWAP2 SUB SWAP1 RETURN JUMPDEST CALLVALUE DUP1 ISZERO PUSH2 0x3C8 JUMPI PUSH0 DUP1 REVERT JUMPDEST POP PUSH2 0x3E3 PUSH1 0x4 DUP1 CALLDATASIZE SUB DUP2 ADD SWAP1 PUSH2 0x3DE SWAP2 SWAP1 PUSH2 0x2FF8 JUMP JUMPDEST PUSH2 0xCD0 JUMP JUMPDEST PUSH1 0x40 MLOAD PUSH2 0x3F0 SWAP2 SWAP1 PUSH2 0x25FB JUMP JUMPDEST PUSH1 0x40 MLOAD DUP1 SWAP2 SUB SWAP1 RETURN JUMPDEST CALLVALUE DUP1 ISZERO PUSH2 0x404 JUMPI PUSH0 DUP1 REVERT JUMPDEST POP PUSH2 0x40D PUSH2 0xD16 JUMP JUMPDEST STOP JUMPDEST CALLVALUE DUP1 ISZERO PUSH2 0x41A JUMPI PUSH0 DUP1 REVERT JUMPDEST POP PUSH2 0x435 PUSH1 0x4 DUP1 CALLDATASIZE SUB DUP2 ADD SWAP1 PUSH2 0x430 SWAP2 SWAP1 PUSH2 0x3023 JUMP JUMPDEST PUSH2 0xD29 JUMP JUMPDEST STOP JUMPDEST CALLVALUE DUP1 ISZERO PUSH2 0x442 JUMPI PUSH0 DUP1 REVERT JUMPDEST POP PUSH2 0x45D PUSH1 0x4 DUP1 CALLDATASIZE SUB DUP2 ADD SWAP1 PUSH2 0x458 SWAP2 SWAP1 PUSH2 0x30B6 JUMP JUMPDEST PUSH2 0xD7C JUMP JUMPDEST STOP JUMPDEST PUSH2 0x479 PUSH1 0x4 DUP1 CALLDATASIZE SUB DUP2 ADD SWAP1 PUSH2 0x474 SWAP2 SWAP1 PUSH2 0x3136 JUMP JUMPDEST PUSH2 0xEBF JUMP JUMPDEST STOP JUMPDEST CALLVALUE DUP1 ISZERO PUSH2 0x486 JUMPI PUSH0 DUP1 REVERT JUMPDEST POP PUSH2 0x48F PUSH2 0xF0E JUMP JUMPDEST PUSH1 0x40 MLOAD PUSH2 0x49C SWAP2 SWAP1 PUSH2 0x319F JUMP JUMPDEST PUSH1 0x40 MLOAD DUP1 SWAP2 SUB SWAP1 RETURN JUMPDEST PUSH2 0x4BF PUSH1 0x4 DUP1 CALLDATASIZE SUB DUP2 ADD SWAP1 PUSH2 0x4BA SWAP2 SWAP1 PUSH2 0x3278 JUMP JUMPDEST PUSH2 0xF35 JUMP JUMPDEST STOP JUMPDEST CALLVALUE DUP1 ISZERO PUSH2 0x4CC JUMPI PUSH0 DUP1 REVERT JUMPDEST POP PUSH2 0x4E7 PUSH1 0x4 DUP1 CALLDATASIZE SUB DUP2 ADD SWAP1 PUSH2 0x4E2 SWAP2 SWAP1 PUSH2 0x27B6 JUMP JUMPDEST PUSH2 0x1044 JUMP JUMPDEST STOP JUMPDEST CALLVALUE DUP1 ISZERO PUSH2 0x4F4 JUMPI PUSH0 DUP1 REVERT JUMPDEST POP PUSH2 0x50F PUSH1 0x4 DUP1 CALLDATASIZE SUB DUP2 ADD SWAP1 PUSH2 0x50A SWAP2 SWAP1 PUSH2 0x2FF8 JUMP JUMPDEST PUSH2 0x1089 JUMP JUMPDEST PUSH1 0x40 MLOAD PUSH2 0x51C SWAP2 SWAP1 PUSH2 0x33A5 JUMP JUMPDEST PUSH1 0x40 MLOAD DUP1 SWAP2 SUB SWAP1 RETURN JUMPDEST CALLVALUE DUP1 ISZERO PUSH2 0x530 JUMPI PUSH0 DUP1 REVERT JUMPDEST POP PUSH2 0x54B PUSH1 0x4 DUP1 CALLDATASIZE SUB DUP2 ADD SWAP1 PUSH2 0x546 SWAP2 SWAP1 PUSH2 0x33C5 JUMP JUMPDEST PUSH2 0x10D7 JUMP JUMPDEST PUSH1 0x40 MLOAD PUSH2 0x558 SWAP2 SWAP1 PUSH2 0x2FD8 JUMP JUMPDEST PUSH1 0x40 MLOAD DUP1 SWAP2 SUB SWAP1 RETURN JUMPDEST CALLVALUE DUP1 ISZERO PUSH2 0x56C JUMPI PUSH0 DUP1 REVERT JUMPDEST POP PUSH2 0x587 PUSH1 0x4 DUP1 CALLDATASIZE SUB DUP2 ADD SWAP1 PUSH2 0x582 SWAP2 SWAP1 PUSH2 0x2FF8 JUMP JUMPDEST PUSH2 0x1187 JUMP JUMPDEST STOP JUMPDEST PUSH1 0x60 PUSH0 PUSH2 0x5B8 PUSH0 CALLDATALOAD PUSH32 0xFFFFFFFF00000000000000000000000000000000000000000000000000000000 AND PUSH2 0x1200 JUMP JUMPDEST POP SWAP1 POP PUSH0 PUSH20 0xFFFFFFFFFFFFFFFFFFFFFFFFFFFFFFFFFFFFFFFF AND DUP2 PUSH20 0xFFFFFFFFFFFFFFFFFFFFFFFFFFFFFFFFFFFFFFFF AND SUB PUSH2 0x64E JUMPI PUSH0 CALLDATALOAD PUSH32 0xFFFFFFFF00000000000000000000000000000000000000000000000000000000 AND PUSH1 0x40 MLOAD PUSH32 0xBB370B2B00000000000000000000000000000000000000000000000000000000 DUP2 MSTORE PUSH1 0x4 ADD PUSH2 0x645 SWAP2 SWAP1 PUSH2 0x341B JUMP JUMPDEST PUSH1 0x40 MLOAD DUP1 SWAP2 SUB SWAP1 REVERT JUMPDEST PUSH0 DUP1 DUP3 PUSH20 0xFFFFFFFFFFFFFFFFFFFFFFFFFFFFFFFFFFFFFFFF AND CALLVALUE DUP8 DUP8 CALLER CALLVALUE PUSH1 0x40 MLOAD PUSH1 0x20 ADD PUSH2 0x67F SWAP5 SWAP4 SWAP3 SWAP2 SWAP1 PUSH2 0x34C7 JUMP JUMPDEST PUSH1 0x40 MLOAD PUSH1 0x20 DUP2 DUP4 SUB SUB DUP2 MSTORE SWAP1 PUSH1 0x40 MSTORE PUSH1 0x40 MLOAD PUSH2 0x69B SWAP2 SWAP1 PUSH2 0x3531 JUMP JUMPDEST PUSH0 PUSH1 0x40 MLOAD DUP1 DUP4 SUB DUP2 DUP6 DUP8 GAS CALL SWAP3 POP POP POP RETURNDATASIZE DUP1 PUSH0 DUP2 EQ PUSH2 0x6D5 JUMPI PUSH1 0x40 MLOAD SWAP2 POP PUSH1 0x1F NOT PUSH1 0x3F RETURNDATASIZE ADD AND DUP3 ADD PUSH1 0x40 MSTORE RETURNDATASIZE DUP3 MSTORE RETURNDATASIZE PUSH0 PUSH1 0x20 DUP5 ADD RETURNDATACOPY PUSH2 0x6DA JUMP JUMPDEST PUSH1 0x60 SWAP2 POP JUMPDEST POP SWAP2 POP SWAP2 POP DUP2 ISZERO PUSH2 0x6F0 JUMPI DUP1 SWAP4 POP POP POP POP PUSH2 0x6F9 JUMP JUMPDEST DUP1 MLOAD DUP1 PUSH1 0x20 DUP4 ADD REVERT JUMPDEST SWAP3 SWAP2 POP POP JUMP JUMPDEST PUSH0 PUSH4 0xC52D6008 PUSH1 0xE0 SHL PUSH28 0xFFFFFFFFFFFFFFFFFFFFFFFFFFFFFFFFFFFFFFFFFFFFFFFFFFFFFFFF NOT AND DUP3 PUSH28 0xFFFFFFFFFFFFFFFFFFFFFFFFFFFFFFFFFFFFFFFFFFFFFFFFFFFFFFFF NOT AND EQ DUP1 PUSH2 0x758 JUMPI POP PUSH2 0x757 DUP3 PUSH2 0x12B6 JUMP JUMPDEST JUMPDEST DUP1 PUSH2 0x768 JUMPI POP PUSH2 0x767 DUP3 PUSH2 0x1316 JUMP JUMPDEST JUMPDEST SWAP1 POP SWAP2 SWAP1 POP JUMP JUMPDEST PUSH0 PUSH1 0x3 SLOAD SWAP1 POP SWAP1 JUMP JUMPDEST PUSH0 PUSH2 0x783 DUP5 CALLER PUSH2 0xA5F JUMP JUMPDEST SWAP1 POP PUSH0 DUP2 SUB PUSH2 0x7C9 JUMPI DUP4 PUSH1 0x40 MLOAD PUSH32 0xCBA6E97700000000000000000000000000000000000000000000000000000000 DUP2 MSTORE PUSH1 0x4 ADD PUSH2 0x7C0 SWAP2 SWAP1 PUSH2 0x319F JUMP JUMPDEST PUSH1 0x40 MLOAD DUP1 SWAP2 SUB SWAP1 REVERT JUMPDEST PUSH0 DUP4 DUP3 PUSH2 0x7D6 SWAP2 SWAP1 PUSH2 0x3574 JUMP JUMPDEST SWAP1 POP PUSH2 0x7E6 CALLER DUP7 DUP4 PUSH1 0x1 DUP8 PUSH2 0x137A JUMP JUMPDEST PUSH0 CALLER DUP3 DUP6 PUSH1 0x40 MLOAD PUSH1 0x20 ADD PUSH2 0x7FC SWAP4 SWAP3 SWAP2 SWAP1 PUSH2 0x35A7 JUMP JUMPDEST PUSH1 0x40 MLOAD PUSH1 0x20 DUP2 DUP4 SUB SUB DUP2 MSTORE SWAP1 PUSH1 0x40 MSTORE SWAP1 POP PUSH2 0x817 DUP7 DUP3 PUSH2 0x1643 JUMP JUMPDEST POP POP POP POP POP POP JUMP JUMPDEST PUSH0 DUP6 MLOAD SWAP1 POP DUP5 MLOAD DUP2 EQ ISZERO DUP1 PUSH2 0x835 JUMPI POP DUP4 MLOAD DUP2 EQ ISZERO JUMPDEST DUP1 PUSH2 0x841 JUMPI POP DUP3 MLOAD DUP2 EQ ISZERO JUMPDEST DUP1 PUSH2 0x84D JUMPI POP DUP2 MLOAD DUP2 EQ ISZERO JUMPDEST ISZERO PUSH2 0x884 JUMPI PUSH1 0x40 MLOAD PUSH32 0x263EEE8D00000000000000000000000000000000000000000000000000000000 DUP2 MSTORE PUSH1 0x4 ADD PUSH1 0x40 MLOAD DUP1 SWAP2 SUB SWAP1 REVERT JUMPDEST PUSH0 JUMPDEST DUP2 DUP2 LT ISZERO PUSH2 0x928 JUMPI PUSH2 0x91D DUP8 DUP3 DUP2 MLOAD DUP2 LT PUSH2 0x8A4 JUMPI PUSH2 0x8A3 PUSH2 0x35E3 JUMP JUMPDEST JUMPDEST PUSH1 0x20 MUL PUSH1 0x20 ADD ADD MLOAD DUP8 DUP4 DUP2 MLOAD DUP2 LT PUSH2 0x8BF JUMPI PUSH2 0x8BE PUSH2 0x35E3 JUMP JUMPDEST JUMPDEST PUSH1 0x20 MUL PUSH1 0x20 ADD ADD MLOAD DUP8 DUP5 DUP2 MLOAD DUP2 LT PUSH2 0x8DA JUMPI PUSH2 0x8D9 PUSH2 0x35E3 JUMP JUMPDEST JUMPDEST PUSH1 0x20 MUL PUSH1 0x20 ADD ADD MLOAD DUP8 DUP6 DUP2 MLOAD DUP2 LT PUSH2 0x8F5 JUMPI PUSH2 0x8F4 PUSH2 0x35E3 JUMP JUMPDEST JUMPDEST PUSH1 0x20 MUL PUSH1 0x20 ADD ADD MLOAD DUP8 DUP7 DUP2 MLOAD DUP2 LT PUSH2 0x910 JUMPI PUSH2 0x90F PUSH2 0x35E3 JUMP JUMPDEST JUMPDEST PUSH1 0x20 MUL PUSH1 0x20 ADD ADD MLOAD PUSH2 0xD29 JUMP JUMPDEST DUP1 PUSH1 0x1 ADD SWAP1 POP PUSH2 0x886 JUMP JUMPDEST POP POP POP POP POP POP POP JUMP JUMPDEST DUP3 PUSH20 0xFFFFFFFFFFFFFFFFFFFFFFFFFFFFFFFFFFFFFFFF AND CALLER PUSH20 0xFFFFFFFFFFFFFFFFFFFFFFFFFFFFFFFFFFFFFFFF AND EQ ISZERO DUP1 ISZERO PUSH2 0x999 JUMPI POP DUP4 PUSH20 0xFFFFFFFFFFFFFFFFFFFFFFFFFFFFFFFFFFFFFFFF AND CALLER PUSH20 0xFFFFFFFFFFFFFFFFFFFFFFFFFFFFFFFFFFFFFFFF AND EQ ISZERO JUMPDEST ISZERO PUSH2 0x9DF JUMPI CALLER DUP4 DUP6 PUSH1 0x40 MLOAD PUSH32 0x1A525B3200000000000000000000000000000000000000000000000000000000 DUP2 MSTORE PUSH1 0x4 ADD PUSH2 0x9D6 SWAP4 SWAP3 SWAP2 SWAP1 PUSH2 0x3610 JUMP JUMPDEST PUSH1 0x40 MLOAD DUP1 SWAP2 SUB SWAP1 REVERT JUMPDEST PUSH2 0x9EC DUP4 DUP6 PUSH0 DUP6 DUP6 PUSH2 0x137A JUMP JUMPDEST DUP2 ISZERO PUSH2 0xA25 JUMPI PUSH0 DUP4 PUSH0 DUP4 PUSH1 0x40 MLOAD PUSH1 0x20 ADD PUSH2 0xA08 SWAP4 SWAP3 SWAP2 SWAP1 PUSH2 0x3687 JUMP JUMPDEST PUSH1 0x40 MLOAD PUSH1 0x20 DUP2 DUP4 SUB SUB DUP2 MSTORE SWAP1 PUSH1 0x40 MSTORE SWAP1 POP PUSH2 0xA23 DUP6 DUP3 PUSH2 0x1643 JUMP JUMPDEST POP JUMPDEST POP POP POP POP JUMP JUMPDEST PUSH0 PUSH1 0x2 PUSH0 SWAP1 SLOAD SWAP1 PUSH2 0x100 EXP SWAP1 DIV PUSH1 0xFF AND PUSH2 0xA46 JUMPI PUSH1 0x12 PUSH2 0xA48 JUMP JUMPDEST PUSH0 JUMPDEST SWAP1 POP SWAP1 JUMP JUMPDEST PUSH1 0x60 PUSH2 0xA58 DUP3 PUSH2 0x1674 JUMP JUMPDEST SWAP1 POP SWAP2 SWAP1 POP JUMP JUMPDEST PUSH0 DUP3 PUSH20 0xFFFFFFFFFFFFFFFFFFFFFFFFFFFFFFFFFFFFFFFF AND DUP3 PUSH20 0xFFFFFFFFFFFFFFFFFFFFFFFFFFFFFFFFFFFFFFFF AND SUB PUSH2 0xAD8 JUMPI PUSH1 0x4 PUSH0 DUP4 PUSH20 0xFFFFFFFFFFFFFFFFFFFFFFFFFFFFFFFFFFFFFFFF AND PUSH20 0xFFFFFFFFFFFFFFFFFFFFFFFFFFFFFFFFFFFFFFFF AND DUP2 MSTORE PUSH1 0x20 ADD SWAP1 DUP2 MSTORE PUSH1 0x20 ADD PUSH0 KECCAK256 SLOAD SWAP1 POP PUSH2 0xB54 JUMP JUMPDEST PUSH1 0x6 PUSH0 DUP4 PUSH20 0xFFFFFFFFFFFFFFFFFFFFFFFFFFFFFFFFFFFFFFFF AND PUSH20 0xFFFFFFFFFFFFFFFFFFFFFFFFFFFFFFFFFFFFFFFF AND DUP2 MSTORE PUSH1 0x20 ADD SWAP1 DUP2 MSTORE PUSH1 0x20 ADD PUSH0 KECCAK256 PUSH0 DUP5 PUSH20 0xFFFFFFFFFFFFFFFFFFFFFFFFFFFFFFFFFFFFFFFF AND PUSH20 0xFFFFFFFFFFFFFFFFFFFFFFFFFFFFFFFFFFFFFFFF AND DUP2 MSTORE PUSH1 0x20 ADD SWAP1 DUP2 MSTORE PUSH1 0x20 ADD PUSH0 KECCAK256 SLOAD SWAP1 POP JUMPDEST SWAP3 SWAP2 POP POP JUMP JUMPDEST PUSH1 0x60 DUP3 DUP3 SWAP1 POP PUSH8 0xFFFFFFFFFFFFFFFF DUP2 GT ISZERO PUSH2 0xB79 JUMPI PUSH2 0xB78 PUSH2 0x26A0 JUMP JUMPDEST JUMPDEST PUSH1 0x40 MLOAD SWAP1 DUP1 DUP3 MSTORE DUP1 PUSH1 0x20 MUL PUSH1 0x20 ADD DUP3 ADD PUSH1 0x40 MSTORE DUP1 ISZERO PUSH2 0xBAC JUMPI DUP2 PUSH1 0x20 ADD JUMPDEST PUSH1 0x60 DUP2 MSTORE PUSH1 0x20 ADD SWAP1 PUSH1 0x1 SWAP1 SUB SWAP1 DUP2 PUSH2 0xB97 JUMPI SWAP1 POP JUMPDEST POP SWAP1 POP PUSH0 JUMPDEST DUP4 DUP4 SWAP1 POP DUP2 LT ISZERO PUSH2 0xCC9 JUMPI PUSH0 DUP1 ADDRESS PUSH20 0xFFFFFFFFFFFFFFFFFFFFFFFFFFFFFFFFFFFFFFFF AND DUP7 DUP7 DUP6 DUP2 DUP2 LT PUSH2 0xBE8 JUMPI PUSH2 0xBE7 PUSH2 0x35E3 JUMP JUMPDEST JUMPDEST SWAP1 POP PUSH1 0x20 MUL DUP2 ADD SWAP1 PUSH2 0xBFA SWAP2 SWAP1 PUSH2 0x36CF JUMP JUMPDEST PUSH1 0x40 MLOAD PUSH2 0xC08 SWAP3 SWAP2 SWAP1 PUSH2 0x3731 JUMP JUMPDEST PUSH0 PUSH1 0x40 MLOAD DUP1 DUP4 SUB DUP2 DUP6 GAS DELEGATECALL SWAP2 POP POP RETURNDATASIZE DUP1 PUSH0 DUP2 EQ PUSH2 0xC40 JUMPI PUSH1 0x40 MLOAD SWAP2 POP PUSH1 0x1F NOT PUSH1 0x3F RETURNDATASIZE ADD AND DUP3 ADD PUSH1 0x40 MSTORE RETURNDATASIZE DUP3 MSTORE RETURNDATASIZE PUSH0 PUSH1 0x20 DUP5 ADD RETURNDATACOPY PUSH2 0xC45 JUMP JUMPDEST PUSH1 0x60 SWAP2 POP JUMPDEST POP SWAP2 POP SWAP2 POP DUP2 PUSH2 0xC9D JUMPI PUSH0 DUP2 MLOAD EQ PUSH2 0xC60 JUMPI DUP1 MLOAD DUP1 DUP3 PUSH1 0x20 ADD REVERT JUMPDEST DUP3 PUSH1 0x40 MLOAD PUSH32 0xB774C28400000000000000000000000000000000000000000000000000000000 DUP2 MSTORE PUSH1 0x4 ADD PUSH2 0xC94 SWAP2 SWAP1 PUSH2 0x25FB JUMP JUMPDEST PUSH1 0x40 MLOAD DUP1 SWAP2 SUB SWAP1 REVERT JUMPDEST DUP1 DUP5 DUP5 DUP2 MLOAD DUP2 LT PUSH2 0xCB1 JUMPI PUSH2 0xCB0 PUSH2 0x35E3 JUMP JUMPDEST JUMPDEST PUSH1 0x20 MUL PUSH1 0x20 ADD ADD DUP2 SWAP1 MSTORE POP DUP3 PUSH1 0x1 ADD SWAP3 POP POP POP PUSH2 0xBB1 JUMP JUMPDEST POP SWAP3 SWAP2 POP POP JUMP JUMPDEST PUSH0 PUSH1 0x4 PUSH0 DUP4 PUSH20 0xFFFFFFFFFFFFFFFFFFFFFFFFFFFFFFFFFFFFFFFF AND PUSH20 0xFFFFFFFFFFFFFFFFFFFFFFFFFFFFFFFFFFFFFFFF AND DUP2 MSTORE PUSH1 0x20 ADD SWAP1 DUP2 MSTORE PUSH1 0x20 ADD PUSH0 KECCAK256 SLOAD SWAP1 POP SWAP2 SWAP1 POP JUMP JUMPDEST PUSH2 0xD1E PUSH2 0x1715 JUMP JUMPDEST PUSH2 0xD27 PUSH0 PUSH2 0x178E JUMP JUMPDEST JUMP JUMPDEST DUP5 PUSH20 0xFFFFFFFFFFFFFFFFFFFFFFFFFFFFFFFFFFFFFFFF AND CALLER PUSH20 0xFFFFFFFFFFFFFFFFFFFFFFFFFFFFFFFFFFFFFFFF AND EQ PUSH2 0xD68 JUMPI PUSH2 0xD67 CALLER DUP7 DUP6 PUSH2 0x1884 JUMP JUMPDEST JUMPDEST PUSH2 0xD75 DUP6 DUP6 DUP6 DUP6 DUP6 PUSH2 0x1977 JUMP JUMPDEST POP POP POP POP POP JUMP JUMPDEST DUP3 PUSH20 0xFFFFFFFFFFFFFFFFFFFFFFFFFFFFFFFFFFFFFFFF AND CALLER PUSH20 0xFFFFFFFFFFFFFFFFFFFFFFFFFFFFFFFFFFFFFFFF AND EQ ISZERO DUP1 ISZERO PUSH2 0xDE4 JUMPI POP DUP4 PUSH20 0xFFFFFFFFFFFFFFFFFFFFFFFFFFFFFFFFFFFFFFFF AND CALLER PUSH20 0xFFFFFFFFFFFFFFFFFFFFFFFFFFFFFFFFFFFFFFFF AND EQ ISZERO JUMPDEST ISZERO PUSH2 0xE2A JUMPI CALLER DUP4 DUP6 PUSH1 0x40 MLOAD PUSH32 0x98CE294500000000000000000000000000000000000000000000000000000000 DUP2 MSTORE PUSH1 0x4 ADD PUSH2 0xE21 SWAP4 SWAP3 SWAP2 SWAP1 PUSH2 0x3610 JUMP JUMPDEST PUSH1 0x40 MLOAD DUP1 SWAP2 SUB SWAP1 REVERT JUMPDEST PUSH0 PUSH2 0xE35 DUP6 DUP6 PUSH2 0xA5F JUMP JUMPDEST SWAP1 POP DUP3 DUP2 LT ISZERO PUSH2 0xE71 JUMPI PUSH1 0x40 MLOAD PUSH32 0xEF76C3500000000000000000000000000000000000000000000000000000000 DUP2 MSTORE PUSH1 0x4 ADD PUSH1 0x40 MLOAD DUP1 SWAP2 SUB SWAP1 REVERT JUMPDEST PUSH0 DUP4 DUP3 SUB SWAP1 POP PUSH2 0xE85 DUP6 DUP8 DUP4 PUSH1 0x1 DUP8 PUSH2 0x137A JUMP JUMPDEST PUSH0 DUP6 DUP3 DUP6 PUSH1 0x40 MLOAD PUSH1 0x20 ADD PUSH2 0xE9B SWAP4 SWAP3 SWAP2 SWAP1 PUSH2 0x35A7 JUMP JUMPDEST PUSH1 0x40 MLOAD PUSH1 0x20 DUP2 DUP4 SUB SUB DUP2 MSTORE SWAP1 PUSH1 0x40 MSTORE SWAP1 POP PUSH2 0xEB6 DUP8 DUP3 PUSH2 0x1643 JUMP JUMPDEST POP POP POP POP POP POP POP JUMP JUMPDEST PUSH2 0xEC7 PUSH2 0x1715 JUMP JUMPDEST PUSH0 CALLVALUE EQ PUSH2 0xF00 JUMPI PUSH1 0x40 MLOAD PUSH32 0xF36BA73700000000000000000000000000000000000000000000000000000000 DUP2 MSTORE PUSH1 0x4 ADD PUSH1 0x40 MLOAD DUP1 SWAP2 SUB SWAP1 REVERT JUMPDEST PUSH2 0xF0A DUP3 DUP3 PUSH2 0x1C24 JUMP JUMPDEST POP POP JUMP JUMPDEST PUSH0 DUP1 PUSH0 SWAP1 SLOAD SWAP1 PUSH2 0x100 EXP SWAP1 DIV PUSH20 0xFFFFFFFFFFFFFFFFFFFFFFFFFFFFFFFFFFFFFFFF AND SWAP1 POP SWAP1 JUMP JUMPDEST PUSH2 0xF3D PUSH2 0x1715 JUMP JUMPDEST PUSH0 CALLVALUE EQ PUSH2 0xF76 JUMPI PUSH1 0x40 MLOAD PUSH32 0xF36BA73700000000000000000000000000000000000000000000000000000000 DUP2 MSTORE PUSH1 0x4 ADD PUSH1 0x40 MLOAD DUP1 SWAP2 SUB SWAP1 REVERT JUMPDEST DUP1 MLOAD DUP3 MLOAD EQ PUSH2 0xFB1 JUMPI PUSH1 0x40 MLOAD PUSH32 0x3BCC897900000000000000000000000000000000000000000000000000000000 DUP2 MSTORE PUSH1 0x4 ADD PUSH1 0x40 MLOAD DUP1 SWAP2 SUB SWAP1 REVERT JUMPDEST PUSH0 DUP3 MLOAD SUB PUSH2 0xFEB JUMPI PUSH1 0x40 MLOAD PUSH32 0x97DA5F9500000000000000000000000000000000000000000000000000000000 DUP2 MSTORE PUSH1 0x4 ADD PUSH1 0x40 MLOAD DUP1 SWAP2 SUB SWAP1 REVERT JUMPDEST PUSH0 JUMPDEST DUP3 MLOAD DUP2 LT ISZERO PUSH2 0x103F JUMPI PUSH2 0x1034 DUP4 DUP3 DUP2 MLOAD DUP2 LT PUSH2 0x100C JUMPI PUSH2 0x100B PUSH2 0x35E3 JUMP JUMPDEST JUMPDEST PUSH1 0x20 MUL PUSH1 0x20 ADD ADD MLOAD DUP4 DUP4 DUP2 MLOAD DUP2 LT PUSH2 0x1027 JUMPI PUSH2 0x1026 PUSH2 0x35E3 JUMP JUMPDEST JUMPDEST PUSH1 0x20 MUL PUSH1 0x20 ADD ADD MLOAD PUSH2 0x1C24 JUMP JUMPDEST DUP1 PUSH1 0x1 ADD SWAP1 POP PUSH2 0xFED JUMP JUMPDEST POP POP POP JUMP JUMPDEST PUSH2 0x1052 CALLER DUP5 DUP5 PUSH1 0x1 DUP6 PUSH2 0x137A JUMP JUMPDEST PUSH0 CALLER DUP4 DUP4 PUSH1 0x40 MLOAD PUSH1 0x20 ADD PUSH2 0x1068 SWAP4 SWAP3 SWAP2 SWAP1 PUSH2 0x35A7 JUMP JUMPDEST PUSH1 0x40 MLOAD PUSH1 0x20 DUP2 DUP4 SUB SUB DUP2 MSTORE SWAP1 PUSH1 0x40 MSTORE SWAP1 POP PUSH2 0x1083 DUP5 DUP3 PUSH2 0x1643 JUMP JUMPDEST POP POP POP POP JUMP JUMPDEST PUSH1 0x60 PUSH2 0x10D0 PUSH1 0x5 PUSH0 DUP5 PUSH20 0xFFFFFFFFFFFFFFFFFFFFFFFFFFFFFFFFFFFFFFFF AND PUSH20 0xFFFFFFFFFFFFFFFFFFFFFFFFFFFFFFFFFFFFFFFF AND DUP2 MSTORE PUSH1 0x20 ADD SWAP1 DUP2 MSTORE PUSH1 0x20 ADD PUSH0 KECCAK256 PUSH2 0x1C96 JUMP JUMPDEST SWAP1 POP SWAP2 SWAP1 POP JUMP JUMPDEST PUSH1 0x60 DUP2 MLOAD PUSH8 0xFFFFFFFFFFFFFFFF DUP2 GT ISZERO PUSH2 0x10F4 JUMPI PUSH2 0x10F3 PUSH2 0x26A0 JUMP JUMPDEST JUMPDEST PUSH1 0x40 MLOAD SWAP1 DUP1 DUP3 MSTORE DUP1 PUSH1 0x20 MUL PUSH1 0x20 ADD DUP3 ADD PUSH1 0x40 MSTORE DUP1 ISZERO PUSH2 0x1127 JUMPI DUP2 PUSH1 0x20 ADD JUMPDEST PUSH1 0x60 DUP2 MSTORE PUSH1 0x20 ADD SWAP1 PUSH1 0x1 SWAP1 SUB SWAP1 DUP2 PUSH2 0x1112 JUMPI SWAP1 POP JUMPDEST POP SWAP1 POP PUSH0 JUMPDEST DUP3 MLOAD DUP2 LT ISZERO PUSH2 0x1181 JUMPI PUSH2 0x1158 DUP4 DUP3 DUP2 MLOAD DUP2 LT PUSH2 0x114B JUMPI PUSH2 0x114A PUSH2 0x35E3 JUMP JUMPDEST JUMPDEST PUSH1 0x20 MUL PUSH1 0x20 ADD ADD MLOAD PUSH2 0x1674 JUMP JUMPDEST DUP3 DUP3 DUP2 MLOAD DUP2 LT PUSH2 0x116B JUMPI PUSH2 0x116A PUSH2 0x35E3 JUMP JUMPDEST JUMPDEST PUSH1 0x20 MUL PUSH1 0x20 ADD ADD DUP2 SWAP1 MSTORE POP DUP1 PUSH1 0x1 ADD SWAP1 POP PUSH2 0x112C JUMP JUMPDEST POP SWAP2 SWAP1 POP JUMP JUMPDEST PUSH2 0x118F PUSH2 0x1715 JUMP JUMPDEST PUSH0 PUSH20 0xFFFFFFFFFFFFFFFFFFFFFFFFFFFFFFFFFFFFFFFF AND DUP2 PUSH20 0xFFFFFFFFFFFFFFFFFFFFFFFFFFFFFFFFFFFFFFFF AND SUB PUSH2 0x11F4 JUMPI PUSH1 0x40 MLOAD PUSH32 0x1AD8836C00000000000000000000000000000000000000000000000000000000 DUP2 MSTORE PUSH1 0x4 ADD PUSH1 0x40 MLOAD DUP1 SWAP2 SUB SWAP1 REVERT JUMPDEST PUSH2 0x11FD DUP2 PUSH2 0x178E JUMP JUMPDEST POP JUMP JUMPDEST PUSH0 DUP1 PUSH0 PUSH2 0x1239 PUSH10 0xCEE78B4094DA86011096 PUSH1 0xB0 SHL DUP6 PUSH28 0xFFFFFFFFFFFFFFFFFFFFFFFFFFFFFFFFFFFFFFFFFFFFFFFFFFFFFFFF NOT AND PUSH2 0x1CB5 JUMP JUMPDEST SWAP1 POP PUSH0 PUSH2 0x1245 DUP3 PUSH2 0x1674 JUMP JUMPDEST SWAP1 POP PUSH1 0x14 DUP2 MLOAD EQ ISZERO DUP1 ISZERO PUSH2 0x125A JUMPI POP PUSH0 DUP2 MLOAD EQ ISZERO JUMPDEST ISZERO PUSH2 0x129C JUMPI DUP1 PUSH1 0x40 MLOAD PUSH32 0x42BFE79F00000000000000000000000000000000000000000000000000000000 DUP2 MSTORE PUSH1 0x4 ADD PUSH2 0x1293 SWAP2 SWAP1 PUSH2 0x2DD3 JUMP JUMPDEST PUSH1 0x40 MLOAD DUP1 SWAP2 SUB SWAP1 REVERT JUMPDEST DUP1 PUSH2 0x12A6 SWAP1 PUSH2 0x37A3 JUMP JUMPDEST PUSH1 0x60 SHR PUSH1 0x1 SWAP4 POP SWAP4 POP POP POP SWAP2 POP SWAP2 JUMP JUMPDEST PUSH0 PUSH4 0xA918FA6B PUSH1 0xE0 SHL PUSH28 0xFFFFFFFFFFFFFFFFFFFFFFFFFFFFFFFFFFFFFFFFFFFFFFFFFFFFFFFF NOT AND DUP3 PUSH28 0xFFFFFFFFFFFFFFFFFFFFFFFFFFFFFFFFFFFFFFFFFFFFFFFFFFFFFFFF NOT AND EQ DUP1 PUSH2 0x130F JUMPI POP PUSH2 0x130E DUP3 PUSH2 0x1CF3 JUMP JUMPDEST JUMPDEST SWAP1 POP SWAP2 SWAP1 POP JUMP JUMPDEST PUSH0 DUP1 PUSH2 0x1328 PUSH4 0x1FFC9A7 PUSH1 0xE0 SHL PUSH2 0x1200 JUMP JUMPDEST POP SWAP1 POP PUSH0 PUSH20 0xFFFFFFFFFFFFFFFFFFFFFFFFFFFFFFFFFFFFFFFF AND DUP2 PUSH20 0xFFFFFFFFFFFFFFFFFFFFFFFFFFFFFFFFFFFFFFFF AND SUB PUSH2 0x1367 JUMPI PUSH0 SWAP2 POP POP PUSH2 0x1375 JUMP JUMPDEST PUSH2 0x1371 DUP2 DUP5 PUSH2 0x1DBC JUMP JUMPDEST SWAP2 POP POP JUMPDEST SWAP2 SWAP1 POP JUMP JUMPDEST PUSH0 PUSH20 0xFFFFFFFFFFFFFFFFFFFFFFFFFFFFFFFFFFFFFFFF AND DUP5 PUSH20 0xFFFFFFFFFFFFFFFFFFFFFFFFFFFFFFFFFFFFFFFF AND SUB PUSH2 0x13DF JUMPI PUSH1 0x40 MLOAD PUSH32 0x6355E76600000000000000000000000000000000000000000000000000000000 DUP2 MSTORE PUSH1 0x4 ADD PUSH1 0x40 MLOAD DUP1 SWAP2 SUB SWAP1 REVERT JUMPDEST DUP5 PUSH20 0xFFFFFFFFFFFFFFFFFFFFFFFFFFFFFFFFFFFFFFFF AND DUP5 PUSH20 0xFFFFFFFFFFFFFFFFFFFFFFFFFFFFFFFFFFFFFFFF AND SUB PUSH2 0x1444 JUMPI PUSH1 0x40 MLOAD PUSH32 0xDAB7504700000000000000000000000000000000000000000000000000000000 DUP2 MSTORE PUSH1 0x4 ADD PUSH1 0x40 MLOAD DUP1 SWAP2 SUB SWAP1 REVERT JUMPDEST DUP3 PUSH1 0x6 PUSH0 DUP8 PUSH20 0xFFFFFFFFFFFFFFFFFFFFFFFFFFFFFFFFFFFFFFFF AND PUSH20 0xFFFFFFFFFFFFFFFFFFFFFFFFFFFFFFFFFFFFFFFF AND DUP2 MSTORE PUSH1 0x20 ADD SWAP1 DUP2 MSTORE PUSH1 0x20 ADD PUSH0 KECCAK256 PUSH0 DUP7 PUSH20 0xFFFFFFFFFFFFFFFFFFFFFFFFFFFFFFFFFFFFFFFF AND PUSH20 0xFFFFFFFFFFFFFFFFFFFFFFFFFFFFFFFFFFFFFFFF AND DUP2 MSTORE PUSH1 0x20 ADD SWAP1 DUP2 MSTORE PUSH1 0x20 ADD PUSH0 KECCAK256 DUP2 SWAP1 SSTORE POP PUSH0 DUP4 EQ PUSH2 0x1583 JUMPI PUSH2 0x1517 DUP5 PUSH1 0x5 PUSH0 DUP9 PUSH20 0xFFFFFFFFFFFFFFFFFFFFFFFFFFFFFFFFFFFFFFFF AND PUSH20 0xFFFFFFFFFFFFFFFFFFFFFFFFFFFFFFFFFFFFFFFF AND DUP2 MSTORE PUSH1 0x20 ADD SWAP1 DUP2 MSTORE PUSH1 0x20 ADD PUSH0 KECCAK256 PUSH2 0x1E55 SWAP1 SWAP2 SWAP1 PUSH4 0xFFFFFFFF AND JUMP JUMPDEST POP DUP3 DUP6 PUSH20 0xFFFFFFFFFFFFFFFFFFFFFFFFFFFFFFFFFFFFFFFF AND DUP6 PUSH20 0xFFFFFFFFFFFFFFFFFFFFFFFFFFFFFFFFFFFFFFFF AND PUSH32 0xF772A43BFDF4729B196E3FB54A818B91A2CA6C49D10B2E16278752F9F515C25D DUP5 PUSH1 0x40 MLOAD PUSH2 0x1576 SWAP2 SWAP1 PUSH2 0x2DD3 JUMP JUMPDEST PUSH1 0x40 MLOAD DUP1 SWAP2 SUB SWAP1 LOG4 PUSH2 0x163C JUMP JUMPDEST PUSH2 0x15D2 DUP5 PUSH1 0x5 PUSH0 DUP9 PUSH20 0xFFFFFFFFFFFFFFFFFFFFFFFFFFFFFFFFFFFFFFFF AND PUSH20 0xFFFFFFFFFFFFFFFFFFFFFFFFFFFFFFFFFFFFFFFF AND DUP2 MSTORE PUSH1 0x20 ADD SWAP1 DUP2 MSTORE PUSH1 0x20 ADD PUSH0 KECCAK256 PUSH2 0x1E82 SWAP1 SWAP2 SWAP1 PUSH4 0xFFFFFFFF AND JUMP JUMPDEST POP DUP2 ISZERO ISZERO DUP6 PUSH20 0xFFFFFFFFFFFFFFFFFFFFFFFFFFFFFFFFFFFFFFFF AND DUP6 PUSH20 0xFFFFFFFFFFFFFFFFFFFFFFFFFFFFFFFFFFFFFFFF AND PUSH32 0xEBF5762D8855CBE012D2CA42FB33A81175E17C8A8751F8859931BA453BD4167 DUP5 PUSH1 0x40 MLOAD PUSH2 0x1633 SWAP2 SWAP1 PUSH2 0x2DD3 JUMP JUMPDEST PUSH1 0x40 MLOAD DUP1 SWAP2 SUB SWAP1 LOG4 JUMPDEST POP POP POP POP POP JUMP JUMPDEST PUSH2 0x1670 DUP3 PUSH32 0x386072CC5A58E61263B434C722725F21031CD06E7C552CFAA06DB5DE8A320DBC PUSH0 SHL DUP4 PUSH2 0x1EAF JUMP JUMPDEST POP POP JUMP JUMPDEST PUSH1 0x60 PUSH1 0x1 PUSH0 DUP4 DUP2 MSTORE PUSH1 0x20 ADD SWAP1 DUP2 MSTORE PUSH1 0x20 ADD PUSH0 KECCAK256 DUP1 SLOAD PUSH2 0x1692 SWAP1 PUSH2 0x3836 JUMP JUMPDEST DUP1 PUSH1 0x1F ADD PUSH1 0x20 DUP1 SWAP2 DIV MUL PUSH1 0x20 ADD PUSH1 0x40 MLOAD SWAP1 DUP2 ADD PUSH1 0x40 MSTORE DUP1 SWAP3 SWAP2 SWAP1 DUP2 DUP2 MSTORE PUSH1 0x20 ADD DUP3 DUP1 SLOAD PUSH2 0x16BE SWAP1 PUSH2 0x3836 JUMP JUMPDEST DUP1 ISZERO PUSH2 0x1709 JUMPI DUP1 PUSH1 0x1F LT PUSH2 0x16E0 JUMPI PUSH2 0x100 DUP1 DUP4 SLOAD DIV MUL DUP4 MSTORE SWAP2 PUSH1 0x20 ADD SWAP2 PUSH2 0x1709 JUMP JUMPDEST DUP3 ADD SWAP2 SWAP1 PUSH0 MSTORE PUSH1 0x20 PUSH0 KECCAK256 SWAP1 JUMPDEST DUP2 SLOAD DUP2 MSTORE SWAP1 PUSH1 0x1 ADD SWAP1 PUSH1 0x20 ADD DUP1 DUP4 GT PUSH2 0x16EC JUMPI DUP3 SWAP1 SUB PUSH1 0x1F AND DUP3 ADD SWAP2 JUMPDEST POP POP POP POP POP SWAP1 POP SWAP2 SWAP1 POP JUMP JUMPDEST CALLER PUSH20 0xFFFFFFFFFFFFFFFFFFFFFFFFFFFFFFFFFFFFFFFF AND PUSH2 0x1734 PUSH2 0xF0E JUMP JUMPDEST PUSH20 0xFFFFFFFFFFFFFFFFFFFFFFFFFFFFFFFFFFFFFFFF AND EQ PUSH2 0x178C JUMPI CALLER PUSH1 0x40 MLOAD PUSH32 0xBF1169C500000000000000000000000000000000000000000000000000000000 DUP2 MSTORE PUSH1 0x4 ADD PUSH2 0x1783 SWAP2 SWAP1 PUSH2 0x319F JUMP JUMPDEST PUSH1 0x40 MLOAD DUP1 SWAP2 SUB SWAP1 REVERT JUMPDEST JUMP JUMPDEST PUSH2 0x1796 PUSH2 0xF0E JUMP JUMPDEST PUSH20 0xFFFFFFFFFFFFFFFFFFFFFFFFFFFFFFFFFFFFFFFF AND DUP2 PUSH20 0xFFFFFFFFFFFFFFFFFFFFFFFFFFFFFFFFFFFFFFFF AND EQ PUSH2 0x1881 JUMPI DUP1 PUSH20 0xFFFFFFFFFFFFFFFFFFFFFFFFFFFFFFFFFFFFFFFF AND PUSH0 DUP1 SLOAD SWAP1 PUSH2 0x100 EXP SWAP1 DIV PUSH20 0xFFFFFFFFFFFFFFFFFFFFFFFFFFFFFFFFFFFFFFFF AND PUSH20 0xFFFFFFFFFFFFFFFFFFFFFFFFFFFFFFFFFFFFFFFF AND PUSH32 0x8BE0079C531659141344CD1FD0A4F28419497F9722A3DAAFE3B4186F6B6457E0 PUSH1 0x40 MLOAD PUSH1 0x40 MLOAD DUP1 SWAP2 SUB SWAP1 LOG3 DUP1 PUSH0 DUP1 PUSH2 0x100 EXP DUP2 SLOAD DUP2 PUSH20 0xFFFFFFFFFFFFFFFFFFFFFFFFFFFFFFFFFFFFFFFF MUL NOT AND SWAP1 DUP4 PUSH20 0xFFFFFFFFFFFFFFFFFFFFFFFFFFFFFFFFFFFFFFFF AND MUL OR SWAP1 SSTORE POP JUMPDEST POP JUMP JUMPDEST PUSH0 PUSH1 0x6 PUSH0 DUP5 PUSH20 0xFFFFFFFFFFFFFFFFFFFFFFFFFFFFFFFFFFFFFFFF AND PUSH20 0xFFFFFFFFFFFFFFFFFFFFFFFFFFFFFFFFFFFFFFFF AND DUP2 MSTORE PUSH1 0x20 ADD SWAP1 DUP2 MSTORE PUSH1 0x20 ADD PUSH0 KECCAK256 PUSH0 DUP6 PUSH20 0xFFFFFFFFFFFFFFFFFFFFFFFFFFFFFFFFFFFFFFFF AND PUSH20 0xFFFFFFFFFFFFFFFFFFFFFFFFFFFFFFFFFFFFFFFF AND DUP2 MSTORE PUSH1 0x20 ADD SWAP1 DUP2 MSTORE PUSH1 0x20 ADD PUSH0 KECCAK256 SLOAD SWAP1 POP DUP1 DUP3 GT ISZERO PUSH2 0x194B JUMPI DUP3 DUP2 DUP6 DUP5 PUSH1 0x40 MLOAD PUSH32 0xF3A6B69100000000000000000000000000000000000000000000000000000000 DUP2 MSTORE PUSH1 0x4 ADD PUSH2 0x1942 SWAP5 SWAP4 SWAP3 SWAP2 SWAP1 PUSH2 0x3866 JUMP JUMPDEST PUSH1 0x40 MLOAD DUP1 SWAP2 SUB SWAP1 REVERT JUMPDEST PUSH2 0x1971 DUP4 DUP6 DUP5 DUP5 PUSH2 0x195C SWAP2 SWAP1 PUSH2 0x38A9 JUMP JUMPDEST PUSH0 PUSH1 0x40 MLOAD DUP1 PUSH1 0x20 ADD PUSH1 0x40 MSTORE DUP1 PUSH0 DUP2 MSTORE POP PUSH2 0x137A JUMP JUMPDEST POP POP POP POP JUMP JUMPDEST PUSH0 PUSH20 0xFFFFFFFFFFFFFFFFFFFFFFFFFFFFFFFFFFFFFFFF AND DUP6 PUSH20 0xFFFFFFFFFFFFFFFFFFFFFFFFFFFFFFFFFFFFFFFF AND EQ DUP1 PUSH2 0x19DC JUMPI POP PUSH0 PUSH20 0xFFFFFFFFFFFFFFFFFFFFFFFFFFFFFFFFFFFFFFFF AND DUP5 PUSH20 0xFFFFFFFFFFFFFFFFFFFFFFFFFFFFFFFFFFFFFFFF AND EQ JUMPDEST ISZERO PUSH2 0x1A13 JUMPI PUSH1 0x40 MLOAD PUSH32 0xD2D5EC3000000000000000000000000000000000000000000000000000000000 DUP2 MSTORE PUSH1 0x4 ADD PUSH1 0x40 MLOAD DUP1 SWAP2 SUB SWAP1 REVERT JUMPDEST PUSH2 0x1A1F DUP6 DUP6 DUP6 DUP5 PUSH2 0x1F69 JUMP JUMPDEST PUSH0 PUSH1 0x4 PUSH0 DUP8 PUSH20 0xFFFFFFFFFFFFFFFFFFFFFFFFFFFFFFFFFFFFFFFF AND PUSH20 0xFFFFFFFFFFFFFFFFFFFFFFFFFFFFFFFFFFFFFFFF AND DUP2 MSTORE PUSH1 0x20 ADD SWAP1 DUP2 MSTORE PUSH1 0x20 ADD PUSH0 KECCAK256 SLOAD SWAP1 POP DUP1 DUP5 GT ISZERO PUSH2 0x1AA9 JUMPI DUP1 DUP7 DUP6 PUSH1 0x40 MLOAD PUSH32 0x8D4794900000000000000000000000000000000000000000000000000000000 DUP2 MSTORE PUSH1 0x4 ADD PUSH2 0x1AA0 SWAP4 SWAP3 SWAP2 SWAP1 PUSH2 0x38DC JUMP JUMPDEST PUSH1 0x40 MLOAD DUP1 SWAP2 SUB SWAP1 REVERT JUMPDEST DUP4 PUSH1 0x4 PUSH0 DUP9 PUSH20 0xFFFFFFFFFFFFFFFFFFFFFFFFFFFFFFFFFFFFFFFF AND PUSH20 0xFFFFFFFFFFFFFFFFFFFFFFFFFFFFFFFFFFFFFFFF AND DUP2 MSTORE PUSH1 0x20 ADD SWAP1 DUP2 MSTORE PUSH1 0x20 ADD PUSH0 KECCAK256 PUSH0 DUP3 DUP3 SLOAD PUSH2 0x1AF5 SWAP2 SWAP1 PUSH2 0x38A9 JUMP JUMPDEST SWAP3 POP POP DUP2 SWAP1 SSTORE POP DUP4 PUSH1 0x4 PUSH0 DUP8 PUSH20 0xFFFFFFFFFFFFFFFFFFFFFFFFFFFFFFFFFFFFFFFF AND PUSH20 0xFFFFFFFFFFFFFFFFFFFFFFFFFFFFFFFFFFFFFFFF AND DUP2 MSTORE PUSH1 0x20 ADD SWAP1 DUP2 MSTORE PUSH1 0x20 ADD PUSH0 KECCAK256 PUSH0 DUP3 DUP3 SLOAD PUSH2 0x1B48 SWAP2 SWAP1 PUSH2 0x3574 JUMP JUMPDEST SWAP3 POP POP DUP2 SWAP1 SSTORE POP DUP5 PUSH20 0xFFFFFFFFFFFFFFFFFFFFFFFFFFFFFFFFFFFFFFFF AND DUP7 PUSH20 0xFFFFFFFFFFFFFFFFFFFFFFFFFFFFFFFFFFFFFFFF AND CALLER PUSH20 0xFFFFFFFFFFFFFFFFFFFFFFFFFFFFFFFFFFFFFFFF AND PUSH32 0x3997E418D2CEF0B3B0E907B1E39605C3F7D32DBD061E82EA5B4A770D46A160A6 DUP8 DUP8 DUP8 PUSH1 0x40 MLOAD PUSH2 0x1BC7 SWAP4 SWAP3 SWAP2 SWAP1 PUSH2 0x3911 JUMP JUMPDEST PUSH1 0x40 MLOAD DUP1 SWAP2 SUB SWAP1 LOG4 PUSH2 0x1BDB DUP7 DUP7 DUP7 DUP6 PUSH2 0x1F6F JUMP JUMPDEST PUSH0 CALLER DUP8 DUP8 DUP8 DUP7 PUSH1 0x40 MLOAD PUSH1 0x20 ADD PUSH2 0x1BF5 SWAP6 SWAP5 SWAP4 SWAP3 SWAP2 SWAP1 PUSH2 0x394D JUMP JUMPDEST PUSH1 0x40 MLOAD PUSH1 0x20 DUP2 DUP4 SUB SUB DUP2 MSTORE SWAP1 PUSH1 0x40 MSTORE SWAP1 POP PUSH2 0x1C10 DUP8 DUP3 PUSH2 0x1F75 JUMP JUMPDEST PUSH2 0x1C1B DUP7 DUP6 DUP4 PUSH2 0x1FA6 JUMP JUMPDEST POP POP POP POP POP POP POP JUMP JUMPDEST PUSH32 0x708E7B881795F2E6B6C2752108C177EC89248458DE3BF69D0D43480B3E5034E6 PUSH0 SHL DUP3 SUB PUSH2 0x1C88 JUMPI PUSH1 0x40 MLOAD PUSH32 0x8C379A000000000000000000000000000000000000000000000000000000000 DUP2 MSTORE PUSH1 0x4 ADD PUSH2 0x1C7F SWAP1 PUSH2 0x39FF JUMP JUMPDEST PUSH1 0x40 MLOAD DUP1 SWAP2 SUB SWAP1 REVERT JUMPDEST PUSH2 0x1C92 DUP3 DUP3 PUSH2 0x2105 JUMP JUMPDEST POP POP JUMP JUMPDEST PUSH1 0x60 PUSH0 PUSH2 0x1CA4 DUP4 PUSH0 ADD PUSH2 0x2113 JUMP JUMPDEST SWAP1 POP PUSH1 0x60 DUP2 SWAP1 POP DUP1 SWAP3 POP POP POP SWAP2 SWAP1 POP JUMP JUMPDEST PUSH0 DUP1 DUP4 PUSH0 PUSH1 0xF0 SHL DUP5 PUSH1 0x40 MLOAD PUSH1 0x20 ADD PUSH2 0x1CCF SWAP4 SWAP3 SWAP2 SWAP1 PUSH2 0x3AD3 JUMP JUMPDEST PUSH1 0x40 MLOAD PUSH1 0x20 DUP2 DUP4 SUB SUB DUP2 MSTORE SWAP1 PUSH1 0x40 MSTORE SWAP1 POP DUP1 PUSH2 0x1CEA SWAP1 PUSH2 0x3B23 JUMP JUMPDEST SWAP2 POP POP SWAP3 SWAP2 POP POP JUMP JUMPDEST PUSH0 PUSH4 0x629AA694 PUSH1 0xE0 SHL PUSH28 0xFFFFFFFFFFFFFFFFFFFFFFFFFFFFFFFFFFFFFFFFFFFFFFFFFFFFFFFF NOT AND DUP3 PUSH28 0xFFFFFFFFFFFFFFFFFFFFFFFFFFFFFFFFFFFFFFFFFFFFFFFFFFFFFFFF NOT AND EQ DUP1 PUSH2 0x1D4C JUMPI POP PUSH2 0x1D4B DUP3 PUSH2 0x1D53 JUMP JUMPDEST JUMPDEST SWAP1 POP SWAP2 SWAP1 POP JUMP JUMPDEST PUSH0 PUSH32 0x1FFC9A700000000000000000000000000000000000000000000000000000000 PUSH28 0xFFFFFFFFFFFFFFFFFFFFFFFFFFFFFFFFFFFFFFFFFFFFFFFFFFFFFFFF NOT AND DUP3 PUSH28 0xFFFFFFFFFFFFFFFFFFFFFFFFFFFFFFFFFFFFFFFFFFFFFFFFFFFFFFFF NOT AND EQ SWAP1 POP SWAP2 SWAP1 POP JUMP JUMPDEST PUSH0 DUP1 DUP3 PUSH1 0x40 MLOAD PUSH1 0x24 ADD PUSH2 0x1DCF SWAP2 SWAP1 PUSH2 0x341B JUMP JUMPDEST PUSH1 0x40 MLOAD PUSH1 0x20 DUP2 DUP4 SUB SUB DUP2 MSTORE SWAP1 PUSH1 0x40 MSTORE PUSH4 0x1FFC9A7 PUSH1 0xE0 SHL PUSH1 0x20 DUP3 ADD DUP1 MLOAD PUSH28 0xFFFFFFFFFFFFFFFFFFFFFFFFFFFFFFFFFFFFFFFFFFFFFFFFFFFFFFFF DUP4 DUP2 DUP4 AND OR DUP4 MSTORE POP POP POP POP SWAP1 POP PUSH0 DUP1 PUSH0 PUSH1 0x20 PUSH0 DUP6 MLOAD PUSH1 0x20 DUP8 ADD DUP11 PUSH2 0x7530 STATICCALL SWAP3 POP RETURNDATASIZE SWAP2 POP PUSH0 MLOAD SWAP1 POP DUP3 DUP1 ISZERO PUSH2 0x1E3E JUMPI POP PUSH1 0x20 DUP3 LT ISZERO JUMPDEST DUP1 ISZERO PUSH2 0x1E49 JUMPI POP PUSH0 DUP2 GT JUMPDEST SWAP5 POP POP POP POP POP SWAP3 SWAP2 POP POP JUMP JUMPDEST PUSH0 PUSH2 0x1E7A DUP4 PUSH0 ADD DUP4 PUSH20 0xFFFFFFFFFFFFFFFFFFFFFFFFFFFFFFFFFFFFFFFF AND PUSH0 SHL PUSH2 0x216C JUMP JUMPDEST SWAP1 POP SWAP3 SWAP2 POP POP JUMP JUMPDEST PUSH0 PUSH2 0x1EA7 DUP4 PUSH0 ADD DUP4 PUSH20 0xFFFFFFFFFFFFFFFFFFFFFFFFFFFFFFFFFFFFFFFF AND PUSH0 SHL PUSH2 0x21D3 JUMP JUMPDEST SWAP1 POP SWAP3 SWAP2 POP POP JUMP JUMPDEST PUSH2 0x1EDF PUSH4 0x6BB56A14 PUSH1 0xE0 SHL DUP5 PUSH20 0xFFFFFFFFFFFFFFFFFFFFFFFFFFFFFFFFFFFFFFFF AND PUSH2 0x1DBC SWAP1 SWAP2 SWAP1 PUSH4 0xFFFFFFFF AND JUMP JUMPDEST ISZERO PUSH2 0x1F64 JUMPI DUP3 PUSH20 0xFFFFFFFFFFFFFFFFFFFFFFFFFFFFFFFFFFFFFFFF AND PUSH4 0x6BB56A14 DUP4 DUP4 PUSH1 0x40 MLOAD DUP4 PUSH4 0xFFFFFFFF AND PUSH1 0xE0 SHL DUP2 MSTORE PUSH1 0x4 ADD PUSH2 0x1F1F SWAP3 SWAP2 SWAP1 PUSH2 0x3B98 JUMP JUMPDEST PUSH0 PUSH1 0x40 MLOAD DUP1 DUP4 SUB DUP2 PUSH0 DUP8 GAS CALL ISZERO DUP1 ISZERO PUSH2 0x1F3A JUMPI RETURNDATASIZE PUSH0 DUP1 RETURNDATACOPY RETURNDATASIZE PUSH0 REVERT JUMPDEST POP POP POP POP PUSH1 0x40 MLOAD RETURNDATASIZE PUSH0 DUP3 RETURNDATACOPY RETURNDATASIZE PUSH1 0x1F NOT PUSH1 0x1F DUP3 ADD AND DUP3 ADD DUP1 PUSH1 0x40 MSTORE POP DUP2 ADD SWAP1 PUSH2 0x1F62 SWAP2 SWAP1 PUSH2 0x3C34 JUMP JUMPDEST POP JUMPDEST POP POP POP JUMP JUMPDEST POP POP POP POP JUMP JUMPDEST POP POP POP POP JUMP JUMPDEST PUSH2 0x1FA2 DUP3 PUSH32 0x429AC7A06903DBC9C13DFCB3C9D11DF8194581FA047C96D7A4171FC7402958EA PUSH0 SHL DUP4 PUSH2 0x1EAF JUMP JUMPDEST POP POP JUMP JUMPDEST PUSH2 0x1FB7 DUP4 PUSH4 0x6BB56A14 PUSH1 0xE0 SHL PUSH2 0x1DBC JUMP JUMPDEST ISZERO PUSH2 0x2062 JUMPI DUP3 PUSH20 0xFFFFFFFFFFFFFFFFFFFFFFFFFFFFFFFFFFFFFFFF AND PUSH4 0x6BB56A14 PUSH32 0x20804611B3E2EA21C480DC465142210ACF4A2485947541770EC1FB87DEE4A55C PUSH0 SHL DUP4 PUSH1 0x40 MLOAD DUP4 PUSH4 0xFFFFFFFF AND PUSH1 0xE0 SHL DUP2 MSTORE PUSH1 0x4 ADD PUSH2 0x2019 SWAP3 SWAP2 SWAP1 PUSH2 0x3B98 JUMP JUMPDEST PUSH0 PUSH1 0x40 MLOAD DUP1 DUP4 SUB DUP2 PUSH0 DUP8 GAS CALL ISZERO DUP1 ISZERO PUSH2 0x2034 JUMPI RETURNDATASIZE PUSH0 DUP1 RETURNDATACOPY RETURNDATASIZE PUSH0 REVERT JUMPDEST POP POP POP POP PUSH1 0x40 MLOAD RETURNDATASIZE PUSH0 DUP3 RETURNDATACOPY RETURNDATASIZE PUSH1 0x1F NOT PUSH1 0x1F DUP3 ADD AND DUP3 ADD DUP1 PUSH1 0x40 MSTORE POP DUP2 ADD SWAP1 PUSH2 0x205C SWAP2 SWAP1 PUSH2 0x3C34 JUMP JUMPDEST POP PUSH2 0x2100 JUMP JUMPDEST DUP2 PUSH2 0x20FF JUMPI PUSH0 DUP4 PUSH20 0xFFFFFFFFFFFFFFFFFFFFFFFFFFFFFFFFFFFFFFFF AND EXTCODESIZE EQ PUSH2 0x20C2 JUMPI DUP3 PUSH1 0x40 MLOAD PUSH32 0xA608FBB600000000000000000000000000000000000000000000000000000000 DUP2 MSTORE PUSH1 0x4 ADD PUSH2 0x20B9 SWAP2 SWAP1 PUSH2 0x319F JUMP JUMPDEST PUSH1 0x40 MLOAD DUP1 SWAP2 SUB SWAP1 REVERT JUMPDEST DUP3 PUSH1 0x40 MLOAD PUSH32 0x26C247F400000000000000000000000000000000000000000000000000000000 DUP2 MSTORE PUSH1 0x4 ADD PUSH2 0x20F6 SWAP2 SWAP1 PUSH2 0x319F JUMP JUMPDEST PUSH1 0x40 MLOAD DUP1 SWAP2 SUB SWAP1 REVERT JUMPDEST JUMPDEST POP POP POP JUMP JUMPDEST PUSH2 0x210F DUP3 DUP3 PUSH2 0x22CF JUMP JUMPDEST POP POP JUMP JUMPDEST PUSH1 0x60 DUP2 PUSH0 ADD DUP1 SLOAD DUP1 PUSH1 0x20 MUL PUSH1 0x20 ADD PUSH1 0x40 MLOAD SWAP1 DUP2 ADD PUSH1 0x40 MSTORE DUP1 SWAP3 SWAP2 SWAP1 DUP2 DUP2 MSTORE PUSH1 0x20 ADD DUP3 DUP1 SLOAD DUP1 ISZERO PUSH2 0x2160 JUMPI PUSH1 0x20 MUL DUP3 ADD SWAP2 SWAP1 PUSH0 MSTORE PUSH1 0x20 PUSH0 KECCAK256 SWAP1 JUMPDEST DUP2 SLOAD DUP2 MSTORE PUSH1 0x20 ADD SWAP1 PUSH1 0x1 ADD SWAP1 DUP1 DUP4 GT PUSH2 0x214C JUMPI JUMPDEST POP POP POP POP POP SWAP1 POP SWAP2 SWAP1 POP JUMP JUMPDEST PUSH0 PUSH2 0x2177 DUP4 DUP4 PUSH2 0x243B JUMP JUMPDEST PUSH2 0x21C9 JUMPI DUP3 PUSH0 ADD DUP3 SWAP1 DUP1 PUSH1 0x1 DUP2 SLOAD ADD DUP1 DUP3 SSTORE DUP1 SWAP2 POP POP PUSH1 0x1 SWAP1 SUB SWAP1 PUSH0 MSTORE PUSH1 0x20 PUSH0 KECCAK256 ADD PUSH0 SWAP1 SWAP2 SWAP1 SWAP2 SWAP1 SWAP2 POP SSTORE DUP3 PUSH0 ADD DUP1 SLOAD SWAP1 POP DUP4 PUSH1 0x1 ADD PUSH0 DUP5 DUP2 MSTORE PUSH1 0x20 ADD SWAP1 DUP2 MSTORE PUSH1 0x20 ADD PUSH0 KECCAK256 DUP2 SWAP1 SSTORE POP PUSH1 0x1 SWAP1 POP PUSH2 0x21CD JUMP JUMPDEST PUSH0 SWAP1 POP JUMPDEST SWAP3 SWAP2 POP POP JUMP JUMPDEST PUSH0 DUP1 DUP4 PUSH1 0x1 ADD PUSH0 DUP5 DUP2 MSTORE PUSH1 0x20 ADD SWAP1 DUP2 MSTORE PUSH1 0x20 ADD PUSH0 KECCAK256 SLOAD SWAP1 POP PUSH0 DUP2 EQ PUSH2 0x22C4 JUMPI PUSH0 PUSH1 0x1 DUP3 PUSH2 0x2200 SWAP2 SWAP1 PUSH2 0x38A9 JUMP JUMPDEST SWAP1 POP PUSH0 PUSH1 0x1 DUP7 PUSH0 ADD DUP1 SLOAD SWAP1 POP PUSH2 0x2216 SWAP2 SWAP1 PUSH2 0x38A9 JUMP JUMPDEST SWAP1 POP DUP1 DUP3 EQ PUSH2 0x227C JUMPI PUSH0 DUP7 PUSH0 ADD DUP3 DUP2 SLOAD DUP2 LT PUSH2 0x2235 JUMPI PUSH2 0x2234 PUSH2 0x35E3 JUMP JUMPDEST JUMPDEST SWAP1 PUSH0 MSTORE PUSH1 0x20 PUSH0 KECCAK256 ADD SLOAD SWAP1 POP DUP1 DUP8 PUSH0 ADD DUP5 DUP2 SLOAD DUP2 LT PUSH2 0x2256 JUMPI PUSH2 0x2255 PUSH2 0x35E3 JUMP JUMPDEST JUMPDEST SWAP1 PUSH0 MSTORE PUSH1 0x20 PUSH0 KECCAK256 ADD DUP2 SWAP1 SSTORE POP DUP4 DUP8 PUSH1 0x1 ADD PUSH0 DUP4 DUP2 MSTORE PUSH1 0x20 ADD SWAP1 DUP2 MSTORE PUSH1 0x20 ADD PUSH0 KECCAK256 DUP2 SWAP1 SSTORE POP POP JUMPDEST DUP6 PUSH0 ADD DUP1 SLOAD DUP1 PUSH2 0x228F JUMPI PUSH2 0x228E PUSH2 0x3C7B JUMP JUMPDEST JUMPDEST PUSH1 0x1 SWAP1 SUB DUP2 DUP2 SWAP1 PUSH0 MSTORE PUSH1 0x20 PUSH0 KECCAK256 ADD PUSH0 SWAP1 SSTORE SWAP1 SSTORE DUP6 PUSH1 0x1 ADD PUSH0 DUP7 DUP2 MSTORE PUSH1 0x20 ADD SWAP1 DUP2 MSTORE PUSH1 0x20 ADD PUSH0 KECCAK256 PUSH0 SWAP1 SSTORE PUSH1 0x1 SWAP4 POP POP POP POP PUSH2 0x22C9 JUMP JUMPDEST PUSH0 SWAP2 POP POP JUMPDEST SWAP3 SWAP2 POP POP JUMP JUMPDEST PUSH32 0xDEBA1E292F8BA88238E10AB3C7F88BD4BE4FAC56CAD5194B6ECCEAF653468AF1 PUSH0 SHL DUP3 SUB PUSH2 0x232A JUMPI PUSH1 0x40 MLOAD PUSH32 0x85C169BD00000000000000000000000000000000000000000000000000000000 DUP2 MSTORE PUSH1 0x4 ADD PUSH1 0x40 MLOAD DUP1 SWAP2 SUB SWAP1 REVERT JUMPDEST PUSH32 0x2F0A68AB07768E01943A599E73362A0E17A63A72E94DD2E384D2C1D4DB932756 PUSH0 SHL DUP3 SUB PUSH2 0x2385 JUMPI PUSH1 0x40 MLOAD PUSH32 0x76755B3800000000000000000000000000000000000000000000000000000000 DUP2 MSTORE PUSH1 0x4 ADD PUSH1 0x40 MLOAD DUP1 SWAP2 SUB SWAP1 REVERT JUMPDEST PUSH32 0xE0261FA95DB2EB3B5439BD033CDA66D56B96F92F243A8228FD87550ED7BDFDB3 PUSH0 SHL DUP3 SUB PUSH2 0x23E0 JUMPI PUSH1 0x40 MLOAD PUSH32 0x4EF6D7FB00000000000000000000000000000000000000000000000000000000 DUP2 MSTORE PUSH1 0x4 ADD PUSH1 0x40 MLOAD DUP1 SWAP2 SUB SWAP1 REVERT JUMPDEST DUP1 PUSH1 0x1 PUSH0 DUP5 DUP2 MSTORE PUSH1 0x20 ADD SWAP1 DUP2 MSTORE PUSH1 0x20 ADD PUSH0 KECCAK256 SWAP1 DUP2 PUSH2 0x23FE SWAP2 SWAP1 PUSH2 0x3E30 JUMP JUMPDEST POP DUP2 PUSH32 0xECE574603820D07BC9B91F2A932BAADF4628AABCB8AFBA49776529C14A6104B2 DUP3 PUSH1 0x40 MLOAD PUSH2 0x242F SWAP2 SWAP1 PUSH2 0x2DD3 JUMP JUMPDEST PUSH1 0x40 MLOAD DUP1 SWAP2 SUB SWAP1 LOG2 POP POP JUMP JUMPDEST PUSH0 DUP1 DUP4 PUSH1 0x1 ADD PUSH0 DUP5 DUP2 MSTORE PUSH1 0x20 ADD SWAP1 DUP2 MSTORE PUSH1 0x20 ADD PUSH0 KECCAK256 SLOAD EQ ISZERO SWAP1 POP SWAP3 SWAP2 POP POP JUMP JUMPDEST PUSH0 DUP3 DUP3 MSTORE PUSH1 0x20 DUP3 ADD SWAP1 POP SWAP3 SWAP2 POP POP JUMP JUMPDEST PUSH0 DUP1 DUP3 ADD MSTORE POP JUMP JUMPDEST PUSH0 PUSH2 0x247F PUSH1 0x4 DUP4 PUSH2 0x245B JUMP JUMPDEST SWAP2 POP PUSH2 0x248A DUP3 PUSH2 0x246B JUMP JUMPDEST PUSH1 0x20 DUP3 ADD SWAP1 POP SWAP2 SWAP1 POP JUMP JUMPDEST PUSH0 PUSH1 0x20 DUP3 ADD SWAP1 POP DUP2 DUP2 SUB PUSH0 DUP4 ADD MSTORE PUSH2 0x24AC DUP2 PUSH2 0x2473 JUMP JUMPDEST SWAP1 POP SWAP2 SWAP1 POP JUMP JUMPDEST DUP3 DUP2 DUP4 CALLDATACOPY PUSH0 DUP4 DUP4 ADD MSTORE POP POP POP JUMP JUMPDEST PUSH0 PUSH1 0x1F NOT PUSH1 0x1F DUP4 ADD AND SWAP1 POP SWAP2 SWAP1 POP JUMP JUMPDEST PUSH0 PUSH2 0x24DC DUP4 DUP6 PUSH2 0x245B JUMP JUMPDEST SWAP4 POP PUSH2 0x24E9 DUP4 DUP6 DUP5 PUSH2 0x24B3 JUMP JUMPDEST PUSH2 0x24F2 DUP4 PUSH2 0x24C1 JUMP JUMPDEST DUP5 ADD SWAP1 POP SWAP4 SWAP3 POP POP POP JUMP JUMPDEST PUSH0 PUSH1 0x20 DUP3 ADD SWAP1 POP DUP2 DUP2 SUB PUSH0 DUP4 ADD MSTORE PUSH2 0x2516 DUP2 DUP5 DUP7 PUSH2 0x24D1 JUMP JUMPDEST SWAP1 POP SWAP4 SWAP3 POP POP POP JUMP JUMPDEST PUSH0 PUSH1 0x40 MLOAD SWAP1 POP SWAP1 JUMP JUMPDEST PUSH0 DUP1 REVERT JUMPDEST PUSH0 DUP1 REVERT JUMPDEST PUSH0 PUSH32 0xFFFFFFFF00000000000000000000000000000000000000000000000000000000 DUP3 AND SWAP1 POP SWAP2 SWAP1 POP JUMP JUMPDEST PUSH2 0x2564 DUP2 PUSH2 0x2530 JUMP JUMPDEST DUP2 EQ PUSH2 0x256E JUMPI PUSH0 DUP1 REVERT JUMPDEST POP JUMP JUMPDEST PUSH0 DUP2 CALLDATALOAD SWAP1 POP PUSH2 0x257F DUP2 PUSH2 0x255B JUMP JUMPDEST SWAP3 SWAP2 POP POP JUMP JUMPDEST PUSH0 PUSH1 0x20 DUP3 DUP5 SUB SLT ISZERO PUSH2 0x259A JUMPI PUSH2 0x2599 PUSH2 0x2528 JUMP JUMPDEST JUMPDEST PUSH0 PUSH2 0x25A7 DUP5 DUP3 DUP6 ADD PUSH2 0x2571 JUMP JUMPDEST SWAP2 POP POP SWAP3 SWAP2 POP POP JUMP JUMPDEST PUSH0 DUP2 ISZERO ISZERO SWAP1 POP SWAP2 SWAP1 POP JUMP JUMPDEST PUSH2 0x25C4 DUP2 PUSH2 0x25B0 JUMP JUMPDEST DUP3 MSTORE POP POP JUMP JUMPDEST PUSH0 PUSH1 0x20 DUP3 ADD SWAP1 POP PUSH2 0x25DD PUSH0 DUP4 ADD DUP5 PUSH2 0x25BB JUMP JUMPDEST SWAP3 SWAP2 POP POP JUMP JUMPDEST PUSH0 DUP2 SWAP1 POP SWAP2 SWAP1 POP JUMP JUMPDEST PUSH2 0x25F5 DUP2 PUSH2 0x25E3 JUMP JUMPDEST DUP3 MSTORE POP POP JUMP JUMPDEST PUSH0 PUSH1 0x20 DUP3 ADD SWAP1 POP PUSH2 0x260E PUSH0 DUP4 ADD DUP5 PUSH2 0x25EC JUMP JUMPDEST SWAP3 SWAP2 POP POP JUMP JUMPDEST PUSH0 PUSH20 0xFFFFFFFFFFFFFFFFFFFFFFFFFFFFFFFFFFFFFFFF DUP3 AND SWAP1 POP SWAP2 SWAP1 POP JUMP JUMPDEST PUSH0 PUSH2 0x263D DUP3 PUSH2 0x2614 JUMP JUMPDEST SWAP1 POP SWAP2 SWAP1 POP JUMP JUMPDEST PUSH2 0x264D DUP2 PUSH2 0x2633 JUMP JUMPDEST DUP2 EQ PUSH2 0x2657 JUMPI PUSH0 DUP1 REVERT JUMPDEST POP JUMP JUMPDEST PUSH0 DUP2 CALLDATALOAD SWAP1 POP PUSH2 0x2668 DUP2 PUSH2 0x2644 JUMP JUMPDEST SWAP3 SWAP2 POP POP JUMP JUMPDEST PUSH2 0x2677 DUP2 PUSH2 0x25E3 JUMP JUMPDEST DUP2 EQ PUSH2 0x2681 JUMPI PUSH0 DUP1 REVERT JUMPDEST POP JUMP JUMPDEST PUSH0 DUP2 CALLDATALOAD SWAP1 POP PUSH2 0x2692 DUP2 PUSH2 0x266E JUMP JUMPDEST SWAP3 SWAP2 POP POP JUMP JUMPDEST PUSH0 DUP1 REVERT JUMPDEST PUSH0 DUP1 REVERT JUMPDEST PUSH32 0x4E487B7100000000000000000000000000000000000000000000000000000000 PUSH0 MSTORE PUSH1 0x41 PUSH1 0x4 MSTORE PUSH1 0x24 PUSH0 REVERT JUMPDEST PUSH2 0x26D6 DUP3 PUSH2 0x24C1 JUMP JUMPDEST DUP2 ADD DUP2 DUP2 LT PUSH8 0xFFFFFFFFFFFFFFFF DUP3 GT OR ISZERO PUSH2 0x26F5 JUMPI PUSH2 0x26F4 PUSH2 0x26A0 JUMP JUMPDEST JUMPDEST DUP1 PUSH1 0x40 MSTORE POP POP POP JUMP JUMPDEST PUSH0 PUSH2 0x2707 PUSH2 0x251F JUMP JUMPDEST SWAP1 POP PUSH2 0x2713 DUP3 DUP3 PUSH2 0x26CD JUMP JUMPDEST SWAP2 SWAP1 POP JUMP JUMPDEST PUSH0 PUSH8 0xFFFFFFFFFFFFFFFF DUP3 GT ISZERO PUSH2 0x2732 JUMPI PUSH2 0x2731 PUSH2 0x26A0 JUMP JUMPDEST JUMPDEST PUSH2 0x273B DUP3 PUSH2 0x24C1 JUMP JUMPDEST SWAP1 POP PUSH1 0x20 DUP2 ADD SWAP1 POP SWAP2 SWAP1 POP JUMP JUMPDEST PUSH0 PUSH2 0x275A PUSH2 0x2755 DUP5 PUSH2 0x2718 JUMP JUMPDEST PUSH2 0x26FE JUMP JUMPDEST SWAP1 POP DUP3 DUP2 MSTORE PUSH1 0x20 DUP2 ADD DUP5 DUP5 DUP5 ADD GT ISZERO PUSH2 0x2776 JUMPI PUSH2 0x2775 PUSH2 0x269C JUMP JUMPDEST JUMPDEST PUSH2 0x2781 DUP5 DUP3 DUP6 PUSH2 0x24B3 JUMP JUMPDEST POP SWAP4 SWAP3 POP POP POP JUMP JUMPDEST PUSH0 DUP3 PUSH1 0x1F DUP4 ADD SLT PUSH2 0x279D JUMPI PUSH2 0x279C PUSH2 0x2698 JUMP JUMPDEST JUMPDEST DUP2 CALLDATALOAD PUSH2 0x27AD DUP5 DUP3 PUSH1 0x20 DUP7 ADD PUSH2 0x2748 JUMP JUMPDEST SWAP2 POP POP SWAP3 SWAP2 POP POP JUMP JUMPDEST PUSH0 DUP1 PUSH0 PUSH1 0x60 DUP5 DUP7 SUB SLT ISZERO PUSH2 0x27CD JUMPI PUSH2 0x27CC PUSH2 0x2528 JUMP JUMPDEST JUMPDEST PUSH0 PUSH2 0x27DA DUP7 DUP3 DUP8 ADD PUSH2 0x265A JUMP JUMPDEST SWAP4 POP POP PUSH1 0x20 PUSH2 0x27EB DUP7 DUP3 DUP8 ADD PUSH2 0x2684 JUMP JUMPDEST SWAP3 POP POP PUSH1 0x40 DUP5 ADD CALLDATALOAD PUSH8 0xFFFFFFFFFFFFFFFF DUP2 GT ISZERO PUSH2 0x280C JUMPI PUSH2 0x280B PUSH2 0x252C JUMP JUMPDEST JUMPDEST PUSH2 0x2818 DUP7 DUP3 DUP8 ADD PUSH2 0x2789 JUMP JUMPDEST SWAP2 POP POP SWAP3 POP SWAP3 POP SWAP3 JUMP JUMPDEST PUSH0 PUSH8 0xFFFFFFFFFFFFFFFF DUP3 GT ISZERO PUSH2 0x283C JUMPI PUSH2 0x283B PUSH2 0x26A0 JUMP JUMPDEST JUMPDEST PUSH1 0x20 DUP3 MUL SWAP1 POP PUSH1 0x20 DUP2 ADD SWAP1 POP SWAP2 SWAP1 POP JUMP JUMPDEST PUSH0 DUP1 REVERT JUMPDEST PUSH0 PUSH2 0x2863 PUSH2 0x285E DUP5 PUSH2 0x2822 JUMP JUMPDEST PUSH2 0x26FE JUMP JUMPDEST SWAP1 POP DUP1 DUP4 DUP3 MSTORE PUSH1 0x20 DUP3 ADD SWAP1 POP PUSH1 0x20 DUP5 MUL DUP4 ADD DUP6 DUP2 GT ISZERO PUSH2 0x2886 JUMPI PUSH2 0x2885 PUSH2 0x284D JUMP JUMPDEST JUMPDEST DUP4 JUMPDEST DUP2 DUP2 LT ISZERO PUSH2 0x28AF JUMPI DUP1 PUSH2 0x289B DUP9 DUP3 PUSH2 0x265A JUMP JUMPDEST DUP5 MSTORE PUSH1 0x20 DUP5 ADD SWAP4 POP POP PUSH1 0x20 DUP2 ADD SWAP1 POP PUSH2 0x2888 JUMP JUMPDEST POP POP POP SWAP4 SWAP3 POP POP POP JUMP JUMPDEST PUSH0 DUP3 PUSH1 0x1F DUP4 ADD SLT PUSH2 0x28CD JUMPI PUSH2 0x28CC PUSH2 0x2698 JUMP JUMPDEST JUMPDEST DUP2 CALLDATALOAD PUSH2 0x28DD DUP5 DUP3 PUSH1 0x20 DUP7 ADD PUSH2 0x2851 JUMP JUMPDEST SWAP2 POP POP SWAP3 SWAP2 POP POP JUMP JUMPDEST PUSH0 PUSH8 0xFFFFFFFFFFFFFFFF DUP3 GT ISZERO PUSH2 0x2900 JUMPI PUSH2 0x28FF PUSH2 0x26A0 JUMP JUMPDEST JUMPDEST PUSH1 0x20 DUP3 MUL SWAP1 POP PUSH1 0x20 DUP2 ADD SWAP1 POP SWAP2 SWAP1 POP JUMP JUMPDEST PUSH0 PUSH2 0x2923 PUSH2 0x291E DUP5 PUSH2 0x28E6 JUMP JUMPDEST PUSH2 0x26FE JUMP JUMPDEST SWAP1 POP DUP1 DUP4 DUP3 MSTORE PUSH1 0x20 DUP3 ADD SWAP1 POP PUSH1 0x20 DUP5 MUL DUP4 ADD DUP6 DUP2 GT ISZERO PUSH2 0x2946 JUMPI PUSH2 0x2945 PUSH2 0x284D JUMP JUMPDEST JUMPDEST DUP4 JUMPDEST DUP2 DUP2 LT ISZERO PUSH2 0x296F JUMPI DUP1 PUSH2 0x295B DUP9 DUP3 PUSH2 0x2684 JUMP JUMPDEST DUP5 MSTORE PUSH1 0x20 DUP5 ADD SWAP4 POP POP PUSH1 0x20 DUP2 ADD SWAP1 POP PUSH2 0x2948 JUMP JUMPDEST POP POP POP SWAP4 SWAP3 POP POP POP JUMP JUMPDEST PUSH0 DUP3 PUSH1 0x1F DUP4 ADD SLT PUSH2 0x298D JUMPI PUSH2 0x298C PUSH2 0x2698 JUMP JUMPDEST JUMPDEST DUP2 CALLDATALOAD PUSH2 0x299D DUP5 DUP3 PUSH1 0x20 DUP7 ADD PUSH2 0x2911 JUMP JUMPDEST SWAP2 POP POP SWAP3 SWAP2 POP POP JUMP JUMPDEST PUSH0 PUSH8 0xFFFFFFFFFFFFFFFF DUP3 GT ISZERO PUSH2 0x29C0 JUMPI PUSH2 0x29BF PUSH2 0x26A0 JUMP JUMPDEST JUMPDEST PUSH1 0x20 DUP3 MUL SWAP1 POP PUSH1 0x20 DUP2 ADD SWAP1 POP SWAP2 SWAP1 POP JUMP JUMPDEST PUSH2 0x29DA DUP2 PUSH2 0x25B0 JUMP JUMPDEST DUP2 EQ PUSH2 0x29E4 JUMPI PUSH0 DUP1 REVERT JUMPDEST POP JUMP JUMPDEST PUSH0 DUP2 CALLDATALOAD SWAP1 POP PUSH2 0x29F5 DUP2 PUSH2 0x29D1 JUMP JUMPDEST SWAP3 SWAP2 POP POP JUMP JUMPDEST PUSH0 PUSH2 0x2A0D PUSH2 0x2A08 DUP5 PUSH2 0x29A6 JUMP JUMPDEST PUSH2 0x26FE JUMP JUMPDEST SWAP1 POP DUP1 DUP4 DUP3 MSTORE PUSH1 0x20 DUP3 ADD SWAP1 POP PUSH1 0x20 DUP5 MUL DUP4 ADD DUP6 DUP2 GT ISZERO PUSH2 0x2A30 JUMPI PUSH2 0x2A2F PUSH2 0x284D JUMP JUMPDEST JUMPDEST DUP4 JUMPDEST DUP2 DUP2 LT ISZERO PUSH2 0x2A59 JUMPI DUP1 PUSH2 0x2A45 DUP9 DUP3 PUSH2 0x29E7 JUMP JUMPDEST DUP5 MSTORE PUSH1 0x20 DUP5 ADD SWAP4 POP POP PUSH1 0x20 DUP2 ADD SWAP1 POP PUSH2 0x2A32 JUMP JUMPDEST POP POP POP SWAP4 SWAP3 POP POP POP JUMP JUMPDEST PUSH0 DUP3 PUSH1 0x1F DUP4 ADD SLT PUSH2 0x2A77 JUMPI PUSH2 0x2A76 PUSH2 0x2698 JUMP JUMPDEST JUMPDEST DUP2 CALLDATALOAD PUSH2 0x2A87 DUP5 DUP3 PUSH1 0x20 DUP7 ADD PUSH2 0x29FB JUMP JUMPDEST SWAP2 POP POP SWAP3 SWAP2 POP POP JUMP JUMPDEST PUSH0 PUSH8 0xFFFFFFFFFFFFFFFF DUP3 GT ISZERO PUSH2 0x2AAA JUMPI PUSH2 0x2AA9 PUSH2 0x26A0 JUMP JUMPDEST JUMPDEST PUSH1 0x20 DUP3 MUL SWAP1 POP PUSH1 0x20 DUP2 ADD SWAP1 POP SWAP2 SWAP1 POP JUMP JUMPDEST PUSH0 PUSH2 0x2ACD PUSH2 0x2AC8 DUP5 PUSH2 0x2A90 JUMP JUMPDEST PUSH2 0x26FE JUMP JUMPDEST SWAP1 POP DUP1 DUP4 DUP3 MSTORE PUSH1 0x20 DUP3 ADD SWAP1 POP PUSH1 0x20 DUP5 MUL DUP4 ADD DUP6 DUP2 GT ISZERO PUSH2 0x2AF0 JUMPI PUSH2 0x2AEF PUSH2 0x284D JUMP JUMPDEST JUMPDEST DUP4 JUMPDEST DUP2 DUP2 LT ISZERO PUSH2 0x2B37 JUMPI DUP1 CALLDATALOAD PUSH8 0xFFFFFFFFFFFFFFFF DUP2 GT ISZERO PUSH2 0x2B15 JUMPI PUSH2 0x2B14 PUSH2 0x2698 JUMP JUMPDEST JUMPDEST DUP1 DUP7 ADD PUSH2 0x2B22 DUP10 DUP3 PUSH2 0x2789 JUMP JUMPDEST DUP6 MSTORE PUSH1 0x20 DUP6 ADD SWAP5 POP POP POP PUSH1 0x20 DUP2 ADD SWAP1 POP PUSH2 0x2AF2 JUMP JUMPDEST POP POP POP SWAP4 SWAP3 POP POP POP JUMP JUMPDEST PUSH0 DUP3 PUSH1 0x1F DUP4 ADD SLT PUSH2 0x2B55 JUMPI PUSH2 0x2B54 PUSH2 0x2698 JUMP JUMPDEST JUMPDEST DUP2 CALLDATALOAD PUSH2 0x2B65 DUP5 DUP3 PUSH1 0x20 DUP7 ADD PUSH2 0x2ABB JUMP JUMPDEST SWAP2 POP POP SWAP3 SWAP2 POP POP JUMP JUMPDEST PUSH0 DUP1 PUSH0 DUP1 PUSH0 PUSH1 0xA0 DUP7 DUP9 SUB SLT ISZERO PUSH2 0x2B87 JUMPI PUSH2 0x2B86 PUSH2 0x2528 JUMP JUMPDEST JUMPDEST PUSH0 DUP7 ADD CALLDATALOAD PUSH8 0xFFFFFFFFFFFFFFFF DUP2 GT ISZERO PUSH2 0x2BA4 JUMPI PUSH2 0x2BA3 PUSH2 0x252C JUMP JUMPDEST JUMPDEST PUSH2 0x2BB0 DUP9 DUP3 DUP10 ADD PUSH2 0x28B9 JUMP JUMPDEST SWAP6 POP POP PUSH1 0x20 DUP7 ADD CALLDATALOAD PUSH8 0xFFFFFFFFFFFFFFFF DUP2 GT ISZERO PUSH2 0x2BD1 JUMPI PUSH2 0x2BD0 PUSH2 0x252C JUMP JUMPDEST JUMPDEST PUSH2 0x2BDD DUP9 DUP3 DUP10 ADD PUSH2 0x28B9 JUMP JUMPDEST SWAP5 POP POP PUSH1 0x40 DUP7 ADD CALLDATALOAD PUSH8 0xFFFFFFFFFFFFFFFF DUP2 GT ISZERO PUSH2 0x2BFE JUMPI PUSH2 0x2BFD PUSH2 0x252C JUMP JUMPDEST JUMPDEST PUSH2 0x2C0A DUP9 DUP3 DUP10 ADD PUSH2 0x2979 JUMP JUMPDEST SWAP4 POP POP PUSH1 0x60 DUP7 ADD CALLDATALOAD PUSH8 0xFFFFFFFFFFFFFFFF DUP2 GT ISZERO PUSH2 0x2C2B JUMPI PUSH2 0x2C2A PUSH2 0x252C JUMP JUMPDEST JUMPDEST PUSH2 0x2C37 DUP9 DUP3 DUP10 ADD PUSH2 0x2A63 JUMP JUMPDEST SWAP3 POP POP PUSH1 0x80 DUP7 ADD CALLDATALOAD PUSH8 0xFFFFFFFFFFFFFFFF DUP2 GT ISZERO PUSH2 0x2C58 JUMPI PUSH2 0x2C57 PUSH2 0x252C JUMP JUMPDEST JUMPDEST PUSH2 0x2C64 DUP9 DUP3 DUP10 ADD PUSH2 0x2B41 JUMP JUMPDEST SWAP2 POP POP SWAP3 SWAP6 POP SWAP3 SWAP6 SWAP1 SWAP4 POP JUMP JUMPDEST PUSH0 DUP1 PUSH0 DUP1 PUSH1 0x80 DUP6 DUP8 SUB SLT ISZERO PUSH2 0x2C89 JUMPI PUSH2 0x2C88 PUSH2 0x2528 JUMP JUMPDEST JUMPDEST PUSH0 PUSH2 0x2C96 DUP8 DUP3 DUP9 ADD PUSH2 0x265A JUMP JUMPDEST SWAP5 POP POP PUSH1 0x20 PUSH2 0x2CA7 DUP8 DUP3 DUP9 ADD PUSH2 0x265A JUMP JUMPDEST SWAP4 POP POP PUSH1 0x40 PUSH2 0x2CB8 DUP8 DUP3 DUP9 ADD PUSH2 0x29E7 JUMP JUMPDEST SWAP3 POP POP PUSH1 0x60 DUP6 ADD CALLDATALOAD PUSH8 0xFFFFFFFFFFFFFFFF DUP2 GT ISZERO PUSH2 0x2CD9 JUMPI PUSH2 0x2CD8 PUSH2 0x252C JUMP JUMPDEST JUMPDEST PUSH2 0x2CE5 DUP8 DUP3 DUP9 ADD PUSH2 0x2789 JUMP JUMPDEST SWAP2 POP POP SWAP3 SWAP6 SWAP2 SWAP5 POP SWAP3 POP JUMP JUMPDEST PUSH0 PUSH1 0xFF DUP3 AND SWAP1 POP SWAP2 SWAP1 POP JUMP JUMPDEST PUSH2 0x2D06 DUP2 PUSH2 0x2CF1 JUMP JUMPDEST DUP3 MSTORE POP POP JUMP JUMPDEST PUSH0 PUSH1 0x20 DUP3 ADD SWAP1 POP PUSH2 0x2D1F PUSH0 DUP4 ADD DUP5 PUSH2 0x2CFD JUMP JUMPDEST SWAP3 SWAP2 POP POP JUMP JUMPDEST PUSH0 DUP2 SWAP1 POP SWAP2 SWAP1 POP JUMP JUMPDEST PUSH2 0x2D37 DUP2 PUSH2 0x2D25 JUMP JUMPDEST DUP2 EQ PUSH2 0x2D41 JUMPI PUSH0 DUP1 REVERT JUMPDEST POP JUMP JUMPDEST PUSH0 DUP2 CALLDATALOAD SWAP1 POP PUSH2 0x2D52 DUP2 PUSH2 0x2D2E JUMP JUMPDEST SWAP3 SWAP2 POP POP JUMP JUMPDEST PUSH0 PUSH1 0x20 DUP3 DUP5 SUB SLT ISZERO PUSH2 0x2D6D JUMPI PUSH2 0x2D6C PUSH2 0x2528 JUMP JUMPDEST JUMPDEST PUSH0 PUSH2 0x2D7A DUP5 DUP3 DUP6 ADD PUSH2 0x2D44 JUMP JUMPDEST SWAP2 POP POP SWAP3 SWAP2 POP POP JUMP JUMPDEST PUSH0 DUP2 MLOAD SWAP1 POP SWAP2 SWAP1 POP JUMP JUMPDEST DUP3 DUP2 DUP4 MCOPY PUSH0 DUP4 DUP4 ADD MSTORE POP POP POP JUMP JUMPDEST PUSH0 PUSH2 0x2DA5 DUP3 PUSH2 0x2D83 JUMP JUMPDEST PUSH2 0x2DAF DUP2 DUP6 PUSH2 0x245B JUMP JUMPDEST SWAP4 POP PUSH2 0x2DBF DUP2 DUP6 PUSH1 0x20 DUP7 ADD PUSH2 0x2D8D JUMP JUMPDEST PUSH2 0x2DC8 DUP2 PUSH2 0x24C1 JUMP JUMPDEST DUP5 ADD SWAP2 POP POP SWAP3 SWAP2 POP POP JUMP JUMPDEST PUSH0 PUSH1 0x20 DUP3 ADD SWAP1 POP DUP2 DUP2 SUB PUSH0 DUP4 ADD MSTORE PUSH2 0x2DEB DUP2 DUP5 PUSH2 0x2D9B JUMP JUMPDEST SWAP1 POP SWAP3 SWAP2 POP POP JUMP JUMPDEST PUSH0 DUP1 PUSH1 0x40 DUP4 DUP6 SUB SLT ISZERO PUSH2 0x2E09 JUMPI PUSH2 0x2E08 PUSH2 0x2528 JUMP JUMPDEST JUMPDEST PUSH0 PUSH2 0x2E16 DUP6 DUP3 DUP7 ADD PUSH2 0x265A JUMP JUMPDEST SWAP3 POP POP PUSH1 0x20 PUSH2 0x2E27 DUP6 DUP3 DUP7 ADD PUSH2 0x265A JUMP JUMPDEST SWAP2 POP POP SWAP3 POP SWAP3 SWAP1 POP JUMP JUMPDEST PUSH0 DUP1 REVERT JUMPDEST PUSH0 DUP1 DUP4 PUSH1 0x1F DUP5 ADD SLT PUSH2 0x2E4A JUMPI PUSH2 0x2E49 PUSH2 0x2698 JUMP JUMPDEST JUMPDEST DUP3 CALLDATALOAD SWAP1 POP PUSH8 0xFFFFFFFFFFFFFFFF DUP2 GT ISZERO PUSH2 0x2E67 JUMPI PUSH2 0x2E66 PUSH2 0x2E31 JUMP JUMPDEST JUMPDEST PUSH1 0x20 DUP4 ADD SWAP2 POP DUP4 PUSH1 0x20 DUP3 MUL DUP4 ADD GT ISZERO PUSH2 0x2E83 JUMPI PUSH2 0x2E82 PUSH2 0x284D JUMP JUMPDEST JUMPDEST SWAP3 POP SWAP3 SWAP1 POP JUMP JUMPDEST PUSH0 DUP1 PUSH1 0x20 DUP4 DUP6 SUB SLT ISZERO PUSH2 0x2EA0 JUMPI PUSH2 0x2E9F PUSH2 0x2528 JUMP JUMPDEST JUMPDEST PUSH0 DUP4 ADD CALLDATALOAD PUSH8 0xFFFFFFFFFFFFFFFF DUP2 GT ISZERO PUSH2 0x2EBD JUMPI PUSH2 0x2EBC PUSH2 0x252C JUMP JUMPDEST JUMPDEST PUSH2 0x2EC9 DUP6 DUP3 DUP7 ADD PUSH2 0x2E35 JUMP JUMPDEST SWAP3 POP SWAP3 POP POP SWAP3 POP SWAP3 SWAP1 POP JUMP JUMPDEST PUSH0 DUP2 MLOAD SWAP1 POP SWAP2 SWAP1 POP JUMP JUMPDEST PUSH0 DUP3 DUP3 MSTORE PUSH1 0x20 DUP3 ADD SWAP1 POP SWAP3 SWAP2 POP POP JUMP JUMPDEST PUSH0 DUP2 SWAP1 POP PUSH1 0x20 DUP3 ADD SWAP1 POP SWAP2 SWAP1 POP JUMP JUMPDEST PUSH0 DUP3 DUP3 MSTORE PUSH1 0x20 DUP3 ADD SWAP1 POP SWAP3 SWAP2 POP POP JUMP JUMPDEST PUSH0 PUSH2 0x2F18 DUP3 PUSH2 0x2D83 JUMP JUMPDEST PUSH2 0x2F22 DUP2 DUP6 PUSH2 0x2EFE JUMP JUMPDEST SWAP4 POP PUSH2 0x2F32 DUP2 DUP6 PUSH1 0x20 DUP7 ADD PUSH2 0x2D8D JUMP JUMPDEST PUSH2 0x2F3B DUP2 PUSH2 0x24C1 JUMP JUMPDEST DUP5 ADD SWAP2 POP POP SWAP3 SWAP2 POP POP JUMP JUMPDEST PUSH0 PUSH2 0x2F51 DUP4 DUP4 PUSH2 0x2F0E JUMP JUMPDEST SWAP1 POP SWAP3 SWAP2 POP POP JUMP JUMPDEST PUSH0 PUSH1 0x20 DUP3 ADD SWAP1 POP SWAP2 SWAP1 POP JUMP JUMPDEST PUSH0 PUSH2 0x2F6F DUP3 PUSH2 0x2ED5 JUMP JUMPDEST PUSH2 0x2F79 DUP2 DUP6 PUSH2 0x2EDF JUMP JUMPDEST SWAP4 POP DUP4 PUSH1 0x20 DUP3 MUL DUP6 ADD PUSH2 0x2F8B DUP6 PUSH2 0x2EEF JUMP JUMPDEST DUP1 PUSH0 JUMPDEST DUP6 DUP2 LT ISZERO PUSH2 0x2FC6 JUMPI DUP5 DUP5 SUB DUP10 MSTORE DUP2 MLOAD PUSH2 0x2FA7 DUP6 DUP3 PUSH2 0x2F46 JUMP JUMPDEST SWAP5 POP PUSH2 0x2FB2 DUP4 PUSH2 0x2F59 JUMP JUMPDEST SWAP3 POP PUSH1 0x20 DUP11 ADD SWAP10 POP POP PUSH1 0x1 DUP2 ADD SWAP1 POP PUSH2 0x2F8E JUMP JUMPDEST POP DUP3 SWAP8 POP DUP8 SWAP6 POP POP POP POP POP POP SWAP3 SWAP2 POP POP JUMP JUMPDEST PUSH0 PUSH1 0x20 DUP3 ADD SWAP1 POP DUP2 DUP2 SUB PUSH0 DUP4 ADD MSTORE PUSH2 0x2FF0 DUP2 DUP5 PUSH2 0x2F65 JUMP JUMPDEST SWAP1 POP SWAP3 SWAP2 POP POP JUMP JUMPDEST PUSH0 PUSH1 0x20 DUP3 DUP5 SUB SLT ISZERO PUSH2 0x300D JUMPI PUSH2 0x300C PUSH2 0x2528 JUMP JUMPDEST JUMPDEST PUSH0 PUSH2 0x301A DUP5 DUP3 DUP6 ADD PUSH2 0x265A JUMP JUMPDEST SWAP2 POP POP SWAP3 SWAP2 POP POP JUMP JUMPDEST PUSH0 DUP1 PUSH0 DUP1 PUSH0 PUSH1 0xA0 DUP7 DUP9 SUB SLT ISZERO PUSH2 0x303C JUMPI PUSH2 0x303B PUSH2 0x2528 JUMP JUMPDEST JUMPDEST PUSH0 PUSH2 0x3049 DUP9 DUP3 DUP10 ADD PUSH2 0x265A JUMP JUMPDEST SWAP6 POP POP PUSH1 0x20 PUSH2 0x305A DUP9 DUP3 DUP10 ADD PUSH2 0x265A JUMP JUMPDEST SWAP5 POP POP PUSH1 0x40 PUSH2 0x306B DUP9 DUP3 DUP10 ADD PUSH2 0x2684 JUMP JUMPDEST SWAP4 POP POP PUSH1 0x60 PUSH2 0x307C DUP9 DUP3 DUP10 ADD PUSH2 0x29E7 JUMP JUMPDEST SWAP3 POP POP PUSH1 0x80 DUP7 ADD CALLDATALOAD PUSH8 0xFFFFFFFFFFFFFFFF DUP2 GT ISZERO PUSH2 0x309D JUMPI PUSH2 0x309C PUSH2 0x252C JUMP JUMPDEST JUMPDEST PUSH2 0x30A9 DUP9 DUP3 DUP10 ADD PUSH2 0x2789 JUMP JUMPDEST SWAP2 POP POP SWAP3 SWAP6 POP SWAP3 SWAP6 SWAP1 SWAP4 POP JUMP JUMPDEST PUSH0 DUP1 PUSH0 DUP1 PUSH1 0x80 DUP6 DUP8 SUB SLT ISZERO PUSH2 0x30CE JUMPI PUSH2 0x30CD PUSH2 0x2528 JUMP JUMPDEST JUMPDEST PUSH0 PUSH2 0x30DB DUP8 DUP3 DUP9 ADD PUSH2 0x265A JUMP JUMPDEST SWAP5 POP POP PUSH1 0x20 PUSH2 0x30EC DUP8 DUP3 DUP9 ADD PUSH2 0x265A JUMP JUMPDEST SWAP4 POP POP PUSH1 0x40 PUSH2 0x30FD DUP8 DUP3 DUP9 ADD PUSH2 0x2684 JUMP JUMPDEST SWAP3 POP POP PUSH1 0x60 DUP6 ADD CALLDATALOAD PUSH8 0xFFFFFFFFFFFFFFFF DUP2 GT ISZERO PUSH2 0x311E JUMPI PUSH2 0x311D PUSH2 0x252C JUMP JUMPDEST JUMPDEST PUSH2 0x312A DUP8 DUP3 DUP9 ADD PUSH2 0x2789 JUMP JUMPDEST SWAP2 POP POP SWAP3 SWAP6 SWAP2 SWAP5 POP SWAP3 POP JUMP JUMPDEST PUSH0 DUP1 PUSH1 0x40 DUP4 DUP6 SUB SLT ISZERO PUSH2 0x314C JUMPI PUSH2 0x314B PUSH2 0x2528 JUMP JUMPDEST JUMPDEST PUSH0 PUSH2 0x3159 DUP6 DUP3 DUP7 ADD PUSH2 0x2D44 JUMP JUMPDEST SWAP3 POP POP PUSH1 0x20 DUP4 ADD CALLDATALOAD PUSH8 0xFFFFFFFFFFFFFFFF DUP2 GT ISZERO PUSH2 0x317A JUMPI PUSH2 0x3179 PUSH2 0x252C JUMP JUMPDEST JUMPDEST PUSH2 0x3186 DUP6 DUP3 DUP7 ADD PUSH2 0x2789 JUMP JUMPDEST SWAP2 POP POP SWAP3 POP SWAP3 SWAP1 POP JUMP JUMPDEST PUSH2 0x3199 DUP2 PUSH2 0x2633 JUMP JUMPDEST DUP3 MSTORE POP POP JUMP JUMPDEST PUSH0 PUSH1 0x20 DUP3 ADD SWAP1 POP PUSH2 0x31B2 PUSH0 DUP4 ADD DUP5 PUSH2 0x3190 JUMP JUMPDEST SWAP3 SWAP2 POP POP JUMP JUMPDEST PUSH0 PUSH8 0xFFFFFFFFFFFFFFFF DUP3 GT ISZERO PUSH2 0x31D2 JUMPI PUSH2 0x31D1 PUSH2 0x26A0 JUMP JUMPDEST JUMPDEST PUSH1 0x20 DUP3 MUL SWAP1 POP PUSH1 0x20 DUP2 ADD SWAP1 POP SWAP2 SWAP1 POP JUMP JUMPDEST PUSH0 PUSH2 0x31F5 PUSH2 0x31F0 DUP5 PUSH2 0x31B8 JUMP JUMPDEST PUSH2 0x26FE JUMP JUMPDEST SWAP1 POP DUP1 DUP4 DUP3 MSTORE PUSH1 0x20 DUP3 ADD SWAP1 POP PUSH1 0x20 DUP5 MUL DUP4 ADD DUP6 DUP2 GT ISZERO PUSH2 0x3218 JUMPI PUSH2 0x3217 PUSH2 0x284D JUMP JUMPDEST JUMPDEST DUP4 JUMPDEST DUP2 DUP2 LT ISZERO PUSH2 0x3241 JUMPI DUP1 PUSH2 0x322D DUP9 DUP3 PUSH2 0x2D44 JUMP JUMPDEST DUP5 MSTORE PUSH1 0x20 DUP5 ADD SWAP4 POP POP PUSH1 0x20 DUP2 ADD SWAP1 POP PUSH2 0x321A JUMP JUMPDEST POP POP POP SWAP4 SWAP3 POP POP POP JUMP JUMPDEST PUSH0 DUP3 PUSH1 0x1F DUP4 ADD SLT PUSH2 0x325F JUMPI PUSH2 0x325E PUSH2 0x2698 JUMP JUMPDEST JUMPDEST DUP2 CALLDATALOAD PUSH2 0x326F DUP5 DUP3 PUSH1 0x20 DUP7 ADD PUSH2 0x31E3 JUMP JUMPDEST SWAP2 POP POP SWAP3 SWAP2 POP POP JUMP JUMPDEST PUSH0 DUP1 PUSH1 0x40 DUP4 DUP6 SUB SLT ISZERO PUSH2 0x328E JUMPI PUSH2 0x328D PUSH2 0x2528 JUMP JUMPDEST JUMPDEST PUSH0 DUP4 ADD CALLDATALOAD PUSH8 0xFFFFFFFFFFFFFFFF DUP2 GT ISZERO PUSH2 0x32AB JUMPI PUSH2 0x32AA PUSH2 0x252C JUMP JUMPDEST JUMPDEST PUSH2 0x32B7 DUP6 DUP3 DUP7 ADD PUSH2 0x324B JUMP JUMPDEST SWAP3 POP POP PUSH1 0x20 DUP4 ADD CALLDATALOAD PUSH8 0xFFFFFFFFFFFFFFFF DUP2 GT ISZERO PUSH2 0x32D8 JUMPI PUSH2 0x32D7 PUSH2 0x252C JUMP JUMPDEST JUMPDEST PUSH2 0x32E4 DUP6 DUP3 DUP7 ADD PUSH2 0x2B41 JUMP JUMPDEST SWAP2 POP POP SWAP3 POP SWAP3 SWAP1 POP JUMP JUMPDEST PUSH0 DUP2 MLOAD SWAP1 POP SWAP2 SWAP1 POP JUMP JUMPDEST PUSH0 DUP3 DUP3 MSTORE PUSH1 0x20 DUP3 ADD SWAP1 POP SWAP3 SWAP2 POP POP JUMP JUMPDEST PUSH0 DUP2 SWAP1 POP PUSH1 0x20 DUP3 ADD SWAP1 POP SWAP2 SWAP1 POP JUMP JUMPDEST PUSH2 0x3320 DUP2 PUSH2 0x2633 JUMP JUMPDEST DUP3 MSTORE POP POP JUMP JUMPDEST PUSH0 PUSH2 0x3331 DUP4 DUP4 PUSH2 0x3317 JUMP JUMPDEST PUSH1 0x20 DUP4 ADD SWAP1 POP SWAP3 SWAP2 POP POP JUMP JUMPDEST PUSH0 PUSH1 0x20 DUP3 ADD SWAP1 POP SWAP2 SWAP1 POP JUMP JUMPDEST PUSH0 PUSH2 0x3353 DUP3 PUSH2 0x32EE JUMP JUMPDEST PUSH2 0x335D DUP2 DUP6 PUSH2 0x32F8 JUMP JUMPDEST SWAP4 POP PUSH2 0x3368 DUP4 PUSH2 0x3308 JUMP JUMPDEST DUP1 PUSH0 JUMPDEST DUP4 DUP2 LT ISZERO PUSH2 0x3398 JUMPI DUP2 MLOAD PUSH2 0x337F DUP9 DUP3 PUSH2 0x3326 JUMP JUMPDEST SWAP8 POP PUSH2 0x338A DUP4 PUSH2 0x333D JUMP JUMPDEST SWAP3 POP POP PUSH1 0x1 DUP2 ADD SWAP1 POP PUSH2 0x336B JUMP JUMPDEST POP DUP6 SWAP4 POP POP POP POP SWAP3 SWAP2 POP POP JUMP JUMPDEST PUSH0 PUSH1 0x20 DUP3 ADD SWAP1 POP DUP2 DUP2 SUB PUSH0 DUP4 ADD MSTORE PUSH2 0x33BD DUP2 DUP5 PUSH2 0x3349 JUMP JUMPDEST SWAP1 POP SWAP3 SWAP2 POP POP JUMP JUMPDEST PUSH0 PUSH1 0x20 DUP3 DUP5 SUB SLT ISZERO PUSH2 0x33DA JUMPI PUSH2 0x33D9 PUSH2 0x2528 JUMP JUMPDEST JUMPDEST PUSH0 DUP3 ADD CALLDATALOAD PUSH8 0xFFFFFFFFFFFFFFFF DUP2 GT ISZERO PUSH2 0x33F7 JUMPI PUSH2 0x33F6 PUSH2 0x252C JUMP JUMPDEST JUMPDEST PUSH2 0x3403 DUP5 DUP3 DUP6 ADD PUSH2 0x324B JUMP JUMPDEST SWAP2 POP POP SWAP3 SWAP2 POP POP JUMP JUMPDEST PUSH2 0x3415 DUP2 PUSH2 0x2530 JUMP JUMPDEST DUP3 MSTORE POP POP JUMP JUMPDEST PUSH0 PUSH1 0x20 DUP3 ADD SWAP1 POP PUSH2 0x342E PUSH0 DUP4 ADD DUP5 PUSH2 0x340C JUMP JUMPDEST SWAP3 SWAP2 POP POP JUMP JUMPDEST PUSH0 DUP2 SWAP1 POP SWAP3 SWAP2 POP POP JUMP JUMPDEST PUSH0 PUSH2 0x3449 DUP4 DUP6 PUSH2 0x3434 JUMP JUMPDEST SWAP4 POP PUSH2 0x3456 DUP4 DUP6 DUP5 PUSH2 0x24B3 JUMP JUMPDEST DUP3 DUP5 ADD SWAP1 POP SWAP4 SWAP3 POP POP POP JUMP JUMPDEST PUSH0 DUP2 PUSH1 0x60 SHL SWAP1 POP SWAP2 SWAP1 POP JUMP JUMPDEST PUSH0 PUSH2 0x3478 DUP3 PUSH2 0x3462 JUMP JUMPDEST SWAP1 POP SWAP2 SWAP1 POP JUMP JUMPDEST PUSH0 PUSH2 0x3489 DUP3 PUSH2 0x346E JUMP JUMPDEST SWAP1 POP SWAP2 SWAP1 POP JUMP JUMPDEST PUSH2 0x34A1 PUSH2 0x349C DUP3 PUSH2 0x2633 JUMP JUMPDEST PUSH2 0x347F JUMP JUMPDEST DUP3 MSTORE POP POP JUMP JUMPDEST PUSH0 DUP2 SWAP1 POP SWAP2 SWAP1 POP JUMP JUMPDEST PUSH2 0x34C1 PUSH2 0x34BC DUP3 PUSH2 0x25E3 JUMP JUMPDEST PUSH2 0x34A7 JUMP JUMPDEST DUP3 MSTORE POP POP JUMP JUMPDEST PUSH0 PUSH2 0x34D3 DUP3 DUP7 DUP9 PUSH2 0x343E JUMP JUMPDEST SWAP2 POP PUSH2 0x34DF DUP3 DUP6 PUSH2 0x3490 JUMP JUMPDEST PUSH1 0x14 DUP3 ADD SWAP2 POP PUSH2 0x34EF DUP3 DUP5 PUSH2 0x34B0 JUMP JUMPDEST PUSH1 0x20 DUP3 ADD SWAP2 POP DUP2 SWAP1 POP SWAP6 SWAP5 POP POP POP POP POP JUMP JUMPDEST PUSH0 PUSH2 0x350B DUP3 PUSH2 0x2D83 JUMP JUMPDEST PUSH2 0x3515 DUP2 DUP6 PUSH2 0x3434 JUMP JUMPDEST SWAP4 POP PUSH2 0x3525 DUP2 DUP6 PUSH1 0x20 DUP7 ADD PUSH2 0x2D8D JUMP JUMPDEST DUP1 DUP5 ADD SWAP2 POP POP SWAP3 SWAP2 POP POP JUMP JUMPDEST PUSH0 PUSH2 0x353C DUP3 DUP5 PUSH2 0x3501 JUMP JUMPDEST SWAP2 POP DUP2 SWAP1 POP SWAP3 SWAP2 POP POP JUMP JUMPDEST PUSH32 0x4E487B7100000000000000000000000000000000000000000000000000000000 PUSH0 MSTORE PUSH1 0x11 PUSH1 0x4 MSTORE PUSH1 0x24 PUSH0 REVERT JUMPDEST PUSH0 PUSH2 0x357E DUP3 PUSH2 0x25E3 JUMP JUMPDEST SWAP2 POP PUSH2 0x3589 DUP4 PUSH2 0x25E3 JUMP JUMPDEST SWAP3 POP DUP3 DUP3 ADD SWAP1 POP DUP1 DUP3 GT ISZERO PUSH2 0x35A1 JUMPI PUSH2 0x35A0 PUSH2 0x3547 JUMP JUMPDEST JUMPDEST SWAP3 SWAP2 POP POP JUMP JUMPDEST PUSH0 PUSH1 0x60 DUP3 ADD SWAP1 POP PUSH2 0x35BA PUSH0 DUP4 ADD DUP7 PUSH2 0x3190 JUMP JUMPDEST PUSH2 0x35C7 PUSH1 0x20 DUP4 ADD DUP6 PUSH2 0x25EC JUMP JUMPDEST DUP2 DUP2 SUB PUSH1 0x40 DUP4 ADD MSTORE PUSH2 0x35D9 DUP2 DUP5 PUSH2 0x2D9B JUMP JUMPDEST SWAP1 POP SWAP5 SWAP4 POP POP POP POP JUMP JUMPDEST PUSH32 0x4E487B7100000000000000000000000000000000000000000000000000000000 PUSH0 MSTORE PUSH1 0x32 PUSH1 0x4 MSTORE PUSH1 0x24 PUSH0 REVERT JUMPDEST PUSH0 PUSH1 0x60 DUP3 ADD SWAP1 POP PUSH2 0x3623 PUSH0 DUP4 ADD DUP7 PUSH2 0x3190 JUMP JUMPDEST PUSH2 0x3630 PUSH1 0x20 DUP4 ADD DUP6 PUSH2 0x3190 JUMP JUMPDEST PUSH2 0x363D PUSH1 0x40 DUP4 ADD DUP5 PUSH2 0x3190 JUMP JUMPDEST SWAP5 SWAP4 POP POP POP POP JUMP JUMPDEST PUSH0 DUP2 SWAP1 POP SWAP2 SWAP1 POP JUMP JUMPDEST PUSH0 DUP2 SWAP1 POP SWAP2 SWAP1 POP JUMP JUMPDEST PUSH0 PUSH2 0x3671 PUSH2 0x366C PUSH2 0x3667 DUP5 PUSH2 0x3645 JUMP JUMPDEST PUSH2 0x364E JUMP JUMPDEST PUSH2 0x2CF1 JUMP JUMPDEST SWAP1 POP SWAP2 SWAP1 POP JUMP JUMPDEST PUSH2 0x3681 DUP2 PUSH2 0x3657 JUMP JUMPDEST DUP3 MSTORE POP POP JUMP JUMPDEST PUSH0 PUSH1 0x60 DUP3 ADD SWAP1 POP PUSH2 0x369A PUSH0 DUP4 ADD DUP7 PUSH2 0x3190 JUMP JUMPDEST PUSH2 0x36A7 PUSH1 0x20 DUP4 ADD DUP6 PUSH2 0x3678 JUMP JUMPDEST DUP2 DUP2 SUB PUSH1 0x40 DUP4 ADD MSTORE PUSH2 0x36B9 DUP2 DUP5 PUSH2 0x2D9B JUMP JUMPDEST SWAP1 POP SWAP5 SWAP4 POP POP POP POP JUMP JUMPDEST PUSH0 DUP1 REVERT JUMPDEST PUSH0 DUP1 REVERT JUMPDEST PUSH0 DUP1 REVERT JUMPDEST PUSH0 DUP1 DUP4 CALLDATALOAD PUSH1 0x1 PUSH1 0x20 SUB DUP5 CALLDATASIZE SUB SUB DUP2 SLT PUSH2 0x36EB JUMPI PUSH2 0x36EA PUSH2 0x36C3 JUMP JUMPDEST JUMPDEST DUP1 DUP5 ADD SWAP3 POP DUP3 CALLDATALOAD SWAP2 POP PUSH8 0xFFFFFFFFFFFFFFFF DUP3 GT ISZERO PUSH2 0x370D JUMPI PUSH2 0x370C PUSH2 0x36C7 JUMP JUMPDEST JUMPDEST PUSH1 0x20 DUP4 ADD SWAP3 POP PUSH1 0x1 DUP3 MUL CALLDATASIZE SUB DUP4 SGT ISZERO PUSH2 0x3729 JUMPI PUSH2 0x3728 PUSH2 0x36CB JUMP JUMPDEST JUMPDEST POP SWAP3 POP SWAP3 SWAP1 POP JUMP JUMPDEST PUSH0 PUSH2 0x373D DUP3 DUP5 DUP7 PUSH2 0x343E JUMP JUMPDEST SWAP2 POP DUP2 SWAP1 POP SWAP4 SWAP3 POP POP POP JUMP JUMPDEST PUSH0 DUP2 SWAP1 POP PUSH1 0x20 DUP3 ADD SWAP1 POP SWAP2 SWAP1 POP JUMP JUMPDEST PUSH0 PUSH32 0xFFFFFFFFFFFFFFFFFFFFFFFFFFFFFFFFFFFFFFFF000000000000000000000000 DUP3 AND SWAP1 POP SWAP2 SWAP1 POP JUMP JUMPDEST PUSH0 PUSH2 0x378E DUP3 MLOAD PUSH2 0x3758 JUMP JUMPDEST DUP1 SWAP2 POP POP SWAP2 SWAP1 POP JUMP JUMPDEST PUSH0 DUP3 DUP3 SHL SWAP1 POP SWAP3 SWAP2 POP POP JUMP JUMPDEST PUSH0 PUSH2 0x37AD DUP3 PUSH2 0x2D83 JUMP JUMPDEST DUP3 PUSH2 0x37B7 DUP5 PUSH2 0x3749 JUMP JUMPDEST SWAP1 POP PUSH2 0x37C2 DUP2 PUSH2 0x3783 JUMP JUMPDEST SWAP3 POP PUSH1 0x14 DUP3 LT ISZERO PUSH2 0x3802 JUMPI PUSH2 0x37FD PUSH32 0xFFFFFFFFFFFFFFFFFFFFFFFFFFFFFFFFFFFFFFFF000000000000000000000000 DUP4 PUSH1 0x14 SUB PUSH1 0x8 MUL PUSH2 0x3797 JUMP JUMPDEST DUP4 AND SWAP3 POP JUMPDEST POP POP SWAP2 SWAP1 POP JUMP JUMPDEST PUSH32 0x4E487B7100000000000000000000000000000000000000000000000000000000 PUSH0 MSTORE PUSH1 0x22 PUSH1 0x4 MSTORE PUSH1 0x24 PUSH0 REVERT JUMPDEST PUSH0 PUSH1 0x2 DUP3 DIV SWAP1 POP PUSH1 0x1 DUP3 AND DUP1 PUSH2 0x384D JUMPI PUSH1 0x7F DUP3 AND SWAP2 POP JUMPDEST PUSH1 0x20 DUP3 LT DUP2 SUB PUSH2 0x3860 JUMPI PUSH2 0x385F PUSH2 0x3809 JUMP JUMPDEST JUMPDEST POP SWAP2 SWAP1 POP JUMP JUMPDEST PUSH0 PUSH1 0x80 DUP3 ADD SWAP1 POP PUSH2 0x3879 PUSH0 DUP4 ADD DUP8 PUSH2 0x3190 JUMP JUMPDEST PUSH2 0x3886 PUSH1 0x20 DUP4 ADD DUP7 PUSH2 0x25EC JUMP JUMPDEST PUSH2 0x3893 PUSH1 0x40 DUP4 ADD DUP6 PUSH2 0x3190 JUMP JUMPDEST PUSH2 0x38A0 PUSH1 0x60 DUP4 ADD DUP5 PUSH2 0x25EC JUMP JUMPDEST SWAP6 SWAP5 POP POP POP POP POP JUMP JUMPDEST PUSH0 PUSH2 0x38B3 DUP3 PUSH2 0x25E3 JUMP JUMPDEST SWAP2 POP PUSH2 0x38BE DUP4 PUSH2 0x25E3 JUMP JUMPDEST SWAP3 POP DUP3 DUP3 SUB SWAP1 POP DUP2 DUP2 GT ISZERO PUSH2 0x38D6 JUMPI PUSH2 0x38D5 PUSH2 0x3547 JUMP JUMPDEST JUMPDEST SWAP3 SWAP2 POP POP JUMP JUMPDEST PUSH0 PUSH1 0x60 DUP3 ADD SWAP1 POP PUSH2 0x38EF PUSH0 DUP4 ADD DUP7 PUSH2 0x25EC JUMP JUMPDEST PUSH2 0x38FC PUSH1 0x20 DUP4 ADD DUP6 PUSH2 0x3190 JUMP JUMPDEST PUSH2 0x3909 PUSH1 0x40 DUP4 ADD DUP5 PUSH2 0x25EC JUMP JUMPDEST SWAP5 SWAP4 POP POP POP POP JUMP JUMPDEST PUSH0 PUSH1 0x60 DUP3 ADD SWAP1 POP PUSH2 0x3924 PUSH0 DUP4 ADD DUP7 PUSH2 0x25EC JUMP JUMPDEST PUSH2 0x3931 PUSH1 0x20 DUP4 ADD DUP6 PUSH2 0x25BB JUMP JUMPDEST DUP2 DUP2 SUB PUSH1 0x40 DUP4 ADD MSTORE PUSH2 0x3943 DUP2 DUP5 PUSH2 0x2D9B JUMP JUMPDEST SWAP1 POP SWAP5 SWAP4 POP POP POP POP JUMP JUMPDEST PUSH0 PUSH1 0xA0 DUP3 ADD SWAP1 POP PUSH2 0x3960 PUSH0 DUP4 ADD DUP9 PUSH2 0x3190 JUMP JUMPDEST PUSH2 0x396D PUSH1 0x20 DUP4 ADD DUP8 PUSH2 0x3190 JUMP JUMPDEST PUSH2 0x397A PUSH1 0x40 DUP4 ADD DUP7 PUSH2 0x3190 JUMP JUMPDEST PUSH2 0x3987 PUSH1 0x60 DUP4 ADD DUP6 PUSH2 0x25EC JUMP JUMPDEST DUP2 DUP2 SUB PUSH1 0x80 DUP4 ADD MSTORE PUSH2 0x3999 DUP2 DUP5 PUSH2 0x2D9B JUMP JUMPDEST SWAP1 POP SWAP7 SWAP6 POP POP POP POP POP POP JUMP JUMPDEST PUSH0 DUP3 DUP3 MSTORE PUSH1 0x20 DUP3 ADD SWAP1 POP SWAP3 SWAP2 POP POP JUMP JUMPDEST PUSH32 0x4C5350385265666572656E6365436F6E74726163744E6F744564697461626C65 PUSH0 DUP3 ADD MSTORE POP JUMP JUMPDEST PUSH0 PUSH2 0x39E9 PUSH1 0x20 DUP4 PUSH2 0x39A5 JUMP JUMPDEST SWAP2 POP PUSH2 0x39F4 DUP3 PUSH2 0x39B5 JUMP JUMPDEST PUSH1 0x20 DUP3 ADD SWAP1 POP SWAP2 SWAP1 POP JUMP JUMPDEST PUSH0 PUSH1 0x20 DUP3 ADD SWAP1 POP DUP2 DUP2 SUB PUSH0 DUP4 ADD MSTORE PUSH2 0x3A16 DUP2 PUSH2 0x39DD JUMP JUMPDEST SWAP1 POP SWAP2 SWAP1 POP JUMP JUMPDEST PUSH0 PUSH32 0xFFFFFFFFFFFFFFFFFFFF00000000000000000000000000000000000000000000 DUP3 AND SWAP1 POP SWAP2 SWAP1 POP JUMP JUMPDEST PUSH0 DUP2 SWAP1 POP SWAP2 SWAP1 POP JUMP JUMPDEST PUSH2 0x3A62 PUSH2 0x3A5D DUP3 PUSH2 0x3A1D JUMP JUMPDEST PUSH2 0x3A48 JUMP JUMPDEST DUP3 MSTORE POP POP JUMP JUMPDEST PUSH0 PUSH32 0xFFFF000000000000000000000000000000000000000000000000000000000000 DUP3 AND SWAP1 POP SWAP2 SWAP1 POP JUMP JUMPDEST PUSH0 DUP2 SWAP1 POP SWAP2 SWAP1 POP JUMP JUMPDEST PUSH2 0x3AAD PUSH2 0x3AA8 DUP3 PUSH2 0x3A68 JUMP JUMPDEST PUSH2 0x3A93 JUMP JUMPDEST DUP3 MSTORE POP POP JUMP JUMPDEST PUSH0 DUP2 SWAP1 POP SWAP2 SWAP1 POP JUMP JUMPDEST PUSH2 0x3ACD PUSH2 0x3AC8 DUP3 PUSH2 0x3758 JUMP JUMPDEST PUSH2 0x3AB3 JUMP JUMPDEST DUP3 MSTORE POP POP JUMP JUMPDEST PUSH0 PUSH2 0x3ADE DUP3 DUP7 PUSH2 0x3A51 JUMP JUMPDEST PUSH1 0xA DUP3 ADD SWAP2 POP PUSH2 0x3AEE DUP3 DUP6 PUSH2 0x3A9C JUMP JUMPDEST PUSH1 0x2 DUP3 ADD SWAP2 POP PUSH2 0x3AFE DUP3 DUP5 PUSH2 0x3ABC JUMP JUMPDEST PUSH1 0x14 DUP3 ADD SWAP2 POP DUP2 SWAP1 POP SWAP5 SWAP4 POP POP POP POP JUMP JUMPDEST PUSH0 PUSH2 0x3B1A DUP3 MLOAD PUSH2 0x2D25 JUMP JUMPDEST DUP1 SWAP2 POP POP SWAP2 SWAP1 POP JUMP JUMPDEST PUSH0 PUSH2 0x3B2D DUP3 PUSH2 0x2D83 JUMP JUMPDEST DUP3 PUSH2 0x3B37 DUP5 PUSH2 0x3749 JUMP JUMPDEST SWAP1 POP PUSH2 0x3B42 DUP2 PUSH2 0x3B0F JUMP JUMPDEST SWAP3 POP PUSH1 0x20 DUP3 LT ISZERO PUSH2 0x3B82 JUMPI PUSH2 0x3B7D PUSH32 0xFFFFFFFFFFFFFFFFFFFFFFFFFFFFFFFFFFFFFFFFFFFFFFFFFFFFFFFFFFFFFFFF DUP4 PUSH1 0x20 SUB PUSH1 0x8 MUL PUSH2 0x3797 JUMP JUMPDEST DUP4 AND SWAP3 POP JUMPDEST POP POP SWAP2 SWAP1 POP JUMP JUMPDEST PUSH2 0x3B92 DUP2 PUSH2 0x2D25 JUMP JUMPDEST DUP3 MSTORE POP POP JUMP JUMPDEST PUSH0 PUSH1 0x40 DUP3 ADD SWAP1 POP PUSH2 0x3BAB PUSH0 DUP4 ADD DUP6 PUSH2 0x3B89 JUMP JUMPDEST DUP2 DUP2 SUB PUSH1 0x20 DUP4 ADD MSTORE PUSH2 0x3BBD DUP2 DUP5 PUSH2 0x2D9B JUMP JUMPDEST SWAP1 POP SWAP4 SWAP3 POP POP POP JUMP JUMPDEST PUSH0 PUSH2 0x3BD8 PUSH2 0x3BD3 DUP5 PUSH2 0x2718 JUMP JUMPDEST PUSH2 0x26FE JUMP JUMPDEST SWAP1 POP DUP3 DUP2 MSTORE PUSH1 0x20 DUP2 ADD DUP5 DUP5 DUP5 ADD GT ISZERO PUSH2 0x3BF4 JUMPI PUSH2 0x3BF3 PUSH2 0x269C JUMP JUMPDEST JUMPDEST PUSH2 0x3BFF DUP5 DUP3 DUP6 PUSH2 0x2D8D JUMP JUMPDEST POP SWAP4 SWAP3 POP POP POP JUMP JUMPDEST PUSH0 DUP3 PUSH1 0x1F DUP4 ADD SLT PUSH2 0x3C1B JUMPI PUSH2 0x3C1A PUSH2 0x2698 JUMP JUMPDEST JUMPDEST DUP2 MLOAD PUSH2 0x3C2B DUP5 DUP3 PUSH1 0x20 DUP7 ADD PUSH2 0x3BC6 JUMP JUMPDEST SWAP2 POP POP SWAP3 SWAP2 POP POP JUMP JUMPDEST PUSH0 PUSH1 0x20 DUP3 DUP5 SUB SLT ISZERO PUSH2 0x3C49 JUMPI PUSH2 0x3C48 PUSH2 0x2528 JUMP JUMPDEST JUMPDEST PUSH0 DUP3 ADD MLOAD PUSH8 0xFFFFFFFFFFFFFFFF DUP2 GT ISZERO PUSH2 0x3C66 JUMPI PUSH2 0x3C65 PUSH2 0x252C JUMP JUMPDEST JUMPDEST PUSH2 0x3C72 DUP5 DUP3 DUP6 ADD PUSH2 0x3C07 JUMP JUMPDEST SWAP2 POP POP SWAP3 SWAP2 POP POP JUMP JUMPDEST PUSH32 0x4E487B7100000000000000000000000000000000000000000000000000000000 PUSH0 MSTORE PUSH1 0x31 PUSH1 0x4 MSTORE PUSH1 0x24 PUSH0 REVERT JUMPDEST PUSH0 DUP2 SWAP1 POP DUP2 PUSH0 MSTORE PUSH1 0x20 PUSH0 KECCAK256 SWAP1 POP SWAP2 SWAP1 POP JUMP JUMPDEST PUSH0 PUSH1 0x20 PUSH1 0x1F DUP4 ADD DIV SWAP1 POP SWAP2 SWAP1 POP JUMP JUMPDEST PUSH0 PUSH1 0x8 DUP4 MUL PUSH2 0x3CF8 PUSH32 0xFFFFFFFFFFFFFFFFFFFFFFFFFFFFFFFFFFFFFFFFFFFFFFFFFFFFFFFFFFFFFFFF DUP3 PUSH2 0x3797 JUMP JUMPDEST PUSH2 0x3D02 DUP7 DUP4 PUSH2 0x3797 JUMP JUMPDEST SWAP6 POP DUP1 NOT DUP5 AND SWAP4 POP DUP1 DUP7 AND DUP5 OR SWAP3 POP POP POP SWAP4 SWAP3 POP POP POP JUMP JUMPDEST PUSH0 PUSH2 0x3D34 PUSH2 0x3D2F PUSH2 0x3D2A DUP5 PUSH2 0x25E3 JUMP JUMPDEST PUSH2 0x364E JUMP JUMPDEST PUSH2 0x25E3 JUMP JUMPDEST SWAP1 POP SWAP2 SWAP1 POP JUMP JUMPDEST PUSH0 DUP2 SWAP1 POP SWAP2 SWAP1 POP JUMP JUMPDEST PUSH2 0x3D4D DUP4 PUSH2 0x3D1A JUMP JUMPDEST PUSH2 0x3D61 PUSH2 0x3D59 DUP3 PUSH2 0x3D3B JUMP JUMPDEST DUP5 DUP5 SLOAD PUSH2 0x3CC9 JUMP JUMPDEST DUP3 SSTORE POP POP POP POP JUMP JUMPDEST PUSH0 SWAP1 JUMP JUMPDEST PUSH2 0x3D75 PUSH2 0x3D69 JUMP JUMPDEST PUSH2 0x3D80 DUP2 DUP5 DUP5 PUSH2 0x3D44 JUMP JUMPDEST POP POP POP JUMP JUMPDEST JUMPDEST DUP2 DUP2 LT ISZERO PUSH2 0x3DA3 JUMPI PUSH2 0x3D98 PUSH0 DUP3 PUSH2 0x3D6D JUMP JUMPDEST PUSH1 0x1 DUP2 ADD SWAP1 POP PUSH2 0x3D86 JUMP JUMPDEST POP POP JUMP JUMPDEST PUSH1 0x1F DUP3 GT ISZERO PUSH2 0x3DE8 JUMPI PUSH2 0x3DB9 DUP2 PUSH2 0x3CA8 JUMP JUMPDEST PUSH2 0x3DC2 DUP5 PUSH2 0x3CBA JUMP JUMPDEST DUP2 ADD PUSH1 0x20 DUP6 LT ISZERO PUSH2 0x3DD1 JUMPI DUP2 SWAP1 POP JUMPDEST PUSH2 0x3DE5 PUSH2 0x3DDD DUP6 PUSH2 0x3CBA JUMP JUMPDEST DUP4 ADD DUP3 PUSH2 0x3D85 JUMP JUMPDEST POP POP JUMPDEST POP POP POP JUMP JUMPDEST PUSH0 DUP3 DUP3 SHR SWAP1 POP SWAP3 SWAP2 POP POP JUMP JUMPDEST PUSH0 PUSH2 0x3E08 PUSH0 NOT DUP5 PUSH1 0x8 MUL PUSH2 0x3DED JUMP JUMPDEST NOT DUP1 DUP4 AND SWAP2 POP POP SWAP3 SWAP2 POP POP JUMP JUMPDEST PUSH0 PUSH2 0x3E20 DUP4 DUP4 PUSH2 0x3DF9 JUMP JUMPDEST SWAP2 POP DUP3 PUSH1 0x2 MUL DUP3 OR SWAP1 POP SWAP3 SWAP2 POP POP JUMP JUMPDEST PUSH2 0x3E39 DUP3 PUSH2 0x2D83 JUMP JUMPDEST PUSH8 0xFFFFFFFFFFFFFFFF DUP2 GT ISZERO PUSH2 0x3E52 JUMPI PUSH2 0x3E51 PUSH2 0x26A0 JUMP JUMPDEST JUMPDEST PUSH2 0x3E5C DUP3 SLOAD PUSH2 0x3836 JUMP JUMPDEST PUSH2 0x3E67 DUP3 DUP3 DUP6 PUSH2 0x3DA7 JUMP JUMPDEST PUSH0 PUSH1 0x20 SWAP1 POP PUSH1 0x1F DUP4 GT PUSH1 0x1 DUP2 EQ PUSH2 0x3E98 JUMPI PUSH0 DUP5 ISZERO PUSH2 0x3E86 JUMPI DUP3 DUP8 ADD MLOAD SWAP1 POP JUMPDEST PUSH2 0x3E90 DUP6 DUP3 PUSH2 0x3E15 JUMP JUMPDEST DUP7 SSTORE POP PUSH2 0x3EF7 JUMP JUMPDEST PUSH1 0x1F NOT DUP5 AND PUSH2 0x3EA6 DUP7 PUSH2 0x3CA8 JUMP JUMPDEST PUSH0 JUMPDEST DUP3 DUP2 LT ISZERO PUSH2 0x3ECD JUMPI DUP5 DUP10 ADD MLOAD DUP3 SSTORE PUSH1 0x1 DUP3 ADD SWAP2 POP PUSH1 0x20 DUP6 ADD SWAP5 POP PUSH1 0x20 DUP2 ADD SWAP1 POP PUSH2 0x3EA8 JUMP JUMPDEST DUP7 DUP4 LT ISZERO PUSH2 0x3EEA JUMPI DUP5 DUP10 ADD MLOAD PUSH2 0x3EE6 PUSH1 0x1F DUP10 AND DUP3 PUSH2 0x3DF9 JUMP JUMPDEST DUP4 SSTORE POP JUMPDEST PUSH1 0x1 PUSH1 0x2 DUP9 MUL ADD DUP9 SSTORE POP POP POP JUMPDEST POP POP POP POP POP POP JUMP INVALID LOG2 PUSH5 0x6970667358 0x22 SLT KECCAK256 DUP7 ADDRESS 0xD5 0xBE SWAP3 DUP15 TSTORE ADD PUSH12 0x6B0A214379BC2E4EB59F787C ORIGIN 0x26 0xEC 0xB8 ISZERO SWAP9 DUP15 CALLDATASIZE XOR MLOAD 0xCF PUSH5 0x736F6C6343 STOP ADDMOD NOT STOP CALLER "
		},
		"gasEstimates": {
			"creation": {
				"codeDepositCost": "3236200",
				"executionCost": "infinite",
				"totalCost": "infinite"
			},
			"external": {
				"": "infinite",
				"authorizeOperator(address,uint256,bytes)": "infinite",
				"authorizedAmountFor(address,address)": "infinite",
				"balanceOf(address)": "2940",
				"batchCalls(bytes[])": "infinite",
				"decimals()": "2524",
				"decreaseAllowance(address,address,uint256,bytes)": "infinite",
				"getData(bytes32)": "infinite",
				"getDataBatch(bytes32[])": "infinite",
				"getOperatorsOf(address)": "infinite",
				"increaseAllowance(address,uint256,bytes)": "infinite",
				"owner()": "2626",
				"renounceOwnership()": "infinite",
				"revokeOperator(address,address,bool,bytes)": "infinite",
				"setData(bytes32,bytes)": "infinite",
				"setDataBatch(bytes32[],bytes[])": "infinite",
				"supportsInterface(bytes4)": "infinite",
				"totalSupply()": "2478",
				"transfer(address,address,uint256,bool,bytes)": "infinite",
				"transferBatch(address[],address[],uint256[],bool[],bytes[])": "infinite",
				"transferOwnership(address)": "infinite"
			},
			"internal": {
				"_setData(bytes32,bytes memory)": "infinite"
			}
		},
		"methodIdentifiers": {
			"authorizeOperator(address,uint256,bytes)": "b49506fd",
			"authorizedAmountFor(address,address)": "65aeaa95",
			"balanceOf(address)": "70a08231",
			"batchCalls(bytes[])": "6963d438",
			"decimals()": "313ce567",
			"decreaseAllowance(address,address,uint256,bytes)": "78381670",
			"getData(bytes32)": "54f6127f",
			"getDataBatch(bytes32[])": "dedff9c6",
			"getOperatorsOf(address)": "d72fc29a",
			"increaseAllowance(address,uint256,bytes)": "2bc1da82",
			"owner()": "8da5cb5b",
			"renounceOwnership()": "715018a6",
			"revokeOperator(address,address,bool,bytes)": "30d0dc37",
			"setData(bytes32,bytes)": "7f23690c",
			"setDataBatch(bytes32[],bytes[])": "97902421",
			"supportsInterface(bytes4)": "01ffc9a7",
			"totalSupply()": "18160ddd",
			"transfer(address,address,uint256,bool,bytes)": "760d9bba",
			"transferBatch(address[],address[],uint256[],bool[],bytes[])": "2d7667c9",
			"transferOwnership(address)": "f2fde38b"
		}
	},
	"abi": [
		{
			"inputs": [
				{
					"internalType": "string",
					"name": "name_",
					"type": "string"
				},
				{
					"internalType": "string",
					"name": "symbol_",
					"type": "string"
				},
				{
					"internalType": "address",
					"name": "newOwner_",
					"type": "address"
				},
				{
					"internalType": "address",
					"name": "receiverOfInitialTokens_",
					"type": "address"
				},
				{
					"internalType": "uint256",
					"name": "lsp4TokenType_",
					"type": "uint256"
				},
				{
					"internalType": "bool",
					"name": "isNonDivisible_",
					"type": "bool"
				},
				{
					"internalType": "uint256",
					"name": "totalSupply_",
					"type": "uint256"
				},
				{
					"internalType": "bytes",
					"name": "lsp4MetadataURI_",
					"type": "bytes"
				}
			],
			"stateMutability": "nonpayable",
			"type": "constructor"
		},
		{
			"inputs": [],
			"name": "ERC725Y_DataKeysValuesEmptyArray",
			"type": "error"
		},
		{
			"inputs": [],
			"name": "ERC725Y_DataKeysValuesLengthMismatch",
			"type": "error"
		},
		{
			"inputs": [],
			"name": "ERC725Y_MsgValueDisallowed",
			"type": "error"
		},
		{
			"inputs": [
				{
					"internalType": "bytes",
					"name": "storedData",
					"type": "bytes"
				}
			],
			"name": "InvalidExtensionAddress",
			"type": "error"
		},
		{
			"inputs": [
				{
					"internalType": "bytes",
					"name": "data",
					"type": "bytes"
				}
			],
			"name": "InvalidFunctionSelector",
			"type": "error"
		},
		{
			"inputs": [],
			"name": "LSP4TokenNameNotEditable",
			"type": "error"
		},
		{
			"inputs": [],
			"name": "LSP4TokenSymbolNotEditable",
			"type": "error"
		},
		{
			"inputs": [],
			"name": "LSP4TokenTypeNotEditable",
			"type": "error"
		},
		{
			"inputs": [
				{
					"internalType": "address",
					"name": "tokenOwner",
					"type": "address"
				},
				{
					"internalType": "uint256",
					"name": "authorizedAmount",
					"type": "uint256"
				},
				{
					"internalType": "address",
					"name": "operator",
					"type": "address"
				},
				{
					"internalType": "uint256",
					"name": "amount",
					"type": "uint256"
				}
			],
			"name": "LSP7AmountExceedsAuthorizedAmount",
			"type": "error"
		},
		{
			"inputs": [
				{
					"internalType": "uint256",
					"name": "balance",
					"type": "uint256"
				},
				{
					"internalType": "address",
					"name": "tokenOwner",
					"type": "address"
				},
				{
					"internalType": "uint256",
					"name": "amount",
					"type": "uint256"
				}
			],
			"name": "LSP7AmountExceedsBalance",
			"type": "error"
		},
		{
			"inputs": [
				{
					"internalType": "uint256",
					"name": "callIndex",
					"type": "uint256"
				}
			],
			"name": "LSP7BatchCallFailed",
			"type": "error"
		},
		{
			"inputs": [],
			"name": "LSP7CannotSendWithAddressZero",
			"type": "error"
		},
		{
			"inputs": [],
			"name": "LSP7CannotUseAddressZeroAsOperator",
			"type": "error"
		},
		{
			"inputs": [
				{
					"internalType": "address",
					"name": "caller",
					"type": "address"
				},
				{
					"internalType": "address",
					"name": "tokenOwner",
					"type": "address"
				},
				{
					"internalType": "address",
					"name": "operator",
					"type": "address"
				}
			],
			"name": "LSP7DecreaseAllowanceNotAuthorized",
			"type": "error"
		},
		{
			"inputs": [],
			"name": "LSP7DecreasedAllowanceBelowZero",
			"type": "error"
		},
		{
			"inputs": [],
			"name": "LSP7InvalidTransferBatch",
			"type": "error"
		},
		{
			"inputs": [
				{
					"internalType": "address",
					"name": "tokenReceiver",
					"type": "address"
				}
			],
			"name": "LSP7NotifyTokenReceiverContractMissingLSP1Interface",
			"type": "error"
		},
		{
			"inputs": [
				{
					"internalType": "address",
					"name": "tokenReceiver",
					"type": "address"
				}
			],
			"name": "LSP7NotifyTokenReceiverIsEOA",
			"type": "error"
		},
		{
			"inputs": [
				{
					"internalType": "address",
					"name": "caller",
					"type": "address"
				},
				{
					"internalType": "address",
					"name": "tokenOwner",
					"type": "address"
				},
				{
					"internalType": "address",
					"name": "operator",
					"type": "address"
				}
			],
			"name": "LSP7RevokeOperatorNotAuthorized",
			"type": "error"
		},
		{
			"inputs": [],
			"name": "LSP7TokenContractCannotHoldValue",
			"type": "error"
		},
		{
			"inputs": [],
			"name": "LSP7TokenOwnerCannotBeOperator",
			"type": "error"
		},
		{
			"inputs": [
				{
					"internalType": "bytes4",
					"name": "functionSelector",
					"type": "bytes4"
				}
			],
			"name": "NoExtensionFoundForFunctionSelector",
			"type": "error"
		},
		{
			"inputs": [
				{
					"internalType": "address",
					"name": "operator",
					"type": "address"
				}
			],
			"name": "OperatorAllowanceCannotBeIncreasedFromZero",
			"type": "error"
		},
		{
			"inputs": [
				{
					"internalType": "address",
					"name": "callerAddress",
					"type": "address"
				}
			],
			"name": "OwnableCallerNotTheOwner",
			"type": "error"
		},
		{
			"inputs": [],
			"name": "OwnableCannotSetZeroAddressAsOwner",
			"type": "error"
		},
		{
			"anonymous": false,
			"inputs": [
				{
					"indexed": true,
					"internalType": "bytes32",
					"name": "dataKey",
					"type": "bytes32"
				},
				{
					"indexed": false,
					"internalType": "bytes",
					"name": "dataValue",
					"type": "bytes"
				}
			],
			"name": "DataChanged",
			"type": "event"
		},
		{
			"anonymous": false,
			"inputs": [
				{
					"indexed": true,
					"internalType": "address",
					"name": "operator",
					"type": "address"
				},
				{
					"indexed": true,
					"internalType": "address",
					"name": "tokenOwner",
					"type": "address"
				},
				{
					"indexed": true,
					"internalType": "uint256",
					"name": "amount",
					"type": "uint256"
				},
				{
					"indexed": false,
					"internalType": "bytes",
					"name": "operatorNotificationData",
					"type": "bytes"
				}
			],
			"name": "OperatorAuthorizationChanged",
			"type": "event"
		},
		{
			"anonymous": false,
			"inputs": [
				{
					"indexed": true,
					"internalType": "address",
					"name": "operator",
					"type": "address"
				},
				{
					"indexed": true,
					"internalType": "address",
					"name": "tokenOwner",
					"type": "address"
				},
				{
					"indexed": true,
					"internalType": "bool",
					"name": "notified",
					"type": "bool"
				},
				{
					"indexed": false,
					"internalType": "bytes",
					"name": "operatorNotificationData",
					"type": "bytes"
				}
			],
			"name": "OperatorRevoked",
			"type": "event"
		},
		{
			"anonymous": false,
			"inputs": [
				{
					"indexed": true,
					"internalType": "address",
					"name": "previousOwner",
					"type": "address"
				},
				{
					"indexed": true,
					"internalType": "address",
					"name": "newOwner",
					"type": "address"
				}
			],
			"name": "OwnershipTransferred",
			"type": "event"
		},
		{
			"anonymous": false,
			"inputs": [
				{
					"indexed": true,
					"internalType": "address",
					"name": "operator",
					"type": "address"
				},
				{
					"indexed": true,
					"internalType": "address",
					"name": "from",
					"type": "address"
				},
				{
					"indexed": true,
					"internalType": "address",
					"name": "to",
					"type": "address"
				},
				{
					"indexed": false,
					"internalType": "uint256",
					"name": "amount",
					"type": "uint256"
				},
				{
					"indexed": false,
					"internalType": "bool",
					"name": "force",
					"type": "bool"
				},
				{
					"indexed": false,
					"internalType": "bytes",
					"name": "data",
					"type": "bytes"
				}
			],
			"name": "Transfer",
			"type": "event"
		},
		{
			"stateMutability": "payable",
			"type": "fallback"
		},
		{
			"inputs": [
				{
					"internalType": "address",
					"name": "operator",
					"type": "address"
				},
				{
					"internalType": "uint256",
					"name": "amount",
					"type": "uint256"
				},
				{
					"internalType": "bytes",
					"name": "operatorNotificationData",
					"type": "bytes"
				}
			],
			"name": "authorizeOperator",
			"outputs": [],
			"stateMutability": "nonpayable",
			"type": "function"
		},
		{
			"inputs": [
				{
					"internalType": "address",
					"name": "operator",
					"type": "address"
				},
				{
					"internalType": "address",
					"name": "tokenOwner",
					"type": "address"
				}
			],
			"name": "authorizedAmountFor",
			"outputs": [
				{
					"internalType": "uint256",
					"name": "",
					"type": "uint256"
				}
			],
			"stateMutability": "view",
			"type": "function"
		},
		{
			"inputs": [
				{
					"internalType": "address",
					"name": "tokenOwner",
					"type": "address"
				}
			],
			"name": "balanceOf",
			"outputs": [
				{
					"internalType": "uint256",
					"name": "",
					"type": "uint256"
				}
			],
			"stateMutability": "view",
			"type": "function"
		},
		{
			"inputs": [
				{
					"internalType": "bytes[]",
					"name": "data",
					"type": "bytes[]"
				}
			],
			"name": "batchCalls",
			"outputs": [
				{
					"internalType": "bytes[]",
					"name": "results",
					"type": "bytes[]"
				}
			],
			"stateMutability": "nonpayable",
			"type": "function"
		},
		{
			"inputs": [],
			"name": "decimals",
			"outputs": [
				{
					"internalType": "uint8",
					"name": "",
					"type": "uint8"
				}
			],
			"stateMutability": "view",
			"type": "function"
		},
		{
			"inputs": [
				{
					"internalType": "address",
					"name": "operator",
					"type": "address"
				},
				{
					"internalType": "address",
					"name": "tokenOwner",
					"type": "address"
				},
				{
					"internalType": "uint256",
					"name": "subtractedAmount",
					"type": "uint256"
				},
				{
					"internalType": "bytes",
					"name": "operatorNotificationData",
					"type": "bytes"
				}
			],
			"name": "decreaseAllowance",
			"outputs": [],
			"stateMutability": "nonpayable",
			"type": "function"
		},
		{
			"inputs": [
				{
					"internalType": "bytes32",
					"name": "dataKey",
					"type": "bytes32"
				}
			],
			"name": "getData",
			"outputs": [
				{
					"internalType": "bytes",
					"name": "dataValue",
					"type": "bytes"
				}
			],
			"stateMutability": "view",
			"type": "function"
		},
		{
			"inputs": [
				{
					"internalType": "bytes32[]",
					"name": "dataKeys",
					"type": "bytes32[]"
				}
			],
			"name": "getDataBatch",
			"outputs": [
				{
					"internalType": "bytes[]",
					"name": "dataValues",
					"type": "bytes[]"
				}
			],
			"stateMutability": "view",
			"type": "function"
		},
		{
			"inputs": [
				{
					"internalType": "address",
					"name": "tokenOwner",
					"type": "address"
				}
			],
			"name": "getOperatorsOf",
			"outputs": [
				{
					"internalType": "address[]",
					"name": "",
					"type": "address[]"
				}
			],
			"stateMutability": "view",
			"type": "function"
		},
		{
			"inputs": [
				{
					"internalType": "address",
					"name": "operator",
					"type": "address"
				},
				{
					"internalType": "uint256",
					"name": "addedAmount",
					"type": "uint256"
				},
				{
					"internalType": "bytes",
					"name": "operatorNotificationData",
					"type": "bytes"
				}
			],
			"name": "increaseAllowance",
			"outputs": [],
			"stateMutability": "nonpayable",
			"type": "function"
		},
		{
			"inputs": [],
			"name": "owner",
			"outputs": [
				{
					"internalType": "address",
					"name": "",
					"type": "address"
				}
			],
			"stateMutability": "view",
			"type": "function"
		},
		{
			"inputs": [],
			"name": "renounceOwnership",
			"outputs": [],
			"stateMutability": "nonpayable",
			"type": "function"
		},
		{
			"inputs": [
				{
					"internalType": "address",
					"name": "operator",
					"type": "address"
				},
				{
					"internalType": "address",
					"name": "tokenOwner",
					"type": "address"
				},
				{
					"internalType": "bool",
					"name": "notify",
					"type": "bool"
				},
				{
					"internalType": "bytes",
					"name": "operatorNotificationData",
					"type": "bytes"
				}
			],
			"name": "revokeOperator",
			"outputs": [],
			"stateMutability": "nonpayable",
			"type": "function"
		},
		{
			"inputs": [
				{
					"internalType": "bytes32",
					"name": "dataKey",
					"type": "bytes32"
				},
				{
					"internalType": "bytes",
					"name": "dataValue",
					"type": "bytes"
				}
			],
			"name": "setData",
			"outputs": [],
			"stateMutability": "payable",
			"type": "function"
		},
		{
			"inputs": [
				{
					"internalType": "bytes32[]",
					"name": "dataKeys",
					"type": "bytes32[]"
				},
				{
					"internalType": "bytes[]",
					"name": "dataValues",
					"type": "bytes[]"
				}
			],
			"name": "setDataBatch",
			"outputs": [],
			"stateMutability": "payable",
			"type": "function"
		},
		{
			"inputs": [
				{
					"internalType": "bytes4",
					"name": "interfaceId",
					"type": "bytes4"
				}
			],
			"name": "supportsInterface",
			"outputs": [
				{
					"internalType": "bool",
					"name": "",
					"type": "bool"
				}
			],
			"stateMutability": "view",
			"type": "function"
		},
		{
			"inputs": [],
			"name": "totalSupply",
			"outputs": [
				{
					"internalType": "uint256",
					"name": "",
					"type": "uint256"
				}
			],
			"stateMutability": "view",
			"type": "function"
		},
		{
			"inputs": [
				{
					"internalType": "address",
					"name": "from",
					"type": "address"
				},
				{
					"internalType": "address",
					"name": "to",
					"type": "address"
				},
				{
					"internalType": "uint256",
					"name": "amount",
					"type": "uint256"
				},
				{
					"internalType": "bool",
					"name": "force",
					"type": "bool"
				},
				{
					"internalType": "bytes",
					"name": "data",
					"type": "bytes"
				}
			],
			"name": "transfer",
			"outputs": [],
			"stateMutability": "nonpayable",
			"type": "function"
		},
		{
			"inputs": [
				{
					"internalType": "address[]",
					"name": "from",
					"type": "address[]"
				},
				{
					"internalType": "address[]",
					"name": "to",
					"type": "address[]"
				},
				{
					"internalType": "uint256[]",
					"name": "amount",
					"type": "uint256[]"
				},
				{
					"internalType": "bool[]",
					"name": "force",
					"type": "bool[]"
				},
				{
					"internalType": "bytes[]",
					"name": "data",
					"type": "bytes[]"
				}
			],
			"name": "transferBatch",
			"outputs": [],
			"stateMutability": "nonpayable",
			"type": "function"
		},
		{
			"inputs": [
				{
					"internalType": "address",
					"name": "newOwner",
					"type": "address"
				}
			],
			"name": "transferOwnership",
			"outputs": [],
			"stateMutability": "nonpayable",
			"type": "function"
		},
		{
			"stateMutability": "payable",
			"type": "receive"
		}
	]
}